{
  "contractName": "Paru721V2",
  "abi": [
    {
      "anonymous": false,
      "inputs": [
        {
          "indexed": true,
          "internalType": "address",
          "name": "owner",
          "type": "address"
        },
        {
          "indexed": true,
          "internalType": "address",
          "name": "approved",
          "type": "address"
        },
        {
          "indexed": true,
          "internalType": "uint256",
          "name": "tokenId",
          "type": "uint256"
        }
      ],
      "name": "Approval",
      "type": "event"
    },
    {
      "anonymous": false,
      "inputs": [
        {
          "indexed": true,
          "internalType": "address",
          "name": "owner",
          "type": "address"
        },
        {
          "indexed": true,
          "internalType": "address",
          "name": "operator",
          "type": "address"
        },
        {
          "indexed": false,
          "internalType": "bool",
          "name": "approved",
          "type": "bool"
        }
      ],
      "name": "ApprovalForAll",
      "type": "event"
    },
    {
      "anonymous": false,
      "inputs": [
        {
          "indexed": false,
          "internalType": "address",
          "name": "account",
          "type": "address"
        }
      ],
      "name": "Paused",
      "type": "event"
    },
    {
      "anonymous": false,
      "inputs": [
        {
          "indexed": true,
          "internalType": "bytes32",
          "name": "role",
          "type": "bytes32"
        },
        {
          "indexed": true,
          "internalType": "bytes32",
          "name": "previousAdminRole",
          "type": "bytes32"
        },
        {
          "indexed": true,
          "internalType": "bytes32",
          "name": "newAdminRole",
          "type": "bytes32"
        }
      ],
      "name": "RoleAdminChanged",
      "type": "event"
    },
    {
      "anonymous": false,
      "inputs": [
        {
          "indexed": true,
          "internalType": "bytes32",
          "name": "role",
          "type": "bytes32"
        },
        {
          "indexed": true,
          "internalType": "address",
          "name": "account",
          "type": "address"
        },
        {
          "indexed": true,
          "internalType": "address",
          "name": "sender",
          "type": "address"
        }
      ],
      "name": "RoleGranted",
      "type": "event"
    },
    {
      "anonymous": false,
      "inputs": [
        {
          "indexed": true,
          "internalType": "bytes32",
          "name": "role",
          "type": "bytes32"
        },
        {
          "indexed": true,
          "internalType": "address",
          "name": "account",
          "type": "address"
        },
        {
          "indexed": true,
          "internalType": "address",
          "name": "sender",
          "type": "address"
        }
      ],
      "name": "RoleRevoked",
      "type": "event"
    },
    {
      "anonymous": false,
      "inputs": [
        {
          "indexed": false,
          "internalType": "uint256",
          "name": "tokenId",
          "type": "uint256"
        },
        {
          "indexed": false,
          "internalType": "address",
          "name": "owner",
          "type": "address"
        }
      ],
      "name": "RoyaltyOwnerSet",
      "type": "event"
    },
    {
      "anonymous": false,
      "inputs": [
        {
          "indexed": false,
          "internalType": "uint256",
          "name": "tokenId",
          "type": "uint256"
        },
        {
          "components": [
            {
              "internalType": "address payable",
              "name": "account",
              "type": "address"
            },
            {
              "internalType": "uint96",
              "name": "value",
              "type": "uint96"
            }
          ],
          "indexed": false,
          "internalType": "struct LibPart.Part[]",
          "name": "royalty",
          "type": "tuple[]"
        }
      ],
      "name": "RoyaltySet",
      "type": "event"
    },
    {
      "anonymous": false,
      "inputs": [
        {
          "indexed": true,
          "internalType": "address",
          "name": "from",
          "type": "address"
        },
        {
          "indexed": true,
          "internalType": "address",
          "name": "to",
          "type": "address"
        },
        {
          "indexed": true,
          "internalType": "uint256",
          "name": "tokenId",
          "type": "uint256"
        }
      ],
      "name": "Transfer",
      "type": "event"
    },
    {
      "anonymous": false,
      "inputs": [
        {
          "indexed": false,
          "internalType": "address",
          "name": "account",
          "type": "address"
        }
      ],
      "name": "Unpaused",
      "type": "event"
    },
    {
      "inputs": [],
      "name": "BURNER_ROLE",
      "outputs": [
        {
          "internalType": "bytes32",
          "name": "",
          "type": "bytes32"
        }
      ],
      "stateMutability": "view",
      "type": "function",
      "constant": true
    },
    {
      "inputs": [],
      "name": "DEFAULT_ADMIN_ROLE",
      "outputs": [
        {
          "internalType": "bytes32",
          "name": "",
          "type": "bytes32"
        }
      ],
      "stateMutability": "view",
      "type": "function",
      "constant": true
    },
    {
      "inputs": [
        {
          "internalType": "address",
          "name": "to",
          "type": "address"
        },
        {
          "internalType": "uint256",
          "name": "tokenId",
          "type": "uint256"
        }
      ],
      "name": "approve",
      "outputs": [],
      "stateMutability": "nonpayable",
      "type": "function"
    },
    {
      "inputs": [
        {
          "internalType": "address",
          "name": "owner",
          "type": "address"
        }
      ],
      "name": "balanceOf",
      "outputs": [
        {
          "internalType": "uint256",
          "name": "",
          "type": "uint256"
        }
      ],
      "stateMutability": "view",
      "type": "function",
      "constant": true
    },
    {
      "inputs": [
        {
          "internalType": "uint256",
          "name": "tokenId",
          "type": "uint256"
        }
      ],
      "name": "getApproved",
      "outputs": [
        {
          "internalType": "address",
          "name": "",
          "type": "address"
        }
      ],
      "stateMutability": "view",
      "type": "function",
      "constant": true
    },
    {
      "inputs": [
        {
          "internalType": "bytes32",
          "name": "role",
          "type": "bytes32"
        }
      ],
      "name": "getRoleAdmin",
      "outputs": [
        {
          "internalType": "bytes32",
          "name": "",
          "type": "bytes32"
        }
      ],
      "stateMutability": "view",
      "type": "function",
      "constant": true
    },
    {
      "inputs": [
        {
          "internalType": "bytes32",
          "name": "role",
          "type": "bytes32"
        },
        {
          "internalType": "address",
          "name": "account",
          "type": "address"
        }
      ],
      "name": "grantRole",
      "outputs": [],
      "stateMutability": "nonpayable",
      "type": "function"
    },
    {
      "inputs": [
        {
          "internalType": "bytes32",
          "name": "role",
          "type": "bytes32"
        },
        {
          "internalType": "address",
          "name": "account",
          "type": "address"
        }
      ],
      "name": "hasRole",
      "outputs": [
        {
          "internalType": "bool",
          "name": "",
          "type": "bool"
        }
      ],
      "stateMutability": "view",
      "type": "function",
      "constant": true
    },
    {
      "inputs": [
        {
          "internalType": "address",
          "name": "owner",
          "type": "address"
        },
        {
          "internalType": "address",
          "name": "operator",
          "type": "address"
        }
      ],
      "name": "isApprovedForAll",
      "outputs": [
        {
          "internalType": "bool",
          "name": "",
          "type": "bool"
        }
      ],
      "stateMutability": "view",
      "type": "function",
      "constant": true
    },
    {
      "inputs": [],
      "name": "name",
      "outputs": [
        {
          "internalType": "string",
          "name": "",
          "type": "string"
        }
      ],
      "stateMutability": "view",
      "type": "function",
      "constant": true
    },
    {
      "inputs": [
        {
          "internalType": "uint256",
          "name": "tokenId",
          "type": "uint256"
        }
      ],
      "name": "ownerOf",
      "outputs": [
        {
          "internalType": "address",
          "name": "",
          "type": "address"
        }
      ],
      "stateMutability": "view",
      "type": "function",
      "constant": true
    },
    {
      "inputs": [],
      "name": "paused",
      "outputs": [
        {
          "internalType": "bool",
          "name": "",
          "type": "bool"
        }
      ],
      "stateMutability": "view",
      "type": "function",
      "constant": true
    },
    {
      "inputs": [
        {
          "internalType": "bytes32",
          "name": "role",
          "type": "bytes32"
        },
        {
          "internalType": "address",
          "name": "account",
          "type": "address"
        }
      ],
      "name": "renounceRole",
      "outputs": [],
      "stateMutability": "nonpayable",
      "type": "function"
    },
    {
      "inputs": [
        {
          "internalType": "bytes32",
          "name": "role",
          "type": "bytes32"
        },
        {
          "internalType": "address",
          "name": "account",
          "type": "address"
        }
      ],
      "name": "revokeRole",
      "outputs": [],
      "stateMutability": "nonpayable",
      "type": "function"
    },
    {
      "inputs": [
        {
          "internalType": "address",
          "name": "from",
          "type": "address"
        },
        {
          "internalType": "address",
          "name": "to",
          "type": "address"
        },
        {
          "internalType": "uint256",
          "name": "tokenId",
          "type": "uint256"
        }
      ],
      "name": "safeTransferFrom",
      "outputs": [],
      "stateMutability": "nonpayable",
      "type": "function"
    },
    {
      "inputs": [
        {
          "internalType": "address",
          "name": "from",
          "type": "address"
        },
        {
          "internalType": "address",
          "name": "to",
          "type": "address"
        },
        {
          "internalType": "uint256",
          "name": "tokenId",
          "type": "uint256"
        },
        {
          "internalType": "bytes",
          "name": "_data",
          "type": "bytes"
        }
      ],
      "name": "safeTransferFrom",
      "outputs": [],
      "stateMutability": "nonpayable",
      "type": "function"
    },
    {
      "inputs": [
        {
          "internalType": "address",
          "name": "operator",
          "type": "address"
        },
        {
          "internalType": "bool",
          "name": "approved",
          "type": "bool"
        }
      ],
      "name": "setApprovalForAll",
      "outputs": [],
      "stateMutability": "nonpayable",
      "type": "function"
    },
    {
      "inputs": [],
      "name": "symbol",
      "outputs": [
        {
          "internalType": "string",
          "name": "",
          "type": "string"
        }
      ],
      "stateMutability": "view",
      "type": "function",
      "constant": true
    },
    {
      "inputs": [
        {
          "internalType": "uint256",
          "name": "index",
          "type": "uint256"
        }
      ],
      "name": "tokenByIndex",
      "outputs": [
        {
          "internalType": "uint256",
          "name": "",
          "type": "uint256"
        }
      ],
      "stateMutability": "view",
      "type": "function",
      "constant": true
    },
    {
      "inputs": [
        {
          "internalType": "address",
          "name": "owner",
          "type": "address"
        },
        {
          "internalType": "uint256",
          "name": "index",
          "type": "uint256"
        }
      ],
      "name": "tokenOfOwnerByIndex",
      "outputs": [
        {
          "internalType": "uint256",
          "name": "",
          "type": "uint256"
        }
      ],
      "stateMutability": "view",
      "type": "function",
      "constant": true
    },
    {
      "inputs": [],
      "name": "totalSupply",
      "outputs": [
        {
          "internalType": "uint256",
          "name": "",
          "type": "uint256"
        }
      ],
      "stateMutability": "view",
      "type": "function",
      "constant": true
    },
    {
      "inputs": [
        {
          "internalType": "address",
          "name": "from",
          "type": "address"
        },
        {
          "internalType": "address",
          "name": "to",
          "type": "address"
        },
        {
          "internalType": "uint256",
          "name": "tokenId",
          "type": "uint256"
        }
      ],
      "name": "transferFrom",
      "outputs": [],
      "stateMutability": "nonpayable",
      "type": "function"
    },
    {
      "inputs": [
        {
          "internalType": "string",
          "name": "_name",
          "type": "string"
        },
        {
          "internalType": "string",
          "name": "_symbol",
          "type": "string"
        },
        {
          "internalType": "string",
          "name": "_baseuri",
          "type": "string"
        }
      ],
      "name": "initialize",
      "outputs": [],
      "stateMutability": "nonpayable",
      "type": "function"
    },
    {
      "inputs": [
        {
          "internalType": "address",
          "name": "_to",
          "type": "address"
        },
        {
          "internalType": "string",
          "name": "_uri",
          "type": "string"
        }
      ],
      "name": "mintItem",
      "outputs": [],
      "stateMutability": "nonpayable",
      "type": "function"
    },
    {
      "inputs": [
        {
          "internalType": "address",
          "name": "_to",
          "type": "address"
        },
        {
          "internalType": "string",
          "name": "_uri",
          "type": "string"
        },
        {
          "internalType": "address",
          "name": "royaltyOwner",
          "type": "address"
        },
        {
          "components": [
            {
              "internalType": "address payable",
              "name": "account",
              "type": "address"
            },
            {
              "internalType": "uint96",
              "name": "value",
              "type": "uint96"
            }
          ],
          "internalType": "struct LibPart.Part[]",
          "name": "royalties",
          "type": "tuple[]"
        }
      ],
      "name": "mintItemWithRoyalty",
      "outputs": [],
      "stateMutability": "nonpayable",
      "type": "function"
    },
    {
      "inputs": [
        {
          "internalType": "uint256",
          "name": "tokenId",
          "type": "uint256"
        },
        {
          "components": [
            {
              "internalType": "address payable",
              "name": "account",
              "type": "address"
            },
            {
              "internalType": "uint96",
              "name": "value",
              "type": "uint96"
            }
          ],
          "internalType": "struct LibPart.Part[]",
          "name": "royalties",
          "type": "tuple[]"
        }
      ],
      "name": "updateRoyalty",
      "outputs": [],
      "stateMutability": "nonpayable",
      "type": "function"
    },
    {
      "inputs": [
        {
          "internalType": "uint256",
          "name": "tokenId",
          "type": "uint256"
        },
        {
          "internalType": "address",
          "name": "to",
          "type": "address"
        }
      ],
      "name": "transferRoyaltyOwnership",
      "outputs": [],
      "stateMutability": "nonpayable",
      "type": "function"
    },
    {
      "inputs": [
        {
          "internalType": "uint256",
          "name": "tokenId",
          "type": "uint256"
        }
      ],
      "name": "getRoyalties",
      "outputs": [
        {
          "components": [
            {
              "internalType": "address payable",
              "name": "account",
              "type": "address"
            },
            {
              "internalType": "uint96",
              "name": "value",
              "type": "uint96"
            }
          ],
          "internalType": "struct LibPart.Part[]",
          "name": "",
          "type": "tuple[]"
        }
      ],
      "stateMutability": "view",
      "type": "function",
      "constant": true
    },
    {
      "inputs": [
        {
          "internalType": "uint256",
          "name": "tokenId",
          "type": "uint256"
        }
      ],
      "name": "getRoyaltyOwner",
      "outputs": [
        {
          "internalType": "address",
          "name": "",
          "type": "address"
        }
      ],
      "stateMutability": "view",
      "type": "function",
      "constant": true
    },
    {
      "inputs": [
        {
          "internalType": "uint256",
          "name": "tokenId",
          "type": "uint256"
        }
      ],
      "name": "tokenURI",
      "outputs": [
        {
          "internalType": "string",
          "name": "",
          "type": "string"
        }
      ],
      "stateMutability": "view",
      "type": "function",
      "constant": true
    },
    {
      "inputs": [
        {
          "internalType": "bytes4",
          "name": "interfaceId",
          "type": "bytes4"
        }
      ],
      "name": "supportsInterface",
      "outputs": [
        {
          "internalType": "bool",
          "name": "",
          "type": "bool"
        }
      ],
      "stateMutability": "view",
      "type": "function",
      "constant": true
    }
  ],
  "bytecode": "0x608060405234801561001057600080fd5b506155c880620000216000396000f3fe608060405234801561001057600080fd5b50600436106101e55760003560e01c80635c975abb1161010f578063a22cb465116100a2578063c87b56dd11610071578063c87b56dd1461059e578063d547741f146105ce578063e9013612146105ea578063e985e9c51461061a576101e5565b8063a22cb4651461051a578063a6487c5314610536578063b88d4fde14610552578063bb3bafd61461056e576101e5565b806391d14854116100de57806391d148541461049257806395d89b41146104c25780639cdeff7e146104e0578063a217fddf146104fc576101e5565b80635c975abb146103f85780636352211e1461041657806370a0823114610446578063761d9e0014610476576101e5565b8063248a9ca31161018757806336568abe1161015657806336568abe14610374578063394d3f381461039057806342842e0e146103ac5780634f6ccce7146103c8576101e5565b8063248a9ca3146102da578063282c51f31461030a5780632f2ff15d146103285780632f745c5914610344576101e5565b8063095ea7b3116101c3578063095ea7b314610268578063110bcd451461028457806318160ddd146102a057806323b872dd146102be576101e5565b806301ffc9a7146101ea57806306fdde031461021a578063081812fc14610238575b600080fd5b61020460048036038101906101ff9190613c09565b61064a565b6040516102119190614baa565b60405180910390f35b6102226106ab565b60405161022f9190614be0565b60405180910390f35b610252600480360381019061024d9190613cf2565b61073d565b60405161025f9190614b21565b60405180910390f35b610282600480360381019061027d9190613b68565b6107c2565b005b61029e60048036038101906102999190613a81565b6108da565b005b6102a86108ff565b6040516102b59190614fa2565b60405180910390f35b6102d860048036038101906102d3919061397b565b61090c565b005b6102f460048036038101906102ef9190613ba4565b61096c565b6040516103019190614bc5565b60405180910390f35b61031261098c565b60405161031f9190614bc5565b60405180910390f35b610342600480360381019061033d9190613bcd565b6109b0565b005b61035e60048036038101906103599190613b68565b6109d9565b60405161036b9190614fa2565b60405180910390f35b61038e60048036038101906103899190613bcd565b610a7e565b005b6103aa60048036038101906103a59190613d57565b610b01565b005b6103c660048036038101906103c1919061397b565b610bcd565b005b6103e260048036038101906103dd9190613cf2565b610bed565b6040516103ef9190614fa2565b60405180910390f35b610400610c84565b60405161040d9190614baa565b60405180910390f35b610430600480360381019061042b9190613cf2565b610c9c565b60405161043d9190614b21565b60405180910390f35b610460600480360381019061045b9190613916565b610d4e565b60405161046d9190614fa2565b60405180910390f35b610490600480360381019061048b9190613d1b565b610e06565b005b6104ac60048036038101906104a79190613bcd565b610ed2565b6040516104b99190614baa565b60405180910390f35b6104ca610f3d565b6040516104d79190614be0565b60405180910390f35b6104fa60048036038101906104f59190613ad5565b610fcf565b005b61050461100a565b6040516105119190614bc5565b60405180910390f35b610534600480360381019061052f9190613a45565b611011565b005b610550600480360381019061054b9190613c5b565b611192565b005b61056c600480360381019061056791906139ca565b611291565b005b61058860048036038101906105839190613cf2565b6112f3565b6040516105959190614b88565b60405180910390f35b6105b860048036038101906105b39190613cf2565b6113f6565b6040516105c59190614be0565b60405180910390f35b6105e860048036038101906105e39190613bcd565b611408565b005b61060460048036038101906105ff9190613cf2565b611431565b6040516106119190614b21565b60405180910390f35b610634600480360381019061062f919061393f565b61146f565b6040516106419190614baa565b60405180910390f35b60006344c74bcc60e01b7bffffffffffffffffffffffffffffffffffffffffffffffffffffffff1916827bffffffffffffffffffffffffffffffffffffffffffffffffffffffff191614806106a457506106a382611503565b5b9050919050565b6060606580546106ba90615378565b80601f01602080910402602001604051908101604052809291908181526020018280546106e690615378565b80156107335780601f1061070857610100808354040283529160200191610733565b820191906000526020600020905b81548152906001019060200180831161071657829003601f168201915b5050505050905090565b60006107488261157d565b610787576040517f08c379a000000000000000000000000000000000000000000000000000000000815260040161077e90614e82565b60405180910390fd5b6069600083815260200190815260200160002060009054906101000a900473ffffffffffffffffffffffffffffffffffffffff169050919050565b60006107cd82610c9c565b90508073ffffffffffffffffffffffffffffffffffffffff168373ffffffffffffffffffffffffffffffffffffffff16141561083e576040517f08c379a000000000000000000000000000000000000000000000000000000000815260040161083590614f02565b60405180910390fd5b8073ffffffffffffffffffffffffffffffffffffffff1661085d6115e9565b73ffffffffffffffffffffffffffffffffffffffff16148061088c575061088b816108866115e9565b61146f565b5b6108cb576040517f08c379a00000000000000000000000000000000000000000000000000000000081526004016108c290614d82565b60405180910390fd5b6108d583836115f1565b505050565b60006108e46116aa565b90506108f083826116cc565b6108fa818361189a565b505050565b600060cb80549050905090565b61091d6109176115e9565b8261190e565b61095c576040517f08c379a000000000000000000000000000000000000000000000000000000000815260040161095390614f22565b60405180910390fd5b6109678383836119ec565b505050565b600060fb6000838152602001908152602001600020600101549050919050565b7f3c11d16cbaffd01df69ce1c404f6340ee057498f5f00246190ea54220576a84881565b6109b98261096c565b6109ca816109c56115e9565b611c48565b6109d48383611ce5565b505050565b60006109e483610d4e565b8210610a25576040517f08c379a0000000000000000000000000000000000000000000000000000000008152600401610a1c90614c42565b60405180910390fd5b60c960008473ffffffffffffffffffffffffffffffffffffffff1673ffffffffffffffffffffffffffffffffffffffff168152602001908152602001600020600083815260200190815260200160002054905092915050565b610a866115e9565b73ffffffffffffffffffffffffffffffffffffffff168173ffffffffffffffffffffffffffffffffffffffff1614610af3576040517f08c379a0000000000000000000000000000000000000000000000000000000008152600401610aea90614f82565b60405180910390fd5b610afd8282611dc6565b5050565b610b0a82611431565b73ffffffffffffffffffffffffffffffffffffffff163373ffffffffffffffffffffffffffffffffffffffff1614610b77576040517f08c379a0000000000000000000000000000000000000000000000000000000008152600401610b6e90614ca2565b60405180910390fd5b610b808261157d565b610bbf576040517f08c379a0000000000000000000000000000000000000000000000000000000008152600401610bb690614c22565b60405180910390fd5b610bc98282611ea8565b5050565b610be883838360405180602001604052806000815250611291565b505050565b6000610bf76108ff565b8210610c38576040517f08c379a0000000000000000000000000000000000000000000000000000000008152600401610c2f90614f42565b60405180910390fd5b60cb8281548110610c72577f4e487b7100000000000000000000000000000000000000000000000000000000600052603260045260246000fd5b90600052602060002001549050919050565b600061012d60009054906101000a900460ff16905090565b6000806067600084815260200190815260200160002060009054906101000a900473ffffffffffffffffffffffffffffffffffffffff169050600073ffffffffffffffffffffffffffffffffffffffff168173ffffffffffffffffffffffffffffffffffffffff161415610d45576040517f08c379a0000000000000000000000000000000000000000000000000000000008152600401610d3c90614dc2565b60405180910390fd5b80915050919050565b60008073ffffffffffffffffffffffffffffffffffffffff168273ffffffffffffffffffffffffffffffffffffffff161415610dbf576040517f08c379a0000000000000000000000000000000000000000000000000000000008152600401610db690614da2565b60405180910390fd5b606860008373ffffffffffffffffffffffffffffffffffffffff1673ffffffffffffffffffffffffffffffffffffffff168152602001908152602001600020549050919050565b610e0f82611431565b73ffffffffffffffffffffffffffffffffffffffff163373ffffffffffffffffffffffffffffffffffffffff1614610e7c576040517f08c379a0000000000000000000000000000000000000000000000000000000008152600401610e7390614f62565b60405180910390fd5b610e858261157d565b610ec4576040517f08c379a0000000000000000000000000000000000000000000000000000000008152600401610ebb90614d22565b60405180910390fd5b610ece82826121c7565b5050565b600060fb600084815260200190815260200160002060000160008373ffffffffffffffffffffffffffffffffffffffff1673ffffffffffffffffffffffffffffffffffffffff16815260200190815260200160002060009054906101000a900460ff16905092915050565b606060668054610f4c90615378565b80601f0160208091040260200160405190810160405280929190818152602001828054610f7890615378565b8015610fc55780601f10610f9a57610100808354040283529160200191610fc5565b820191906000526020600020905b815481529060010190602001808311610fa857829003601f168201915b5050505050905090565b6000610fd96116aa565b9050610fe585826116cc565b610fef818561189a565b610ff981846121c7565b6110038183611ea8565b5050505050565b6000801b81565b6110196115e9565b73ffffffffffffffffffffffffffffffffffffffff168273ffffffffffffffffffffffffffffffffffffffff161415611087576040517f08c379a000000000000000000000000000000000000000000000000000000000815260040161107e90614ce2565b60405180910390fd5b80606a60006110946115e9565b73ffffffffffffffffffffffffffffffffffffffff1673ffffffffffffffffffffffffffffffffffffffff16815260200190815260200160002060008473ffffffffffffffffffffffffffffffffffffffff1673ffffffffffffffffffffffffffffffffffffffff16815260200190815260200160002060006101000a81548160ff0219169083151502179055508173ffffffffffffffffffffffffffffffffffffffff166111416115e9565b73ffffffffffffffffffffffffffffffffffffffff167f17307eab39ab6107e8899845ad3d59bd9653f200f220920489ca2b5937696c31836040516111869190614baa565b60405180910390a35050565b600060019054906101000a900460ff16806111b8575060008054906101000a900460ff16155b6111f7576040517f08c379a00000000000000000000000000000000000000000000000000000000081526004016111ee90614e02565b60405180910390fd5b60008060019054906101000a900460ff161590508015611247576001600060016101000a81548160ff02191690831515021790555060016000806101000a81548160ff0219169083151502179055505b61124f6122c7565b6112576123a0565b6112618484612479565b61126a82612582565b801561128b5760008060016101000a81548160ff0219169083151502179055505b50505050565b6112a261129c6115e9565b8361190e565b6112e1576040517f08c379a00000000000000000000000000000000000000000000000000000000081526004016112d890614f22565b60405180910390fd5b6112ed8484848461259d565b50505050565b60606101606000838152602001908152602001600020805480602002602001604051908101604052809291908181526020016000905b828210156113eb578382906000526020600020016040518060400160405290816000820160009054906101000a900473ffffffffffffffffffffffffffffffffffffffff1673ffffffffffffffffffffffffffffffffffffffff1673ffffffffffffffffffffffffffffffffffffffff1681526020016000820160149054906101000a90046bffffffffffffffffffffffff166bffffffffffffffffffffffff166bffffffffffffffffffffffff168152505081526020019060010190611329565b505050509050919050565b6060611401826125f9565b9050919050565b6114118261096c565b6114228161141d6115e9565b611c48565b61142c8383611dc6565b505050565b6000610161600083815260200190815260200160002060009054906101000a900473ffffffffffffffffffffffffffffffffffffffff169050919050565b6000606a60008473ffffffffffffffffffffffffffffffffffffffff1673ffffffffffffffffffffffffffffffffffffffff16815260200190815260200160002060008373ffffffffffffffffffffffffffffffffffffffff1673ffffffffffffffffffffffffffffffffffffffff16815260200190815260200160002060009054906101000a900460ff16905092915050565b60007f7965db0b000000000000000000000000000000000000000000000000000000007bffffffffffffffffffffffffffffffffffffffffffffffffffffffff1916827bffffffffffffffffffffffffffffffffffffffffffffffffffffffff1916148061157657506115758261274b565b5b9050919050565b60008073ffffffffffffffffffffffffffffffffffffffff166067600084815260200190815260200160002060009054906101000a900473ffffffffffffffffffffffffffffffffffffffff1673ffffffffffffffffffffffffffffffffffffffff1614159050919050565b600033905090565b816069600083815260200190815260200160002060006101000a81548173ffffffffffffffffffffffffffffffffffffffff021916908373ffffffffffffffffffffffffffffffffffffffff160217905550808273ffffffffffffffffffffffffffffffffffffffff1661166483610c9c565b73ffffffffffffffffffffffffffffffffffffffff167f8c5be1e5ebec7d5bd14f71427d1e84f3dd0314c0f7b2291e5b200ac8c7c3b92560405160405180910390a45050565b60006116c760016116b96108ff565b6127c590919063ffffffff16565b905090565b600073ffffffffffffffffffffffffffffffffffffffff168273ffffffffffffffffffffffffffffffffffffffff16141561173c576040517f08c379a000000000000000000000000000000000000000000000000000000000815260040161173390614e42565b60405180910390fd5b6117458161157d565b15611785576040517f08c379a000000000000000000000000000000000000000000000000000000000815260040161177c90614c82565b60405180910390fd5b611791600083836127db565b6001606860008473ffffffffffffffffffffffffffffffffffffffff1673ffffffffffffffffffffffffffffffffffffffff16815260200190815260200160002060008282546117e1919061514f565b92505081905550816067600083815260200190815260200160002060006101000a81548173ffffffffffffffffffffffffffffffffffffffff021916908373ffffffffffffffffffffffffffffffffffffffff160217905550808273ffffffffffffffffffffffffffffffffffffffff16600073ffffffffffffffffffffffffffffffffffffffff167fddf252ad1be2c89b69c2b068fc378daa952ba7f163c4a11628f55a4df523b3ef60405160405180910390a45050565b6118a38261157d565b6118e2576040517f08c379a00000000000000000000000000000000000000000000000000000000081526004016118d990614de2565b60405180910390fd5b8060976000848152602001908152602001600020908051906020019061190992919061359b565b505050565b60006119198261157d565b611958576040517f08c379a000000000000000000000000000000000000000000000000000000000815260040161194f90614d02565b60405180910390fd5b600061196383610c9c565b90508073ffffffffffffffffffffffffffffffffffffffff168473ffffffffffffffffffffffffffffffffffffffff1614806119d257508373ffffffffffffffffffffffffffffffffffffffff166119ba8461073d565b73ffffffffffffffffffffffffffffffffffffffff16145b806119e357506119e2818561146f565b5b91505092915050565b8273ffffffffffffffffffffffffffffffffffffffff16611a0c82610c9c565b73ffffffffffffffffffffffffffffffffffffffff1614611a62576040517f08c379a0000000000000000000000000000000000000000000000000000000008152600401611a5990614ec2565b60405180910390fd5b600073ffffffffffffffffffffffffffffffffffffffff168273ffffffffffffffffffffffffffffffffffffffff161415611ad2576040517f08c379a0000000000000000000000000000000000000000000000000000000008152600401611ac990614cc2565b60405180910390fd5b611add8383836127db565b611ae86000826115f1565b6001606860008573ffffffffffffffffffffffffffffffffffffffff1673ffffffffffffffffffffffffffffffffffffffff1681526020019081526020016000206000828254611b389190615230565b925050819055506001606860008473ffffffffffffffffffffffffffffffffffffffff1673ffffffffffffffffffffffffffffffffffffffff1681526020019081526020016000206000828254611b8f919061514f565b92505081905550816067600083815260200190815260200160002060006101000a81548173ffffffffffffffffffffffffffffffffffffffff021916908373ffffffffffffffffffffffffffffffffffffffff160217905550808273ffffffffffffffffffffffffffffffffffffffff168473ffffffffffffffffffffffffffffffffffffffff167fddf252ad1be2c89b69c2b068fc378daa952ba7f163c4a11628f55a4df523b3ef60405160405180910390a4505050565b611c528282610ed2565b611ce157611c778173ffffffffffffffffffffffffffffffffffffffff166014612833565b611c858360001c6020612833565b604051602001611c96929190614ae7565b6040516020818303038152906040526040517f08c379a0000000000000000000000000000000000000000000000000000000008152600401611cd89190614be0565b60405180910390fd5b5050565b611cef8282610ed2565b611dc257600160fb600084815260200190815260200160002060000160008373ffffffffffffffffffffffffffffffffffffffff1673ffffffffffffffffffffffffffffffffffffffff16815260200190815260200160002060006101000a81548160ff021916908315150217905550611d676115e9565b73ffffffffffffffffffffffffffffffffffffffff168173ffffffffffffffffffffffffffffffffffffffff16837f2f8788117e7eff1d82e926ec794901d17c78024a50270940304540a733656f0d60405160405180910390a45b5050565b611dd08282610ed2565b15611ea457600060fb600084815260200190815260200160002060000160008373ffffffffffffffffffffffffffffffffffffffff1673ffffffffffffffffffffffffffffffffffffffff16815260200190815260200160002060006101000a81548160ff021916908315150217905550611e496115e9565b73ffffffffffffffffffffffffffffffffffffffff168173ffffffffffffffffffffffffffffffffffffffff16837ff6391f5c32d9c69d2a47ea670b442974b53935d1edc7fd64eb21e047a839171b60405160405180910390a45b5050565b61016060008381526020019081526020016000206000611ec89190613621565b60005b815181101561218957600073ffffffffffffffffffffffffffffffffffffffff16828281518110611f25577f4e487b7100000000000000000000000000000000000000000000000000000000600052603260045260246000fd5b60200260200101516000015173ffffffffffffffffffffffffffffffffffffffff161415611f88576040517f08c379a0000000000000000000000000000000000000000000000000000000008152600401611f7f90614d62565b60405180910390fd5b6000828281518110611fc3577f4e487b7100000000000000000000000000000000000000000000000000000000600052603260045260246000fd5b6020026020010151602001516bffffffffffffffffffffffff1611801561203d57506101f5828281518110612021577f4e487b7100000000000000000000000000000000000000000000000000000000600052603260045260246000fd5b6020026020010151602001516bffffffffffffffffffffffff16105b61207c576040517f08c379a000000000000000000000000000000000000000000000000000000000815260040161207390614ea2565b60405180910390fd5b61016060008481526020019081526020016000208282815181106120c9577f4e487b7100000000000000000000000000000000000000000000000000000000600052603260045260246000fd5b60200260200101519080600181540180825580915050600190039060005260206000200160009091909190915060008201518160000160006101000a81548173ffffffffffffffffffffffffffffffffffffffff021916908373ffffffffffffffffffffffffffffffffffffffff16021790555060208201518160000160146101000a8154816bffffffffffffffffffffffff02191690836bffffffffffffffffffffffff16021790555050508080612181906153aa565b915050611ecb565b507f2f9e6d5068e3658670ba42ef7783dbe0783b56a3ef5c5492ba3f005ed2b876d882826040516121bb929190614fe6565b60405180910390a15050565b600073ffffffffffffffffffffffffffffffffffffffff168173ffffffffffffffffffffffffffffffffffffffff161415612237576040517f08c379a000000000000000000000000000000000000000000000000000000000815260040161222e90614e22565b60405180910390fd5b80610161600084815260200190815260200160002060006101000a81548173ffffffffffffffffffffffffffffffffffffffff021916908373ffffffffffffffffffffffffffffffffffffffff1602179055507ff1d6a825520beb1d7157ebd9563c24c6ed3813e9ddda7bb9678070c5195e43dc82826040516122bb929190614fbd565b60405180910390a15050565b600060019054906101000a900460ff16806122ed575060008054906101000a900460ff16155b61232c576040517f08c379a000000000000000000000000000000000000000000000000000000000815260040161232390614e02565b60405180910390fd5b60008060019054906101000a900460ff16159050801561237c576001600060016101000a81548160ff02191690831515021790555060016000806101000a81548160ff0219169083151502179055505b801561239d5760008060016101000a81548160ff0219169083151502179055505b50565b600060019054906101000a900460ff16806123c6575060008054906101000a900460ff16155b612405576040517f08c379a00000000000000000000000000000000000000000000000000000000081526004016123fc90614e02565b60405180910390fd5b60008060019054906101000a900460ff161590508015612455576001600060016101000a81548160ff02191690831515021790555060016000806101000a81548160ff0219169083151502179055505b80156124765760008060016101000a81548160ff0219169083151502179055505b50565b600060019054906101000a900460ff168061249f575060008054906101000a900460ff16155b6124de576040517f08c379a00000000000000000000000000000000000000000000000000000000081526004016124d590614e02565b60405180910390fd5b60008060019054906101000a900460ff16159050801561252e576001600060016101000a81548160ff02191690831515021790555060016000806101000a81548160ff0219169083151502179055505b826065908051906020019061254492919061359b565b50816066908051906020019061255b92919061359b565b50801561257d5760008060016101000a81548160ff0219169083151502179055505b505050565b8061015f908051906020019061259992919061359b565b5050565b6125a88484846119ec565b6125b484848484612b2d565b6125f3576040517f08c379a00000000000000000000000000000000000000000000000000000000081526004016125ea90614c62565b60405180910390fd5b50505050565b60606126048261157d565b612643576040517f08c379a000000000000000000000000000000000000000000000000000000000815260040161263a90614e62565b60405180910390fd5b600060976000848152602001908152602001600020805461266390615378565b80601f016020809104026020016040519081016040528092919081815260200182805461268f90615378565b80156126dc5780601f106126b1576101008083540402835291602001916126dc565b820191906000526020600020905b8154815290600101906020018083116126bf57829003601f168201915b5050505050905060006126ed612cc4565b9050600081511415612703578192505050612746565b600082511115612738578082604051602001612720929190614ac3565b60405160208183030381529060405292505050612746565b61274184612d57565b925050505b919050565b60007f780e9d63000000000000000000000000000000000000000000000000000000007bffffffffffffffffffffffffffffffffffffffffffffffffffffffff1916827bffffffffffffffffffffffffffffffffffffffffffffffffffffffff191614806127be57506127bd82612dfe565b5b9050919050565b600081836127d3919061514f565b905092915050565b6127e3610c84565b15612823576040517f08c379a000000000000000000000000000000000000000000000000000000000815260040161281a90614d42565b60405180910390fd5b61282e838383612ee0565b505050565b60606000600283600261284691906151d6565b612850919061514f565b67ffffffffffffffff81111561288f577f4e487b7100000000000000000000000000000000000000000000000000000000600052604160045260246000fd5b6040519080825280601f01601f1916602001820160405280156128c15781602001600182028036833780820191505090505b5090507f30000000000000000000000000000000000000000000000000000000000000008160008151811061291f577f4e487b7100000000000000000000000000000000000000000000000000000000600052603260045260246000fd5b60200101907effffffffffffffffffffffffffffffffffffffffffffffffffffffffffffff1916908160001a9053507f7800000000000000000000000000000000000000000000000000000000000000816001815181106129a9577f4e487b7100000000000000000000000000000000000000000000000000000000600052603260045260246000fd5b60200101907effffffffffffffffffffffffffffffffffffffffffffffffffffffffffffff1916908160001a905350600060018460026129e991906151d6565b6129f3919061514f565b90505b6001811115612adf577f3031323334353637383961626364656600000000000000000000000000000000600f861660108110612a5b577f4e487b7100000000000000000000000000000000000000000000000000000000600052603260045260246000fd5b1a60f81b828281518110612a98577f4e487b7100000000000000000000000000000000000000000000000000000000600052603260045260246000fd5b60200101907effffffffffffffffffffffffffffffffffffffffffffffffffffffffffffff1916908160001a905350600485901c945080612ad89061534e565b90506129f6565b5060008414612b23576040517f08c379a0000000000000000000000000000000000000000000000000000000008152600401612b1a90614c02565b60405180910390fd5b8091505092915050565b6000612b4e8473ffffffffffffffffffffffffffffffffffffffff16612ff4565b15612cb7578373ffffffffffffffffffffffffffffffffffffffff1663150b7a02612b776115e9565b8786866040518563ffffffff1660e01b8152600401612b999493929190614b3c565b602060405180830381600087803b158015612bb357600080fd5b505af1925050508015612be457506040513d601f19601f82011682018060405250810190612be19190613c32565b60015b612c67573d8060008114612c14576040519150601f19603f3d011682016040523d82523d6000602084013e612c19565b606091505b50600081511415612c5f576040517f08c379a0000000000000000000000000000000000000000000000000000000008152600401612c5690614c62565b60405180910390fd5b805181602001fd5b63150b7a0260e01b7bffffffffffffffffffffffffffffffffffffffffffffffffffffffff1916817bffffffffffffffffffffffffffffffffffffffffffffffffffffffff191614915050612cbc565b600190505b949350505050565b606061015f8054612cd490615378565b80601f0160208091040260200160405190810160405280929190818152602001828054612d0090615378565b8015612d4d5780601f10612d2257610100808354040283529160200191612d4d565b820191906000526020600020905b815481529060010190602001808311612d3057829003601f168201915b5050505050905090565b6060612d628261157d565b612da1576040517f08c379a0000000000000000000000000000000000000000000000000000000008152600401612d9890614ee2565b60405180910390fd5b6000612dab612cc4565b90506000815111612dcb5760405180602001604052806000815250612df6565b80612dd584613007565b604051602001612de6929190614ac3565b6040516020818303038152906040525b915050919050565b60007f80ac58cd000000000000000000000000000000000000000000000000000000007bffffffffffffffffffffffffffffffffffffffffffffffffffffffff1916827bffffffffffffffffffffffffffffffffffffffffffffffffffffffff19161480612ec957507f5b5e139f000000000000000000000000000000000000000000000000000000007bffffffffffffffffffffffffffffffffffffffffffffffffffffffff1916827bffffffffffffffffffffffffffffffffffffffffffffffffffffffff1916145b80612ed95750612ed8826131b4565b5b9050919050565b612eeb83838361321e565b600073ffffffffffffffffffffffffffffffffffffffff168373ffffffffffffffffffffffffffffffffffffffff161415612f2e57612f2981613223565b612f6d565b8173ffffffffffffffffffffffffffffffffffffffff168373ffffffffffffffffffffffffffffffffffffffff1614612f6c57612f6b838261326c565b5b5b600073ffffffffffffffffffffffffffffffffffffffff168273ffffffffffffffffffffffffffffffffffffffff161415612fb057612fab816133d9565b612fef565b8273ffffffffffffffffffffffffffffffffffffffff168273ffffffffffffffffffffffffffffffffffffffff1614612fee57612fed828261351c565b5b5b505050565b600080823b905060008111915050919050565b6060600082141561304f576040518060400160405280600181526020017f300000000000000000000000000000000000000000000000000000000000000081525090506131af565b600082905060005b6000821461308157808061306a906153aa565b915050600a8261307a91906151a5565b9150613057565b60008167ffffffffffffffff8111156130c3577f4e487b7100000000000000000000000000000000000000000000000000000000600052604160045260246000fd5b6040519080825280601f01601f1916602001820160405280156130f55781602001600182028036833780820191505090505b5090505b600085146131a85760018261310e9190615230565b9150600a8561311d91906153f3565b6030613129919061514f565b60f81b818381518110613165577f4e487b7100000000000000000000000000000000000000000000000000000000600052603260045260246000fd5b60200101907effffffffffffffffffffffffffffffffffffffffffffffffffffffffffffff1916908160001a905350600a856131a191906151a5565b94506130f9565b8093505050505b919050565b60007f01ffc9a7000000000000000000000000000000000000000000000000000000007bffffffffffffffffffffffffffffffffffffffffffffffffffffffff1916827bffffffffffffffffffffffffffffffffffffffffffffffffffffffff1916149050919050565b505050565b60cb8054905060cc60008381526020019081526020016000208190555060cb81908060018154018082558091505060019003906000526020600020016000909190919091505550565b6000600161327984610d4e565b6132839190615230565b9050600060ca600084815260200190815260200160002054905081811461336857600060c960008673ffffffffffffffffffffffffffffffffffffffff1673ffffffffffffffffffffffffffffffffffffffff16815260200190815260200160002060008481526020019081526020016000205490508060c960008773ffffffffffffffffffffffffffffffffffffffff1673ffffffffffffffffffffffffffffffffffffffff1681526020019081526020016000206000848152602001908152602001600020819055508160ca600083815260200190815260200160002081905550505b60ca60008481526020019081526020016000206000905560c960008573ffffffffffffffffffffffffffffffffffffffff1673ffffffffffffffffffffffffffffffffffffffff16815260200190815260200160002060008381526020019081526020016000206000905550505050565b6000600160cb805490506133ed9190615230565b9050600060cc6000848152602001908152602001600020549050600060cb8381548110613443577f4e487b7100000000000000000000000000000000000000000000000000000000600052603260045260246000fd5b906000526020600020015490508060cb838154811061348b577f4e487b7100000000000000000000000000000000000000000000000000000000600052603260045260246000fd5b90600052602060002001819055508160cc60008381526020019081526020016000208190555060cc60008581526020019081526020016000206000905560cb805480613500577f4e487b7100000000000000000000000000000000000000000000000000000000600052603160045260246000fd5b6001900381819060005260206000200160009055905550505050565b600061352783610d4e565b90508160c960008573ffffffffffffffffffffffffffffffffffffffff1673ffffffffffffffffffffffffffffffffffffffff1681526020019081526020016000206000838152602001908152602001600020819055508060ca600084815260200190815260200160002081905550505050565b8280546135a790615378565b90600052602060002090601f0160209004810192826135c95760008555613610565b82601f106135e257805160ff1916838001178555613610565b82800160010185558215613610579182015b8281111561360f5782518255916020019190600101906135f4565b5b50905061361d9190613642565b5090565b508054600082559060005260206000209081019061363f919061365f565b50565b5b8082111561365b576000816000905550600101613643565b5090565b5b808211156136b857600080820160006101000a81549073ffffffffffffffffffffffffffffffffffffffff02191690556000820160146101000a8154906bffffffffffffffffffffffff021916905550600101613660565b5090565b60006136cf6136ca84615047565b615016565b905080838252602082019050828560408602820111156136ee57600080fd5b60005b8581101561371e578161370488826138a0565b8452602084019350604083019250506001810190506136f1565b5050509392505050565b600061373b61373684615073565b615016565b90508281526020810184848401111561375357600080fd5b61375e84828561530c565b509392505050565b6000613779613774846150a3565b615016565b90508281526020810184848401111561379157600080fd5b61379c84828561530c565b509392505050565b6000813590506137b3816154f1565b92915050565b6000813590506137c881615508565b92915050565b600082601f8301126137df57600080fd5b81356137ef8482602086016136bc565b91505092915050565b6000813590506138078161551f565b92915050565b60008135905061381c81615536565b92915050565b6000813590506138318161554d565b92915050565b6000815190506138468161554d565b92915050565b600082601f83011261385d57600080fd5b813561386d848260208601613728565b91505092915050565b600082601f83011261388757600080fd5b8135613897848260208601613766565b91505092915050565b6000604082840312156138b257600080fd5b6138bc6040615016565b905060006138cc848285016137b9565b60008301525060206138e084828501613901565b60208301525092915050565b6000813590506138fb81615564565b92915050565b6000813590506139108161557b565b92915050565b60006020828403121561392857600080fd5b6000613936848285016137a4565b91505092915050565b6000806040838503121561395257600080fd5b6000613960858286016137a4565b9250506020613971858286016137a4565b9150509250929050565b60008060006060848603121561399057600080fd5b600061399e868287016137a4565b93505060206139af868287016137a4565b92505060406139c0868287016138ec565b9150509250925092565b600080600080608085870312156139e057600080fd5b60006139ee878288016137a4565b94505060206139ff878288016137a4565b9350506040613a10878288016138ec565b925050606085013567ffffffffffffffff811115613a2d57600080fd5b613a398782880161384c565b91505092959194509250565b60008060408385031215613a5857600080fd5b6000613a66858286016137a4565b9250506020613a77858286016137f8565b9150509250929050565b60008060408385031215613a9457600080fd5b6000613aa2858286016137a4565b925050602083013567ffffffffffffffff811115613abf57600080fd5b613acb85828601613876565b9150509250929050565b60008060008060808587031215613aeb57600080fd5b6000613af9878288016137a4565b945050602085013567ffffffffffffffff811115613b1657600080fd5b613b2287828801613876565b9350506040613b33878288016137a4565b925050606085013567ffffffffffffffff811115613b5057600080fd5b613b5c878288016137ce565b91505092959194509250565b60008060408385031215613b7b57600080fd5b6000613b89858286016137a4565b9250506020613b9a858286016138ec565b9150509250929050565b600060208284031215613bb657600080fd5b6000613bc48482850161380d565b91505092915050565b60008060408385031215613be057600080fd5b6000613bee8582860161380d565b9250506020613bff858286016137a4565b9150509250929050565b600060208284031215613c1b57600080fd5b6000613c2984828501613822565b91505092915050565b600060208284031215613c4457600080fd5b6000613c5284828501613837565b91505092915050565b600080600060608486031215613c7057600080fd5b600084013567ffffffffffffffff811115613c8a57600080fd5b613c9686828701613876565b935050602084013567ffffffffffffffff811115613cb357600080fd5b613cbf86828701613876565b925050604084013567ffffffffffffffff811115613cdc57600080fd5b613ce886828701613876565b9150509250925092565b600060208284031215613d0457600080fd5b6000613d12848285016138ec565b91505092915050565b60008060408385031215613d2e57600080fd5b6000613d3c858286016138ec565b9250506020613d4d858286016137a4565b9150509250929050565b60008060408385031215613d6a57600080fd5b6000613d78858286016138ec565b925050602083013567ffffffffffffffff811115613d9557600080fd5b613da1858286016137ce565b9150509250929050565b6000613db78383614a76565b60408301905092915050565b613dcc81615276565b82525050565b613ddb81615264565b82525050565b6000613dec826150e3565b613df68185615111565b9350613e01836150d3565b8060005b83811015613e32578151613e198882613dab565b9750613e2483615104565b925050600181019050613e05565b5085935050505092915050565b613e4881615288565b82525050565b613e5781615294565b82525050565b6000613e68826150ee565b613e728185615122565b9350613e8281856020860161531b565b613e8b816154e0565b840191505092915050565b6000613ea1826150f9565b613eab8185615133565b9350613ebb81856020860161531b565b613ec4816154e0565b840191505092915050565b6000613eda826150f9565b613ee48185615144565b9350613ef481856020860161531b565b80840191505092915050565b6000613f0d602083615133565b91507f537472696e67733a20686578206c656e67746820696e73756666696369656e746000830152602082019050919050565b6000613f4d603283615133565b91507f504152553732313a20757064617465526f79616c747920717565727920666f7260008301527f206e6f6e6578697374656e7420746f6b656e00000000000000000000000000006020830152604082019050919050565b6000613fb3602b83615133565b91507f455243373231456e756d657261626c653a206f776e657220696e646578206f7560008301527f74206f6620626f756e64730000000000000000000000000000000000000000006020830152604082019050919050565b6000614019603283615133565b91507f4552433732313a207472616e7366657220746f206e6f6e20455243373231526560008301527f63656976657220696d706c656d656e74657200000000000000000000000000006020830152604082019050919050565b600061407f601c83615133565b91507f4552433732313a20746f6b656e20616c7265616479206d696e746564000000006000830152602082019050919050565b60006140bf603983615133565b91507f504152553732313a20757064617465526f79616c7479206d657373616765207360008301527f656e646572206973206e6f7420726f79616c74794f776e6572000000000000006020830152604082019050919050565b6000614125602483615133565b91507f4552433732313a207472616e7366657220746f20746865207a65726f2061646460008301527f72657373000000000000000000000000000000000000000000000000000000006020830152604082019050919050565b600061418b601983615133565b91507f4552433732313a20617070726f766520746f2063616c6c6572000000000000006000830152602082019050919050565b60006141cb602c83615133565b91507f4552433732313a206f70657261746f7220717565727920666f72206e6f6e657860008301527f697374656e7420746f6b656e00000000000000000000000000000000000000006020830152604082019050919050565b6000614231603d83615133565b91507f504152553732313a207472616e73666572526f79616c74794f776e657273686960008301527f7020717565727920666f72206e6f6e6578697374656e7420746f6b656e0000006020830152604082019050919050565b6000614297601083615133565b91507f5061757361626c653a20706175736564000000000000000000000000000000006000830152602082019050919050565b60006142d7603383615133565b91507f504152553732313a205f736574526f79616c746965732c20526563697069656e60008301527f742073686f756c642062652070726573656e74000000000000000000000000006020830152604082019050919050565b600061433d603883615133565b91507f4552433732313a20617070726f76652063616c6c6572206973206e6f74206f7760008301527f6e6572206e6f7220617070726f76656420666f7220616c6c00000000000000006020830152604082019050919050565b60006143a3602a83615133565b91507f4552433732313a2062616c616e636520717565727920666f7220746865207a6560008301527f726f2061646472657373000000000000000000000000000000000000000000006020830152604082019050919050565b6000614409602983615133565b91507f4552433732313a206f776e657220717565727920666f72206e6f6e657869737460008301527f656e7420746f6b656e00000000000000000000000000000000000000000000006020830152604082019050919050565b600061446f602e83615133565b91507f45524337323155524953746f726167653a2055524920736574206f66206e6f6e60008301527f6578697374656e7420746f6b656e0000000000000000000000000000000000006020830152604082019050919050565b60006144d5602e83615133565b91507f496e697469616c697a61626c653a20636f6e747261637420697320616c72656160008301527f647920696e697469616c697a65640000000000000000000000000000000000006020830152604082019050919050565b600061453b603683615133565b91507f504152553732313a205f736574526f79616c74794f776e65722c20526563697060008301527f69656e742073686f756c642062652070726573656e74000000000000000000006020830152604082019050919050565b60006145a1602083615133565b91507f4552433732313a206d696e7420746f20746865207a65726f20616464726573736000830152602082019050919050565b60006145e1603183615133565b91507f45524337323155524953746f726167653a2055524920717565727920666f722060008301527f6e6f6e6578697374656e7420746f6b656e0000000000000000000000000000006020830152604082019050919050565b6000614647602c83615133565b91507f4552433732313a20617070726f76656420717565727920666f72206e6f6e657860008301527f697374656e7420746f6b656e00000000000000000000000000000000000000006020830152604082019050919050565b60006146ad603e83615133565b91507f504152553732313a205f736574526f79616c746965732c20526f79616c74792060008301527f76616c75652073686f756c642062652072616e676520696e20317e35303000006020830152604082019050919050565b6000614713602983615133565b91507f4552433732313a207472616e73666572206f6620746f6b656e2074686174206960008301527f73206e6f74206f776e00000000000000000000000000000000000000000000006020830152604082019050919050565b6000614779602f83615133565b91507f4552433732314d657461646174613a2055524920717565727920666f72206e6f60008301527f6e6578697374656e7420746f6b656e00000000000000000000000000000000006020830152604082019050919050565b60006147df602183615133565b91507f4552433732313a20617070726f76616c20746f2063757272656e74206f776e6560008301527f72000000000000000000000000000000000000000000000000000000000000006020830152604082019050919050565b6000614845603183615133565b91507f4552433732313a207472616e736665722063616c6c6572206973206e6f74206f60008301527f776e6572206e6f7220617070726f7665640000000000000000000000000000006020830152604082019050919050565b60006148ab602c83615133565b91507f455243373231456e756d657261626c653a20676c6f62616c20696e646578206f60008301527f7574206f6620626f756e647300000000000000000000000000000000000000006020830152604082019050919050565b6000614911604483615133565b91507f504152553732313a207472616e73666572526f79616c74794f776e657273686960008301527f70206d6573736167652073656e646572206973206e6f7420726f79616c74794f60208301527f776e6572000000000000000000000000000000000000000000000000000000006040830152606082019050919050565b600061499d601783615144565b91507f416363657373436f6e74726f6c3a206163636f756e74200000000000000000006000830152601782019050919050565b60006149dd601183615144565b91507f206973206d697373696e6720726f6c65200000000000000000000000000000006000830152601182019050919050565b6000614a1d602f83615133565b91507f416363657373436f6e74726f6c3a2063616e206f6e6c792072656e6f756e636560008301527f20726f6c657320666f722073656c6600000000000000000000000000000000006020830152604082019050919050565b604082016000820151614a8c6000850182613dc3565b506020820151614a9f6020850182614ab4565b50505050565b614aae816152ea565b82525050565b614abd816152f4565b82525050565b6000614acf8285613ecf565b9150614adb8284613ecf565b91508190509392505050565b6000614af282614990565b9150614afe8285613ecf565b9150614b09826149d0565b9150614b158284613ecf565b91508190509392505050565b6000602082019050614b366000830184613dd2565b92915050565b6000608082019050614b516000830187613dd2565b614b5e6020830186613dd2565b614b6b6040830185614aa5565b8181036060830152614b7d8184613e5d565b905095945050505050565b60006020820190508181036000830152614ba28184613de1565b905092915050565b6000602082019050614bbf6000830184613e3f565b92915050565b6000602082019050614bda6000830184613e4e565b92915050565b60006020820190508181036000830152614bfa8184613e96565b905092915050565b60006020820190508181036000830152614c1b81613f00565b9050919050565b60006020820190508181036000830152614c3b81613f40565b9050919050565b60006020820190508181036000830152614c5b81613fa6565b9050919050565b60006020820190508181036000830152614c7b8161400c565b9050919050565b60006020820190508181036000830152614c9b81614072565b9050919050565b60006020820190508181036000830152614cbb816140b2565b9050919050565b60006020820190508181036000830152614cdb81614118565b9050919050565b60006020820190508181036000830152614cfb8161417e565b9050919050565b60006020820190508181036000830152614d1b816141be565b9050919050565b60006020820190508181036000830152614d3b81614224565b9050919050565b60006020820190508181036000830152614d5b8161428a565b9050919050565b60006020820190508181036000830152614d7b816142ca565b9050919050565b60006020820190508181036000830152614d9b81614330565b9050919050565b60006020820190508181036000830152614dbb81614396565b9050919050565b60006020820190508181036000830152614ddb816143fc565b9050919050565b60006020820190508181036000830152614dfb81614462565b9050919050565b60006020820190508181036000830152614e1b816144c8565b9050919050565b60006020820190508181036000830152614e3b8161452e565b9050919050565b60006020820190508181036000830152614e5b81614594565b9050919050565b60006020820190508181036000830152614e7b816145d4565b9050919050565b60006020820190508181036000830152614e9b8161463a565b9050919050565b60006020820190508181036000830152614ebb816146a0565b9050919050565b60006020820190508181036000830152614edb81614706565b9050919050565b60006020820190508181036000830152614efb8161476c565b9050919050565b60006020820190508181036000830152614f1b816147d2565b9050919050565b60006020820190508181036000830152614f3b81614838565b9050919050565b60006020820190508181036000830152614f5b8161489e565b9050919050565b60006020820190508181036000830152614f7b81614904565b9050919050565b60006020820190508181036000830152614f9b81614a10565b9050919050565b6000602082019050614fb76000830184614aa5565b92915050565b6000604082019050614fd26000830185614aa5565b614fdf6020830184613dd2565b9392505050565b6000604082019050614ffb6000830185614aa5565b818103602083015261500d8184613de1565b90509392505050565b6000604051905081810181811067ffffffffffffffff8211171561503d5761503c6154b1565b5b8060405250919050565b600067ffffffffffffffff821115615062576150616154b1565b5b602082029050602081019050919050565b600067ffffffffffffffff82111561508e5761508d6154b1565b5b601f19601f8301169050602081019050919050565b600067ffffffffffffffff8211156150be576150bd6154b1565b5b601f19601f8301169050602081019050919050565b6000819050602082019050919050565b600081519050919050565b600081519050919050565b600081519050919050565b6000602082019050919050565b600082825260208201905092915050565b600082825260208201905092915050565b600082825260208201905092915050565b600081905092915050565b600061515a826152ea565b9150615165836152ea565b9250827fffffffffffffffffffffffffffffffffffffffffffffffffffffffffffffffff0382111561519a57615199615424565b5b828201905092915050565b60006151b0826152ea565b91506151bb836152ea565b9250826151cb576151ca615453565b5b828204905092915050565b60006151e1826152ea565b91506151ec836152ea565b9250817fffffffffffffffffffffffffffffffffffffffffffffffffffffffffffffffff048311821515161561522557615224615424565b5b828202905092915050565b600061523b826152ea565b9150615246836152ea565b92508282101561525957615258615424565b5b828203905092915050565b600061526f826152ca565b9050919050565b6000615281826152ca565b9050919050565b60008115159050919050565b6000819050919050565b60007fffffffff0000000000000000000000000000000000000000000000000000000082169050919050565b600073ffffffffffffffffffffffffffffffffffffffff82169050919050565b6000819050919050565b60006bffffffffffffffffffffffff82169050919050565b82818337600083830152505050565b60005b8381101561533957808201518184015260208101905061531e565b83811115615348576000848401525b50505050565b6000615359826152ea565b9150600082141561536d5761536c615424565b5b600182039050919050565b6000600282049050600182168061539057607f821691505b602082108114156153a4576153a3615482565b5b50919050565b60006153b5826152ea565b91507fffffffffffffffffffffffffffffffffffffffffffffffffffffffffffffffff8214156153e8576153e7615424565b5b600182019050919050565b60006153fe826152ea565b9150615409836152ea565b92508261541957615418615453565b5b828206905092915050565b7f4e487b7100000000000000000000000000000000000000000000000000000000600052601160045260246000fd5b7f4e487b7100000000000000000000000000000000000000000000000000000000600052601260045260246000fd5b7f4e487b7100000000000000000000000000000000000000000000000000000000600052602260045260246000fd5b7f4e487b7100000000000000000000000000000000000000000000000000000000600052604160045260246000fd5b6000601f19601f8301169050919050565b6154fa81615264565b811461550557600080fd5b50565b61551181615276565b811461551c57600080fd5b50565b61552881615288565b811461553357600080fd5b50565b61553f81615294565b811461554a57600080fd5b50565b6155568161529e565b811461556157600080fd5b50565b61556d816152ea565b811461557857600080fd5b50565b615584816152f4565b811461558f57600080fd5b5056fea26469706673582212209a4f4522ec65ee9694f36025e216fc40962fdcbe99b1d4d5861389906078af9b64736f6c63430008000033",
  "immutableReferences": {},
  "source": "// SPDX-License-Identifier: MIT\r\n// https://docs.openzeppelin.com/contracts/4.x/wizard\r\npragma solidity ^0.8.0;\r\n\r\nimport \"@openzeppelin/contracts/utils/math/SafeMath.sol\";\r\nimport \"@openzeppelin/contracts-upgradeable/token/ERC721/ERC721Upgradeable.sol\";\r\n\r\nimport \"@openzeppelin/contracts-upgradeable/security/PausableUpgradeable.sol\";\r\nimport \"@openzeppelin/contracts-upgradeable/access/AccessControlUpgradeable.sol\";\r\n\r\nimport \"@openzeppelin/contracts-upgradeable/token/ERC721/extensions/ERC721URIStorageUpgradeable.sol\";\r\nimport \"@openzeppelin/contracts-upgradeable/token/ERC721/extensions/ERC721EnumerableUpgradeable.sol\";\r\n\r\n\r\nimport \"./lib/LibPart.sol\";\r\n\r\n\r\ncontract Paru721V2 is\r\n    ERC721Upgradeable,\r\n    ERC721URIStorageUpgradeable,\r\n    ERC721EnumerableUpgradeable,\r\n    AccessControlUpgradeable,\r\n    PausableUpgradeable\r\n{\r\n    using SafeMath for uint256;\r\n    bytes32 public constant BURNER_ROLE = keccak256(\"BURNER_ROLE\");\r\n    string private _baseUri;\r\n\r\n    event RoyaltySet(uint256 tokenId, LibPart.Part[] royalty);\r\n    event RoyaltyOwnerSet(uint256 tokenId, address owner);\r\n\r\n    // ownerble upgradeable\r\n    mapping(uint256 => LibPart.Part[]) _royalties;\r\n    mapping(uint256 => address) _royaltyOwners;\r\n\r\n    function initialize(\r\n        string memory _name,\r\n        string memory _symbol,\r\n        string memory _baseuri\r\n    ) external initializer {\r\n        __ERC721Enumerable_init_unchained();\r\n        __ERC721URIStorage_init_unchained();\r\n        __ERC721_init_unchained(_name, _symbol);\r\n        _setBaseURI(_baseuri);\r\n    }\r\n\r\n    /*\r\n     * bytes4(keccak256('getRoyalties(LibAsset.AssetType)')) == 0x44c74bcc\r\n     */\r\n    bytes4 constant _INTERFACE_ID_ROYALTIES = 0x44c74bcc;\r\n\r\n    /**\r\n     * @dev Mints a token to an address with a tokenURI.\r\n     * @param _to address of the future owner of the token\r\n     */\r\n    function mintItem(address _to, string memory _uri) public {\r\n        uint256 newTokenId = _getNextTokenId();\r\n        _mint(_to, newTokenId);\r\n        _setTokenURI(newTokenId, _uri);\r\n        // approvalForAll for reduce user's gas??\r\n    }\r\n\r\n    function mintItemWithRoyalty( // AndApprove?\r\n        address _to,\r\n        string memory _uri,\r\n        address royaltyOwner,\r\n        LibPart.Part[] memory royalties\r\n    ) public {\r\n        uint256 newTokenId = _getNextTokenId();\r\n        _mint(_to, newTokenId);\r\n        _setTokenURI(newTokenId, _uri);\r\n        _setRoyaltyOwner(newTokenId, royaltyOwner);\r\n        _setRoyalties(newTokenId, royalties);\r\n    }\r\n\r\n    // update - setRoyalty\r\n    function updateRoyalty(uint256 tokenId, LibPart.Part[] memory royalties)\r\n        external\r\n    {\r\n        require(\r\n            msg.sender == getRoyaltyOwner(tokenId),\r\n            \"PARU721: updateRoyalty message sender is not royaltyOwner\"\r\n        );\r\n        require(\r\n            _exists(tokenId),\r\n            \"PARU721: updateRoyalty query for nonexistent token\"\r\n        );\r\n        _setRoyalties(tokenId, royalties);\r\n    }\r\n\r\n    // transfer - setRoyaltyOwner\r\n    function transferRoyaltyOwnership(uint256 tokenId, address to) external {\r\n        require(\r\n            msg.sender == getRoyaltyOwner(tokenId),\r\n            \"PARU721: transferRoyaltyOwnership message sender is not royaltyOwner\"\r\n        );\r\n        require(\r\n            _exists(tokenId),\r\n            \"PARU721: transferRoyaltyOwnership query for nonexistent token\"\r\n        );\r\n        _setRoyaltyOwner(tokenId, to);\r\n    }\r\n\r\n\r\n    function getRoyalties(uint256 tokenId)\r\n        public\r\n        view\r\n        returns (LibPart.Part[] memory)\r\n    {\r\n        return _royalties[tokenId];\r\n    }\r\n\r\n    function _setRoyalties(uint256 tokenId, LibPart.Part[] memory royalties)\r\n        internal\r\n    {\r\n        // clear existence\r\n        delete _royalties[tokenId];\r\n        // validate and save\r\n        for (uint256 i = 0; i < royalties.length; i++) {\r\n            require(\r\n                royalties[i].account != address(0x0),\r\n                \"PARU721: _setRoyalties, Recipient should be present\"\r\n            );\r\n            require(\r\n                royalties[i].value > 0 && royalties[i].value < 501,\r\n                \"PARU721: _setRoyalties, Royalty value should be range in 1~500\"\r\n            );\r\n            _royalties[tokenId].push(royalties[i]);\r\n        }\r\n\r\n        emit RoyaltySet(tokenId, royalties);\r\n    }\r\n\r\n    function getRoyaltyOwner(uint256 tokenId) public view returns (address) {\r\n        return _royaltyOwners[tokenId];\r\n    }\r\n\r\n    function _setRoyaltyOwner(uint256 tokenId, address owner) internal {\r\n        require(owner != address(0x0), \"PARU721: _setRoyaltyOwner, Recipient should be present\");\r\n        _royaltyOwners[tokenId] = owner;\r\n\r\n        emit RoyaltyOwnerSet(tokenId, owner);\r\n    }\r\n\r\n    function _getNextTokenId() private view returns (uint256) {\r\n        return totalSupply().add(1);\r\n    }\r\n\r\n    function _beforeTokenTransfer(\r\n        address from,\r\n        address to,\r\n        uint256 tokenId\r\n    )\r\n        internal\r\n        override(ERC721EnumerableUpgradeable, ERC721Upgradeable)\r\n        whenNotPaused\r\n    {\r\n        super._beforeTokenTransfer(from, to, tokenId);\r\n    }\r\n\r\n    function _burn(uint256 tokenId)\r\n        internal\r\n        override(ERC721Upgradeable, ERC721URIStorageUpgradeable)\r\n    {\r\n        require(hasRole(BURNER_ROLE, _msgSender()));\r\n        super._burn(tokenId);\r\n    }\r\n\r\n    function tokenURI(uint256 tokenId)\r\n        public\r\n        view\r\n        override(ERC721Upgradeable, ERC721URIStorageUpgradeable)\r\n        returns (string memory)\r\n    {\r\n        return super.tokenURI(tokenId);\r\n    }\r\n\r\n    function _setBaseURI(string memory _baseuri) internal virtual {\r\n        _baseUri = _baseuri;\r\n    }\r\n\r\n    function _baseURI() internal view virtual override returns (string memory) {\r\n        return _baseUri;\r\n    }\r\n\r\n    function supportsInterface(bytes4 interfaceId)\r\n        public\r\n        view\r\n        override(\r\n            ERC721Upgradeable,\r\n            AccessControlUpgradeable,\r\n            ERC721EnumerableUpgradeable\r\n        )\r\n        returns (bool)\r\n    {\r\n        return\r\n            interfaceId == _INTERFACE_ID_ROYALTIES ||\r\n            super.supportsInterface(interfaceId);\r\n    }\r\n}\r\n",
  "sourcePath": "/Users/hyunjongkim/Documents/GitHub/palura-backend/smartcontract/v1.0/contracts/out/Paru721V2.sol",
  "compiler": {
    "name": "solc",
    "version": "0.8.0+commit.c7dfd78e.Emscripten.clang"
  },
  "schemaVersion": "3.4.3",
  "updatedAt": "2021-11-17T07:44:56.101Z",
  "networkType": "ethereum",
  "devdoc": {
    "kind": "dev",
    "methods": {
      "approve(address,uint256)": {
        "details": "See {IERC721-approve}."
      },
      "balanceOf(address)": {
        "details": "See {IERC721-balanceOf}."
      },
      "getApproved(uint256)": {
        "details": "See {IERC721-getApproved}."
      },
      "getRoleAdmin(bytes32)": {
        "details": "Returns the admin role that controls `role`. See {grantRole} and {revokeRole}. To change a role's admin, use {_setRoleAdmin}."
      },
      "grantRole(bytes32,address)": {
        "details": "Grants `role` to `account`. If `account` had not been already granted `role`, emits a {RoleGranted} event. Requirements: - the caller must have ``role``'s admin role."
      },
      "hasRole(bytes32,address)": {
        "details": "Returns `true` if `account` has been granted `role`."
      },
      "isApprovedForAll(address,address)": {
        "details": "See {IERC721-isApprovedForAll}."
      },
      "mintItem(address,string)": {
        "details": "Mints a token to an address with a tokenURI.",
        "params": {
          "_to": "address of the future owner of the token"
        }
      },
      "name()": {
        "details": "See {IERC721Metadata-name}."
      },
      "ownerOf(uint256)": {
        "details": "See {IERC721-ownerOf}."
      },
      "paused()": {
        "details": "Returns true if the contract is paused, and false otherwise."
      },
      "renounceRole(bytes32,address)": {
        "details": "Revokes `role` from the calling account. Roles are often managed via {grantRole} and {revokeRole}: this function's purpose is to provide a mechanism for accounts to lose their privileges if they are compromised (such as when a trusted device is misplaced). If the calling account had been granted `role`, emits a {RoleRevoked} event. Requirements: - the caller must be `account`."
      },
      "revokeRole(bytes32,address)": {
        "details": "Revokes `role` from `account`. If `account` had been granted `role`, emits a {RoleRevoked} event. Requirements: - the caller must have ``role``'s admin role."
      },
      "safeTransferFrom(address,address,uint256)": {
        "details": "See {IERC721-safeTransferFrom}."
      },
      "safeTransferFrom(address,address,uint256,bytes)": {
        "details": "See {IERC721-safeTransferFrom}."
      },
      "setApprovalForAll(address,bool)": {
        "details": "See {IERC721-setApprovalForAll}."
      },
      "symbol()": {
        "details": "See {IERC721Metadata-symbol}."
      },
      "tokenByIndex(uint256)": {
        "details": "See {IERC721Enumerable-tokenByIndex}."
      },
      "tokenOfOwnerByIndex(address,uint256)": {
        "details": "See {IERC721Enumerable-tokenOfOwnerByIndex}."
      },
      "totalSupply()": {
        "details": "See {IERC721Enumerable-totalSupply}."
      },
      "transferFrom(address,address,uint256)": {
        "details": "See {IERC721-transferFrom}."
      }
    },
    "version": 1
  },
  "userdoc": {
    "kind": "user",
    "methods": {},
    "version": 1
  }
}