{
  "contractName": "Paru1155",
  "abi": [
    {
      "anonymous": false,
      "inputs": [
        {
          "indexed": true,
          "internalType": "address",
          "name": "account",
          "type": "address"
        },
        {
          "indexed": true,
          "internalType": "address",
          "name": "operator",
          "type": "address"
        },
        {
          "indexed": false,
          "internalType": "bool",
          "name": "approved",
          "type": "bool"
        }
      ],
      "name": "ApprovalForAll",
      "type": "event"
    },
    {
      "anonymous": false,
      "inputs": [
        {
          "indexed": true,
          "internalType": "address",
          "name": "previousOwner",
          "type": "address"
        },
        {
          "indexed": true,
          "internalType": "address",
          "name": "newOwner",
          "type": "address"
        }
      ],
      "name": "OwnershipTransferred",
      "type": "event"
    },
    {
      "anonymous": false,
      "inputs": [
        {
          "indexed": false,
          "internalType": "address",
          "name": "account",
          "type": "address"
        }
      ],
      "name": "Paused",
      "type": "event"
    },
    {
      "anonymous": false,
      "inputs": [
        {
          "indexed": true,
          "internalType": "address",
          "name": "operator",
          "type": "address"
        },
        {
          "indexed": true,
          "internalType": "address",
          "name": "from",
          "type": "address"
        },
        {
          "indexed": true,
          "internalType": "address",
          "name": "to",
          "type": "address"
        },
        {
          "indexed": false,
          "internalType": "uint256[]",
          "name": "ids",
          "type": "uint256[]"
        },
        {
          "indexed": false,
          "internalType": "uint256[]",
          "name": "values",
          "type": "uint256[]"
        }
      ],
      "name": "TransferBatch",
      "type": "event"
    },
    {
      "anonymous": false,
      "inputs": [
        {
          "indexed": true,
          "internalType": "address",
          "name": "operator",
          "type": "address"
        },
        {
          "indexed": true,
          "internalType": "address",
          "name": "from",
          "type": "address"
        },
        {
          "indexed": true,
          "internalType": "address",
          "name": "to",
          "type": "address"
        },
        {
          "indexed": false,
          "internalType": "uint256",
          "name": "id",
          "type": "uint256"
        },
        {
          "indexed": false,
          "internalType": "uint256",
          "name": "value",
          "type": "uint256"
        }
      ],
      "name": "TransferSingle",
      "type": "event"
    },
    {
      "anonymous": false,
      "inputs": [
        {
          "indexed": false,
          "internalType": "string",
          "name": "value",
          "type": "string"
        },
        {
          "indexed": true,
          "internalType": "uint256",
          "name": "id",
          "type": "uint256"
        }
      ],
      "name": "URI",
      "type": "event"
    },
    {
      "anonymous": false,
      "inputs": [
        {
          "indexed": false,
          "internalType": "address",
          "name": "account",
          "type": "address"
        }
      ],
      "name": "Unpaused",
      "type": "event"
    },
    {
      "inputs": [
        {
          "internalType": "address",
          "name": "account",
          "type": "address"
        },
        {
          "internalType": "uint256",
          "name": "id",
          "type": "uint256"
        }
      ],
      "name": "balanceOf",
      "outputs": [
        {
          "internalType": "uint256",
          "name": "",
          "type": "uint256"
        }
      ],
      "stateMutability": "view",
      "type": "function"
    },
    {
      "inputs": [
        {
          "internalType": "address[]",
          "name": "accounts",
          "type": "address[]"
        },
        {
          "internalType": "uint256[]",
          "name": "ids",
          "type": "uint256[]"
        }
      ],
      "name": "balanceOfBatch",
      "outputs": [
        {
          "internalType": "uint256[]",
          "name": "",
          "type": "uint256[]"
        }
      ],
      "stateMutability": "view",
      "type": "function"
    },
    {
      "inputs": [],
      "name": "baseURI",
      "outputs": [
        {
          "internalType": "string",
          "name": "",
          "type": "string"
        }
      ],
      "stateMutability": "view",
      "type": "function"
    },
    {
      "inputs": [
        {
          "internalType": "address",
          "name": "account",
          "type": "address"
        },
        {
          "internalType": "uint256",
          "name": "id",
          "type": "uint256"
        },
        {
          "internalType": "uint256",
          "name": "value",
          "type": "uint256"
        }
      ],
      "name": "burn",
      "outputs": [],
      "stateMutability": "nonpayable",
      "type": "function"
    },
    {
      "inputs": [
        {
          "internalType": "address",
          "name": "account",
          "type": "address"
        },
        {
          "internalType": "uint256[]",
          "name": "ids",
          "type": "uint256[]"
        },
        {
          "internalType": "uint256[]",
          "name": "values",
          "type": "uint256[]"
        }
      ],
      "name": "burnBatch",
      "outputs": [],
      "stateMutability": "nonpayable",
      "type": "function"
    },
    {
      "inputs": [
        {
          "internalType": "address",
          "name": "account",
          "type": "address"
        },
        {
          "internalType": "address",
          "name": "operator",
          "type": "address"
        }
      ],
      "name": "isApprovedForAll",
      "outputs": [
        {
          "internalType": "bool",
          "name": "",
          "type": "bool"
        }
      ],
      "stateMutability": "view",
      "type": "function"
    },
    {
      "inputs": [],
      "name": "name",
      "outputs": [
        {
          "internalType": "string",
          "name": "",
          "type": "string"
        }
      ],
      "stateMutability": "view",
      "type": "function"
    },
    {
      "inputs": [],
      "name": "owner",
      "outputs": [
        {
          "internalType": "address",
          "name": "",
          "type": "address"
        }
      ],
      "stateMutability": "view",
      "type": "function"
    },
    {
      "inputs": [],
      "name": "paused",
      "outputs": [
        {
          "internalType": "bool",
          "name": "",
          "type": "bool"
        }
      ],
      "stateMutability": "view",
      "type": "function"
    },
    {
      "inputs": [],
      "name": "renounceOwnership",
      "outputs": [],
      "stateMutability": "nonpayable",
      "type": "function"
    },
    {
      "inputs": [
        {
          "internalType": "address",
          "name": "from",
          "type": "address"
        },
        {
          "internalType": "address",
          "name": "to",
          "type": "address"
        },
        {
          "internalType": "uint256[]",
          "name": "ids",
          "type": "uint256[]"
        },
        {
          "internalType": "uint256[]",
          "name": "amounts",
          "type": "uint256[]"
        },
        {
          "internalType": "bytes",
          "name": "data",
          "type": "bytes"
        }
      ],
      "name": "safeBatchTransferFrom",
      "outputs": [],
      "stateMutability": "nonpayable",
      "type": "function"
    },
    {
      "inputs": [
        {
          "internalType": "address",
          "name": "from",
          "type": "address"
        },
        {
          "internalType": "address",
          "name": "to",
          "type": "address"
        },
        {
          "internalType": "uint256",
          "name": "id",
          "type": "uint256"
        },
        {
          "internalType": "uint256",
          "name": "amount",
          "type": "uint256"
        },
        {
          "internalType": "bytes",
          "name": "data",
          "type": "bytes"
        }
      ],
      "name": "safeTransferFrom",
      "outputs": [],
      "stateMutability": "nonpayable",
      "type": "function"
    },
    {
      "inputs": [
        {
          "internalType": "address",
          "name": "operator",
          "type": "address"
        },
        {
          "internalType": "bool",
          "name": "approved",
          "type": "bool"
        }
      ],
      "name": "setApprovalForAll",
      "outputs": [],
      "stateMutability": "nonpayable",
      "type": "function"
    },
    {
      "inputs": [
        {
          "internalType": "bytes4",
          "name": "interfaceId",
          "type": "bytes4"
        }
      ],
      "name": "supportsInterface",
      "outputs": [
        {
          "internalType": "bool",
          "name": "",
          "type": "bool"
        }
      ],
      "stateMutability": "view",
      "type": "function"
    },
    {
      "inputs": [],
      "name": "symbol",
      "outputs": [
        {
          "internalType": "string",
          "name": "",
          "type": "string"
        }
      ],
      "stateMutability": "view",
      "type": "function"
    },
    {
      "inputs": [
        {
          "internalType": "address",
          "name": "newOwner",
          "type": "address"
        }
      ],
      "name": "transferOwnership",
      "outputs": [],
      "stateMutability": "nonpayable",
      "type": "function"
    },
    {
      "inputs": [
        {
          "internalType": "string",
          "name": "_name",
          "type": "string"
        },
        {
          "internalType": "string",
          "name": "_symbol",
          "type": "string"
        },
        {
          "internalType": "string",
          "name": "baseURI",
          "type": "string"
        }
      ],
      "name": "initialize",
      "outputs": [],
      "stateMutability": "nonpayable",
      "type": "function"
    },
    {
      "inputs": [
        {
          "internalType": "address",
          "name": "account",
          "type": "address"
        },
        {
          "internalType": "uint256",
          "name": "id",
          "type": "uint256"
        },
        {
          "internalType": "uint256",
          "name": "amount",
          "type": "uint256"
        },
        {
          "internalType": "bytes",
          "name": "data",
          "type": "bytes"
        }
      ],
      "name": "mintItem",
      "outputs": [],
      "stateMutability": "nonpayable",
      "type": "function"
    },
    {
      "inputs": [
        {
          "internalType": "uint256",
          "name": "id",
          "type": "uint256"
        }
      ],
      "name": "ownerOf",
      "outputs": [
        {
          "internalType": "address",
          "name": "",
          "type": "address"
        }
      ],
      "stateMutability": "view",
      "type": "function"
    },
    {
      "inputs": [
        {
          "internalType": "uint256",
          "name": "id",
          "type": "uint256"
        }
      ],
      "name": "uri",
      "outputs": [
        {
          "internalType": "string",
          "name": "",
          "type": "string"
        }
      ],
      "stateMutability": "view",
      "type": "function"
    },
    {
      "inputs": [],
      "name": "pause",
      "outputs": [],
      "stateMutability": "nonpayable",
      "type": "function"
    },
    {
      "inputs": [],
      "name": "unpause",
      "outputs": [],
      "stateMutability": "nonpayable",
      "type": "function"
    },
    {
      "inputs": [
        {
          "internalType": "uint256",
          "name": "id",
          "type": "uint256"
        }
      ],
      "name": "totalSupply",
      "outputs": [
        {
          "internalType": "uint256",
          "name": "",
          "type": "uint256"
        }
      ],
      "stateMutability": "view",
      "type": "function"
    },
    {
      "inputs": [
        {
          "internalType": "uint256",
          "name": "id",
          "type": "uint256"
        }
      ],
      "name": "exists",
      "outputs": [
        {
          "internalType": "bool",
          "name": "",
          "type": "bool"
        }
      ],
      "stateMutability": "view",
      "type": "function"
    }
  ],
  "bytecode": "0x608060405234801561001057600080fd5b50614d87806100206000396000f3fe608060405234801561001057600080fd5b50600436106101575760003560e01c8063715018a6116100c3578063bd85b0391161007c578063bd85b039146103a0578063e88700f0146103d0578063e985e9c5146103ec578063f242432a1461041c578063f2fde38b14610438578063f5298aca1461045457610157565b8063715018a6146103185780638456cb59146103225780638da5cb5b1461032c57806395d89b411461034a578063a22cb46514610368578063a6487c531461038457610157565b80634e1273f4116101155780634e1273f4146102305780634f558e79146102605780635c975abb146102905780636352211e146102ae5780636b20c454146102de5780636c0360eb146102fa57610157565b8062fdd58e1461015c57806301ffc9a71461018c57806306fdde03146101bc5780630e89341c146101da5780632eb2c2d61461020a5780633f4ba83a14610226575b600080fd5b610176600480360381019061017191906137a3565b610470565b604051610183919061479f565b60405180910390f35b6101a660048036038101906101a19190613915565b61053a565b6040516101b391906144c2565b60405180910390f35b6101c461061c565b6040516101d191906144dd565b60405180910390f35b6101f460048036038101906101ef91906139fe565b6106ab565b60405161020191906144dd565b60405180910390f35b610224600480360381019061021f919061359a565b6106bd565b005b61022e610ab6565b005b61024a600480360381019061024591906138a9565b610b3c565b6040516102579190614469565b60405180910390f35b61027a600480360381019061027591906139fe565b610ced565b60405161028791906144c2565b60405180910390f35b610298610d01565b6040516102a591906144c2565b60405180910390f35b6102c860048036038101906102c391906139fe565b610d19565b6040516102d5919061438c565b60405180910390f35b6102f860048036038101906102f391906136e8565b610dcc565b005b610302610e69565b60405161030f91906144dd565b60405180910390f35b610320610efb565b005b61032a611038565b005b6103346110be565b604051610341919061438c565b60405180910390f35b6103526110e8565b60405161035f91906144dd565b60405180910390f35b610382600480360381019061037d9190613767565b611177565b005b61039e60048036038101906103999190613967565b6112f8565b005b6103ba60048036038101906103b591906139fe565b61142d565b6040516103c7919061479f565b60405180910390f35b6103ea60048036038101906103e5919061382e565b61144b565b005b6104066004803603810190610401919061355e565b611559565b60405161041391906144c2565b60405180910390f35b61043660048036038101906104319190613659565b6115ed565b005b610452600480360381019061044d9190613535565b611908565b005b61046e600480360381019061046991906137df565b611ab4565b005b60008073ffffffffffffffffffffffffffffffffffffffff168373ffffffffffffffffffffffffffffffffffffffff1614156104e1576040517f08c379a00000000000000000000000000000000000000000000000000000000081526004016104d89061457f565b60405180910390fd5b6097600083815260200190815260200160002060008473ffffffffffffffffffffffffffffffffffffffff1673ffffffffffffffffffffffffffffffffffffffff16815260200190815260200160002054905092915050565b60007fd9b67a26000000000000000000000000000000000000000000000000000000007bffffffffffffffffffffffffffffffffffffffffffffffffffffffff1916827bffffffffffffffffffffffffffffffffffffffffffffffffffffffff1916148061060557507f0e89341c000000000000000000000000000000000000000000000000000000007bffffffffffffffffffffffffffffffffffffffffffffffffffffffff1916827bffffffffffffffffffffffffffffffffffffffffffffffffffffffff1916145b80610615575061061482611b51565b5b9050919050565b610193805461062a90614ab9565b80601f016020809104026020016040519081016040528092919081815260200182805461065690614ab9565b80156106a35780601f10610678576101008083540402835291602001916106a3565b820191906000526020600020905b81548152906001019060200180831161068657829003601f168201915b505050505081565b60606106b682611bbb565b9050919050565b8151835114610701576040517f08c379a00000000000000000000000000000000000000000000000000000000081526004016106f89061475f565b60405180910390fd5b600073ffffffffffffffffffffffffffffffffffffffff168473ffffffffffffffffffffffffffffffffffffffff161415610771576040517f08c379a00000000000000000000000000000000000000000000000000000000081526004016107689061465f565b60405180910390fd5b610779611ce6565b73ffffffffffffffffffffffffffffffffffffffff168573ffffffffffffffffffffffffffffffffffffffff1614806107bf57506107be856107b9611ce6565b611559565b5b6107fe576040517f08c379a00000000000000000000000000000000000000000000000000000000081526004016107f59061467f565b60405180910390fd5b6000610808611ce6565b9050610818818787878787611cee565b60005b8451811015610a2157600085828151811061085f577f4e487b7100000000000000000000000000000000000000000000000000000000600052603260045260246000fd5b6020026020010151905060008583815181106108a4577f4e487b7100000000000000000000000000000000000000000000000000000000600052603260045260246000fd5b6020026020010151905060006097600084815260200190815260200160002060008b73ffffffffffffffffffffffffffffffffffffffff1673ffffffffffffffffffffffffffffffffffffffff16815260200190815260200160002054905081811015610946576040517f08c379a000000000000000000000000000000000000000000000000000000000815260040161093d906146df565b60405180910390fd5b818161095291906149cf565b6097600085815260200190815260200160002060008c73ffffffffffffffffffffffffffffffffffffffff1673ffffffffffffffffffffffffffffffffffffffff16815260200190815260200160002081905550816097600085815260200190815260200160002060008b73ffffffffffffffffffffffffffffffffffffffff1673ffffffffffffffffffffffffffffffffffffffff1681526020019081526020016000206000828254610a069190614948565b9250508190555050505080610a1a90614aeb565b905061081b565b508473ffffffffffffffffffffffffffffffffffffffff168673ffffffffffffffffffffffffffffffffffffffff168273ffffffffffffffffffffffffffffffffffffffff167f4a39dc06d4c0dbc64b70af90fd698a233a518aa5d07e595d983b8c0526c8f7fb8787604051610a9892919061448b565b60405180910390a4610aae818787878787611d04565b505050505050565b610abe611ce6565b73ffffffffffffffffffffffffffffffffffffffff16610adc6110be565b73ffffffffffffffffffffffffffffffffffffffff1614610b32576040517f08c379a0000000000000000000000000000000000000000000000000000000008152600401610b29906146ff565b60405180910390fd5b610b3a611ed4565b565b60608151835114610b82576040517f08c379a0000000000000000000000000000000000000000000000000000000008152600401610b799061473f565b60405180910390fd5b6000835167ffffffffffffffff811115610bc5577f4e487b7100000000000000000000000000000000000000000000000000000000600052604160045260246000fd5b604051908082528060200260200182016040528015610bf35781602001602082028036833780820191505090505b50905060005b8451811015610ce257610c8c858281518110610c3e577f4e487b7100000000000000000000000000000000000000000000000000000000600052603260045260246000fd5b6020026020010151858381518110610c7f577f4e487b7100000000000000000000000000000000000000000000000000000000600052603260045260246000fd5b6020026020010151610470565b828281518110610cc5577f4e487b7100000000000000000000000000000000000000000000000000000000600052603260045260246000fd5b60200260200101818152505080610cdb90614aeb565b9050610bf9565b508091505092915050565b600080610cf98361142d565b119050919050565b600061012f60009054906101000a900460ff16905090565b600080610196600084815260200190815260200160002060009054906101000a900473ffffffffffffffffffffffffffffffffffffffff169050600073ffffffffffffffffffffffffffffffffffffffff168173ffffffffffffffffffffffffffffffffffffffff161415610dc3576040517f08c379a0000000000000000000000000000000000000000000000000000000008152600401610dba9061461f565b60405180910390fd5b80915050919050565b610dd4611ce6565b73ffffffffffffffffffffffffffffffffffffffff168373ffffffffffffffffffffffffffffffffffffffff161480610e1a5750610e1983610e14611ce6565b611559565b5b610e59576040517f08c379a0000000000000000000000000000000000000000000000000000000008152600401610e50906145ff565b60405180910390fd5b610e64838383611f77565b505050565b606060ca8054610e7890614ab9565b80601f0160208091040260200160405190810160405280929190818152602001828054610ea490614ab9565b8015610ef15780601f10610ec657610100808354040283529160200191610ef1565b820191906000526020600020905b815481529060010190602001808311610ed457829003601f168201915b5050505050905090565b610f03611ce6565b73ffffffffffffffffffffffffffffffffffffffff16610f216110be565b73ffffffffffffffffffffffffffffffffffffffff1614610f77576040517f08c379a0000000000000000000000000000000000000000000000000000000008152600401610f6e906146ff565b60405180910390fd5b600073ffffffffffffffffffffffffffffffffffffffff16603360009054906101000a900473ffffffffffffffffffffffffffffffffffffffff1673ffffffffffffffffffffffffffffffffffffffff167f8be0079c531659141344cd1fd0a4f28419497f9722a3daafe3b4186f6b6457e060405160405180910390a36000603360006101000a81548173ffffffffffffffffffffffffffffffffffffffff021916908373ffffffffffffffffffffffffffffffffffffffff160217905550565b611040611ce6565b73ffffffffffffffffffffffffffffffffffffffff1661105e6110be565b73ffffffffffffffffffffffffffffffffffffffff16146110b4576040517f08c379a00000000000000000000000000000000000000000000000000000000081526004016110ab906146ff565b60405180910390fd5b6110bc612050565b565b6000603360009054906101000a900473ffffffffffffffffffffffffffffffffffffffff16905090565b61019480546110f690614ab9565b80601f016020809104026020016040519081016040528092919081815260200182805461112290614ab9565b801561116f5780601f106111445761010080835404028352916020019161116f565b820191906000526020600020905b81548152906001019060200180831161115257829003601f168201915b505050505081565b8173ffffffffffffffffffffffffffffffffffffffff16611196611ce6565b73ffffffffffffffffffffffffffffffffffffffff1614156111ed576040517f08c379a00000000000000000000000000000000000000000000000000000000081526004016111e49061471f565b60405180910390fd5b80609860006111fa611ce6565b73ffffffffffffffffffffffffffffffffffffffff1673ffffffffffffffffffffffffffffffffffffffff16815260200190815260200160002060008473ffffffffffffffffffffffffffffffffffffffff1673ffffffffffffffffffffffffffffffffffffffff16815260200190815260200160002060006101000a81548160ff0219169083151502179055508173ffffffffffffffffffffffffffffffffffffffff166112a7611ce6565b73ffffffffffffffffffffffffffffffffffffffff167f17307eab39ab6107e8899845ad3d59bd9653f200f220920489ca2b5937696c31836040516112ec91906144c2565b60405180910390a35050565b600060019054906101000a900460ff168061131e575060008054906101000a900460ff16155b61135d576040517f08c379a00000000000000000000000000000000000000000000000000000000081526004016113549061469f565b60405180910390fd5b60008060019054906101000a900460ff1615905080156113ad576001600060016101000a81548160ff02191690831515021790555060016000806101000a81548160ff0219169083151502179055505b6113b56120f4565b6113cd60405180602001604052806000815250612276565b6113d682612369565b8361019390805190602001906113ed92919061322d565b5082610194908051906020019061140592919061322d565b5080156114275760008060016101000a81548160ff0219169083151502179055505b50505050565b60006101956000838152602001908152602001600020549050919050565b6000610196600085815260200190815260200160002060009054906101000a900473ffffffffffffffffffffffffffffffffffffffff169050600073ffffffffffffffffffffffffffffffffffffffff168173ffffffffffffffffffffffffffffffffffffffff16146114f3576040517f08c379a00000000000000000000000000000000000000000000000000000000081526004016114ea9061451f565b60405180910390fd5b6114ff85858585612383565b84610196600086815260200190815260200160002060006101000a81548173ffffffffffffffffffffffffffffffffffffffff021916908373ffffffffffffffffffffffffffffffffffffffff1602179055505050505050565b6000609860008473ffffffffffffffffffffffffffffffffffffffff1673ffffffffffffffffffffffffffffffffffffffff16815260200190815260200160002060008373ffffffffffffffffffffffffffffffffffffffff1673ffffffffffffffffffffffffffffffffffffffff16815260200190815260200160002060009054906101000a900460ff16905092915050565b600073ffffffffffffffffffffffffffffffffffffffff168473ffffffffffffffffffffffffffffffffffffffff16141561165d576040517f08c379a00000000000000000000000000000000000000000000000000000000081526004016116549061465f565b60405180910390fd5b611665611ce6565b73ffffffffffffffffffffffffffffffffffffffff168573ffffffffffffffffffffffffffffffffffffffff1614806116ab57506116aa856116a5611ce6565b611559565b5b6116ea576040517f08c379a00000000000000000000000000000000000000000000000000000000081526004016116e1906145ff565b60405180910390fd5b60006116f4611ce6565b9050611714818787611705886123c0565b61170e886123c0565b87611cee565b60006097600086815260200190815260200160002060008873ffffffffffffffffffffffffffffffffffffffff1673ffffffffffffffffffffffffffffffffffffffff168152602001908152602001600020549050838110156117ac576040517f08c379a00000000000000000000000000000000000000000000000000000000081526004016117a3906146df565b60405180910390fd5b83816117b891906149cf565b6097600087815260200190815260200160002060008973ffffffffffffffffffffffffffffffffffffffff1673ffffffffffffffffffffffffffffffffffffffff16815260200190815260200160002081905550836097600087815260200190815260200160002060008873ffffffffffffffffffffffffffffffffffffffff1673ffffffffffffffffffffffffffffffffffffffff168152602001908152602001600020600082825461186c9190614948565b925050819055508573ffffffffffffffffffffffffffffffffffffffff168773ffffffffffffffffffffffffffffffffffffffff168373ffffffffffffffffffffffffffffffffffffffff167fc3d58168c5ae7397731d063d5bbf3d657854427343f4c083240f7aacaa2d0f6288886040516118e99291906147ba565b60405180910390a46118ff828888888888612486565b50505050505050565b611910611ce6565b73ffffffffffffffffffffffffffffffffffffffff1661192e6110be565b73ffffffffffffffffffffffffffffffffffffffff1614611984576040517f08c379a000000000000000000000000000000000000000000000000000000000815260040161197b906146ff565b60405180910390fd5b600073ffffffffffffffffffffffffffffffffffffffff168173ffffffffffffffffffffffffffffffffffffffff1614156119f4576040517f08c379a00000000000000000000000000000000000000000000000000000000081526004016119eb9061459f565b60405180910390fd5b8073ffffffffffffffffffffffffffffffffffffffff16603360009054906101000a900473ffffffffffffffffffffffffffffffffffffffff1673ffffffffffffffffffffffffffffffffffffffff167f8be0079c531659141344cd1fd0a4f28419497f9722a3daafe3b4186f6b6457e060405160405180910390a380603360006101000a81548173ffffffffffffffffffffffffffffffffffffffff021916908373ffffffffffffffffffffffffffffffffffffffff16021790555050565b611abc611ce6565b73ffffffffffffffffffffffffffffffffffffffff168373ffffffffffffffffffffffffffffffffffffffff161480611b025750611b0183611afc611ce6565b611559565b5b611b41576040517f08c379a0000000000000000000000000000000000000000000000000000000008152600401611b38906145ff565b60405180910390fd5b611b4c838383612656565b505050565b60007f01ffc9a7000000000000000000000000000000000000000000000000000000007bffffffffffffffffffffffffffffffffffffffffffffffffffffffff1916827bffffffffffffffffffffffffffffffffffffffffffffffffffffffff1916149050919050565b6060600060c960008481526020019081526020016000208054611bdd90614ab9565b80601f0160208091040260200160405190810160405280929190818152602001828054611c0990614ab9565b8015611c565780601f10611c2b57610100808354040283529160200191611c56565b820191906000526020600020905b815481529060010190602001808311611c3957829003601f168201915b505050505090506000611c67610e69565b9050600081511415611c7d578192505050611ce1565b600082511115611cb2578082604051602001611c9a929190614368565b60405160208183030381529060405292505050611ce1565b80611cbc85612691565b604051602001611ccd929190614368565b604051602081830303815290604052925050505b919050565b600033905090565b611cfc86868686868661283e565b505050505050565b611d238473ffffffffffffffffffffffffffffffffffffffff1661289c565b15611ecc578373ffffffffffffffffffffffffffffffffffffffff1663bc197c8187878686866040518663ffffffff1660e01b8152600401611d699594939291906143a7565b602060405180830381600087803b158015611d8357600080fd5b505af1925050508015611db457506040513d601f19601f82011682018060405250810190611db1919061393e565b60015b611e4357611dc0614c3f565b80611dcb5750611e08565b806040517f08c379a0000000000000000000000000000000000000000000000000000000008152600401611dff91906144dd565b60405180910390fd5b6040517f08c379a0000000000000000000000000000000000000000000000000000000008152600401611e3a906144ff565b60405180910390fd5b63bc197c8160e01b7bffffffffffffffffffffffffffffffffffffffffffffffffffffffff1916817bffffffffffffffffffffffffffffffffffffffffffffffffffffffff191614611eca576040517f08c379a0000000000000000000000000000000000000000000000000000000008152600401611ec19061453f565b60405180910390fd5b505b505050505050565b611edc610d01565b611f1b576040517f08c379a0000000000000000000000000000000000000000000000000000000008152600401611f129061455f565b60405180910390fd5b600061012f60006101000a81548160ff0219169083151502179055507f5db9ee0a495bf2e6ff9c91a7834c1ba4fdd244a5e8aa4e537bd38aeae4b073aa611f60611ce6565b604051611f6d919061438c565b60405180910390a1565b611f828383836128af565b60005b825181101561204a57818181518110611fc7577f4e487b7100000000000000000000000000000000000000000000000000000000600052603260045260246000fd5b6020026020010151610195600085848151811061200d577f4e487b7100000000000000000000000000000000000000000000000000000000600052603260045260246000fd5b60200260200101518152602001908152602001600020600082825461203291906149cf565b925050819055508061204390614aeb565b9050611f85565b50505050565b612058610d01565b15612098576040517f08c379a000000000000000000000000000000000000000000000000000000000815260040161208f9061463f565b60405180910390fd5b600161012f60006101000a81548160ff0219169083151502179055507f62e78cea01bee320cd4e420270b5ea74000d11b0c9f74754ebdbfc544b05a2586120dd611ce6565b6040516120ea919061438c565b60405180910390a1565b600060019054906101000a900460ff168061211a575060008054906101000a900460ff16155b612159576040517f08c379a00000000000000000000000000000000000000000000000000000000081526004016121509061469f565b60405180910390fd5b60008060019054906101000a900460ff1615905080156121a9576001600060016101000a81548160ff02191690831515021790555060016000806101000a81548160ff0219169083151502179055505b60006121b3611ce6565b905080603360006101000a81548173ffffffffffffffffffffffffffffffffffffffff021916908373ffffffffffffffffffffffffffffffffffffffff1602179055508073ffffffffffffffffffffffffffffffffffffffff16600073ffffffffffffffffffffffffffffffffffffffff167f8be0079c531659141344cd1fd0a4f28419497f9722a3daafe3b4186f6b6457e060405160405180910390a35080156122735760008060016101000a81548160ff0219169083151502179055505b50565b600060019054906101000a900460ff168061229c575060008054906101000a900460ff16155b6122db576040517f08c379a00000000000000000000000000000000000000000000000000000000081526004016122d29061469f565b60405180910390fd5b60008060019054906101000a900460ff16159050801561232b576001600060016101000a81548160ff02191690831515021790555060016000806101000a81548160ff0219169083151502179055505b612333612bb7565b61233b612c90565b61234482612d69565b80156123655760008060016101000a81548160ff0219169083151502179055505b5050565b8060ca908051906020019061237f92919061322d565b5050565b61238f84848484612e4c565b81610195600085815260200190815260200160002060008282546123b39190614948565b9250508190555050505050565b60606000600167ffffffffffffffff811115612405577f4e487b7100000000000000000000000000000000000000000000000000000000600052604160045260246000fd5b6040519080825280602002602001820160405280156124335781602001602082028036833780820191505090505b5090508281600081518110612471577f4e487b7100000000000000000000000000000000000000000000000000000000600052603260045260246000fd5b60200260200101818152505080915050919050565b6124a58473ffffffffffffffffffffffffffffffffffffffff1661289c565b1561264e578373ffffffffffffffffffffffffffffffffffffffff1663f23a6e6187878686866040518663ffffffff1660e01b81526004016124eb95949392919061440f565b602060405180830381600087803b15801561250557600080fd5b505af192505050801561253657506040513d601f19601f82011682018060405250810190612533919061393e565b60015b6125c557612542614c3f565b8061254d575061258a565b806040517f08c379a000000000000000000000000000000000000000000000000000000000815260040161258191906144dd565b60405180910390fd5b6040517f08c379a00000000000000000000000000000000000000000000000000000000081526004016125bc906144ff565b60405180910390fd5b63f23a6e6160e01b7bffffffffffffffffffffffffffffffffffffffffffffffffffffffff1916817bffffffffffffffffffffffffffffffffffffffffffffffffffffffff19161461264c576040517f08c379a00000000000000000000000000000000000000000000000000000000081526004016126439061453f565b60405180910390fd5b505b505050505050565b612661838383612fe3565b806101956000848152602001908152602001600020600082825461268591906149cf565b92505081905550505050565b606060008214156126d9576040518060400160405280600181526020017f30000000000000000000000000000000000000000000000000000000000000008152509050612839565b600082905060005b6000821461270b5780806126f490614aeb565b915050600a82612704919061499e565b91506126e1565b60008167ffffffffffffffff81111561274d577f4e487b7100000000000000000000000000000000000000000000000000000000600052604160045260246000fd5b6040519080825280601f01601f19166020018201604052801561277f5781602001600182028036833780820191505090505b5090505b600085146128325760018261279891906149cf565b9150600a856127a79190614b34565b60306127b39190614948565b60f81b8183815181106127ef577f4e487b7100000000000000000000000000000000000000000000000000000000600052603260045260246000fd5b60200101907effffffffffffffffffffffffffffffffffffffffffffffffffffffffffffff1916908160001a905350600a8561282b919061499e565b9450612783565b8093505050505b919050565b61284c86868686868661320b565b612854610d01565b15612894576040517f08c379a000000000000000000000000000000000000000000000000000000000815260040161288b906145df565b60405180910390fd5b505050505050565b600080823b905060008111915050919050565b600073ffffffffffffffffffffffffffffffffffffffff168373ffffffffffffffffffffffffffffffffffffffff16141561291f576040517f08c379a0000000000000000000000000000000000000000000000000000000008152600401612916906146bf565b60405180910390fd5b8051825114612963576040517f08c379a000000000000000000000000000000000000000000000000000000000815260040161295a9061475f565b60405180910390fd5b600061296d611ce6565b905061298d81856000868660405180602001604052806000815250611cee565b60005b8351811015612b315760008482815181106129d4577f4e487b7100000000000000000000000000000000000000000000000000000000600052603260045260246000fd5b602002602001015190506000848381518110612a19577f4e487b7100000000000000000000000000000000000000000000000000000000600052603260045260246000fd5b6020026020010151905060006097600084815260200190815260200160002060008973ffffffffffffffffffffffffffffffffffffffff1673ffffffffffffffffffffffffffffffffffffffff16815260200190815260200160002054905081811015612abb576040517f08c379a0000000000000000000000000000000000000000000000000000000008152600401612ab2906145bf565b60405180910390fd5b8181612ac791906149cf565b6097600085815260200190815260200160002060008a73ffffffffffffffffffffffffffffffffffffffff1673ffffffffffffffffffffffffffffffffffffffff168152602001908152602001600020819055505050508080612b2990614aeb565b915050612990565b50600073ffffffffffffffffffffffffffffffffffffffff168473ffffffffffffffffffffffffffffffffffffffff168273ffffffffffffffffffffffffffffffffffffffff167f4a39dc06d4c0dbc64b70af90fd698a233a518aa5d07e595d983b8c0526c8f7fb8686604051612ba992919061448b565b60405180910390a450505050565b600060019054906101000a900460ff1680612bdd575060008054906101000a900460ff16155b612c1c576040517f08c379a0000000000000000000000000000000000000000000000000000000008152600401612c139061469f565b60405180910390fd5b60008060019054906101000a900460ff161590508015612c6c576001600060016101000a81548160ff02191690831515021790555060016000806101000a81548160ff0219169083151502179055505b8015612c8d5760008060016101000a81548160ff0219169083151502179055505b50565b600060019054906101000a900460ff1680612cb6575060008054906101000a900460ff16155b612cf5576040517f08c379a0000000000000000000000000000000000000000000000000000000008152600401612cec9061469f565b60405180910390fd5b60008060019054906101000a900460ff161590508015612d45576001600060016101000a81548160ff02191690831515021790555060016000806101000a81548160ff0219169083151502179055505b8015612d665760008060016101000a81548160ff0219169083151502179055505b50565b600060019054906101000a900460ff1680612d8f575060008054906101000a900460ff16155b612dce576040517f08c379a0000000000000000000000000000000000000000000000000000000008152600401612dc59061469f565b60405180910390fd5b60008060019054906101000a900460ff161590508015612e1e576001600060016101000a81548160ff02191690831515021790555060016000806101000a81548160ff0219169083151502179055505b612e2782613213565b8015612e485760008060016101000a81548160ff0219169083151502179055505b5050565b600073ffffffffffffffffffffffffffffffffffffffff168473ffffffffffffffffffffffffffffffffffffffff161415612ebc576040517f08c379a0000000000000000000000000000000000000000000000000000000008152600401612eb39061477f565b60405180910390fd5b6000612ec6611ce6565b9050612ee781600087612ed8886123c0565b612ee1886123c0565b87611cee565b826097600086815260200190815260200160002060008773ffffffffffffffffffffffffffffffffffffffff1673ffffffffffffffffffffffffffffffffffffffff1681526020019081526020016000206000828254612f479190614948565b925050819055508473ffffffffffffffffffffffffffffffffffffffff16600073ffffffffffffffffffffffffffffffffffffffff168273ffffffffffffffffffffffffffffffffffffffff167fc3d58168c5ae7397731d063d5bbf3d657854427343f4c083240f7aacaa2d0f628787604051612fc59291906147ba565b60405180910390a4612fdc81600087878787612486565b5050505050565b600073ffffffffffffffffffffffffffffffffffffffff168373ffffffffffffffffffffffffffffffffffffffff161415613053576040517f08c379a000000000000000000000000000000000000000000000000000000000815260040161304a906146bf565b60405180910390fd5b600061305d611ce6565b905061308d8185600061306f876123c0565b613078876123c0565b60405180602001604052806000815250611cee565b60006097600085815260200190815260200160002060008673ffffffffffffffffffffffffffffffffffffffff1673ffffffffffffffffffffffffffffffffffffffff16815260200190815260200160002054905082811015613125576040517f08c379a000000000000000000000000000000000000000000000000000000000815260040161311c906145bf565b60405180910390fd5b828161313191906149cf565b6097600086815260200190815260200160002060008773ffffffffffffffffffffffffffffffffffffffff1673ffffffffffffffffffffffffffffffffffffffff16815260200190815260200160002081905550600073ffffffffffffffffffffffffffffffffffffffff168573ffffffffffffffffffffffffffffffffffffffff168373ffffffffffffffffffffffffffffffffffffffff167fc3d58168c5ae7397731d063d5bbf3d657854427343f4c083240f7aacaa2d0f6287876040516131fc9291906147ba565b60405180910390a45050505050565b505050505050565b806099908051906020019061322992919061322d565b5050565b82805461323990614ab9565b90600052602060002090601f01602090048101928261325b57600085556132a2565b82601f1061327457805160ff19168380011785556132a2565b828001600101855582156132a2579182015b828111156132a1578251825591602001919060010190613286565b5b5090506132af91906132b3565b5090565b5b808211156132cc5760008160009055506001016132b4565b5090565b60006132e36132de84614814565b6147e3565b9050808382526020820190508285602086028201111561330257600080fd5b60005b8581101561333257816133188882613424565b845260208401935060208301925050600181019050613305565b5050509392505050565b600061334f61334a84614840565b6147e3565b9050808382526020820190508285602086028201111561336e57600080fd5b60005b8581101561339e57816133848882613520565b845260208401935060208301925050600181019050613371565b5050509392505050565b60006133bb6133b68461486c565b6147e3565b9050828152602081018484840111156133d357600080fd5b6133de848285614a77565b509392505050565b60006133f96133f48461489c565b6147e3565b90508281526020810184848401111561341157600080fd5b61341c848285614a77565b509392505050565b60008135905061343381614cf5565b92915050565b600082601f83011261344a57600080fd5b813561345a8482602086016132d0565b91505092915050565b600082601f83011261347457600080fd5b813561348484826020860161333c565b91505092915050565b60008135905061349c81614d0c565b92915050565b6000813590506134b181614d23565b92915050565b6000815190506134c681614d23565b92915050565b600082601f8301126134dd57600080fd5b81356134ed8482602086016133a8565b91505092915050565b600082601f83011261350757600080fd5b81356135178482602086016133e6565b91505092915050565b60008135905061352f81614d3a565b92915050565b60006020828403121561354757600080fd5b600061355584828501613424565b91505092915050565b6000806040838503121561357157600080fd5b600061357f85828601613424565b925050602061359085828601613424565b9150509250929050565b600080600080600060a086880312156135b257600080fd5b60006135c088828901613424565b95505060206135d188828901613424565b945050604086013567ffffffffffffffff8111156135ee57600080fd5b6135fa88828901613463565b935050606086013567ffffffffffffffff81111561361757600080fd5b61362388828901613463565b925050608086013567ffffffffffffffff81111561364057600080fd5b61364c888289016134cc565b9150509295509295909350565b600080600080600060a0868803121561367157600080fd5b600061367f88828901613424565b955050602061369088828901613424565b94505060406136a188828901613520565b93505060606136b288828901613520565b925050608086013567ffffffffffffffff8111156136cf57600080fd5b6136db888289016134cc565b9150509295509295909350565b6000806000606084860312156136fd57600080fd5b600061370b86828701613424565b935050602084013567ffffffffffffffff81111561372857600080fd5b61373486828701613463565b925050604084013567ffffffffffffffff81111561375157600080fd5b61375d86828701613463565b9150509250925092565b6000806040838503121561377a57600080fd5b600061378885828601613424565b92505060206137998582860161348d565b9150509250929050565b600080604083850312156137b657600080fd5b60006137c485828601613424565b92505060206137d585828601613520565b9150509250929050565b6000806000606084860312156137f457600080fd5b600061380286828701613424565b935050602061381386828701613520565b925050604061382486828701613520565b9150509250925092565b6000806000806080858703121561384457600080fd5b600061385287828801613424565b945050602061386387828801613520565b935050604061387487828801613520565b925050606085013567ffffffffffffffff81111561389157600080fd5b61389d878288016134cc565b91505092959194509250565b600080604083850312156138bc57600080fd5b600083013567ffffffffffffffff8111156138d657600080fd5b6138e285828601613439565b925050602083013567ffffffffffffffff8111156138ff57600080fd5b61390b85828601613463565b9150509250929050565b60006020828403121561392757600080fd5b6000613935848285016134a2565b91505092915050565b60006020828403121561395057600080fd5b600061395e848285016134b7565b91505092915050565b60008060006060848603121561397c57600080fd5b600084013567ffffffffffffffff81111561399657600080fd5b6139a2868287016134f6565b935050602084013567ffffffffffffffff8111156139bf57600080fd5b6139cb868287016134f6565b925050604084013567ffffffffffffffff8111156139e857600080fd5b6139f4868287016134f6565b9150509250925092565b600060208284031215613a1057600080fd5b6000613a1e84828501613520565b91505092915050565b6000613a33838361434a565b60208301905092915050565b613a4881614a03565b82525050565b6000613a59826148dc565b613a63818561490a565b9350613a6e836148cc565b8060005b83811015613a9f578151613a868882613a27565b9750613a91836148fd565b925050600181019050613a72565b5085935050505092915050565b613ab581614a15565b82525050565b6000613ac6826148e7565b613ad0818561491b565b9350613ae0818560208601614a86565b613ae981614c21565b840191505092915050565b6000613aff826148f2565b613b09818561492c565b9350613b19818560208601614a86565b613b2281614c21565b840191505092915050565b6000613b38826148f2565b613b42818561493d565b9350613b52818560208601614a86565b80840191505092915050565b6000613b6b60348361492c565b91507f455243313135353a207472616e7366657220746f206e6f6e204552433131353560008301527f526563656976657220696d706c656d656e7465720000000000000000000000006020830152604082019050919050565b6000613bd160348361492c565b91507f455243313135353a204974206973206e6f7420706f737369626c6520746f206960008301527f73737565206164646974696f6e616c204e4654730000000000000000000000006020830152604082019050919050565b6000613c3760288361492c565b91507f455243313135353a204552433131353552656365697665722072656a6563746560008301527f6420746f6b656e730000000000000000000000000000000000000000000000006020830152604082019050919050565b6000613c9d60148361492c565b91507f5061757361626c653a206e6f74207061757365640000000000000000000000006000830152602082019050919050565b6000613cdd602b8361492c565b91507f455243313135353a2062616c616e636520717565727920666f7220746865207a60008301527f65726f20616464726573730000000000000000000000000000000000000000006020830152604082019050919050565b6000613d4360268361492c565b91507f4f776e61626c653a206e6577206f776e657220697320746865207a65726f206160008301527f64647265737300000000000000000000000000000000000000000000000000006020830152604082019050919050565b6000613da960248361492c565b91507f455243313135353a206275726e20616d6f756e7420657863656564732062616c60008301527f616e6365000000000000000000000000000000000000000000000000000000006020830152604082019050919050565b6000613e0f602c8361492c565b91507f455243313135355061757361626c653a20746f6b656e207472616e736665722060008301527f7768696c652070617573656400000000000000000000000000000000000000006020830152604082019050919050565b6000613e7560298361492c565b91507f455243313135353a2063616c6c6572206973206e6f74206f776e6572206e6f7260008301527f20617070726f76656400000000000000000000000000000000000000000000006020830152604082019050919050565b6000613edb602a8361492c565b91507f455243313135353a206f776e657220717565727920666f72206e6f6e6578697360008301527f74656e7420746f6b656e000000000000000000000000000000000000000000006020830152604082019050919050565b6000613f4160108361492c565b91507f5061757361626c653a20706175736564000000000000000000000000000000006000830152602082019050919050565b6000613f8160258361492c565b91507f455243313135353a207472616e7366657220746f20746865207a65726f20616460008301527f64726573730000000000000000000000000000000000000000000000000000006020830152604082019050919050565b6000613fe760328361492c565b91507f455243313135353a207472616e736665722063616c6c6572206973206e6f742060008301527f6f776e6572206e6f7220617070726f76656400000000000000000000000000006020830152604082019050919050565b600061404d602e8361492c565b91507f496e697469616c697a61626c653a20636f6e747261637420697320616c72656160008301527f647920696e697469616c697a65640000000000000000000000000000000000006020830152604082019050919050565b60006140b360238361492c565b91507f455243313135353a206275726e2066726f6d20746865207a65726f206164647260008301527f65737300000000000000000000000000000000000000000000000000000000006020830152604082019050919050565b6000614119602a8361492c565b91507f455243313135353a20696e73756666696369656e742062616c616e636520666f60008301527f72207472616e73666572000000000000000000000000000000000000000000006020830152604082019050919050565b600061417f60208361492c565b91507f4f776e61626c653a2063616c6c6572206973206e6f7420746865206f776e65726000830152602082019050919050565b60006141bf60298361492c565b91507f455243313135353a2073657474696e6720617070726f76616c2073746174757360008301527f20666f722073656c6600000000000000000000000000000000000000000000006020830152604082019050919050565b600061422560298361492c565b91507f455243313135353a206163636f756e747320616e6420696473206c656e67746860008301527f206d69736d6174636800000000000000000000000000000000000000000000006020830152604082019050919050565b600061428b60288361492c565b91507f455243313135353a2069647320616e6420616d6f756e7473206c656e6774682060008301527f6d69736d617463680000000000000000000000000000000000000000000000006020830152604082019050919050565b60006142f160218361492c565b91507f455243313135353a206d696e7420746f20746865207a65726f2061646472657360008301527f73000000000000000000000000000000000000000000000000000000000000006020830152604082019050919050565b61435381614a6d565b82525050565b61436281614a6d565b82525050565b60006143748285613b2d565b91506143808284613b2d565b91508190509392505050565b60006020820190506143a16000830184613a3f565b92915050565b600060a0820190506143bc6000830188613a3f565b6143c96020830187613a3f565b81810360408301526143db8186613a4e565b905081810360608301526143ef8185613a4e565b905081810360808301526144038184613abb565b90509695505050505050565b600060a0820190506144246000830188613a3f565b6144316020830187613a3f565b61443e6040830186614359565b61444b6060830185614359565b818103608083015261445d8184613abb565b90509695505050505050565b600060208201905081810360008301526144838184613a4e565b905092915050565b600060408201905081810360008301526144a58185613a4e565b905081810360208301526144b98184613a4e565b90509392505050565b60006020820190506144d76000830184613aac565b92915050565b600060208201905081810360008301526144f78184613af4565b905092915050565b6000602082019050818103600083015261451881613b5e565b9050919050565b6000602082019050818103600083015261453881613bc4565b9050919050565b6000602082019050818103600083015261455881613c2a565b9050919050565b6000602082019050818103600083015261457881613c90565b9050919050565b6000602082019050818103600083015261459881613cd0565b9050919050565b600060208201905081810360008301526145b881613d36565b9050919050565b600060208201905081810360008301526145d881613d9c565b9050919050565b600060208201905081810360008301526145f881613e02565b9050919050565b6000602082019050818103600083015261461881613e68565b9050919050565b6000602082019050818103600083015261463881613ece565b9050919050565b6000602082019050818103600083015261465881613f34565b9050919050565b6000602082019050818103600083015261467881613f74565b9050919050565b6000602082019050818103600083015261469881613fda565b9050919050565b600060208201905081810360008301526146b881614040565b9050919050565b600060208201905081810360008301526146d8816140a6565b9050919050565b600060208201905081810360008301526146f88161410c565b9050919050565b6000602082019050818103600083015261471881614172565b9050919050565b60006020820190508181036000830152614738816141b2565b9050919050565b6000602082019050818103600083015261475881614218565b9050919050565b600060208201905081810360008301526147788161427e565b9050919050565b60006020820190508181036000830152614798816142e4565b9050919050565b60006020820190506147b46000830184614359565b92915050565b60006040820190506147cf6000830185614359565b6147dc6020830184614359565b9392505050565b6000604051905081810181811067ffffffffffffffff8211171561480a57614809614bf2565b5b8060405250919050565b600067ffffffffffffffff82111561482f5761482e614bf2565b5b602082029050602081019050919050565b600067ffffffffffffffff82111561485b5761485a614bf2565b5b602082029050602081019050919050565b600067ffffffffffffffff82111561488757614886614bf2565b5b601f19601f8301169050602081019050919050565b600067ffffffffffffffff8211156148b7576148b6614bf2565b5b601f19601f8301169050602081019050919050565b6000819050602082019050919050565b600081519050919050565b600081519050919050565b600081519050919050565b6000602082019050919050565b600082825260208201905092915050565b600082825260208201905092915050565b600082825260208201905092915050565b600081905092915050565b600061495382614a6d565b915061495e83614a6d565b9250827fffffffffffffffffffffffffffffffffffffffffffffffffffffffffffffffff0382111561499357614992614b65565b5b828201905092915050565b60006149a982614a6d565b91506149b483614a6d565b9250826149c4576149c3614b94565b5b828204905092915050565b60006149da82614a6d565b91506149e583614a6d565b9250828210156149f8576149f7614b65565b5b828203905092915050565b6000614a0e82614a4d565b9050919050565b60008115159050919050565b60007fffffffff0000000000000000000000000000000000000000000000000000000082169050919050565b600073ffffffffffffffffffffffffffffffffffffffff82169050919050565b6000819050919050565b82818337600083830152505050565b60005b83811015614aa4578082015181840152602081019050614a89565b83811115614ab3576000848401525b50505050565b60006002820490506001821680614ad157607f821691505b60208210811415614ae557614ae4614bc3565b5b50919050565b6000614af682614a6d565b91507fffffffffffffffffffffffffffffffffffffffffffffffffffffffffffffffff821415614b2957614b28614b65565b5b600182019050919050565b6000614b3f82614a6d565b9150614b4a83614a6d565b925082614b5a57614b59614b94565b5b828206905092915050565b7f4e487b7100000000000000000000000000000000000000000000000000000000600052601160045260246000fd5b7f4e487b7100000000000000000000000000000000000000000000000000000000600052601260045260246000fd5b7f4e487b7100000000000000000000000000000000000000000000000000000000600052602260045260246000fd5b7f4e487b7100000000000000000000000000000000000000000000000000000000600052604160045260246000fd5b6000601f19601f8301169050919050565b60008160e01c9050919050565b600060443d1015614c4f57614cf2565b60046000803e614c60600051614c32565b6308c379a08114614c715750614cf2565b60405160043d036004823e80513d602482011167ffffffffffffffff82111715614c9d57505050614cf2565b808201805167ffffffffffffffff811115614cbc575050505050614cf2565b8060208301013d8501811115614cd757505050505050614cf2565b614ce082614c21565b60208401016040528296505050505050505b90565b614cfe81614a03565b8114614d0957600080fd5b50565b614d1581614a15565b8114614d2057600080fd5b50565b614d2c81614a21565b8114614d3757600080fd5b50565b614d4381614a6d565b8114614d4e57600080fd5b5056fea26469706673582212205fac30b94b15c16597ea42154b4f1b538cd02a7e64fe6ef6999797d596cb961b64736f6c63430008000033",
  "immutableReferences": {},
  "source": "pragma solidity ^0.8.0;\n\nimport \"@openzeppelin/contracts-upgradeable/access/OwnableUpgradeable.sol\";\nimport \"@openzeppelin/contracts-upgradeable/token/ERC1155/extensions/ERC1155BurnableUpgradeable.sol\";\nimport \"@openzeppelin/contracts-upgradeable/token/ERC1155/extensions/ERC1155PausableUpgradeable.sol\";\n\nimport \"./ERC1155BaseURI.sol\";\n\n\ncontract Paru1155 is OwnableUpgradeable, ERC1155BaseURI, ERC1155BurnableUpgradeable, ERC1155PausableUpgradeable {\n    string public name;\n    string public symbol;\n    mapping(uint256 => uint256) private _totalSupply;\n    mapping(uint256 => address) private _tokenOwners;\n\n    // initialize\n    function initialize(string memory _name, string memory _symbol, string memory baseURI) external initializer {\n        __Ownable_init_unchained();\n        __ERC1155_init(\"\");\n        _setBaseURI(baseURI);\n\n        name = _name;\n        symbol = _symbol;\n    }\n\n    // mint\n    // _setTokenURI(uint256 tokenId, string memory _uri) // mint   ? ?\n    // gas , baseURI   tokenId   ?\n    function mintItem(\n        address account,\n        uint256 id,\n        uint256 amount,\n        bytes memory data\n    ) public {\n        address owner = _tokenOwners[id];\n        require(owner == address(0), \"ERC1155: It is not possible to issue additional NFTs\");\n        \n        _mint(account, id, amount, data); // account, id, amount, data\n        _tokenOwners[id] = account;\n    }\n\n    function ownerOf(uint256 id) public view returns (address) {\n        address owner = _tokenOwners[id];\n        require(owner != address(0), \"ERC1155: owner query for nonexistent token\");\n        return owner;\n    }\n\n    // mintBatch\n    // function mintItems(\n    //     address account, uint256[] memory ids, uint256[] memory amounts, bytes memory data\n    // ) public {\n    //     _mintBatch(account, ids, amounts, data); // account, id, amount, data\n    // }\n\n    // balanceOf, balanceOfBatch\n\n    // transfer, transferBatch\n\n    // burn, burnBatch\n    // function burn( address account, uint256 id, uint256 amount\n    // ) public override {\n    //     _burn(account, id, amount);\n    // } // ERC1155BurnableUpgradeable msgSender in [owner, operator]   \n\n    // _setTokenUri, uri -> ERC1155BaseURI\n    function uri(uint id) public view override(ERC1155BaseURI, ERC1155Upgradeable) virtual returns (string memory) {\n        return _tokenURI(id);\n    }\n\n    function pause() public onlyOwner {\n        _pause();\n    }\n\n    function unpause() public onlyOwner {\n        _unpause();\n    }\n\n    /**\n     * @dev Total amount of tokens in with a given id.\n     */\n    function totalSupply(uint256 id) public view virtual returns (uint256) {\n        return _totalSupply[id];\n    }\n\n    /**\n     * @dev Indicates weither any token exist with a given id, or not.\n     */\n    function exists(uint256 id) public view virtual returns (bool) {\n        return Paru1155.totalSupply(id) > 0;\n    }\n\n    /**\n     * @dev See {ERC1155-_mint}.\n     */\n    function _mint(\n        address account,\n        uint256 id,\n        uint256 amount,\n        bytes memory data\n    ) internal virtual override {\n        super._mint(account, id, amount, data);\n        _totalSupply[id] += amount;\n    }\n\n    /**\n     * @dev See {ERC1155-_mintBatch}.\n     */\n    function _mintBatch(\n        address to,\n        uint256[] memory ids,\n        uint256[] memory amounts,\n        bytes memory data\n    ) internal virtual override {\n        super._mintBatch(to, ids, amounts, data);\n        for (uint256 i = 0; i < ids.length; ++i) {\n            _totalSupply[ids[i]] += amounts[i];\n        }\n    }\n\n    /**\n     * @dev See {ERC1155-_burn}.\n     */\n    function _burn(\n        address account,\n        uint256 id,\n        uint256 amount\n    ) internal virtual override {\n        super._burn(account, id, amount);\n        _totalSupply[id] -= amount;\n    }\n\n    /**\n     * @dev See {ERC1155-_burnBatch}.\n     */\n    function _burnBatch(\n        address account,\n        uint256[] memory ids,\n        uint256[] memory amounts\n    ) internal virtual override {\n        super._burnBatch(account, ids, amounts);\n        for (uint256 i = 0; i < ids.length; ++i) {\n            _totalSupply[ids[i]] -= amounts[i];\n        }\n    }\n\n    function _beforeTokenTransfer(\n        address operator,\n        address from,\n        address to,\n        uint256[] memory ids,\n        uint256[] memory amounts,\n        bytes memory data\n    ) internal virtual override(ERC1155Upgradeable, ERC1155PausableUpgradeable) {\n        super._beforeTokenTransfer(operator, from, to, ids, amounts, data);\n    }\n}",
  "sourcePath": "/Users/chang-younglee/harbor/parula-backend/smartcontract/v1.0/contracts/Paru1155.sol",
  "compiler": {
    "name": "solc",
    "version": "0.8.0+commit.c7dfd78e.Emscripten.clang"
  },
  "schemaVersion": "3.4.0",
  "updatedAt": "2021-07-16T01:51:59.953Z",
  "devdoc": {
    "kind": "dev",
    "methods": {
      "balanceOf(address,uint256)": {
        "details": "See {IERC1155-balanceOf}. Requirements: - `account` cannot be the zero address."
      },
      "balanceOfBatch(address[],uint256[])": {
        "details": "See {IERC1155-balanceOfBatch}. Requirements: - `accounts` and `ids` must have the same length."
      },
      "baseURI()": {
        "details": "Returns the base URI set via {_setBaseURI}. This will be automatically added as a prefix in {tokenURI} to each token's URI, or to the token ID if no specific URI is set for that token ID."
      },
      "exists(uint256)": {
        "details": "Indicates weither any token exist with a given id, or not."
      },
      "isApprovedForAll(address,address)": {
        "details": "See {IERC1155-isApprovedForAll}."
      },
      "owner()": {
        "details": "Returns the address of the current owner."
      },
      "paused()": {
        "details": "Returns true if the contract is paused, and false otherwise."
      },
      "renounceOwnership()": {
        "details": "Leaves the contract without owner. It will not be possible to call `onlyOwner` functions anymore. Can only be called by the current owner. NOTE: Renouncing ownership will leave the contract without an owner, thereby removing any functionality that is only available to the owner."
      },
      "safeBatchTransferFrom(address,address,uint256[],uint256[],bytes)": {
        "details": "See {IERC1155-safeBatchTransferFrom}."
      },
      "safeTransferFrom(address,address,uint256,uint256,bytes)": {
        "details": "See {IERC1155-safeTransferFrom}."
      },
      "setApprovalForAll(address,bool)": {
        "details": "See {IERC1155-setApprovalForAll}."
      },
      "supportsInterface(bytes4)": {
        "details": "See {IERC165-supportsInterface}."
      },
      "totalSupply(uint256)": {
        "details": "Total amount of tokens in with a given id."
      },
      "transferOwnership(address)": {
        "details": "Transfers ownership of the contract to a new account (`newOwner`). Can only be called by the current owner."
      }
    },
    "version": 1
  },
  "userdoc": {
    "kind": "user",
    "methods": {},
    "version": 1
  }
}