{
  "contractName": "Paru1155V2",
  "abi": [
    {
      "anonymous": false,
      "inputs": [
        {
          "indexed": true,
          "internalType": "address",
          "name": "account",
          "type": "address"
        },
        {
          "indexed": true,
          "internalType": "address",
          "name": "operator",
          "type": "address"
        },
        {
          "indexed": false,
          "internalType": "bool",
          "name": "approved",
          "type": "bool"
        }
      ],
      "name": "ApprovalForAll",
      "type": "event"
    },
    {
      "anonymous": false,
      "inputs": [
        {
          "indexed": true,
          "internalType": "address",
          "name": "previousOwner",
          "type": "address"
        },
        {
          "indexed": true,
          "internalType": "address",
          "name": "newOwner",
          "type": "address"
        }
      ],
      "name": "OwnershipTransferred",
      "type": "event"
    },
    {
      "anonymous": false,
      "inputs": [
        {
          "indexed": false,
          "internalType": "address",
          "name": "account",
          "type": "address"
        }
      ],
      "name": "Paused",
      "type": "event"
    },
    {
      "anonymous": false,
      "inputs": [
        {
          "indexed": false,
          "internalType": "uint256",
          "name": "tokenId",
          "type": "uint256"
        },
        {
          "indexed": false,
          "internalType": "address",
          "name": "owner",
          "type": "address"
        }
      ],
      "name": "RoyaltyOwnerSet",
      "type": "event"
    },
    {
      "anonymous": false,
      "inputs": [
        {
          "indexed": false,
          "internalType": "uint256",
          "name": "tokenId",
          "type": "uint256"
        },
        {
          "components": [
            {
              "internalType": "address payable",
              "name": "account",
              "type": "address"
            },
            {
              "internalType": "uint96",
              "name": "value",
              "type": "uint96"
            }
          ],
          "indexed": false,
          "internalType": "struct LibPart.Part[]",
          "name": "royalty",
          "type": "tuple[]"
        }
      ],
      "name": "RoyaltySet",
      "type": "event"
    },
    {
      "anonymous": false,
      "inputs": [
        {
          "indexed": true,
          "internalType": "address",
          "name": "operator",
          "type": "address"
        },
        {
          "indexed": true,
          "internalType": "address",
          "name": "from",
          "type": "address"
        },
        {
          "indexed": true,
          "internalType": "address",
          "name": "to",
          "type": "address"
        },
        {
          "indexed": false,
          "internalType": "uint256[]",
          "name": "ids",
          "type": "uint256[]"
        },
        {
          "indexed": false,
          "internalType": "uint256[]",
          "name": "values",
          "type": "uint256[]"
        }
      ],
      "name": "TransferBatch",
      "type": "event"
    },
    {
      "anonymous": false,
      "inputs": [
        {
          "indexed": true,
          "internalType": "address",
          "name": "operator",
          "type": "address"
        },
        {
          "indexed": true,
          "internalType": "address",
          "name": "from",
          "type": "address"
        },
        {
          "indexed": true,
          "internalType": "address",
          "name": "to",
          "type": "address"
        },
        {
          "indexed": false,
          "internalType": "uint256",
          "name": "id",
          "type": "uint256"
        },
        {
          "indexed": false,
          "internalType": "uint256",
          "name": "value",
          "type": "uint256"
        }
      ],
      "name": "TransferSingle",
      "type": "event"
    },
    {
      "anonymous": false,
      "inputs": [
        {
          "indexed": false,
          "internalType": "string",
          "name": "value",
          "type": "string"
        },
        {
          "indexed": true,
          "internalType": "uint256",
          "name": "id",
          "type": "uint256"
        }
      ],
      "name": "URI",
      "type": "event"
    },
    {
      "anonymous": false,
      "inputs": [
        {
          "indexed": false,
          "internalType": "address",
          "name": "account",
          "type": "address"
        }
      ],
      "name": "Unpaused",
      "type": "event"
    },
    {
      "inputs": [
        {
          "internalType": "address",
          "name": "account",
          "type": "address"
        },
        {
          "internalType": "uint256",
          "name": "id",
          "type": "uint256"
        }
      ],
      "name": "balanceOf",
      "outputs": [
        {
          "internalType": "uint256",
          "name": "",
          "type": "uint256"
        }
      ],
      "stateMutability": "view",
      "type": "function"
    },
    {
      "inputs": [
        {
          "internalType": "address[]",
          "name": "accounts",
          "type": "address[]"
        },
        {
          "internalType": "uint256[]",
          "name": "ids",
          "type": "uint256[]"
        }
      ],
      "name": "balanceOfBatch",
      "outputs": [
        {
          "internalType": "uint256[]",
          "name": "",
          "type": "uint256[]"
        }
      ],
      "stateMutability": "view",
      "type": "function"
    },
    {
      "inputs": [],
      "name": "baseURI",
      "outputs": [
        {
          "internalType": "string",
          "name": "",
          "type": "string"
        }
      ],
      "stateMutability": "view",
      "type": "function"
    },
    {
      "inputs": [
        {
          "internalType": "address",
          "name": "account",
          "type": "address"
        },
        {
          "internalType": "uint256",
          "name": "id",
          "type": "uint256"
        },
        {
          "internalType": "uint256",
          "name": "value",
          "type": "uint256"
        }
      ],
      "name": "burn",
      "outputs": [],
      "stateMutability": "nonpayable",
      "type": "function"
    },
    {
      "inputs": [
        {
          "internalType": "address",
          "name": "account",
          "type": "address"
        },
        {
          "internalType": "uint256[]",
          "name": "ids",
          "type": "uint256[]"
        },
        {
          "internalType": "uint256[]",
          "name": "values",
          "type": "uint256[]"
        }
      ],
      "name": "burnBatch",
      "outputs": [],
      "stateMutability": "nonpayable",
      "type": "function"
    },
    {
      "inputs": [
        {
          "internalType": "address",
          "name": "account",
          "type": "address"
        },
        {
          "internalType": "address",
          "name": "operator",
          "type": "address"
        }
      ],
      "name": "isApprovedForAll",
      "outputs": [
        {
          "internalType": "bool",
          "name": "",
          "type": "bool"
        }
      ],
      "stateMutability": "view",
      "type": "function"
    },
    {
      "inputs": [],
      "name": "name",
      "outputs": [
        {
          "internalType": "string",
          "name": "",
          "type": "string"
        }
      ],
      "stateMutability": "view",
      "type": "function"
    },
    {
      "inputs": [],
      "name": "owner",
      "outputs": [
        {
          "internalType": "address",
          "name": "",
          "type": "address"
        }
      ],
      "stateMutability": "view",
      "type": "function"
    },
    {
      "inputs": [],
      "name": "paused",
      "outputs": [
        {
          "internalType": "bool",
          "name": "",
          "type": "bool"
        }
      ],
      "stateMutability": "view",
      "type": "function"
    },
    {
      "inputs": [],
      "name": "renounceOwnership",
      "outputs": [],
      "stateMutability": "nonpayable",
      "type": "function"
    },
    {
      "inputs": [
        {
          "internalType": "address",
          "name": "from",
          "type": "address"
        },
        {
          "internalType": "address",
          "name": "to",
          "type": "address"
        },
        {
          "internalType": "uint256[]",
          "name": "ids",
          "type": "uint256[]"
        },
        {
          "internalType": "uint256[]",
          "name": "amounts",
          "type": "uint256[]"
        },
        {
          "internalType": "bytes",
          "name": "data",
          "type": "bytes"
        }
      ],
      "name": "safeBatchTransferFrom",
      "outputs": [],
      "stateMutability": "nonpayable",
      "type": "function"
    },
    {
      "inputs": [
        {
          "internalType": "address",
          "name": "from",
          "type": "address"
        },
        {
          "internalType": "address",
          "name": "to",
          "type": "address"
        },
        {
          "internalType": "uint256",
          "name": "id",
          "type": "uint256"
        },
        {
          "internalType": "uint256",
          "name": "amount",
          "type": "uint256"
        },
        {
          "internalType": "bytes",
          "name": "data",
          "type": "bytes"
        }
      ],
      "name": "safeTransferFrom",
      "outputs": [],
      "stateMutability": "nonpayable",
      "type": "function"
    },
    {
      "inputs": [
        {
          "internalType": "address",
          "name": "operator",
          "type": "address"
        },
        {
          "internalType": "bool",
          "name": "approved",
          "type": "bool"
        }
      ],
      "name": "setApprovalForAll",
      "outputs": [],
      "stateMutability": "nonpayable",
      "type": "function"
    },
    {
      "inputs": [],
      "name": "symbol",
      "outputs": [
        {
          "internalType": "string",
          "name": "",
          "type": "string"
        }
      ],
      "stateMutability": "view",
      "type": "function"
    },
    {
      "inputs": [
        {
          "internalType": "address",
          "name": "newOwner",
          "type": "address"
        }
      ],
      "name": "transferOwnership",
      "outputs": [],
      "stateMutability": "nonpayable",
      "type": "function"
    },
    {
      "inputs": [
        {
          "internalType": "string",
          "name": "_name",
          "type": "string"
        },
        {
          "internalType": "string",
          "name": "_symbol",
          "type": "string"
        },
        {
          "internalType": "string",
          "name": "baseURI",
          "type": "string"
        }
      ],
      "name": "initialize",
      "outputs": [],
      "stateMutability": "nonpayable",
      "type": "function"
    },
    {
      "inputs": [
        {
          "internalType": "address",
          "name": "account",
          "type": "address"
        },
        {
          "internalType": "uint256",
          "name": "id",
          "type": "uint256"
        },
        {
          "internalType": "uint256",
          "name": "amount",
          "type": "uint256"
        },
        {
          "internalType": "bytes",
          "name": "data",
          "type": "bytes"
        }
      ],
      "name": "mintItem",
      "outputs": [],
      "stateMutability": "nonpayable",
      "type": "function"
    },
    {
      "inputs": [
        {
          "internalType": "address",
          "name": "account",
          "type": "address"
        },
        {
          "internalType": "uint256",
          "name": "id",
          "type": "uint256"
        },
        {
          "internalType": "uint256",
          "name": "amount",
          "type": "uint256"
        },
        {
          "internalType": "bytes",
          "name": "data",
          "type": "bytes"
        },
        {
          "internalType": "address",
          "name": "royaltyOwner",
          "type": "address"
        },
        {
          "components": [
            {
              "internalType": "address payable",
              "name": "account",
              "type": "address"
            },
            {
              "internalType": "uint96",
              "name": "value",
              "type": "uint96"
            }
          ],
          "internalType": "struct LibPart.Part[]",
          "name": "royalties",
          "type": "tuple[]"
        }
      ],
      "name": "mintItemWithRoyalty",
      "outputs": [],
      "stateMutability": "nonpayable",
      "type": "function"
    },
    {
      "inputs": [
        {
          "internalType": "uint256",
          "name": "id",
          "type": "uint256"
        }
      ],
      "name": "ownerOf",
      "outputs": [
        {
          "internalType": "address",
          "name": "",
          "type": "address"
        }
      ],
      "stateMutability": "view",
      "type": "function"
    },
    {
      "inputs": [
        {
          "internalType": "uint256",
          "name": "id",
          "type": "uint256"
        }
      ],
      "name": "uri",
      "outputs": [
        {
          "internalType": "string",
          "name": "",
          "type": "string"
        }
      ],
      "stateMutability": "view",
      "type": "function"
    },
    {
      "inputs": [],
      "name": "pause",
      "outputs": [],
      "stateMutability": "nonpayable",
      "type": "function"
    },
    {
      "inputs": [],
      "name": "unpause",
      "outputs": [],
      "stateMutability": "nonpayable",
      "type": "function"
    },
    {
      "inputs": [
        {
          "internalType": "uint256",
          "name": "id",
          "type": "uint256"
        }
      ],
      "name": "totalSupply",
      "outputs": [
        {
          "internalType": "uint256",
          "name": "",
          "type": "uint256"
        }
      ],
      "stateMutability": "view",
      "type": "function"
    },
    {
      "inputs": [
        {
          "internalType": "uint256",
          "name": "id",
          "type": "uint256"
        }
      ],
      "name": "exists",
      "outputs": [
        {
          "internalType": "bool",
          "name": "",
          "type": "bool"
        }
      ],
      "stateMutability": "view",
      "type": "function"
    },
    {
      "inputs": [
        {
          "internalType": "uint256",
          "name": "tokenId",
          "type": "uint256"
        }
      ],
      "name": "getRoyalties",
      "outputs": [
        {
          "components": [
            {
              "internalType": "address payable",
              "name": "account",
              "type": "address"
            },
            {
              "internalType": "uint96",
              "name": "value",
              "type": "uint96"
            }
          ],
          "internalType": "struct LibPart.Part[]",
          "name": "",
          "type": "tuple[]"
        }
      ],
      "stateMutability": "view",
      "type": "function"
    },
    {
      "inputs": [
        {
          "internalType": "uint256",
          "name": "tokenId",
          "type": "uint256"
        }
      ],
      "name": "getRoyaltyOwner",
      "outputs": [
        {
          "internalType": "address",
          "name": "",
          "type": "address"
        }
      ],
      "stateMutability": "view",
      "type": "function"
    },
    {
      "inputs": [
        {
          "internalType": "bytes4",
          "name": "interfaceId",
          "type": "bytes4"
        }
      ],
      "name": "supportsInterface",
      "outputs": [
        {
          "internalType": "bool",
          "name": "",
          "type": "bool"
        }
      ],
      "stateMutability": "view",
      "type": "function"
    }
  ],
  "bytecode": "0x608060405234801561001057600080fd5b5061593080620000216000396000f3fe608060405234801561001057600080fd5b50600436106101a85760003560e01c80638456cb59116100f9578063e88700f011610097578063f242432a11610071578063f242432a146104cd578063f2fde38b146104e9578063f3e0f4b714610505578063f5298aca14610521576101a8565b8063e88700f014610451578063e90136121461046d578063e985e9c51461049d576101a8565b8063a22cb465116100d3578063a22cb465146103b9578063a6487c53146103d5578063bb3bafd6146103f1578063bd85b03914610421576101a8565b80638456cb59146103735780638da5cb5b1461037d57806395d89b411461039b576101a8565b80634e1273f4116101665780636352211e116101405780636352211e146102ff5780636b20c4541461032f5780636c0360eb1461034b578063715018a614610369576101a8565b80634e1273f4146102815780634f558e79146102b15780635c975abb146102e1576101a8565b8062fdd58e146101ad57806301ffc9a7146101dd57806306fdde031461020d5780630e89341c1461022b5780632eb2c2d61461025b5780633f4ba83a14610277575b600080fd5b6101c760048036038101906101c29190613fd8565b61053d565b6040516101d49190615232565b60405180910390f35b6101f760048036038101906101f29190614203565b610607565b6040516102049190614f15565b60405180910390f35b610215610668565b6040516102229190614f30565b60405180910390f35b610245600480360381019061024091906142ec565b6106f7565b6040516102529190614f30565b60405180910390f35b61027560048036038101906102709190613dcf565b610709565b005b61027f610b02565b005b61029b60048036038101906102969190614197565b610b88565b6040516102a89190614ebc565b60405180910390f35b6102cb60048036038101906102c691906142ec565b610d39565b6040516102d89190614f15565b60405180910390f35b6102e9610d4d565b6040516102f69190614f15565b60405180910390f35b610319600480360381019061031491906142ec565b610d65565b6040516103269190614dbd565b60405180910390f35b61034960048036038101906103449190613f1d565b610e18565b005b610353610eb5565b6040516103609190614f30565b60405180910390f35b610371610f47565b005b61037b611084565b005b61038561110a565b6040516103929190614dbd565b60405180910390f35b6103a3611134565b6040516103b09190614f30565b60405180910390f35b6103d360048036038101906103ce9190613f9c565b6111c3565b005b6103ef60048036038101906103ea9190614255565b611344565b005b61040b600480360381019061040691906142ec565b611479565b6040516104189190614e9a565b60405180910390f35b61043b600480360381019061043691906142ec565b61157c565b6040516104489190615232565b60405180910390f35b61046b60048036038101906104669190614063565b61159a565b005b610487600480360381019061048291906142ec565b6116a8565b6040516104949190614dbd565b60405180910390f35b6104b760048036038101906104b29190613d93565b6116e6565b6040516104c49190614f15565b60405180910390f35b6104e760048036038101906104e29190613e8e565b61177a565b005b61050360048036038101906104fe9190613d6a565b611a95565b005b61051f600480360381019061051a91906140de565b611c41565b005b61053b60048036038101906105369190614014565b611cbc565b005b60008073ffffffffffffffffffffffffffffffffffffffff168373ffffffffffffffffffffffffffffffffffffffff1614156105ae576040517f08c379a00000000000000000000000000000000000000000000000000000000081526004016105a590614fd2565b60405180910390fd5b6097600083815260200190815260200160002060008473ffffffffffffffffffffffffffffffffffffffff1673ffffffffffffffffffffffffffffffffffffffff16815260200190815260200160002054905092915050565b60006344c74bcc60e01b7bffffffffffffffffffffffffffffffffffffffffffffffffffffffff1916827bffffffffffffffffffffffffffffffffffffffffffffffffffffffff19161480610661575061066082611d59565b5b9050919050565b610193805461067690615634565b80601f01602080910402602001604051908101604052809291908181526020018280546106a290615634565b80156106ef5780601f106106c4576101008083540402835291602001916106ef565b820191906000526020600020905b8154815290600101906020018083116106d257829003601f168201915b505050505081565b606061070282611e3b565b9050919050565b815183511461074d576040517f08c379a0000000000000000000000000000000000000000000000000000000008152600401610744906151d2565b60405180910390fd5b600073ffffffffffffffffffffffffffffffffffffffff168473ffffffffffffffffffffffffffffffffffffffff1614156107bd576040517f08c379a00000000000000000000000000000000000000000000000000000000081526004016107b4906150d2565b60405180910390fd5b6107c5611f66565b73ffffffffffffffffffffffffffffffffffffffff168573ffffffffffffffffffffffffffffffffffffffff16148061080b575061080a85610805611f66565b6116e6565b5b61084a576040517f08c379a0000000000000000000000000000000000000000000000000000000008152600401610841906150f2565b60405180910390fd5b6000610854611f66565b9050610864818787878787611f6e565b60005b8451811015610a6d5760008582815181106108ab577f4e487b7100000000000000000000000000000000000000000000000000000000600052603260045260246000fd5b6020026020010151905060008583815181106108f0577f4e487b7100000000000000000000000000000000000000000000000000000000600052603260045260246000fd5b6020026020010151905060006097600084815260200190815260200160002060008b73ffffffffffffffffffffffffffffffffffffffff1673ffffffffffffffffffffffffffffffffffffffff16815260200190815260200160002054905081811015610992576040517f08c379a000000000000000000000000000000000000000000000000000000000815260040161098990615152565b60405180910390fd5b818161099e9190615520565b6097600085815260200190815260200160002060008c73ffffffffffffffffffffffffffffffffffffffff1673ffffffffffffffffffffffffffffffffffffffff16815260200190815260200160002081905550816097600085815260200190815260200160002060008b73ffffffffffffffffffffffffffffffffffffffff1673ffffffffffffffffffffffffffffffffffffffff1681526020019081526020016000206000828254610a529190615499565b9250508190555050505080610a6690615666565b9050610867565b508473ffffffffffffffffffffffffffffffffffffffff168673ffffffffffffffffffffffffffffffffffffffff168273ffffffffffffffffffffffffffffffffffffffff167f4a39dc06d4c0dbc64b70af90fd698a233a518aa5d07e595d983b8c0526c8f7fb8787604051610ae4929190614ede565b60405180910390a4610afa818787878787611f84565b505050505050565b610b0a611f66565b73ffffffffffffffffffffffffffffffffffffffff16610b2861110a565b73ffffffffffffffffffffffffffffffffffffffff1614610b7e576040517f08c379a0000000000000000000000000000000000000000000000000000000008152600401610b7590615172565b60405180910390fd5b610b86612154565b565b60608151835114610bce576040517f08c379a0000000000000000000000000000000000000000000000000000000008152600401610bc5906151b2565b60405180910390fd5b6000835167ffffffffffffffff811115610c11577f4e487b7100000000000000000000000000000000000000000000000000000000600052604160045260246000fd5b604051908082528060200260200182016040528015610c3f5781602001602082028036833780820191505090505b50905060005b8451811015610d2e57610cd8858281518110610c8a577f4e487b7100000000000000000000000000000000000000000000000000000000600052603260045260246000fd5b6020026020010151858381518110610ccb577f4e487b7100000000000000000000000000000000000000000000000000000000600052603260045260246000fd5b602002602001015161053d565b828281518110610d11577f4e487b7100000000000000000000000000000000000000000000000000000000600052603260045260246000fd5b60200260200101818152505080610d2790615666565b9050610c45565b508091505092915050565b600080610d458361157c565b119050919050565b600061012f60009054906101000a900460ff16905090565b600080610196600084815260200190815260200160002060009054906101000a900473ffffffffffffffffffffffffffffffffffffffff169050600073ffffffffffffffffffffffffffffffffffffffff168173ffffffffffffffffffffffffffffffffffffffff161415610e0f576040517f08c379a0000000000000000000000000000000000000000000000000000000008152600401610e0690615072565b60405180910390fd5b80915050919050565b610e20611f66565b73ffffffffffffffffffffffffffffffffffffffff168373ffffffffffffffffffffffffffffffffffffffff161480610e665750610e6583610e60611f66565b6116e6565b5b610ea5576040517f08c379a0000000000000000000000000000000000000000000000000000000008152600401610e9c90615052565b60405180910390fd5b610eb08383836121f7565b505050565b606060ca8054610ec490615634565b80601f0160208091040260200160405190810160405280929190818152602001828054610ef090615634565b8015610f3d5780601f10610f1257610100808354040283529160200191610f3d565b820191906000526020600020905b815481529060010190602001808311610f2057829003601f168201915b5050505050905090565b610f4f611f66565b73ffffffffffffffffffffffffffffffffffffffff16610f6d61110a565b73ffffffffffffffffffffffffffffffffffffffff1614610fc3576040517f08c379a0000000000000000000000000000000000000000000000000000000008152600401610fba90615172565b60405180910390fd5b600073ffffffffffffffffffffffffffffffffffffffff16603360009054906101000a900473ffffffffffffffffffffffffffffffffffffffff1673ffffffffffffffffffffffffffffffffffffffff167f8be0079c531659141344cd1fd0a4f28419497f9722a3daafe3b4186f6b6457e060405160405180910390a36000603360006101000a81548173ffffffffffffffffffffffffffffffffffffffff021916908373ffffffffffffffffffffffffffffffffffffffff160217905550565b61108c611f66565b73ffffffffffffffffffffffffffffffffffffffff166110aa61110a565b73ffffffffffffffffffffffffffffffffffffffff1614611100576040517f08c379a00000000000000000000000000000000000000000000000000000000081526004016110f790615172565b60405180910390fd5b6111086122d0565b565b6000603360009054906101000a900473ffffffffffffffffffffffffffffffffffffffff16905090565b610194805461114290615634565b80601f016020809104026020016040519081016040528092919081815260200182805461116e90615634565b80156111bb5780601f10611190576101008083540402835291602001916111bb565b820191906000526020600020905b81548152906001019060200180831161119e57829003601f168201915b505050505081565b8173ffffffffffffffffffffffffffffffffffffffff166111e2611f66565b73ffffffffffffffffffffffffffffffffffffffff161415611239576040517f08c379a000000000000000000000000000000000000000000000000000000000815260040161123090615192565b60405180910390fd5b8060986000611246611f66565b73ffffffffffffffffffffffffffffffffffffffff1673ffffffffffffffffffffffffffffffffffffffff16815260200190815260200160002060008473ffffffffffffffffffffffffffffffffffffffff1673ffffffffffffffffffffffffffffffffffffffff16815260200190815260200160002060006101000a81548160ff0219169083151502179055508173ffffffffffffffffffffffffffffffffffffffff166112f3611f66565b73ffffffffffffffffffffffffffffffffffffffff167f17307eab39ab6107e8899845ad3d59bd9653f200f220920489ca2b5937696c31836040516113389190614f15565b60405180910390a35050565b600060019054906101000a900460ff168061136a575060008054906101000a900460ff16155b6113a9576040517f08c379a00000000000000000000000000000000000000000000000000000000081526004016113a090615112565b60405180910390fd5b60008060019054906101000a900460ff1615905080156113f9576001600060016101000a81548160ff02191690831515021790555060016000806101000a81548160ff0219169083151502179055505b611401612374565b611419604051806020016040528060008152506124f6565b611422826125e9565b8361019390805190602001906114399291906138d8565b508261019490805190602001906114519291906138d8565b5080156114735760008060016101000a81548160ff0219169083151502179055505b50505050565b60606101976000838152602001908152602001600020805480602002602001604051908101604052809291908181526020016000905b82821015611571578382906000526020600020016040518060400160405290816000820160009054906101000a900473ffffffffffffffffffffffffffffffffffffffff1673ffffffffffffffffffffffffffffffffffffffff1673ffffffffffffffffffffffffffffffffffffffff1681526020016000820160149054906101000a90046bffffffffffffffffffffffff166bffffffffffffffffffffffff166bffffffffffffffffffffffff1681525050815260200190600101906114af565b505050509050919050565b60006101956000838152602001908152602001600020549050919050565b6000610196600085815260200190815260200160002060009054906101000a900473ffffffffffffffffffffffffffffffffffffffff169050600073ffffffffffffffffffffffffffffffffffffffff168173ffffffffffffffffffffffffffffffffffffffff1614611642576040517f08c379a000000000000000000000000000000000000000000000000000000000815260040161163990614f72565b60405180910390fd5b61164e85858585612603565b84610196600086815260200190815260200160002060006101000a81548173ffffffffffffffffffffffffffffffffffffffff021916908373ffffffffffffffffffffffffffffffffffffffff1602179055505050505050565b6000610198600083815260200190815260200160002060009054906101000a900473ffffffffffffffffffffffffffffffffffffffff169050919050565b6000609860008473ffffffffffffffffffffffffffffffffffffffff1673ffffffffffffffffffffffffffffffffffffffff16815260200190815260200160002060008373ffffffffffffffffffffffffffffffffffffffff1673ffffffffffffffffffffffffffffffffffffffff16815260200190815260200160002060009054906101000a900460ff16905092915050565b600073ffffffffffffffffffffffffffffffffffffffff168473ffffffffffffffffffffffffffffffffffffffff1614156117ea576040517f08c379a00000000000000000000000000000000000000000000000000000000081526004016117e1906150d2565b60405180910390fd5b6117f2611f66565b73ffffffffffffffffffffffffffffffffffffffff168573ffffffffffffffffffffffffffffffffffffffff161480611838575061183785611832611f66565b6116e6565b5b611877576040517f08c379a000000000000000000000000000000000000000000000000000000000815260040161186e90615052565b60405180910390fd5b6000611881611f66565b90506118a181878761189288612640565b61189b88612640565b87611f6e565b60006097600086815260200190815260200160002060008873ffffffffffffffffffffffffffffffffffffffff1673ffffffffffffffffffffffffffffffffffffffff16815260200190815260200160002054905083811015611939576040517f08c379a000000000000000000000000000000000000000000000000000000000815260040161193090615152565b60405180910390fd5b83816119459190615520565b6097600087815260200190815260200160002060008973ffffffffffffffffffffffffffffffffffffffff1673ffffffffffffffffffffffffffffffffffffffff16815260200190815260200160002081905550836097600087815260200190815260200160002060008873ffffffffffffffffffffffffffffffffffffffff1673ffffffffffffffffffffffffffffffffffffffff16815260200190815260200160002060008282546119f99190615499565b925050819055508573ffffffffffffffffffffffffffffffffffffffff168773ffffffffffffffffffffffffffffffffffffffff168373ffffffffffffffffffffffffffffffffffffffff167fc3d58168c5ae7397731d063d5bbf3d657854427343f4c083240f7aacaa2d0f628888604051611a769291906152a6565b60405180910390a4611a8c828888888888612706565b50505050505050565b611a9d611f66565b73ffffffffffffffffffffffffffffffffffffffff16611abb61110a565b73ffffffffffffffffffffffffffffffffffffffff1614611b11576040517f08c379a0000000000000000000000000000000000000000000000000000000008152600401611b0890615172565b60405180910390fd5b600073ffffffffffffffffffffffffffffffffffffffff168173ffffffffffffffffffffffffffffffffffffffff161415611b81576040517f08c379a0000000000000000000000000000000000000000000000000000000008152600401611b7890614ff2565b60405180910390fd5b8073ffffffffffffffffffffffffffffffffffffffff16603360009054906101000a900473ffffffffffffffffffffffffffffffffffffffff1673ffffffffffffffffffffffffffffffffffffffff167f8be0079c531659141344cd1fd0a4f28419497f9722a3daafe3b4186f6b6457e060405160405180910390a380603360006101000a81548173ffffffffffffffffffffffffffffffffffffffff021916908373ffffffffffffffffffffffffffffffffffffffff16021790555050565b611c4d86868686612603565b85610196600087815260200190815260200160002060006101000a81548173ffffffffffffffffffffffffffffffffffffffff021916908373ffffffffffffffffffffffffffffffffffffffff160217905550611caa85836128d6565b611cb485826129d6565b505050505050565b611cc4611f66565b73ffffffffffffffffffffffffffffffffffffffff168373ffffffffffffffffffffffffffffffffffffffff161480611d0a5750611d0983611d04611f66565b6116e6565b5b611d49576040517f08c379a0000000000000000000000000000000000000000000000000000000008152600401611d4090615052565b60405180910390fd5b611d54838383612c97565b505050565b60007fd9b67a26000000000000000000000000000000000000000000000000000000007bffffffffffffffffffffffffffffffffffffffffffffffffffffffff1916827bffffffffffffffffffffffffffffffffffffffffffffffffffffffff19161480611e2457507f0e89341c000000000000000000000000000000000000000000000000000000007bffffffffffffffffffffffffffffffffffffffffffffffffffffffff1916827bffffffffffffffffffffffffffffffffffffffffffffffffffffffff1916145b80611e345750611e3382612cd2565b5b9050919050565b6060600060c960008481526020019081526020016000208054611e5d90615634565b80601f0160208091040260200160405190810160405280929190818152602001828054611e8990615634565b8015611ed65780601f10611eab57610100808354040283529160200191611ed6565b820191906000526020600020905b815481529060010190602001808311611eb957829003601f168201915b505050505090506000611ee7610eb5565b9050600081511415611efd578192505050611f61565b600082511115611f32578082604051602001611f1a929190614d99565b60405160208183030381529060405292505050611f61565b80611f3c85612d3c565b604051602001611f4d929190614d99565b604051602081830303815290604052925050505b919050565b600033905090565b611f7c868686868686612ee9565b505050505050565b611fa38473ffffffffffffffffffffffffffffffffffffffff16612f47565b1561214c578373ffffffffffffffffffffffffffffffffffffffff1663bc197c8187878686866040518663ffffffff1660e01b8152600401611fe9959493929190614dd8565b602060405180830381600087803b15801561200357600080fd5b505af192505050801561203457506040513d601f19601f82011682018060405250810190612031919061422c565b60015b6120c3576120406157ba565b8061204b5750612088565b806040517f08c379a000000000000000000000000000000000000000000000000000000000815260040161207f9190614f30565b60405180910390fd5b6040517f08c379a00000000000000000000000000000000000000000000000000000000081526004016120ba90614f52565b60405180910390fd5b63bc197c8160e01b7bffffffffffffffffffffffffffffffffffffffffffffffffffffffff1916817bffffffffffffffffffffffffffffffffffffffffffffffffffffffff19161461214a576040517f08c379a000000000000000000000000000000000000000000000000000000000815260040161214190614f92565b60405180910390fd5b505b505050505050565b61215c610d4d565b61219b576040517f08c379a000000000000000000000000000000000000000000000000000000000815260040161219290614fb2565b60405180910390fd5b600061012f60006101000a81548160ff0219169083151502179055507f5db9ee0a495bf2e6ff9c91a7834c1ba4fdd244a5e8aa4e537bd38aeae4b073aa6121e0611f66565b6040516121ed9190614dbd565b60405180910390a1565b612202838383612f5a565b60005b82518110156122ca57818181518110612247577f4e487b7100000000000000000000000000000000000000000000000000000000600052603260045260246000fd5b6020026020010151610195600085848151811061228d577f4e487b7100000000000000000000000000000000000000000000000000000000600052603260045260246000fd5b6020026020010151815260200190815260200160002060008282546122b29190615520565b92505081905550806122c390615666565b9050612205565b50505050565b6122d8610d4d565b15612318576040517f08c379a000000000000000000000000000000000000000000000000000000000815260040161230f906150b2565b60405180910390fd5b600161012f60006101000a81548160ff0219169083151502179055507f62e78cea01bee320cd4e420270b5ea74000d11b0c9f74754ebdbfc544b05a25861235d611f66565b60405161236a9190614dbd565b60405180910390a1565b600060019054906101000a900460ff168061239a575060008054906101000a900460ff16155b6123d9576040517f08c379a00000000000000000000000000000000000000000000000000000000081526004016123d090615112565b60405180910390fd5b60008060019054906101000a900460ff161590508015612429576001600060016101000a81548160ff02191690831515021790555060016000806101000a81548160ff0219169083151502179055505b6000612433611f66565b905080603360006101000a81548173ffffffffffffffffffffffffffffffffffffffff021916908373ffffffffffffffffffffffffffffffffffffffff1602179055508073ffffffffffffffffffffffffffffffffffffffff16600073ffffffffffffffffffffffffffffffffffffffff167f8be0079c531659141344cd1fd0a4f28419497f9722a3daafe3b4186f6b6457e060405160405180910390a35080156124f35760008060016101000a81548160ff0219169083151502179055505b50565b600060019054906101000a900460ff168061251c575060008054906101000a900460ff16155b61255b576040517f08c379a000000000000000000000000000000000000000000000000000000000815260040161255290615112565b60405180910390fd5b60008060019054906101000a900460ff1615905080156125ab576001600060016101000a81548160ff02191690831515021790555060016000806101000a81548160ff0219169083151502179055505b6125b3613262565b6125bb61333b565b6125c482613414565b80156125e55760008060016101000a81548160ff0219169083151502179055505b5050565b8060ca90805190602001906125ff9291906138d8565b5050565b61260f848484846134f7565b81610195600085815260200190815260200160002060008282546126339190615499565b9250508190555050505050565b60606000600167ffffffffffffffff811115612685577f4e487b7100000000000000000000000000000000000000000000000000000000600052604160045260246000fd5b6040519080825280602002602001820160405280156126b35781602001602082028036833780820191505090505b50905082816000815181106126f1577f4e487b7100000000000000000000000000000000000000000000000000000000600052603260045260246000fd5b60200260200101818152505080915050919050565b6127258473ffffffffffffffffffffffffffffffffffffffff16612f47565b156128ce578373ffffffffffffffffffffffffffffffffffffffff1663f23a6e6187878686866040518663ffffffff1660e01b815260040161276b959493929190614e40565b602060405180830381600087803b15801561278557600080fd5b505af19250505080156127b657506040513d601f19601f820116820180604052508101906127b3919061422c565b60015b612845576127c26157ba565b806127cd575061280a565b806040517f08c379a00000000000000000000000000000000000000000000000000000000081526004016128019190614f30565b60405180910390fd5b6040517f08c379a000000000000000000000000000000000000000000000000000000000815260040161283c90614f52565b60405180910390fd5b63f23a6e6160e01b7bffffffffffffffffffffffffffffffffffffffffffffffffffffffff1916817bffffffffffffffffffffffffffffffffffffffffffffffffffffffff1916146128cc576040517f08c379a00000000000000000000000000000000000000000000000000000000081526004016128c390614f92565b60405180910390fd5b505b505050505050565b600073ffffffffffffffffffffffffffffffffffffffff168173ffffffffffffffffffffffffffffffffffffffff161415612946576040517f08c379a000000000000000000000000000000000000000000000000000000000815260040161293d90615212565b60405180910390fd5b80610198600084815260200190815260200160002060006101000a81548173ffffffffffffffffffffffffffffffffffffffff021916908373ffffffffffffffffffffffffffffffffffffffff1602179055507ff1d6a825520beb1d7157ebd9563c24c6ed3813e9ddda7bb9678070c5195e43dc82826040516129ca92919061524d565b60405180910390a15050565b610197600083815260200190815260200160002060006129f6919061395e565b60005b8151811015612c5957600073ffffffffffffffffffffffffffffffffffffffff16828281518110612a53577f4e487b7100000000000000000000000000000000000000000000000000000000600052603260045260246000fd5b60200260200101516000015173ffffffffffffffffffffffffffffffffffffffff161415612ab6576040517f08c379a0000000000000000000000000000000000000000000000000000000008152600401612aad90615212565b60405180910390fd5b6000828281518110612af1577f4e487b7100000000000000000000000000000000000000000000000000000000600052603260045260246000fd5b6020026020010151602001516bffffffffffffffffffffffff161415612b4c576040517f08c379a0000000000000000000000000000000000000000000000000000000008152600401612b4390615092565b60405180910390fd5b6101976000848152602001908152602001600020828281518110612b99577f4e487b7100000000000000000000000000000000000000000000000000000000600052603260045260246000fd5b60200260200101519080600181540180825580915050600190039060005260206000200160009091909190915060008201518160000160006101000a81548173ffffffffffffffffffffffffffffffffffffffff021916908373ffffffffffffffffffffffffffffffffffffffff16021790555060208201518160000160146101000a8154816bffffffffffffffffffffffff02191690836bffffffffffffffffffffffff16021790555050508080612c5190615666565b9150506129f9565b507f2f9e6d5068e3658670ba42ef7783dbe0783b56a3ef5c5492ba3f005ed2b876d88282604051612c8b929190615276565b60405180910390a15050565b612ca283838361368e565b8061019560008481526020019081526020016000206000828254612cc69190615520565b92505081905550505050565b60007f01ffc9a7000000000000000000000000000000000000000000000000000000007bffffffffffffffffffffffffffffffffffffffffffffffffffffffff1916827bffffffffffffffffffffffffffffffffffffffffffffffffffffffff1916149050919050565b60606000821415612d84576040518060400160405280600181526020017f30000000000000000000000000000000000000000000000000000000000000008152509050612ee4565b600082905060005b60008214612db6578080612d9f90615666565b915050600a82612daf91906154ef565b9150612d8c565b60008167ffffffffffffffff811115612df8577f4e487b7100000000000000000000000000000000000000000000000000000000600052604160045260246000fd5b6040519080825280601f01601f191660200182016040528015612e2a5781602001600182028036833780820191505090505b5090505b60008514612edd57600182612e439190615520565b9150600a85612e5291906156af565b6030612e5e9190615499565b60f81b818381518110612e9a577f4e487b7100000000000000000000000000000000000000000000000000000000600052603260045260246000fd5b60200101907effffffffffffffffffffffffffffffffffffffffffffffffffffffffffffff1916908160001a905350600a85612ed691906154ef565b9450612e2e565b8093505050505b919050565b612ef78686868686866138b6565b612eff610d4d565b15612f3f576040517f08c379a0000000000000000000000000000000000000000000000000000000008152600401612f3690615032565b60405180910390fd5b505050505050565b600080823b905060008111915050919050565b600073ffffffffffffffffffffffffffffffffffffffff168373ffffffffffffffffffffffffffffffffffffffff161415612fca576040517f08c379a0000000000000000000000000000000000000000000000000000000008152600401612fc190615132565b60405180910390fd5b805182511461300e576040517f08c379a0000000000000000000000000000000000000000000000000000000008152600401613005906151d2565b60405180910390fd5b6000613018611f66565b905061303881856000868660405180602001604052806000815250611f6e565b60005b83518110156131dc57600084828151811061307f577f4e487b7100000000000000000000000000000000000000000000000000000000600052603260045260246000fd5b6020026020010151905060008483815181106130c4577f4e487b7100000000000000000000000000000000000000000000000000000000600052603260045260246000fd5b6020026020010151905060006097600084815260200190815260200160002060008973ffffffffffffffffffffffffffffffffffffffff1673ffffffffffffffffffffffffffffffffffffffff16815260200190815260200160002054905081811015613166576040517f08c379a000000000000000000000000000000000000000000000000000000000815260040161315d90615012565b60405180910390fd5b81816131729190615520565b6097600085815260200190815260200160002060008a73ffffffffffffffffffffffffffffffffffffffff1673ffffffffffffffffffffffffffffffffffffffff1681526020019081526020016000208190555050505080806131d490615666565b91505061303b565b50600073ffffffffffffffffffffffffffffffffffffffff168473ffffffffffffffffffffffffffffffffffffffff168273ffffffffffffffffffffffffffffffffffffffff167f4a39dc06d4c0dbc64b70af90fd698a233a518aa5d07e595d983b8c0526c8f7fb8686604051613254929190614ede565b60405180910390a450505050565b600060019054906101000a900460ff1680613288575060008054906101000a900460ff16155b6132c7576040517f08c379a00000000000000000000000000000000000000000000000000000000081526004016132be90615112565b60405180910390fd5b60008060019054906101000a900460ff161590508015613317576001600060016101000a81548160ff02191690831515021790555060016000806101000a81548160ff0219169083151502179055505b80156133385760008060016101000a81548160ff0219169083151502179055505b50565b600060019054906101000a900460ff1680613361575060008054906101000a900460ff16155b6133a0576040517f08c379a000000000000000000000000000000000000000000000000000000000815260040161339790615112565b60405180910390fd5b60008060019054906101000a900460ff1615905080156133f0576001600060016101000a81548160ff02191690831515021790555060016000806101000a81548160ff0219169083151502179055505b80156134115760008060016101000a81548160ff0219169083151502179055505b50565b600060019054906101000a900460ff168061343a575060008054906101000a900460ff16155b613479576040517f08c379a000000000000000000000000000000000000000000000000000000000815260040161347090615112565b60405180910390fd5b60008060019054906101000a900460ff1615905080156134c9576001600060016101000a81548160ff02191690831515021790555060016000806101000a81548160ff0219169083151502179055505b6134d2826138be565b80156134f35760008060016101000a81548160ff0219169083151502179055505b5050565b600073ffffffffffffffffffffffffffffffffffffffff168473ffffffffffffffffffffffffffffffffffffffff161415613567576040517f08c379a000000000000000000000000000000000000000000000000000000000815260040161355e906151f2565b60405180910390fd5b6000613571611f66565b90506135928160008761358388612640565b61358c88612640565b87611f6e565b826097600086815260200190815260200160002060008773ffffffffffffffffffffffffffffffffffffffff1673ffffffffffffffffffffffffffffffffffffffff16815260200190815260200160002060008282546135f29190615499565b925050819055508473ffffffffffffffffffffffffffffffffffffffff16600073ffffffffffffffffffffffffffffffffffffffff168273ffffffffffffffffffffffffffffffffffffffff167fc3d58168c5ae7397731d063d5bbf3d657854427343f4c083240f7aacaa2d0f6287876040516136709291906152a6565b60405180910390a461368781600087878787612706565b5050505050565b600073ffffffffffffffffffffffffffffffffffffffff168373ffffffffffffffffffffffffffffffffffffffff1614156136fe576040517f08c379a00000000000000000000000000000000000000000000000000000000081526004016136f590615132565b60405180910390fd5b6000613708611f66565b90506137388185600061371a87612640565b61372387612640565b60405180602001604052806000815250611f6e565b60006097600085815260200190815260200160002060008673ffffffffffffffffffffffffffffffffffffffff1673ffffffffffffffffffffffffffffffffffffffff168152602001908152602001600020549050828110156137d0576040517f08c379a00000000000000000000000000000000000000000000000000000000081526004016137c790615012565b60405180910390fd5b82816137dc9190615520565b6097600086815260200190815260200160002060008773ffffffffffffffffffffffffffffffffffffffff1673ffffffffffffffffffffffffffffffffffffffff16815260200190815260200160002081905550600073ffffffffffffffffffffffffffffffffffffffff168573ffffffffffffffffffffffffffffffffffffffff168373ffffffffffffffffffffffffffffffffffffffff167fc3d58168c5ae7397731d063d5bbf3d657854427343f4c083240f7aacaa2d0f6287876040516138a79291906152a6565b60405180910390a45050505050565b505050505050565b80609990805190602001906138d49291906138d8565b5050565b8280546138e490615634565b90600052602060002090601f016020900481019282613906576000855561394d565b82601f1061391f57805160ff191683800117855561394d565b8280016001018555821561394d579182015b8281111561394c578251825591602001919060010190613931565b5b50905061395a919061397f565b5090565b508054600082559060005260206000209081019061397c919061399c565b50565b5b80821115613998576000816000905550600101613980565b5090565b5b808211156139f557600080820160006101000a81549073ffffffffffffffffffffffffffffffffffffffff02191690556000820160146101000a8154906bffffffffffffffffffffffff02191690555060010161399d565b5090565b6000613a0c613a0784615300565b6152cf565b90508083825260208201905082856020860282011115613a2b57600080fd5b60005b85811015613a5b5781613a418882613bb9565b845260208401935060208301925050600181019050613a2e565b5050509392505050565b6000613a78613a738461532c565b6152cf565b90508083825260208201905082856040860282011115613a9757600080fd5b60005b85811015613ac75781613aad8882613cf4565b845260208401935060408301925050600181019050613a9a565b5050509392505050565b6000613ae4613adf84615358565b6152cf565b90508083825260208201905082856020860282011115613b0357600080fd5b60005b85811015613b335781613b198882613d40565b845260208401935060208301925050600181019050613b06565b5050509392505050565b6000613b50613b4b84615384565b6152cf565b905082815260208101848484011115613b6857600080fd5b613b738482856155f2565b509392505050565b6000613b8e613b89846153b4565b6152cf565b905082815260208101848484011115613ba657600080fd5b613bb18482856155f2565b509392505050565b600081359050613bc881615870565b92915050565b600081359050613bdd81615887565b92915050565b600082601f830112613bf457600080fd5b8135613c048482602086016139f9565b91505092915050565b600082601f830112613c1e57600080fd5b8135613c2e848260208601613a65565b91505092915050565b600082601f830112613c4857600080fd5b8135613c58848260208601613ad1565b91505092915050565b600081359050613c708161589e565b92915050565b600081359050613c85816158b5565b92915050565b600081519050613c9a816158b5565b92915050565b600082601f830112613cb157600080fd5b8135613cc1848260208601613b3d565b91505092915050565b600082601f830112613cdb57600080fd5b8135613ceb848260208601613b7b565b91505092915050565b600060408284031215613d0657600080fd5b613d1060406152cf565b90506000613d2084828501613bce565b6000830152506020613d3484828501613d55565b60208301525092915050565b600081359050613d4f816158cc565b92915050565b600081359050613d64816158e3565b92915050565b600060208284031215613d7c57600080fd5b6000613d8a84828501613bb9565b91505092915050565b60008060408385031215613da657600080fd5b6000613db485828601613bb9565b9250506020613dc585828601613bb9565b9150509250929050565b600080600080600060a08688031215613de757600080fd5b6000613df588828901613bb9565b9550506020613e0688828901613bb9565b945050604086013567ffffffffffffffff811115613e2357600080fd5b613e2f88828901613c37565b935050606086013567ffffffffffffffff811115613e4c57600080fd5b613e5888828901613c37565b925050608086013567ffffffffffffffff811115613e7557600080fd5b613e8188828901613ca0565b9150509295509295909350565b600080600080600060a08688031215613ea657600080fd5b6000613eb488828901613bb9565b9550506020613ec588828901613bb9565b9450506040613ed688828901613d40565b9350506060613ee788828901613d40565b925050608086013567ffffffffffffffff811115613f0457600080fd5b613f1088828901613ca0565b9150509295509295909350565b600080600060608486031215613f3257600080fd5b6000613f4086828701613bb9565b935050602084013567ffffffffffffffff811115613f5d57600080fd5b613f6986828701613c37565b925050604084013567ffffffffffffffff811115613f8657600080fd5b613f9286828701613c37565b9150509250925092565b60008060408385031215613faf57600080fd5b6000613fbd85828601613bb9565b9250506020613fce85828601613c61565b9150509250929050565b60008060408385031215613feb57600080fd5b6000613ff985828601613bb9565b925050602061400a85828601613d40565b9150509250929050565b60008060006060848603121561402957600080fd5b600061403786828701613bb9565b935050602061404886828701613d40565b925050604061405986828701613d40565b9150509250925092565b6000806000806080858703121561407957600080fd5b600061408787828801613bb9565b945050602061409887828801613d40565b93505060406140a987828801613d40565b925050606085013567ffffffffffffffff8111156140c657600080fd5b6140d287828801613ca0565b91505092959194509250565b60008060008060008060c087890312156140f757600080fd5b600061410589828a01613bb9565b965050602061411689828a01613d40565b955050604061412789828a01613d40565b945050606087013567ffffffffffffffff81111561414457600080fd5b61415089828a01613ca0565b935050608061416189828a01613bb9565b92505060a087013567ffffffffffffffff81111561417e57600080fd5b61418a89828a01613c0d565b9150509295509295509295565b600080604083850312156141aa57600080fd5b600083013567ffffffffffffffff8111156141c457600080fd5b6141d085828601613be3565b925050602083013567ffffffffffffffff8111156141ed57600080fd5b6141f985828601613c37565b9150509250929050565b60006020828403121561421557600080fd5b600061422384828501613c76565b91505092915050565b60006020828403121561423e57600080fd5b600061424c84828501613c8b565b91505092915050565b60008060006060848603121561426a57600080fd5b600084013567ffffffffffffffff81111561428457600080fd5b61429086828701613cca565b935050602084013567ffffffffffffffff8111156142ad57600080fd5b6142b986828701613cca565b925050604084013567ffffffffffffffff8111156142d657600080fd5b6142e286828701613cca565b9150509250925092565b6000602082840312156142fe57600080fd5b600061430c84828501613d40565b91505092915050565b60006143218383614d3d565b60408301905092915050565b60006143398383614d6c565b60208301905092915050565b61434e81615566565b82525050565b61435d81615554565b82525050565b600061436e82615404565b614378818561544a565b9350614383836153e4565b8060005b838110156143b457815161439b8882614315565b97506143a683615430565b925050600181019050614387565b5085935050505092915050565b60006143cc8261540f565b6143d6818561545b565b93506143e1836153f4565b8060005b838110156144125781516143f9888261432d565b97506144048361543d565b9250506001810190506143e5565b5085935050505092915050565b61442881615578565b82525050565b60006144398261541a565b614443818561546c565b9350614453818560208601615601565b61445c8161579c565b840191505092915050565b600061447282615425565b61447c818561547d565b935061448c818560208601615601565b6144958161579c565b840191505092915050565b60006144ab82615425565b6144b5818561548e565b93506144c5818560208601615601565b80840191505092915050565b60006144de60348361547d565b91507f455243313135353a207472616e7366657220746f206e6f6e204552433131353560008301527f526563656976657220696d706c656d656e7465720000000000000000000000006020830152604082019050919050565b600061454460348361547d565b91507f455243313135353a204974206973206e6f7420706f737369626c6520746f206960008301527f73737565206164646974696f6e616c204e4654730000000000000000000000006020830152604082019050919050565b60006145aa60288361547d565b91507f455243313135353a204552433131353552656365697665722072656a6563746560008301527f6420746f6b656e730000000000000000000000000000000000000000000000006020830152604082019050919050565b600061461060148361547d565b91507f5061757361626c653a206e6f74207061757365640000000000000000000000006000830152602082019050919050565b6000614650602b8361547d565b91507f455243313135353a2062616c616e636520717565727920666f7220746865207a60008301527f65726f20616464726573730000000000000000000000000000000000000000006020830152604082019050919050565b60006146b660268361547d565b91507f4f776e61626c653a206e6577206f776e657220697320746865207a65726f206160008301527f64647265737300000000000000000000000000000000000000000000000000006020830152604082019050919050565b600061471c60248361547d565b91507f455243313135353a206275726e20616d6f756e7420657863656564732062616c60008301527f616e6365000000000000000000000000000000000000000000000000000000006020830152604082019050919050565b6000614782602c8361547d565b91507f455243313135355061757361626c653a20746f6b656e207472616e736665722060008301527f7768696c652070617573656400000000000000000000000000000000000000006020830152604082019050919050565b60006147e860298361547d565b91507f455243313135353a2063616c6c6572206973206e6f74206f776e6572206e6f7260008301527f20617070726f76656400000000000000000000000000000000000000000000006020830152604082019050919050565b600061484e602a8361547d565b91507f455243313135353a206f776e657220717565727920666f72206e6f6e6578697360008301527f74656e7420746f6b656e000000000000000000000000000000000000000000006020830152604082019050919050565b60006148b460208361547d565b91507f526f79616c74792076616c75652073686f756c6420626520706f7369746976656000830152602082019050919050565b60006148f460108361547d565b91507f5061757361626c653a20706175736564000000000000000000000000000000006000830152602082019050919050565b600061493460258361547d565b91507f455243313135353a207472616e7366657220746f20746865207a65726f20616460008301527f64726573730000000000000000000000000000000000000000000000000000006020830152604082019050919050565b600061499a60328361547d565b91507f455243313135353a207472616e736665722063616c6c6572206973206e6f742060008301527f6f776e6572206e6f7220617070726f76656400000000000000000000000000006020830152604082019050919050565b6000614a00602e8361547d565b91507f496e697469616c697a61626c653a20636f6e747261637420697320616c72656160008301527f647920696e697469616c697a65640000000000000000000000000000000000006020830152604082019050919050565b6000614a6660238361547d565b91507f455243313135353a206275726e2066726f6d20746865207a65726f206164647260008301527f65737300000000000000000000000000000000000000000000000000000000006020830152604082019050919050565b6000614acc602a8361547d565b91507f455243313135353a20696e73756666696369656e742062616c616e636520666f60008301527f72207472616e73666572000000000000000000000000000000000000000000006020830152604082019050919050565b6000614b3260208361547d565b91507f4f776e61626c653a2063616c6c6572206973206e6f7420746865206f776e65726000830152602082019050919050565b6000614b7260298361547d565b91507f455243313135353a2073657474696e6720617070726f76616c2073746174757360008301527f20666f722073656c6600000000000000000000000000000000000000000000006020830152604082019050919050565b6000614bd860298361547d565b91507f455243313135353a206163636f756e747320616e6420696473206c656e67746860008301527f206d69736d6174636800000000000000000000000000000000000000000000006020830152604082019050919050565b6000614c3e60288361547d565b91507f455243313135353a2069647320616e6420616d6f756e7473206c656e6774682060008301527f6d69736d617463680000000000000000000000000000000000000000000000006020830152604082019050919050565b6000614ca460218361547d565b91507f455243313135353a206d696e7420746f20746865207a65726f2061646472657360008301527f73000000000000000000000000000000000000000000000000000000000000006020830152604082019050919050565b6000614d0a601b8361547d565b91507f526563697069656e742073686f756c642062652070726573656e7400000000006000830152602082019050919050565b604082016000820151614d536000850182614345565b506020820151614d666020850182614d8a565b50505050565b614d75816155d0565b82525050565b614d84816155d0565b82525050565b614d93816155da565b82525050565b6000614da582856144a0565b9150614db182846144a0565b91508190509392505050565b6000602082019050614dd26000830184614354565b92915050565b600060a082019050614ded6000830188614354565b614dfa6020830187614354565b8181036040830152614e0c81866143c1565b90508181036060830152614e2081856143c1565b90508181036080830152614e34818461442e565b90509695505050505050565b600060a082019050614e556000830188614354565b614e626020830187614354565b614e6f6040830186614d7b565b614e7c6060830185614d7b565b8181036080830152614e8e818461442e565b90509695505050505050565b60006020820190508181036000830152614eb48184614363565b905092915050565b60006020820190508181036000830152614ed681846143c1565b905092915050565b60006040820190508181036000830152614ef881856143c1565b90508181036020830152614f0c81846143c1565b90509392505050565b6000602082019050614f2a600083018461441f565b92915050565b60006020820190508181036000830152614f4a8184614467565b905092915050565b60006020820190508181036000830152614f6b816144d1565b9050919050565b60006020820190508181036000830152614f8b81614537565b9050919050565b60006020820190508181036000830152614fab8161459d565b9050919050565b60006020820190508181036000830152614fcb81614603565b9050919050565b60006020820190508181036000830152614feb81614643565b9050919050565b6000602082019050818103600083015261500b816146a9565b9050919050565b6000602082019050818103600083015261502b8161470f565b9050919050565b6000602082019050818103600083015261504b81614775565b9050919050565b6000602082019050818103600083015261506b816147db565b9050919050565b6000602082019050818103600083015261508b81614841565b9050919050565b600060208201905081810360008301526150ab816148a7565b9050919050565b600060208201905081810360008301526150cb816148e7565b9050919050565b600060208201905081810360008301526150eb81614927565b9050919050565b6000602082019050818103600083015261510b8161498d565b9050919050565b6000602082019050818103600083015261512b816149f3565b9050919050565b6000602082019050818103600083015261514b81614a59565b9050919050565b6000602082019050818103600083015261516b81614abf565b9050919050565b6000602082019050818103600083015261518b81614b25565b9050919050565b600060208201905081810360008301526151ab81614b65565b9050919050565b600060208201905081810360008301526151cb81614bcb565b9050919050565b600060208201905081810360008301526151eb81614c31565b9050919050565b6000602082019050818103600083015261520b81614c97565b9050919050565b6000602082019050818103600083015261522b81614cfd565b9050919050565b60006020820190506152476000830184614d7b565b92915050565b60006040820190506152626000830185614d7b565b61526f6020830184614354565b9392505050565b600060408201905061528b6000830185614d7b565b818103602083015261529d8184614363565b90509392505050565b60006040820190506152bb6000830185614d7b565b6152c86020830184614d7b565b9392505050565b6000604051905081810181811067ffffffffffffffff821117156152f6576152f561576d565b5b8060405250919050565b600067ffffffffffffffff82111561531b5761531a61576d565b5b602082029050602081019050919050565b600067ffffffffffffffff8211156153475761534661576d565b5b602082029050602081019050919050565b600067ffffffffffffffff8211156153735761537261576d565b5b602082029050602081019050919050565b600067ffffffffffffffff82111561539f5761539e61576d565b5b601f19601f8301169050602081019050919050565b600067ffffffffffffffff8211156153cf576153ce61576d565b5b601f19601f8301169050602081019050919050565b6000819050602082019050919050565b6000819050602082019050919050565b600081519050919050565b600081519050919050565b600081519050919050565b600081519050919050565b6000602082019050919050565b6000602082019050919050565b600082825260208201905092915050565b600082825260208201905092915050565b600082825260208201905092915050565b600082825260208201905092915050565b600081905092915050565b60006154a4826155d0565b91506154af836155d0565b9250827fffffffffffffffffffffffffffffffffffffffffffffffffffffffffffffffff038211156154e4576154e36156e0565b5b828201905092915050565b60006154fa826155d0565b9150615505836155d0565b9250826155155761551461570f565b5b828204905092915050565b600061552b826155d0565b9150615536836155d0565b925082821015615549576155486156e0565b5b828203905092915050565b600061555f826155b0565b9050919050565b6000615571826155b0565b9050919050565b60008115159050919050565b60007fffffffff0000000000000000000000000000000000000000000000000000000082169050919050565b600073ffffffffffffffffffffffffffffffffffffffff82169050919050565b6000819050919050565b60006bffffffffffffffffffffffff82169050919050565b82818337600083830152505050565b60005b8381101561561f578082015181840152602081019050615604565b8381111561562e576000848401525b50505050565b6000600282049050600182168061564c57607f821691505b602082108114156156605761565f61573e565b5b50919050565b6000615671826155d0565b91507fffffffffffffffffffffffffffffffffffffffffffffffffffffffffffffffff8214156156a4576156a36156e0565b5b600182019050919050565b60006156ba826155d0565b91506156c5836155d0565b9250826156d5576156d461570f565b5b828206905092915050565b7f4e487b7100000000000000000000000000000000000000000000000000000000600052601160045260246000fd5b7f4e487b7100000000000000000000000000000000000000000000000000000000600052601260045260246000fd5b7f4e487b7100000000000000000000000000000000000000000000000000000000600052602260045260246000fd5b7f4e487b7100000000000000000000000000000000000000000000000000000000600052604160045260246000fd5b6000601f19601f8301169050919050565b60008160e01c9050919050565b600060443d10156157ca5761586d565b60046000803e6157db6000516157ad565b6308c379a081146157ec575061586d565b60405160043d036004823e80513d602482011167ffffffffffffffff821117156158185750505061586d565b808201805167ffffffffffffffff81111561583757505050505061586d565b8060208301013d85018111156158525750505050505061586d565b61585b8261579c565b60208401016040528296505050505050505b90565b61587981615554565b811461588457600080fd5b50565b61589081615566565b811461589b57600080fd5b50565b6158a781615578565b81146158b257600080fd5b50565b6158be81615584565b81146158c957600080fd5b50565b6158d5816155d0565b81146158e057600080fd5b50565b6158ec816155da565b81146158f757600080fd5b5056fea26469706673582212204e28c0bd3d5e83974812c638c50a3a2423e6971deab209029f0c53dae5f2d1ca64736f6c63430008000033",
  "immutableReferences": {},
  "source": "pragma solidity ^0.8.0;\n\nimport \"@openzeppelin/contracts-upgradeable/access/OwnableUpgradeable.sol\";\nimport \"@openzeppelin/contracts-upgradeable/token/ERC1155/extensions/ERC1155BurnableUpgradeable.sol\";\nimport \"@openzeppelin/contracts-upgradeable/token/ERC1155/extensions/ERC1155PausableUpgradeable.sol\";\n\nimport \"./lib/ERC1155BaseURI.sol\";\nimport \"./lib/LibPart.sol\";\n\n\ncontract Paru1155V2 is\n    OwnableUpgradeable,\n    ERC1155BaseURI,\n    ERC1155BurnableUpgradeable,\n    ERC1155PausableUpgradeable\n{\n    string public name;\n    string public symbol;\n    mapping(uint256 => uint256) private _totalSupply;\n    mapping(uint256 => address) private _tokenOwners;\n\n    event RoyaltySet(uint256 tokenId, LibPart.Part[] royalty);\n    event RoyaltyOwnerSet(uint256 tokenId, address owner);\n\n    // ownerble upgradeable\n    mapping(uint256 => LibPart.Part[]) _royalties;\n    mapping(uint256 => address) _royaltyOwners;\n\n    /*\n     * bytes4(keccak256('getRoyalties(LibAsset.AssetType)')) == 0x44c74bcc\n     */\n    bytes4 constant _INTERFACE_ID_ROYALTIES = 0x44c74bcc;\n\n    // initialize\n    function initialize(\n        string memory _name,\n        string memory _symbol,\n        string memory baseURI\n    ) external initializer {\n        __Ownable_init_unchained();\n        __ERC1155_init(\"\");\n        _setBaseURI(baseURI);\n\n        name = _name;\n        symbol = _symbol;\n    }\n\n    // mint\n    // _setTokenURI(uint256 tokenId, string memory _uri) // mint   ? ?\n    // gas , baseURI   tokenId   ?\n    function mintItem(\n        address account,\n        uint256 id,\n        uint256 amount,\n        bytes memory data\n    ) public {\n        address owner = _tokenOwners[id];\n        require(\n            owner == address(0),\n            \"ERC1155: It is not possible to issue additional NFTs\"\n        );\n\n        _mint(account, id, amount, data); // account, id, amount, data\n        _tokenOwners[id] = account;\n    }\n\n    function mintItemWithRoyalty( // AndApprove?\n        address account,\n        uint256 id,\n        uint256 amount,\n        bytes memory data,\n        address royaltyOwner,\n        LibPart.Part[] memory royalties\n    ) public {\n        _mint(account, id, amount, data);\n        _tokenOwners[id] = account;\n\n        _setRoyaltyOwner(id, royaltyOwner);\n        _setRoyalties(id, royalties);\n    }\n\n    function ownerOf(uint256 id) public view returns (address) {\n        address owner = _tokenOwners[id];\n        require(\n            owner != address(0),\n            \"ERC1155: owner query for nonexistent token\"\n        );\n        return owner;\n    }\n\n    // mintBatch\n    // function mintItems(\n    //     address account, uint256[] memory ids, uint256[] memory amounts, bytes memory data\n    // ) public {\n    //     _mintBatch(account, ids, amounts, data); // account, id, amount, data\n    // }\n\n    // balanceOf, balanceOfBatch\n\n    // transfer, transferBatch\n\n    // burn, burnBatch\n    // function burn( address account, uint256 id, uint256 amount\n    // ) public override {\n    //     _burn(account, id, amount);\n    // } // ERC1155BurnableUpgradeable msgSender in [owner, operator]   \n\n    // _setTokenUri, uri -> ERC1155BaseURI\n    function uri(uint256 id)\n        public\n        view\n        virtual\n        override(ERC1155BaseURI, ERC1155Upgradeable)\n        returns (string memory)\n    {\n        return _tokenURI(id);\n    }\n\n    function pause() public onlyOwner {\n        _pause();\n    }\n\n    function unpause() public onlyOwner {\n        _unpause();\n    }\n\n    /**\n     * @dev Total amount of tokens in with a given id.\n     */\n    function totalSupply(uint256 id) public view virtual returns (uint256) {\n        return _totalSupply[id];\n    }\n\n    /**\n     * @dev Indicates weither any token exist with a given id, or not.\n     */\n    function exists(uint256 id) public view virtual returns (bool) {\n        return Paru1155V2.totalSupply(id) > 0;\n    }\n\n    /**\n     * @dev See {ERC1155-_mint}.\n     */\n    function _mint(\n        address account,\n        uint256 id,\n        uint256 amount,\n        bytes memory data\n    ) internal virtual override {\n        super._mint(account, id, amount, data);\n        _totalSupply[id] += amount;\n    }\n\n    /**\n     * @dev See {ERC1155-_mintBatch}.\n     */\n    function _mintBatch(\n        address to,\n        uint256[] memory ids,\n        uint256[] memory amounts,\n        bytes memory data\n    ) internal virtual override {\n        super._mintBatch(to, ids, amounts, data);\n        for (uint256 i = 0; i < ids.length; ++i) {\n            _totalSupply[ids[i]] += amounts[i];\n        }\n    }\n\n    /**\n     * @dev See {ERC1155-_burn}.\n     */\n    function _burn(\n        address account,\n        uint256 id,\n        uint256 amount\n    ) internal virtual override {\n        super._burn(account, id, amount);\n        _totalSupply[id] -= amount;\n    }\n\n    /**\n     * @dev See {ERC1155-_burnBatch}.\n     */\n    function _burnBatch(\n        address account,\n        uint256[] memory ids,\n        uint256[] memory amounts\n    ) internal virtual override {\n        super._burnBatch(account, ids, amounts);\n        for (uint256 i = 0; i < ids.length; ++i) {\n            _totalSupply[ids[i]] -= amounts[i];\n        }\n    }\n\n    function getRoyalties(uint256 tokenId)\n        public\n        view\n        returns (LibPart.Part[] memory)\n    {\n        return _royalties[tokenId];\n    }\n\n    function _setRoyalties(uint256 tokenId, LibPart.Part[] memory royalties)\n        internal\n    {\n        // clear existence\n        delete _royalties[tokenId];\n        // validate and save\n        for (uint256 i = 0; i < royalties.length; i++) {\n            require(\n                royalties[i].account != address(0x0),\n                \"Recipient should be present\"\n            );\n            require(\n                royalties[i].value != 0,\n                \"Royalty value should be positive\"\n            );\n            _royalties[tokenId].push(royalties[i]);\n        }\n\n        emit RoyaltySet(tokenId, royalties);\n    }\n\n    function getRoyaltyOwner(uint256 tokenId) public view returns (address) {\n        return _royaltyOwners[tokenId];\n    }\n\n    function _setRoyaltyOwner(uint256 tokenId, address owner) internal {\n        require(owner != address(0x0), \"Recipient should be present\");\n        _royaltyOwners[tokenId] = owner;\n\n        emit RoyaltyOwnerSet(tokenId, owner);\n    }\n\n    function _beforeTokenTransfer(\n        address operator,\n        address from,\n        address to,\n        uint256[] memory ids,\n        uint256[] memory amounts,\n        bytes memory data\n    )\n        internal\n        virtual\n        override(ERC1155Upgradeable, ERC1155PausableUpgradeable)\n    {\n        super._beforeTokenTransfer(operator, from, to, ids, amounts, data);\n    }\n\n    function supportsInterface(bytes4 interfaceId)\n        public\n        view\n        override\n        returns (bool)\n    {\n        return\n            interfaceId == _INTERFACE_ID_ROYALTIES ||\n            super.supportsInterface(interfaceId);\n    }\n}\n",
  "sourcePath": "/Users/chang-younglee/harbor/parula-backend/smartcontract/v1.0/contracts/Paru1155V2.sol",
  "compiler": {
    "name": "solc",
    "version": "0.8.0+commit.c7dfd78e.Emscripten.clang"
  },
  "schemaVersion": "3.4.0",
  "updatedAt": "2021-08-09T07:09:19.706Z",
  "devdoc": {
    "kind": "dev",
    "methods": {
      "balanceOf(address,uint256)": {
        "details": "See {IERC1155-balanceOf}. Requirements: - `account` cannot be the zero address."
      },
      "balanceOfBatch(address[],uint256[])": {
        "details": "See {IERC1155-balanceOfBatch}. Requirements: - `accounts` and `ids` must have the same length."
      },
      "baseURI()": {
        "details": "Returns the base URI set via {_setBaseURI}. This will be automatically added as a prefix in {tokenURI} to each token's URI, or to the token ID if no specific URI is set for that token ID."
      },
      "exists(uint256)": {
        "details": "Indicates weither any token exist with a given id, or not."
      },
      "isApprovedForAll(address,address)": {
        "details": "See {IERC1155-isApprovedForAll}."
      },
      "owner()": {
        "details": "Returns the address of the current owner."
      },
      "paused()": {
        "details": "Returns true if the contract is paused, and false otherwise."
      },
      "renounceOwnership()": {
        "details": "Leaves the contract without owner. It will not be possible to call `onlyOwner` functions anymore. Can only be called by the current owner. NOTE: Renouncing ownership will leave the contract without an owner, thereby removing any functionality that is only available to the owner."
      },
      "safeBatchTransferFrom(address,address,uint256[],uint256[],bytes)": {
        "details": "See {IERC1155-safeBatchTransferFrom}."
      },
      "safeTransferFrom(address,address,uint256,uint256,bytes)": {
        "details": "See {IERC1155-safeTransferFrom}."
      },
      "setApprovalForAll(address,bool)": {
        "details": "See {IERC1155-setApprovalForAll}."
      },
      "supportsInterface(bytes4)": {
        "details": "See {IERC165-supportsInterface}."
      },
      "totalSupply(uint256)": {
        "details": "Total amount of tokens in with a given id."
      },
      "transferOwnership(address)": {
        "details": "Transfers ownership of the contract to a new account (`newOwner`). Can only be called by the current owner."
      }
    },
    "version": 1
  },
  "userdoc": {
    "kind": "user",
    "methods": {},
    "version": 1
  }
}