{
  "contractName": "Paru1155",
  "abi": [
    {
      "anonymous": false,
      "inputs": [
        {
          "indexed": true,
          "internalType": "address",
          "name": "account",
          "type": "address"
        },
        {
          "indexed": true,
          "internalType": "address",
          "name": "operator",
          "type": "address"
        },
        {
          "indexed": false,
          "internalType": "bool",
          "name": "approved",
          "type": "bool"
        }
      ],
      "name": "ApprovalForAll",
      "type": "event"
    },
    {
      "anonymous": false,
      "inputs": [
        {
          "indexed": true,
          "internalType": "address",
          "name": "previousOwner",
          "type": "address"
        },
        {
          "indexed": true,
          "internalType": "address",
          "name": "newOwner",
          "type": "address"
        }
      ],
      "name": "OwnershipTransferred",
      "type": "event"
    },
    {
      "anonymous": false,
      "inputs": [
        {
          "indexed": false,
          "internalType": "address",
          "name": "account",
          "type": "address"
        }
      ],
      "name": "Paused",
      "type": "event"
    },
    {
      "anonymous": false,
      "inputs": [
        {
          "indexed": true,
          "internalType": "address",
          "name": "operator",
          "type": "address"
        },
        {
          "indexed": true,
          "internalType": "address",
          "name": "from",
          "type": "address"
        },
        {
          "indexed": true,
          "internalType": "address",
          "name": "to",
          "type": "address"
        },
        {
          "indexed": false,
          "internalType": "uint256[]",
          "name": "ids",
          "type": "uint256[]"
        },
        {
          "indexed": false,
          "internalType": "uint256[]",
          "name": "values",
          "type": "uint256[]"
        }
      ],
      "name": "TransferBatch",
      "type": "event"
    },
    {
      "anonymous": false,
      "inputs": [
        {
          "indexed": true,
          "internalType": "address",
          "name": "operator",
          "type": "address"
        },
        {
          "indexed": true,
          "internalType": "address",
          "name": "from",
          "type": "address"
        },
        {
          "indexed": true,
          "internalType": "address",
          "name": "to",
          "type": "address"
        },
        {
          "indexed": false,
          "internalType": "uint256",
          "name": "id",
          "type": "uint256"
        },
        {
          "indexed": false,
          "internalType": "uint256",
          "name": "value",
          "type": "uint256"
        }
      ],
      "name": "TransferSingle",
      "type": "event"
    },
    {
      "anonymous": false,
      "inputs": [
        {
          "indexed": false,
          "internalType": "string",
          "name": "value",
          "type": "string"
        },
        {
          "indexed": true,
          "internalType": "uint256",
          "name": "id",
          "type": "uint256"
        }
      ],
      "name": "URI",
      "type": "event"
    },
    {
      "anonymous": false,
      "inputs": [
        {
          "indexed": false,
          "internalType": "address",
          "name": "account",
          "type": "address"
        }
      ],
      "name": "Unpaused",
      "type": "event"
    },
    {
      "inputs": [
        {
          "internalType": "address",
          "name": "account",
          "type": "address"
        },
        {
          "internalType": "uint256",
          "name": "id",
          "type": "uint256"
        }
      ],
      "name": "balanceOf",
      "outputs": [
        {
          "internalType": "uint256",
          "name": "",
          "type": "uint256"
        }
      ],
      "stateMutability": "view",
      "type": "function",
      "constant": true
    },
    {
      "inputs": [
        {
          "internalType": "address[]",
          "name": "accounts",
          "type": "address[]"
        },
        {
          "internalType": "uint256[]",
          "name": "ids",
          "type": "uint256[]"
        }
      ],
      "name": "balanceOfBatch",
      "outputs": [
        {
          "internalType": "uint256[]",
          "name": "",
          "type": "uint256[]"
        }
      ],
      "stateMutability": "view",
      "type": "function",
      "constant": true
    },
    {
      "inputs": [],
      "name": "baseURI",
      "outputs": [
        {
          "internalType": "string",
          "name": "",
          "type": "string"
        }
      ],
      "stateMutability": "view",
      "type": "function",
      "constant": true
    },
    {
      "inputs": [
        {
          "internalType": "address",
          "name": "account",
          "type": "address"
        },
        {
          "internalType": "uint256",
          "name": "id",
          "type": "uint256"
        },
        {
          "internalType": "uint256",
          "name": "value",
          "type": "uint256"
        }
      ],
      "name": "burn",
      "outputs": [],
      "stateMutability": "nonpayable",
      "type": "function"
    },
    {
      "inputs": [
        {
          "internalType": "address",
          "name": "account",
          "type": "address"
        },
        {
          "internalType": "uint256[]",
          "name": "ids",
          "type": "uint256[]"
        },
        {
          "internalType": "uint256[]",
          "name": "values",
          "type": "uint256[]"
        }
      ],
      "name": "burnBatch",
      "outputs": [],
      "stateMutability": "nonpayable",
      "type": "function"
    },
    {
      "inputs": [
        {
          "internalType": "address",
          "name": "account",
          "type": "address"
        },
        {
          "internalType": "address",
          "name": "operator",
          "type": "address"
        }
      ],
      "name": "isApprovedForAll",
      "outputs": [
        {
          "internalType": "bool",
          "name": "",
          "type": "bool"
        }
      ],
      "stateMutability": "view",
      "type": "function",
      "constant": true
    },
    {
      "inputs": [],
      "name": "name",
      "outputs": [
        {
          "internalType": "string",
          "name": "",
          "type": "string"
        }
      ],
      "stateMutability": "view",
      "type": "function",
      "constant": true
    },
    {
      "inputs": [],
      "name": "owner",
      "outputs": [
        {
          "internalType": "address",
          "name": "",
          "type": "address"
        }
      ],
      "stateMutability": "view",
      "type": "function",
      "constant": true
    },
    {
      "inputs": [],
      "name": "paused",
      "outputs": [
        {
          "internalType": "bool",
          "name": "",
          "type": "bool"
        }
      ],
      "stateMutability": "view",
      "type": "function",
      "constant": true
    },
    {
      "inputs": [],
      "name": "renounceOwnership",
      "outputs": [],
      "stateMutability": "nonpayable",
      "type": "function"
    },
    {
      "inputs": [
        {
          "internalType": "address",
          "name": "from",
          "type": "address"
        },
        {
          "internalType": "address",
          "name": "to",
          "type": "address"
        },
        {
          "internalType": "uint256[]",
          "name": "ids",
          "type": "uint256[]"
        },
        {
          "internalType": "uint256[]",
          "name": "amounts",
          "type": "uint256[]"
        },
        {
          "internalType": "bytes",
          "name": "data",
          "type": "bytes"
        }
      ],
      "name": "safeBatchTransferFrom",
      "outputs": [],
      "stateMutability": "nonpayable",
      "type": "function"
    },
    {
      "inputs": [
        {
          "internalType": "address",
          "name": "from",
          "type": "address"
        },
        {
          "internalType": "address",
          "name": "to",
          "type": "address"
        },
        {
          "internalType": "uint256",
          "name": "id",
          "type": "uint256"
        },
        {
          "internalType": "uint256",
          "name": "amount",
          "type": "uint256"
        },
        {
          "internalType": "bytes",
          "name": "data",
          "type": "bytes"
        }
      ],
      "name": "safeTransferFrom",
      "outputs": [],
      "stateMutability": "nonpayable",
      "type": "function"
    },
    {
      "inputs": [
        {
          "internalType": "address",
          "name": "operator",
          "type": "address"
        },
        {
          "internalType": "bool",
          "name": "approved",
          "type": "bool"
        }
      ],
      "name": "setApprovalForAll",
      "outputs": [],
      "stateMutability": "nonpayable",
      "type": "function"
    },
    {
      "inputs": [
        {
          "internalType": "bytes4",
          "name": "interfaceId",
          "type": "bytes4"
        }
      ],
      "name": "supportsInterface",
      "outputs": [
        {
          "internalType": "bool",
          "name": "",
          "type": "bool"
        }
      ],
      "stateMutability": "view",
      "type": "function",
      "constant": true
    },
    {
      "inputs": [],
      "name": "symbol",
      "outputs": [
        {
          "internalType": "string",
          "name": "",
          "type": "string"
        }
      ],
      "stateMutability": "view",
      "type": "function",
      "constant": true
    },
    {
      "inputs": [
        {
          "internalType": "address",
          "name": "newOwner",
          "type": "address"
        }
      ],
      "name": "transferOwnership",
      "outputs": [],
      "stateMutability": "nonpayable",
      "type": "function"
    },
    {
      "inputs": [
        {
          "internalType": "string",
          "name": "_name",
          "type": "string"
        },
        {
          "internalType": "string",
          "name": "_symbol",
          "type": "string"
        },
        {
          "internalType": "string",
          "name": "baseURI",
          "type": "string"
        }
      ],
      "name": "initialize",
      "outputs": [],
      "stateMutability": "nonpayable",
      "type": "function"
    },
    {
      "inputs": [
        {
          "internalType": "address",
          "name": "account",
          "type": "address"
        },
        {
          "internalType": "uint256",
          "name": "id",
          "type": "uint256"
        },
        {
          "internalType": "uint256",
          "name": "amount",
          "type": "uint256"
        },
        {
          "internalType": "bytes",
          "name": "data",
          "type": "bytes"
        }
      ],
      "name": "mintItem",
      "outputs": [],
      "stateMutability": "nonpayable",
      "type": "function"
    },
    {
      "inputs": [
        {
          "internalType": "uint256",
          "name": "id",
          "type": "uint256"
        }
      ],
      "name": "ownerOf",
      "outputs": [
        {
          "internalType": "address",
          "name": "",
          "type": "address"
        }
      ],
      "stateMutability": "view",
      "type": "function",
      "constant": true
    },
    {
      "inputs": [
        {
          "internalType": "uint256",
          "name": "id",
          "type": "uint256"
        }
      ],
      "name": "uri",
      "outputs": [
        {
          "internalType": "string",
          "name": "",
          "type": "string"
        }
      ],
      "stateMutability": "view",
      "type": "function",
      "constant": true
    },
    {
      "inputs": [],
      "name": "pause",
      "outputs": [],
      "stateMutability": "nonpayable",
      "type": "function"
    },
    {
      "inputs": [],
      "name": "unpause",
      "outputs": [],
      "stateMutability": "nonpayable",
      "type": "function"
    },
    {
      "inputs": [
        {
          "internalType": "uint256",
          "name": "id",
          "type": "uint256"
        }
      ],
      "name": "totalSupply",
      "outputs": [
        {
          "internalType": "uint256",
          "name": "",
          "type": "uint256"
        }
      ],
      "stateMutability": "view",
      "type": "function",
      "constant": true
    },
    {
      "inputs": [
        {
          "internalType": "uint256",
          "name": "id",
          "type": "uint256"
        }
      ],
      "name": "exists",
      "outputs": [
        {
          "internalType": "bool",
          "name": "",
          "type": "bool"
        }
      ],
      "stateMutability": "view",
      "type": "function",
      "constant": true
    }
  ],
  "bytecode": "0x608060405234801561001057600080fd5b50614c4f806100206000396000f3fe608060405234801561001057600080fd5b50600436106101575760003560e01c8063715018a6116100c3578063bd85b0391161007c578063bd85b039146103a0578063e88700f0146103d0578063e985e9c5146103ec578063f242432a1461041c578063f2fde38b14610438578063f5298aca1461045457610157565b8063715018a6146103185780638456cb59146103225780638da5cb5b1461032c57806395d89b411461034a578063a22cb46514610368578063a6487c531461038457610157565b80634e1273f4116101155780634e1273f4146102305780634f558e79146102605780635c975abb146102905780636352211e146102ae5780636b20c454146102de5780636c0360eb146102fa57610157565b8062fdd58e1461015c57806301ffc9a71461018c57806306fdde03146101bc5780630e89341c146101da5780632eb2c2d61461020a5780633f4ba83a14610226575b600080fd5b6101766004803603810190610171919061366b565b610470565b6040516101839190614667565b60405180910390f35b6101a660048036038101906101a191906137dd565b61053a565b6040516101b3919061438a565b60405180910390f35b6101c461061c565b6040516101d191906143a5565b60405180910390f35b6101f460048036038101906101ef91906138c6565b6106ab565b60405161020191906143a5565b60405180910390f35b610224600480360381019061021f9190613462565b6106bd565b005b61022e61075e565b005b61024a60048036038101906102459190613771565b6107e4565b6040516102579190614331565b60405180910390f35b61027a600480360381019061027591906138c6565b610995565b604051610287919061438a565b60405180910390f35b6102986109a9565b6040516102a5919061438a565b60405180910390f35b6102c860048036038101906102c391906138c6565b6109c1565b6040516102d59190614254565b60405180910390f35b6102f860048036038101906102f391906135b0565b610a74565b005b610302610b11565b60405161030f91906143a5565b60405180910390f35b610320610ba3565b005b61032a610c2b565b005b610334610cb1565b6040516103419190614254565b60405180910390f35b610352610cdb565b60405161035f91906143a5565b60405180910390f35b610382600480360381019061037d919061362f565b610d6a565b005b61039e6004803603810190610399919061382f565b610eeb565b005b6103ba60048036038101906103b591906138c6565b611020565b6040516103c79190614667565b60405180910390f35b6103ea60048036038101906103e591906136f6565b61103e565b005b61040660048036038101906104019190613426565b61114c565b604051610413919061438a565b60405180910390f35b61043660048036038101906104319190613521565b6111e0565b005b610452600480360381019061044d91906133fd565b611281565b005b61046e600480360381019061046991906136a7565b611379565b005b60008073ffffffffffffffffffffffffffffffffffffffff168373ffffffffffffffffffffffffffffffffffffffff1614156104e1576040517f08c379a00000000000000000000000000000000000000000000000000000000081526004016104d890614447565b60405180910390fd5b6097600083815260200190815260200160002060008473ffffffffffffffffffffffffffffffffffffffff1673ffffffffffffffffffffffffffffffffffffffff16815260200190815260200160002054905092915050565b60007fd9b67a26000000000000000000000000000000000000000000000000000000007bffffffffffffffffffffffffffffffffffffffffffffffffffffffff1916827bffffffffffffffffffffffffffffffffffffffffffffffffffffffff1916148061060557507f0e89341c000000000000000000000000000000000000000000000000000000007bffffffffffffffffffffffffffffffffffffffffffffffffffffffff1916827bffffffffffffffffffffffffffffffffffffffffffffffffffffffff1916145b80610615575061061482611416565b5b9050919050565b610193805461062a90614981565b80601f016020809104026020016040519081016040528092919081815260200182805461065690614981565b80156106a35780601f10610678576101008083540402835291602001916106a3565b820191906000526020600020905b81548152906001019060200180831161068657829003601f168201915b505050505081565b60606106b682611480565b9050919050565b6106c56115ab565b73ffffffffffffffffffffffffffffffffffffffff168573ffffffffffffffffffffffffffffffffffffffff16148061070b575061070a856107056115ab565b61114c565b5b61074a576040517f08c379a000000000000000000000000000000000000000000000000000000000815260040161074190614547565b60405180910390fd5b61075785858585856115b3565b5050505050565b6107666115ab565b73ffffffffffffffffffffffffffffffffffffffff16610784610cb1565b73ffffffffffffffffffffffffffffffffffffffff16146107da576040517f08c379a00000000000000000000000000000000000000000000000000000000081526004016107d1906145c7565b60405180910390fd5b6107e2611916565b565b6060815183511461082a576040517f08c379a000000000000000000000000000000000000000000000000000000000815260040161082190614607565b60405180910390fd5b6000835167ffffffffffffffff81111561086d577f4e487b7100000000000000000000000000000000000000000000000000000000600052604160045260246000fd5b60405190808252806020026020018201604052801561089b5781602001602082028036833780820191505090505b50905060005b845181101561098a576109348582815181106108e6577f4e487b7100000000000000000000000000000000000000000000000000000000600052603260045260246000fd5b6020026020010151858381518110610927577f4e487b7100000000000000000000000000000000000000000000000000000000600052603260045260246000fd5b6020026020010151610470565b82828151811061096d577f4e487b7100000000000000000000000000000000000000000000000000000000600052603260045260246000fd5b60200260200101818152505080610983906149b3565b90506108a1565b508091505092915050565b6000806109a183611020565b119050919050565b600061012f60009054906101000a900460ff16905090565b600080610196600084815260200190815260200160002060009054906101000a900473ffffffffffffffffffffffffffffffffffffffff169050600073ffffffffffffffffffffffffffffffffffffffff168173ffffffffffffffffffffffffffffffffffffffff161415610a6b576040517f08c379a0000000000000000000000000000000000000000000000000000000008152600401610a62906144e7565b60405180910390fd5b80915050919050565b610a7c6115ab565b73ffffffffffffffffffffffffffffffffffffffff168373ffffffffffffffffffffffffffffffffffffffff161480610ac25750610ac183610abc6115ab565b61114c565b5b610b01576040517f08c379a0000000000000000000000000000000000000000000000000000000008152600401610af8906144c7565b60405180910390fd5b610b0c8383836119b9565b505050565b606060ca8054610b2090614981565b80601f0160208091040260200160405190810160405280929190818152602001828054610b4c90614981565b8015610b995780601f10610b6e57610100808354040283529160200191610b99565b820191906000526020600020905b815481529060010190602001808311610b7c57829003601f168201915b5050505050905090565b610bab6115ab565b73ffffffffffffffffffffffffffffffffffffffff16610bc9610cb1565b73ffffffffffffffffffffffffffffffffffffffff1614610c1f576040517f08c379a0000000000000000000000000000000000000000000000000000000008152600401610c16906145c7565b60405180910390fd5b610c296000611a92565b565b610c336115ab565b73ffffffffffffffffffffffffffffffffffffffff16610c51610cb1565b73ffffffffffffffffffffffffffffffffffffffff1614610ca7576040517f08c379a0000000000000000000000000000000000000000000000000000000008152600401610c9e906145c7565b60405180910390fd5b610caf611b58565b565b6000603360009054906101000a900473ffffffffffffffffffffffffffffffffffffffff16905090565b6101948054610ce990614981565b80601f0160208091040260200160405190810160405280929190818152602001828054610d1590614981565b8015610d625780601f10610d3757610100808354040283529160200191610d62565b820191906000526020600020905b815481529060010190602001808311610d4557829003601f168201915b505050505081565b8173ffffffffffffffffffffffffffffffffffffffff16610d896115ab565b73ffffffffffffffffffffffffffffffffffffffff161415610de0576040517f08c379a0000000000000000000000000000000000000000000000000000000008152600401610dd7906145e7565b60405180910390fd5b8060986000610ded6115ab565b73ffffffffffffffffffffffffffffffffffffffff1673ffffffffffffffffffffffffffffffffffffffff16815260200190815260200160002060008473ffffffffffffffffffffffffffffffffffffffff1673ffffffffffffffffffffffffffffffffffffffff16815260200190815260200160002060006101000a81548160ff0219169083151502179055508173ffffffffffffffffffffffffffffffffffffffff16610e9a6115ab565b73ffffffffffffffffffffffffffffffffffffffff167f17307eab39ab6107e8899845ad3d59bd9653f200f220920489ca2b5937696c3183604051610edf919061438a565b60405180910390a35050565b600060019054906101000a900460ff1680610f11575060008054906101000a900460ff16155b610f50576040517f08c379a0000000000000000000000000000000000000000000000000000000008152600401610f4790614567565b60405180910390fd5b60008060019054906101000a900460ff161590508015610fa0576001600060016101000a81548160ff02191690831515021790555060016000806101000a81548160ff0219169083151502179055505b610fa8611bfc565b610fc060405180602001604052806000815250611ce5565b610fc982611dd8565b836101939080519060200190610fe09291906130f5565b50826101949080519060200190610ff89291906130f5565b50801561101a5760008060016101000a81548160ff0219169083151502179055505b50505050565b60006101956000838152602001908152602001600020549050919050565b6000610196600085815260200190815260200160002060009054906101000a900473ffffffffffffffffffffffffffffffffffffffff169050600073ffffffffffffffffffffffffffffffffffffffff168173ffffffffffffffffffffffffffffffffffffffff16146110e6576040517f08c379a00000000000000000000000000000000000000000000000000000000081526004016110dd906143e7565b60405180910390fd5b6110f285858585611df2565b84610196600086815260200190815260200160002060006101000a81548173ffffffffffffffffffffffffffffffffffffffff021916908373ffffffffffffffffffffffffffffffffffffffff1602179055505050505050565b6000609860008473ffffffffffffffffffffffffffffffffffffffff1673ffffffffffffffffffffffffffffffffffffffff16815260200190815260200160002060008373ffffffffffffffffffffffffffffffffffffffff1673ffffffffffffffffffffffffffffffffffffffff16815260200190815260200160002060009054906101000a900460ff16905092915050565b6111e86115ab565b73ffffffffffffffffffffffffffffffffffffffff168573ffffffffffffffffffffffffffffffffffffffff16148061122e575061122d856112286115ab565b61114c565b5b61126d576040517f08c379a0000000000000000000000000000000000000000000000000000000008152600401611264906144c7565b60405180910390fd5b61127a8585858585611e2f565b5050505050565b6112896115ab565b73ffffffffffffffffffffffffffffffffffffffff166112a7610cb1565b73ffffffffffffffffffffffffffffffffffffffff16146112fd576040517f08c379a00000000000000000000000000000000000000000000000000000000081526004016112f4906145c7565b60405180910390fd5b600073ffffffffffffffffffffffffffffffffffffffff168173ffffffffffffffffffffffffffffffffffffffff16141561136d576040517f08c379a000000000000000000000000000000000000000000000000000000000815260040161136490614467565b60405180910390fd5b61137681611a92565b50565b6113816115ab565b73ffffffffffffffffffffffffffffffffffffffff168373ffffffffffffffffffffffffffffffffffffffff1614806113c757506113c6836113c16115ab565b61114c565b5b611406576040517f08c379a00000000000000000000000000000000000000000000000000000000081526004016113fd906144c7565b60405180910390fd5b6114118383836120b4565b505050565b60007f01ffc9a7000000000000000000000000000000000000000000000000000000007bffffffffffffffffffffffffffffffffffffffffffffffffffffffff1916827bffffffffffffffffffffffffffffffffffffffffffffffffffffffff1916149050919050565b6060600060c9600084815260200190815260200160002080546114a290614981565b80601f01602080910402602001604051908101604052809291908181526020018280546114ce90614981565b801561151b5780601f106114f05761010080835404028352916020019161151b565b820191906000526020600020905b8154815290600101906020018083116114fe57829003601f168201915b50505050509050600061152c610b11565b90506000815114156115425781925050506115a6565b60008251111561157757808260405160200161155f929190614230565b604051602081830303815290604052925050506115a6565b80611581856120ef565b604051602001611592929190614230565b604051602081830303815290604052925050505b919050565b600033905090565b81518351146115f7576040517f08c379a00000000000000000000000000000000000000000000000000000000081526004016115ee90614627565b60405180910390fd5b600073ffffffffffffffffffffffffffffffffffffffff168473ffffffffffffffffffffffffffffffffffffffff161415611667576040517f08c379a000000000000000000000000000000000000000000000000000000000815260040161165e90614527565b60405180910390fd5b60006116716115ab565b905061168181878787878761229c565b60005b84518110156118815760008582815181106116c8577f4e487b7100000000000000000000000000000000000000000000000000000000600052603260045260246000fd5b60200260200101519050600085838151811061170d577f4e487b7100000000000000000000000000000000000000000000000000000000600052603260045260246000fd5b6020026020010151905060006097600084815260200190815260200160002060008b73ffffffffffffffffffffffffffffffffffffffff1673ffffffffffffffffffffffffffffffffffffffff168152602001908152602001600020549050818110156117af576040517f08c379a00000000000000000000000000000000000000000000000000000000081526004016117a6906145a7565b60405180910390fd5b8181036097600085815260200190815260200160002060008c73ffffffffffffffffffffffffffffffffffffffff1673ffffffffffffffffffffffffffffffffffffffff16815260200190815260200160002081905550816097600085815260200190815260200160002060008b73ffffffffffffffffffffffffffffffffffffffff1673ffffffffffffffffffffffffffffffffffffffff16815260200190815260200160002060008282546118669190614810565b925050819055505050508061187a906149b3565b9050611684565b508473ffffffffffffffffffffffffffffffffffffffff168673ffffffffffffffffffffffffffffffffffffffff168273ffffffffffffffffffffffffffffffffffffffff167f4a39dc06d4c0dbc64b70af90fd698a233a518aa5d07e595d983b8c0526c8f7fb87876040516118f8929190614353565b60405180910390a461190e8187878787876122b2565b505050505050565b61191e6109a9565b61195d576040517f08c379a000000000000000000000000000000000000000000000000000000000815260040161195490614427565b60405180910390fd5b600061012f60006101000a81548160ff0219169083151502179055507f5db9ee0a495bf2e6ff9c91a7834c1ba4fdd244a5e8aa4e537bd38aeae4b073aa6119a26115ab565b6040516119af9190614254565b60405180910390a1565b6119c4838383612482565b60005b8251811015611a8c57818181518110611a09577f4e487b7100000000000000000000000000000000000000000000000000000000600052603260045260246000fd5b60200260200101516101956000858481518110611a4f577f4e487b7100000000000000000000000000000000000000000000000000000000600052603260045260246000fd5b602002602001015181526020019081526020016000206000828254611a749190614897565b9250508190555080611a85906149b3565b90506119c7565b50505050565b6000603360009054906101000a900473ffffffffffffffffffffffffffffffffffffffff16905081603360006101000a81548173ffffffffffffffffffffffffffffffffffffffff021916908373ffffffffffffffffffffffffffffffffffffffff1602179055508173ffffffffffffffffffffffffffffffffffffffff168173ffffffffffffffffffffffffffffffffffffffff167f8be0079c531659141344cd1fd0a4f28419497f9722a3daafe3b4186f6b6457e060405160405180910390a35050565b611b606109a9565b15611ba0576040517f08c379a0000000000000000000000000000000000000000000000000000000008152600401611b9790614507565b60405180910390fd5b600161012f60006101000a81548160ff0219169083151502179055507f62e78cea01bee320cd4e420270b5ea74000d11b0c9f74754ebdbfc544b05a258611be56115ab565b604051611bf29190614254565b60405180910390a1565b600060019054906101000a900460ff1680611c22575060008054906101000a900460ff16155b611c61576040517f08c379a0000000000000000000000000000000000000000000000000000000008152600401611c5890614567565b60405180910390fd5b60008060019054906101000a900460ff161590508015611cb1576001600060016101000a81548160ff02191690831515021790555060016000806101000a81548160ff0219169083151502179055505b611cc1611cbc6115ab565b611a92565b8015611ce25760008060016101000a81548160ff0219169083151502179055505b50565b600060019054906101000a900460ff1680611d0b575060008054906101000a900460ff16155b611d4a576040517f08c379a0000000000000000000000000000000000000000000000000000000008152600401611d4190614567565b60405180910390fd5b60008060019054906101000a900460ff161590508015611d9a576001600060016101000a81548160ff02191690831515021790555060016000806101000a81548160ff0219169083151502179055505b611da2612781565b611daa61285a565b611db382612933565b8015611dd45760008060016101000a81548160ff0219169083151502179055505b5050565b8060ca9080519060200190611dee9291906130f5565b5050565b611dfe84848484612a16565b8161019560008581526020019081526020016000206000828254611e229190614810565b9250508190555050505050565b600073ffffffffffffffffffffffffffffffffffffffff168473ffffffffffffffffffffffffffffffffffffffff161415611e9f576040517f08c379a0000000000000000000000000000000000000000000000000000000008152600401611e9690614527565b60405180910390fd5b6000611ea96115ab565b9050611ec9818787611eba88612bad565b611ec388612bad565b8761229c565b60006097600086815260200190815260200160002060008873ffffffffffffffffffffffffffffffffffffffff1673ffffffffffffffffffffffffffffffffffffffff16815260200190815260200160002054905083811015611f61576040517f08c379a0000000000000000000000000000000000000000000000000000000008152600401611f58906145a7565b60405180910390fd5b8381036097600087815260200190815260200160002060008973ffffffffffffffffffffffffffffffffffffffff1673ffffffffffffffffffffffffffffffffffffffff16815260200190815260200160002081905550836097600087815260200190815260200160002060008873ffffffffffffffffffffffffffffffffffffffff1673ffffffffffffffffffffffffffffffffffffffff16815260200190815260200160002060008282546120189190614810565b925050819055508573ffffffffffffffffffffffffffffffffffffffff168773ffffffffffffffffffffffffffffffffffffffff168373ffffffffffffffffffffffffffffffffffffffff167fc3d58168c5ae7397731d063d5bbf3d657854427343f4c083240f7aacaa2d0f628888604051612095929190614682565b60405180910390a46120ab828888888888612c73565b50505050505050565b6120bf838383612e43565b80610195600084815260200190815260200160002060008282546120e39190614897565b92505081905550505050565b60606000821415612137576040518060400160405280600181526020017f30000000000000000000000000000000000000000000000000000000000000008152509050612297565b600082905060005b60008214612169578080612152906149b3565b915050600a826121629190614866565b915061213f565b60008167ffffffffffffffff8111156121ab577f4e487b7100000000000000000000000000000000000000000000000000000000600052604160045260246000fd5b6040519080825280601f01601f1916602001820160405280156121dd5781602001600182028036833780820191505090505b5090505b60008514612290576001826121f69190614897565b9150600a8561220591906149fc565b60306122119190614810565b60f81b81838151811061224d577f4e487b7100000000000000000000000000000000000000000000000000000000600052603260045260246000fd5b60200101907effffffffffffffffffffffffffffffffffffffffffffffffffffffffffffff1916908160001a905350600a856122899190614866565b94506121e1565b8093505050505b919050565b6122aa868686868686613062565b505050505050565b6122d18473ffffffffffffffffffffffffffffffffffffffff166130c0565b1561247a578373ffffffffffffffffffffffffffffffffffffffff1663bc197c8187878686866040518663ffffffff1660e01b815260040161231795949392919061426f565b602060405180830381600087803b15801561233157600080fd5b505af192505050801561236257506040513d601f19601f8201168201806040525081019061235f9190613806565b60015b6123f15761236e614b07565b8061237957506123b6565b806040517f08c379a00000000000000000000000000000000000000000000000000000000081526004016123ad91906143a5565b60405180910390fd5b6040517f08c379a00000000000000000000000000000000000000000000000000000000081526004016123e8906143c7565b60405180910390fd5b63bc197c8160e01b7bffffffffffffffffffffffffffffffffffffffffffffffffffffffff1916817bffffffffffffffffffffffffffffffffffffffffffffffffffffffff191614612478576040517f08c379a000000000000000000000000000000000000000000000000000000000815260040161246f90614407565b60405180910390fd5b505b505050505050565b600073ffffffffffffffffffffffffffffffffffffffff168373ffffffffffffffffffffffffffffffffffffffff1614156124f2576040517f08c379a00000000000000000000000000000000000000000000000000000000081526004016124e990614587565b60405180910390fd5b8051825114612536576040517f08c379a000000000000000000000000000000000000000000000000000000000815260040161252d90614627565b60405180910390fd5b60006125406115ab565b90506125608185600086866040518060200160405280600081525061229c565b60005b83518110156126fb5760008482815181106125a7577f4e487b7100000000000000000000000000000000000000000000000000000000600052603260045260246000fd5b6020026020010151905060008483815181106125ec577f4e487b7100000000000000000000000000000000000000000000000000000000600052603260045260246000fd5b6020026020010151905060006097600084815260200190815260200160002060008973ffffffffffffffffffffffffffffffffffffffff1673ffffffffffffffffffffffffffffffffffffffff1681526020019081526020016000205490508181101561268e576040517f08c379a000000000000000000000000000000000000000000000000000000000815260040161268590614487565b60405180910390fd5b8181036097600085815260200190815260200160002060008a73ffffffffffffffffffffffffffffffffffffffff1673ffffffffffffffffffffffffffffffffffffffff1681526020019081526020016000208190555050505080806126f3906149b3565b915050612563565b50600073ffffffffffffffffffffffffffffffffffffffff168473ffffffffffffffffffffffffffffffffffffffff168273ffffffffffffffffffffffffffffffffffffffff167f4a39dc06d4c0dbc64b70af90fd698a233a518aa5d07e595d983b8c0526c8f7fb8686604051612773929190614353565b60405180910390a450505050565b600060019054906101000a900460ff16806127a7575060008054906101000a900460ff16155b6127e6576040517f08c379a00000000000000000000000000000000000000000000000000000000081526004016127dd90614567565b60405180910390fd5b60008060019054906101000a900460ff161590508015612836576001600060016101000a81548160ff02191690831515021790555060016000806101000a81548160ff0219169083151502179055505b80156128575760008060016101000a81548160ff0219169083151502179055505b50565b600060019054906101000a900460ff1680612880575060008054906101000a900460ff16155b6128bf576040517f08c379a00000000000000000000000000000000000000000000000000000000081526004016128b690614567565b60405180910390fd5b60008060019054906101000a900460ff16159050801561290f576001600060016101000a81548160ff02191690831515021790555060016000806101000a81548160ff0219169083151502179055505b80156129305760008060016101000a81548160ff0219169083151502179055505b50565b600060019054906101000a900460ff1680612959575060008054906101000a900460ff16155b612998576040517f08c379a000000000000000000000000000000000000000000000000000000000815260040161298f90614567565b60405180910390fd5b60008060019054906101000a900460ff1615905080156129e8576001600060016101000a81548160ff02191690831515021790555060016000806101000a81548160ff0219169083151502179055505b6129f1826130d3565b8015612a125760008060016101000a81548160ff0219169083151502179055505b5050565b600073ffffffffffffffffffffffffffffffffffffffff168473ffffffffffffffffffffffffffffffffffffffff161415612a86576040517f08c379a0000000000000000000000000000000000000000000000000000000008152600401612a7d90614647565b60405180910390fd5b6000612a906115ab565b9050612ab181600087612aa288612bad565b612aab88612bad565b8761229c565b826097600086815260200190815260200160002060008773ffffffffffffffffffffffffffffffffffffffff1673ffffffffffffffffffffffffffffffffffffffff1681526020019081526020016000206000828254612b119190614810565b925050819055508473ffffffffffffffffffffffffffffffffffffffff16600073ffffffffffffffffffffffffffffffffffffffff168273ffffffffffffffffffffffffffffffffffffffff167fc3d58168c5ae7397731d063d5bbf3d657854427343f4c083240f7aacaa2d0f628787604051612b8f929190614682565b60405180910390a4612ba681600087878787612c73565b5050505050565b60606000600167ffffffffffffffff811115612bf2577f4e487b7100000000000000000000000000000000000000000000000000000000600052604160045260246000fd5b604051908082528060200260200182016040528015612c205781602001602082028036833780820191505090505b5090508281600081518110612c5e577f4e487b7100000000000000000000000000000000000000000000000000000000600052603260045260246000fd5b60200260200101818152505080915050919050565b612c928473ffffffffffffffffffffffffffffffffffffffff166130c0565b15612e3b578373ffffffffffffffffffffffffffffffffffffffff1663f23a6e6187878686866040518663ffffffff1660e01b8152600401612cd89594939291906142d7565b602060405180830381600087803b158015612cf257600080fd5b505af1925050508015612d2357506040513d601f19601f82011682018060405250810190612d209190613806565b60015b612db257612d2f614b07565b80612d3a5750612d77565b806040517f08c379a0000000000000000000000000000000000000000000000000000000008152600401612d6e91906143a5565b60405180910390fd5b6040517f08c379a0000000000000000000000000000000000000000000000000000000008152600401612da9906143c7565b60405180910390fd5b63f23a6e6160e01b7bffffffffffffffffffffffffffffffffffffffffffffffffffffffff1916817bffffffffffffffffffffffffffffffffffffffffffffffffffffffff191614612e39576040517f08c379a0000000000000000000000000000000000000000000000000000000008152600401612e3090614407565b60405180910390fd5b505b505050505050565b600073ffffffffffffffffffffffffffffffffffffffff168373ffffffffffffffffffffffffffffffffffffffff161415612eb3576040517f08c379a0000000000000000000000000000000000000000000000000000000008152600401612eaa90614587565b60405180910390fd5b6000612ebd6115ab565b9050612eed81856000612ecf87612bad565b612ed887612bad565b6040518060200160405280600081525061229c565b60006097600085815260200190815260200160002060008673ffffffffffffffffffffffffffffffffffffffff1673ffffffffffffffffffffffffffffffffffffffff16815260200190815260200160002054905082811015612f85576040517f08c379a0000000000000000000000000000000000000000000000000000000008152600401612f7c90614487565b60405180910390fd5b8281036097600086815260200190815260200160002060008773ffffffffffffffffffffffffffffffffffffffff1673ffffffffffffffffffffffffffffffffffffffff16815260200190815260200160002081905550600073ffffffffffffffffffffffffffffffffffffffff168573ffffffffffffffffffffffffffffffffffffffff168373ffffffffffffffffffffffffffffffffffffffff167fc3d58168c5ae7397731d063d5bbf3d657854427343f4c083240f7aacaa2d0f628787604051613053929190614682565b60405180910390a45050505050565b6130708686868686866130ed565b6130786109a9565b156130b8576040517f08c379a00000000000000000000000000000000000000000000000000000000081526004016130af906144a7565b60405180910390fd5b505050505050565b600080823b905060008111915050919050565b80609990805190602001906130e99291906130f5565b5050565b505050505050565b82805461310190614981565b90600052602060002090601f016020900481019282613123576000855561316a565b82601f1061313c57805160ff191683800117855561316a565b8280016001018555821561316a579182015b8281111561316957825182559160200191906001019061314e565b5b509050613177919061317b565b5090565b5b8082111561319457600081600090555060010161317c565b5090565b60006131ab6131a6846146dc565b6146ab565b905080838252602082019050828560208602820111156131ca57600080fd5b60005b858110156131fa57816131e088826132ec565b8452602084019350602083019250506001810190506131cd565b5050509392505050565b600061321761321284614708565b6146ab565b9050808382526020820190508285602086028201111561323657600080fd5b60005b85811015613266578161324c88826133e8565b845260208401935060208301925050600181019050613239565b5050509392505050565b600061328361327e84614734565b6146ab565b90508281526020810184848401111561329b57600080fd5b6132a684828561493f565b509392505050565b60006132c16132bc84614764565b6146ab565b9050828152602081018484840111156132d957600080fd5b6132e484828561493f565b509392505050565b6000813590506132fb81614bbd565b92915050565b600082601f83011261331257600080fd5b8135613322848260208601613198565b91505092915050565b600082601f83011261333c57600080fd5b813561334c848260208601613204565b91505092915050565b60008135905061336481614bd4565b92915050565b60008135905061337981614beb565b92915050565b60008151905061338e81614beb565b92915050565b600082601f8301126133a557600080fd5b81356133b5848260208601613270565b91505092915050565b600082601f8301126133cf57600080fd5b81356133df8482602086016132ae565b91505092915050565b6000813590506133f781614c02565b92915050565b60006020828403121561340f57600080fd5b600061341d848285016132ec565b91505092915050565b6000806040838503121561343957600080fd5b6000613447858286016132ec565b9250506020613458858286016132ec565b9150509250929050565b600080600080600060a0868803121561347a57600080fd5b6000613488888289016132ec565b9550506020613499888289016132ec565b945050604086013567ffffffffffffffff8111156134b657600080fd5b6134c28882890161332b565b935050606086013567ffffffffffffffff8111156134df57600080fd5b6134eb8882890161332b565b925050608086013567ffffffffffffffff81111561350857600080fd5b61351488828901613394565b9150509295509295909350565b600080600080600060a0868803121561353957600080fd5b6000613547888289016132ec565b9550506020613558888289016132ec565b9450506040613569888289016133e8565b935050606061357a888289016133e8565b925050608086013567ffffffffffffffff81111561359757600080fd5b6135a388828901613394565b9150509295509295909350565b6000806000606084860312156135c557600080fd5b60006135d3868287016132ec565b935050602084013567ffffffffffffffff8111156135f057600080fd5b6135fc8682870161332b565b925050604084013567ffffffffffffffff81111561361957600080fd5b6136258682870161332b565b9150509250925092565b6000806040838503121561364257600080fd5b6000613650858286016132ec565b925050602061366185828601613355565b9150509250929050565b6000806040838503121561367e57600080fd5b600061368c858286016132ec565b925050602061369d858286016133e8565b9150509250929050565b6000806000606084860312156136bc57600080fd5b60006136ca868287016132ec565b93505060206136db868287016133e8565b92505060406136ec868287016133e8565b9150509250925092565b6000806000806080858703121561370c57600080fd5b600061371a878288016132ec565b945050602061372b878288016133e8565b935050604061373c878288016133e8565b925050606085013567ffffffffffffffff81111561375957600080fd5b61376587828801613394565b91505092959194509250565b6000806040838503121561378457600080fd5b600083013567ffffffffffffffff81111561379e57600080fd5b6137aa85828601613301565b925050602083013567ffffffffffffffff8111156137c757600080fd5b6137d38582860161332b565b9150509250929050565b6000602082840312156137ef57600080fd5b60006137fd8482850161336a565b91505092915050565b60006020828403121561381857600080fd5b60006138268482850161337f565b91505092915050565b60008060006060848603121561384457600080fd5b600084013567ffffffffffffffff81111561385e57600080fd5b61386a868287016133be565b935050602084013567ffffffffffffffff81111561388757600080fd5b613893868287016133be565b925050604084013567ffffffffffffffff8111156138b057600080fd5b6138bc868287016133be565b9150509250925092565b6000602082840312156138d857600080fd5b60006138e6848285016133e8565b91505092915050565b60006138fb8383614212565b60208301905092915050565b613910816148cb565b82525050565b6000613921826147a4565b61392b81856147d2565b935061393683614794565b8060005b8381101561396757815161394e88826138ef565b9750613959836147c5565b92505060018101905061393a565b5085935050505092915050565b61397d816148dd565b82525050565b600061398e826147af565b61399881856147e3565b93506139a881856020860161494e565b6139b181614ae9565b840191505092915050565b60006139c7826147ba565b6139d181856147f4565b93506139e181856020860161494e565b6139ea81614ae9565b840191505092915050565b6000613a00826147ba565b613a0a8185614805565b9350613a1a81856020860161494e565b80840191505092915050565b6000613a336034836147f4565b91507f455243313135353a207472616e7366657220746f206e6f6e204552433131353560008301527f526563656976657220696d706c656d656e7465720000000000000000000000006020830152604082019050919050565b6000613a996034836147f4565b91507f455243313135353a204974206973206e6f7420706f737369626c6520746f206960008301527f73737565206164646974696f6e616c204e4654730000000000000000000000006020830152604082019050919050565b6000613aff6028836147f4565b91507f455243313135353a204552433131353552656365697665722072656a6563746560008301527f6420746f6b656e730000000000000000000000000000000000000000000000006020830152604082019050919050565b6000613b656014836147f4565b91507f5061757361626c653a206e6f74207061757365640000000000000000000000006000830152602082019050919050565b6000613ba5602b836147f4565b91507f455243313135353a2062616c616e636520717565727920666f7220746865207a60008301527f65726f20616464726573730000000000000000000000000000000000000000006020830152604082019050919050565b6000613c0b6026836147f4565b91507f4f776e61626c653a206e6577206f776e657220697320746865207a65726f206160008301527f64647265737300000000000000000000000000000000000000000000000000006020830152604082019050919050565b6000613c716024836147f4565b91507f455243313135353a206275726e20616d6f756e7420657863656564732062616c60008301527f616e6365000000000000000000000000000000000000000000000000000000006020830152604082019050919050565b6000613cd7602c836147f4565b91507f455243313135355061757361626c653a20746f6b656e207472616e736665722060008301527f7768696c652070617573656400000000000000000000000000000000000000006020830152604082019050919050565b6000613d3d6029836147f4565b91507f455243313135353a2063616c6c6572206973206e6f74206f776e6572206e6f7260008301527f20617070726f76656400000000000000000000000000000000000000000000006020830152604082019050919050565b6000613da3602a836147f4565b91507f455243313135353a206f776e657220717565727920666f72206e6f6e6578697360008301527f74656e7420746f6b656e000000000000000000000000000000000000000000006020830152604082019050919050565b6000613e096010836147f4565b91507f5061757361626c653a20706175736564000000000000000000000000000000006000830152602082019050919050565b6000613e496025836147f4565b91507f455243313135353a207472616e7366657220746f20746865207a65726f20616460008301527f64726573730000000000000000000000000000000000000000000000000000006020830152604082019050919050565b6000613eaf6032836147f4565b91507f455243313135353a207472616e736665722063616c6c6572206973206e6f742060008301527f6f776e6572206e6f7220617070726f76656400000000000000000000000000006020830152604082019050919050565b6000613f15602e836147f4565b91507f496e697469616c697a61626c653a20636f6e747261637420697320616c72656160008301527f647920696e697469616c697a65640000000000000000000000000000000000006020830152604082019050919050565b6000613f7b6023836147f4565b91507f455243313135353a206275726e2066726f6d20746865207a65726f206164647260008301527f65737300000000000000000000000000000000000000000000000000000000006020830152604082019050919050565b6000613fe1602a836147f4565b91507f455243313135353a20696e73756666696369656e742062616c616e636520666f60008301527f72207472616e73666572000000000000000000000000000000000000000000006020830152604082019050919050565b60006140476020836147f4565b91507f4f776e61626c653a2063616c6c6572206973206e6f7420746865206f776e65726000830152602082019050919050565b60006140876029836147f4565b91507f455243313135353a2073657474696e6720617070726f76616c2073746174757360008301527f20666f722073656c6600000000000000000000000000000000000000000000006020830152604082019050919050565b60006140ed6029836147f4565b91507f455243313135353a206163636f756e747320616e6420696473206c656e67746860008301527f206d69736d6174636800000000000000000000000000000000000000000000006020830152604082019050919050565b60006141536028836147f4565b91507f455243313135353a2069647320616e6420616d6f756e7473206c656e6774682060008301527f6d69736d617463680000000000000000000000000000000000000000000000006020830152604082019050919050565b60006141b96021836147f4565b91507f455243313135353a206d696e7420746f20746865207a65726f2061646472657360008301527f73000000000000000000000000000000000000000000000000000000000000006020830152604082019050919050565b61421b81614935565b82525050565b61422a81614935565b82525050565b600061423c82856139f5565b915061424882846139f5565b91508190509392505050565b60006020820190506142696000830184613907565b92915050565b600060a0820190506142846000830188613907565b6142916020830187613907565b81810360408301526142a38186613916565b905081810360608301526142b78185613916565b905081810360808301526142cb8184613983565b90509695505050505050565b600060a0820190506142ec6000830188613907565b6142f96020830187613907565b6143066040830186614221565b6143136060830185614221565b81810360808301526143258184613983565b90509695505050505050565b6000602082019050818103600083015261434b8184613916565b905092915050565b6000604082019050818103600083015261436d8185613916565b905081810360208301526143818184613916565b90509392505050565b600060208201905061439f6000830184613974565b92915050565b600060208201905081810360008301526143bf81846139bc565b905092915050565b600060208201905081810360008301526143e081613a26565b9050919050565b6000602082019050818103600083015261440081613a8c565b9050919050565b6000602082019050818103600083015261442081613af2565b9050919050565b6000602082019050818103600083015261444081613b58565b9050919050565b6000602082019050818103600083015261446081613b98565b9050919050565b6000602082019050818103600083015261448081613bfe565b9050919050565b600060208201905081810360008301526144a081613c64565b9050919050565b600060208201905081810360008301526144c081613cca565b9050919050565b600060208201905081810360008301526144e081613d30565b9050919050565b6000602082019050818103600083015261450081613d96565b9050919050565b6000602082019050818103600083015261452081613dfc565b9050919050565b6000602082019050818103600083015261454081613e3c565b9050919050565b6000602082019050818103600083015261456081613ea2565b9050919050565b6000602082019050818103600083015261458081613f08565b9050919050565b600060208201905081810360008301526145a081613f6e565b9050919050565b600060208201905081810360008301526145c081613fd4565b9050919050565b600060208201905081810360008301526145e08161403a565b9050919050565b600060208201905081810360008301526146008161407a565b9050919050565b60006020820190508181036000830152614620816140e0565b9050919050565b6000602082019050818103600083015261464081614146565b9050919050565b60006020820190508181036000830152614660816141ac565b9050919050565b600060208201905061467c6000830184614221565b92915050565b60006040820190506146976000830185614221565b6146a46020830184614221565b9392505050565b6000604051905081810181811067ffffffffffffffff821117156146d2576146d1614aba565b5b8060405250919050565b600067ffffffffffffffff8211156146f7576146f6614aba565b5b602082029050602081019050919050565b600067ffffffffffffffff82111561472357614722614aba565b5b602082029050602081019050919050565b600067ffffffffffffffff82111561474f5761474e614aba565b5b601f19601f8301169050602081019050919050565b600067ffffffffffffffff82111561477f5761477e614aba565b5b601f19601f8301169050602081019050919050565b6000819050602082019050919050565b600081519050919050565b600081519050919050565b600081519050919050565b6000602082019050919050565b600082825260208201905092915050565b600082825260208201905092915050565b600082825260208201905092915050565b600081905092915050565b600061481b82614935565b915061482683614935565b9250827fffffffffffffffffffffffffffffffffffffffffffffffffffffffffffffffff0382111561485b5761485a614a2d565b5b828201905092915050565b600061487182614935565b915061487c83614935565b92508261488c5761488b614a5c565b5b828204905092915050565b60006148a282614935565b91506148ad83614935565b9250828210156148c0576148bf614a2d565b5b828203905092915050565b60006148d682614915565b9050919050565b60008115159050919050565b60007fffffffff0000000000000000000000000000000000000000000000000000000082169050919050565b600073ffffffffffffffffffffffffffffffffffffffff82169050919050565b6000819050919050565b82818337600083830152505050565b60005b8381101561496c578082015181840152602081019050614951565b8381111561497b576000848401525b50505050565b6000600282049050600182168061499957607f821691505b602082108114156149ad576149ac614a8b565b5b50919050565b60006149be82614935565b91507fffffffffffffffffffffffffffffffffffffffffffffffffffffffffffffffff8214156149f1576149f0614a2d565b5b600182019050919050565b6000614a0782614935565b9150614a1283614935565b925082614a2257614a21614a5c565b5b828206905092915050565b7f4e487b7100000000000000000000000000000000000000000000000000000000600052601160045260246000fd5b7f4e487b7100000000000000000000000000000000000000000000000000000000600052601260045260246000fd5b7f4e487b7100000000000000000000000000000000000000000000000000000000600052602260045260246000fd5b7f4e487b7100000000000000000000000000000000000000000000000000000000600052604160045260246000fd5b6000601f19601f8301169050919050565b60008160e01c9050919050565b600060443d1015614b1757614bba565b60046000803e614b28600051614afa565b6308c379a08114614b395750614bba565b60405160043d036004823e80513d602482011167ffffffffffffffff82111715614b6557505050614bba565b808201805167ffffffffffffffff811115614b84575050505050614bba565b8060208301013d8501811115614b9f57505050505050614bba565b614ba882614ae9565b60208401016040528296505050505050505b90565b614bc6816148cb565b8114614bd157600080fd5b50565b614bdd816148dd565b8114614be857600080fd5b50565b614bf4816148e9565b8114614bff57600080fd5b50565b614c0b81614935565b8114614c1657600080fd5b5056fea26469706673582212207797b6fdd595c534b435891cfd833e7ce11318afd174722b927febcb18ab8ba764736f6c63430008000033",
  "immutableReferences": {},
  "source": "pragma solidity ^0.8.0;\r\n\r\nimport \"@openzeppelin/contracts-upgradeable/access/OwnableUpgradeable.sol\";\r\nimport \"@openzeppelin/contracts-upgradeable/token/ERC1155/extensions/ERC1155BurnableUpgradeable.sol\";\r\nimport \"@openzeppelin/contracts-upgradeable/token/ERC1155/extensions/ERC1155PausableUpgradeable.sol\";\r\n\r\nimport \"./lib/ERC1155BaseURI.sol\";\r\n\r\ncontract Paru1155 is\r\n    OwnableUpgradeable,\r\n    ERC1155BaseURI,\r\n    ERC1155BurnableUpgradeable,\r\n    ERC1155PausableUpgradeable\r\n{\r\n    string public name;\r\n    string public symbol;\r\n    mapping(uint256 => uint256) private _totalSupply;\r\n    mapping(uint256 => address) private _tokenOwners;\r\n\r\n    // initialize\r\n    function initialize(\r\n        string memory _name,\r\n        string memory _symbol,\r\n        string memory baseURI\r\n    ) external initializer {\r\n        __Ownable_init_unchained();\r\n        __ERC1155_init(\"\");\r\n        _setBaseURI(baseURI);\r\n\r\n        name = _name;\r\n        symbol = _symbol;\r\n    }\r\n\r\n    // mint\r\n    // _setTokenURI(uint256 tokenId, string memory _uri) // mint   ? ?\r\n    // gas , baseURI   tokenId   ?\r\n    function mintItem(\r\n        address account,\r\n        uint256 id,\r\n        uint256 amount,\r\n        bytes memory data\r\n    ) public {\r\n        address owner = _tokenOwners[id];\r\n        require(\r\n            owner == address(0),\r\n            \"ERC1155: It is not possible to issue additional NFTs\"\r\n        );\r\n\r\n        _mint(account, id, amount, data); // account, id, amount, data\r\n        _tokenOwners[id] = account;\r\n    }\r\n\r\n    function ownerOf(uint256 id) public view returns (address) {\r\n        address owner = _tokenOwners[id];\r\n        require(\r\n            owner != address(0),\r\n            \"ERC1155: owner query for nonexistent token\"\r\n        );\r\n        return owner;\r\n    }\r\n\r\n    // mintBatch\r\n    // function mintItems(\r\n    //     address account, uint256[] memory ids, uint256[] memory amounts, bytes memory data\r\n    // ) public {\r\n    //     _mintBatch(account, ids, amounts, data); // account, id, amount, data\r\n    // }\r\n\r\n    // balanceOf, balanceOfBatch\r\n\r\n    // transfer, transferBatch\r\n\r\n    // burn, burnBatch\r\n    // function burn( address account, uint256 id, uint256 amount\r\n    // ) public override {\r\n    //     _burn(account, id, amount);\r\n    // } // ERC1155BurnableUpgradeable msgSender in [owner, operator]   \r\n\r\n    // _setTokenUri, uri -> ERC1155BaseURI\r\n    function uri(uint256 id)\r\n        public\r\n        view\r\n        virtual\r\n        override(ERC1155BaseURI, ERC1155Upgradeable)\r\n        returns (string memory)\r\n    {\r\n        return _tokenURI(id);\r\n    }\r\n\r\n    function pause() public onlyOwner {\r\n        _pause();\r\n    }\r\n\r\n    function unpause() public onlyOwner {\r\n        _unpause();\r\n    }\r\n\r\n    /**\r\n     * @dev Total amount of tokens in with a given id.\r\n     */\r\n    function totalSupply(uint256 id) public view virtual returns (uint256) {\r\n        return _totalSupply[id];\r\n    }\r\n\r\n    /**\r\n     * @dev Indicates weither any token exist with a given id, or not.\r\n     */\r\n    function exists(uint256 id) public view virtual returns (bool) {\r\n        return Paru1155.totalSupply(id) > 0;\r\n    }\r\n\r\n    /**\r\n     * @dev See {ERC1155-_mint}.\r\n     */\r\n    function _mint(\r\n        address account,\r\n        uint256 id,\r\n        uint256 amount,\r\n        bytes memory data\r\n    ) internal virtual override {\r\n        super._mint(account, id, amount, data);\r\n        _totalSupply[id] += amount;\r\n    }\r\n\r\n    /**\r\n     * @dev See {ERC1155-_mintBatch}.\r\n     */\r\n    function _mintBatch(\r\n        address to,\r\n        uint256[] memory ids,\r\n        uint256[] memory amounts,\r\n        bytes memory data\r\n    ) internal virtual override {\r\n        super._mintBatch(to, ids, amounts, data);\r\n        for (uint256 i = 0; i < ids.length; ++i) {\r\n            _totalSupply[ids[i]] += amounts[i];\r\n        }\r\n    }\r\n\r\n    /**\r\n     * @dev See {ERC1155-_burn}.\r\n     */\r\n    function _burn(\r\n        address account,\r\n        uint256 id,\r\n        uint256 amount\r\n    ) internal virtual override {\r\n        super._burn(account, id, amount);\r\n        _totalSupply[id] -= amount;\r\n    }\r\n\r\n    /**\r\n     * @dev See {ERC1155-_burnBatch}.\r\n     */\r\n    function _burnBatch(\r\n        address account,\r\n        uint256[] memory ids,\r\n        uint256[] memory amounts\r\n    ) internal virtual override {\r\n        super._burnBatch(account, ids, amounts);\r\n        for (uint256 i = 0; i < ids.length; ++i) {\r\n            _totalSupply[ids[i]] -= amounts[i];\r\n        }\r\n    }\r\n\r\n    function _beforeTokenTransfer(\r\n        address operator,\r\n        address from,\r\n        address to,\r\n        uint256[] memory ids,\r\n        uint256[] memory amounts,\r\n        bytes memory data\r\n    )\r\n        internal\r\n        virtual\r\n        override(ERC1155Upgradeable, ERC1155PausableUpgradeable)\r\n    {\r\n        super._beforeTokenTransfer(operator, from, to, ids, amounts, data);\r\n    }\r\n}\r\n",
  "sourcePath": "/Users/hyunjongkim/Documents/GitHub/palura-backend/smartcontract/v1.0/contracts/out/Paru1155.sol",
  "compiler": {
    "name": "solc",
    "version": "0.8.0+commit.c7dfd78e.Emscripten.clang"
  },
  "schemaVersion": "3.4.3",
  "updatedAt": "2021-11-17T07:45:11.335Z",
  "networkType": "ethereum",
  "devdoc": {
    "kind": "dev",
    "methods": {
      "balanceOf(address,uint256)": {
        "details": "See {IERC1155-balanceOf}. Requirements: - `account` cannot be the zero address."
      },
      "balanceOfBatch(address[],uint256[])": {
        "details": "See {IERC1155-balanceOfBatch}. Requirements: - `accounts` and `ids` must have the same length."
      },
      "baseURI()": {
        "details": "Returns the base URI set via {_setBaseURI}. This will be automatically added as a prefix in {tokenURI} to each token's URI, or to the token ID if no specific URI is set for that token ID."
      },
      "exists(uint256)": {
        "details": "Indicates weither any token exist with a given id, or not."
      },
      "isApprovedForAll(address,address)": {
        "details": "See {IERC1155-isApprovedForAll}."
      },
      "owner()": {
        "details": "Returns the address of the current owner."
      },
      "paused()": {
        "details": "Returns true if the contract is paused, and false otherwise."
      },
      "renounceOwnership()": {
        "details": "Leaves the contract without owner. It will not be possible to call `onlyOwner` functions anymore. Can only be called by the current owner. NOTE: Renouncing ownership will leave the contract without an owner, thereby removing any functionality that is only available to the owner."
      },
      "safeBatchTransferFrom(address,address,uint256[],uint256[],bytes)": {
        "details": "See {IERC1155-safeBatchTransferFrom}."
      },
      "safeTransferFrom(address,address,uint256,uint256,bytes)": {
        "details": "See {IERC1155-safeTransferFrom}."
      },
      "setApprovalForAll(address,bool)": {
        "details": "See {IERC1155-setApprovalForAll}."
      },
      "supportsInterface(bytes4)": {
        "details": "See {IERC165-supportsInterface}."
      },
      "totalSupply(uint256)": {
        "details": "Total amount of tokens in with a given id."
      },
      "transferOwnership(address)": {
        "details": "Transfers ownership of the contract to a new account (`newOwner`). Can only be called by the current owner."
      }
    },
    "version": 1
  },
  "userdoc": {
    "kind": "user",
    "methods": {},
    "version": 1
  }
}