{
  "contractName": "MyNFT",
  "abi": [
    {
      "inputs": [],
      "stateMutability": "nonpayable",
      "type": "constructor"
    },
    {
      "anonymous": false,
      "inputs": [
        {
          "indexed": true,
          "internalType": "address",
          "name": "owner",
          "type": "address"
        },
        {
          "indexed": true,
          "internalType": "address",
          "name": "approved",
          "type": "address"
        },
        {
          "indexed": true,
          "internalType": "uint256",
          "name": "tokenId",
          "type": "uint256"
        }
      ],
      "name": "Approval",
      "type": "event"
    },
    {
      "anonymous": false,
      "inputs": [
        {
          "indexed": true,
          "internalType": "address",
          "name": "owner",
          "type": "address"
        },
        {
          "indexed": true,
          "internalType": "address",
          "name": "operator",
          "type": "address"
        },
        {
          "indexed": false,
          "internalType": "bool",
          "name": "approved",
          "type": "bool"
        }
      ],
      "name": "ApprovalForAll",
      "type": "event"
    },
    {
      "anonymous": false,
      "inputs": [
        {
          "indexed": true,
          "internalType": "address",
          "name": "previousOwner",
          "type": "address"
        },
        {
          "indexed": true,
          "internalType": "address",
          "name": "newOwner",
          "type": "address"
        }
      ],
      "name": "OwnershipTransferred",
      "type": "event"
    },
    {
      "anonymous": false,
      "inputs": [
        {
          "indexed": true,
          "internalType": "address",
          "name": "from",
          "type": "address"
        },
        {
          "indexed": true,
          "internalType": "address",
          "name": "to",
          "type": "address"
        },
        {
          "indexed": true,
          "internalType": "uint256",
          "name": "tokenId",
          "type": "uint256"
        }
      ],
      "name": "Transfer",
      "type": "event"
    },
    {
      "inputs": [
        {
          "internalType": "address",
          "name": "to",
          "type": "address"
        },
        {
          "internalType": "uint256",
          "name": "tokenId",
          "type": "uint256"
        }
      ],
      "name": "approve",
      "outputs": [],
      "stateMutability": "nonpayable",
      "type": "function"
    },
    {
      "inputs": [
        {
          "internalType": "address",
          "name": "owner",
          "type": "address"
        }
      ],
      "name": "balanceOf",
      "outputs": [
        {
          "internalType": "uint256",
          "name": "",
          "type": "uint256"
        }
      ],
      "stateMutability": "view",
      "type": "function"
    },
    {
      "inputs": [
        {
          "internalType": "uint256",
          "name": "tokenId",
          "type": "uint256"
        }
      ],
      "name": "getApproved",
      "outputs": [
        {
          "internalType": "address",
          "name": "",
          "type": "address"
        }
      ],
      "stateMutability": "view",
      "type": "function"
    },
    {
      "inputs": [
        {
          "internalType": "address",
          "name": "owner",
          "type": "address"
        },
        {
          "internalType": "address",
          "name": "operator",
          "type": "address"
        }
      ],
      "name": "isApprovedForAll",
      "outputs": [
        {
          "internalType": "bool",
          "name": "",
          "type": "bool"
        }
      ],
      "stateMutability": "view",
      "type": "function"
    },
    {
      "inputs": [],
      "name": "name",
      "outputs": [
        {
          "internalType": "string",
          "name": "",
          "type": "string"
        }
      ],
      "stateMutability": "view",
      "type": "function"
    },
    {
      "inputs": [],
      "name": "owner",
      "outputs": [
        {
          "internalType": "address",
          "name": "",
          "type": "address"
        }
      ],
      "stateMutability": "view",
      "type": "function"
    },
    {
      "inputs": [
        {
          "internalType": "uint256",
          "name": "tokenId",
          "type": "uint256"
        }
      ],
      "name": "ownerOf",
      "outputs": [
        {
          "internalType": "address",
          "name": "",
          "type": "address"
        }
      ],
      "stateMutability": "view",
      "type": "function"
    },
    {
      "inputs": [],
      "name": "renounceOwnership",
      "outputs": [],
      "stateMutability": "nonpayable",
      "type": "function"
    },
    {
      "inputs": [
        {
          "internalType": "address",
          "name": "from",
          "type": "address"
        },
        {
          "internalType": "address",
          "name": "to",
          "type": "address"
        },
        {
          "internalType": "uint256",
          "name": "tokenId",
          "type": "uint256"
        }
      ],
      "name": "safeTransferFrom",
      "outputs": [],
      "stateMutability": "nonpayable",
      "type": "function"
    },
    {
      "inputs": [
        {
          "internalType": "address",
          "name": "from",
          "type": "address"
        },
        {
          "internalType": "address",
          "name": "to",
          "type": "address"
        },
        {
          "internalType": "uint256",
          "name": "tokenId",
          "type": "uint256"
        },
        {
          "internalType": "bytes",
          "name": "_data",
          "type": "bytes"
        }
      ],
      "name": "safeTransferFrom",
      "outputs": [],
      "stateMutability": "nonpayable",
      "type": "function"
    },
    {
      "inputs": [
        {
          "internalType": "address",
          "name": "operator",
          "type": "address"
        },
        {
          "internalType": "bool",
          "name": "approved",
          "type": "bool"
        }
      ],
      "name": "setApprovalForAll",
      "outputs": [],
      "stateMutability": "nonpayable",
      "type": "function"
    },
    {
      "inputs": [
        {
          "internalType": "bytes4",
          "name": "interfaceId",
          "type": "bytes4"
        }
      ],
      "name": "supportsInterface",
      "outputs": [
        {
          "internalType": "bool",
          "name": "",
          "type": "bool"
        }
      ],
      "stateMutability": "view",
      "type": "function"
    },
    {
      "inputs": [],
      "name": "symbol",
      "outputs": [
        {
          "internalType": "string",
          "name": "",
          "type": "string"
        }
      ],
      "stateMutability": "view",
      "type": "function"
    },
    {
      "inputs": [
        {
          "internalType": "uint256",
          "name": "index",
          "type": "uint256"
        }
      ],
      "name": "tokenByIndex",
      "outputs": [
        {
          "internalType": "uint256",
          "name": "",
          "type": "uint256"
        }
      ],
      "stateMutability": "view",
      "type": "function"
    },
    {
      "inputs": [
        {
          "internalType": "address",
          "name": "owner",
          "type": "address"
        },
        {
          "internalType": "uint256",
          "name": "index",
          "type": "uint256"
        }
      ],
      "name": "tokenOfOwnerByIndex",
      "outputs": [
        {
          "internalType": "uint256",
          "name": "",
          "type": "uint256"
        }
      ],
      "stateMutability": "view",
      "type": "function"
    },
    {
      "inputs": [
        {
          "internalType": "uint256",
          "name": "tokenId",
          "type": "uint256"
        }
      ],
      "name": "tokenURI",
      "outputs": [
        {
          "internalType": "string",
          "name": "",
          "type": "string"
        }
      ],
      "stateMutability": "view",
      "type": "function"
    },
    {
      "inputs": [],
      "name": "totalSupply",
      "outputs": [
        {
          "internalType": "uint256",
          "name": "",
          "type": "uint256"
        }
      ],
      "stateMutability": "view",
      "type": "function"
    },
    {
      "inputs": [
        {
          "internalType": "address",
          "name": "from",
          "type": "address"
        },
        {
          "internalType": "address",
          "name": "to",
          "type": "address"
        },
        {
          "internalType": "uint256",
          "name": "tokenId",
          "type": "uint256"
        }
      ],
      "name": "transferFrom",
      "outputs": [],
      "stateMutability": "nonpayable",
      "type": "function"
    },
    {
      "inputs": [
        {
          "internalType": "address",
          "name": "newOwner",
          "type": "address"
        }
      ],
      "name": "transferOwnership",
      "outputs": [],
      "stateMutability": "nonpayable",
      "type": "function"
    },
    {
      "inputs": [
        {
          "internalType": "address",
          "name": "_to",
          "type": "address"
        },
        {
          "internalType": "string",
          "name": "_uri",
          "type": "string"
        }
      ],
      "name": "createAsset",
      "outputs": [],
      "stateMutability": "nonpayable",
      "type": "function"
    }
  ],
  "bytecode": "0x60806040523480156200001157600080fd5b506040518060400160405280600581526020017f4d794e46540000000000000000000000000000000000000000000000000000008152506040518060400160405280600381526020017f4d4e54000000000000000000000000000000000000000000000000000000000081525081816000620000926200016c60201b60201c565b9050806000806101000a81548173ffffffffffffffffffffffffffffffffffffffff021916908373ffffffffffffffffffffffffffffffffffffffff1602179055508073ffffffffffffffffffffffffffffffffffffffff16600073ffffffffffffffffffffffffffffffffffffffff167f8be0079c531659141344cd1fd0a4f28419497f9722a3daafe3b4186f6b6457e060405160405180910390a35081600190805190602001906200014892919062000174565b5080600290805190602001906200016192919062000174565b505050505062000289565b600033905090565b828054620001829062000224565b90600052602060002090601f016020900481019282620001a65760008555620001f2565b82601f10620001c157805160ff1916838001178555620001f2565b82800160010185558215620001f2579182015b82811115620001f1578251825591602001919060010190620001d4565b5b50905062000201919062000205565b5090565b5b808211156200022057600081600090555060010162000206565b5090565b600060028204905060018216806200023d57607f821691505b602082108114156200025457620002536200025a565b5b50919050565b7f4e487b7100000000000000000000000000000000000000000000000000000000600052602260045260246000fd5b6138c480620002996000396000f3fe608060405234801561001057600080fd5b506004361061012c5760003560e01c806370a08231116100ad578063a22cb46511610071578063a22cb46514610343578063b88d4fde1461035f578063c87b56dd1461037b578063e985e9c5146103ab578063f2fde38b146103db5761012c565b806370a08231146102b1578063715018a6146102e1578063791c0741146102eb5780638da5cb5b1461030757806395d89b41146103255761012c565b806323b872dd116100f457806323b872dd146101e95780632f745c591461020557806342842e0e146102355780634f6ccce7146102515780636352211e146102815761012c565b806301ffc9a71461013157806306fdde0314610161578063081812fc1461017f578063095ea7b3146101af57806318160ddd146101cb575b600080fd5b61014b6004803603810190610146919061274f565b6103f7565b6040516101589190612be1565b60405180910390f35b610169610409565b6040516101769190612bfc565b60405180910390f35b610199600480360381019061019491906127a1565b61049b565b6040516101a69190612b7a565b60405180910390f35b6101c960048036038101906101c49190612713565b610520565b005b6101d3610638565b6040516101e09190612e9e565b60405180910390f35b61020360048036038101906101fe91906125b9565b610645565b005b61021f600480360381019061021a9190612713565b6106a5565b60405161022c9190612e9e565b60405180910390f35b61024f600480360381019061024a91906125b9565b61074a565b005b61026b600480360381019061026691906127a1565b61076a565b6040516102789190612e9e565b60405180910390f35b61029b600480360381019061029691906127a1565b610801565b6040516102a89190612b7a565b60405180910390f35b6102cb60048036038101906102c69190612554565b6108b3565b6040516102d89190612e9e565b60405180910390f35b6102e961096b565b005b610305600480360381019061030091906126bf565b610aa5565b005b61030f610b46565b60405161031c9190612b7a565b60405180910390f35b61032d610b6f565b60405161033a9190612bfc565b60405180910390f35b61035d60048036038101906103589190612683565b610c01565b005b61037960048036038101906103749190612608565b610d82565b005b610395600480360381019061039091906127a1565b610de4565b6040516103a29190612bfc565b60405180910390f35b6103c560048036038101906103c0919061257d565b610df6565b6040516103d29190612be1565b60405180910390f35b6103f560048036038101906103f09190612554565b610e0a565b005b600061040282610fb3565b9050919050565b606060018054610418906130f4565b80601f0160208091040260200160405190810160405280929190818152602001828054610444906130f4565b80156104915780601f1061046657610100808354040283529160200191610491565b820191906000526020600020905b81548152906001019060200180831161047457829003601f168201915b5050505050905090565b60006104a68261102d565b6104e5576040517f08c379a00000000000000000000000000000000000000000000000000000000081526004016104dc90612dbe565b60405180910390fd5b6005600083815260200190815260200160002060009054906101000a900473ffffffffffffffffffffffffffffffffffffffff169050919050565b600061052b82610801565b90508073ffffffffffffffffffffffffffffffffffffffff168373ffffffffffffffffffffffffffffffffffffffff16141561059c576040517f08c379a000000000000000000000000000000000000000000000000000000000815260040161059390612e3e565b60405180910390fd5b8073ffffffffffffffffffffffffffffffffffffffff166105bb611099565b73ffffffffffffffffffffffffffffffffffffffff1614806105ea57506105e9816105e4611099565b6110a1565b5b610629576040517f08c379a000000000000000000000000000000000000000000000000000000000815260040161062090612cfe565b60405180910390fd5b6106338383611135565b505050565b6000600a80549050905090565b610656610650611099565b826111ee565b610695576040517f08c379a000000000000000000000000000000000000000000000000000000000815260040161068c90612e5e565b60405180910390fd5b6106a08383836112cc565b505050565b60006106b0836108b3565b82106106f1576040517f08c379a00000000000000000000000000000000000000000000000000000000081526004016106e890612c1e565b60405180910390fd5b600860008473ffffffffffffffffffffffffffffffffffffffff1673ffffffffffffffffffffffffffffffffffffffff168152602001908152602001600020600083815260200190815260200160002054905092915050565b61076583838360405180602001604052806000815250610d82565b505050565b6000610774610638565b82106107b5576040517f08c379a00000000000000000000000000000000000000000000000000000000081526004016107ac90612e7e565b60405180910390fd5b600a82815481106107ef577f4e487b7100000000000000000000000000000000000000000000000000000000600052603260045260246000fd5b90600052602060002001549050919050565b6000806003600084815260200190815260200160002060009054906101000a900473ffffffffffffffffffffffffffffffffffffffff169050600073ffffffffffffffffffffffffffffffffffffffff168173ffffffffffffffffffffffffffffffffffffffff1614156108aa576040517f08c379a00000000000000000000000000000000000000000000000000000000081526004016108a190612d3e565b60405180910390fd5b80915050919050565b60008073ffffffffffffffffffffffffffffffffffffffff168273ffffffffffffffffffffffffffffffffffffffff161415610924576040517f08c379a000000000000000000000000000000000000000000000000000000000815260040161091b90612d1e565b60405180910390fd5b600460008373ffffffffffffffffffffffffffffffffffffffff1673ffffffffffffffffffffffffffffffffffffffff168152602001908152602001600020549050919050565b610973611099565b73ffffffffffffffffffffffffffffffffffffffff16610991610b46565b73ffffffffffffffffffffffffffffffffffffffff16146109e7576040517f08c379a00000000000000000000000000000000000000000000000000000000081526004016109de90612dde565b60405180910390fd5b600073ffffffffffffffffffffffffffffffffffffffff1660008054906101000a900473ffffffffffffffffffffffffffffffffffffffff1673ffffffffffffffffffffffffffffffffffffffff167f8be0079c531659141344cd1fd0a4f28419497f9722a3daafe3b4186f6b6457e060405160405180910390a360008060006101000a81548173ffffffffffffffffffffffffffffffffffffffff021916908373ffffffffffffffffffffffffffffffffffffffff160217905550565b610aad611099565b73ffffffffffffffffffffffffffffffffffffffff16610acb610b46565b73ffffffffffffffffffffffffffffffffffffffff1614610b21576040517f08c379a0000000000000000000000000000000000000000000000000000000008152600401610b1890612dde565b60405180910390fd5b6000610b2b611528565b9050610b37838261154a565b610b418183611718565b505050565b60008060009054906101000a900473ffffffffffffffffffffffffffffffffffffffff16905090565b606060028054610b7e906130f4565b80601f0160208091040260200160405190810160405280929190818152602001828054610baa906130f4565b8015610bf75780601f10610bcc57610100808354040283529160200191610bf7565b820191906000526020600020905b815481529060010190602001808311610bda57829003601f168201915b5050505050905090565b610c09611099565b73ffffffffffffffffffffffffffffffffffffffff168273ffffffffffffffffffffffffffffffffffffffff161415610c77576040517f08c379a0000000000000000000000000000000000000000000000000000000008152600401610c6e90612cbe565b60405180910390fd5b8060066000610c84611099565b73ffffffffffffffffffffffffffffffffffffffff1673ffffffffffffffffffffffffffffffffffffffff16815260200190815260200160002060008473ffffffffffffffffffffffffffffffffffffffff1673ffffffffffffffffffffffffffffffffffffffff16815260200190815260200160002060006101000a81548160ff0219169083151502179055508173ffffffffffffffffffffffffffffffffffffffff16610d31611099565b73ffffffffffffffffffffffffffffffffffffffff167f17307eab39ab6107e8899845ad3d59bd9653f200f220920489ca2b5937696c3183604051610d769190612be1565b60405180910390a35050565b610d93610d8d611099565b836111ee565b610dd2576040517f08c379a0000000000000000000000000000000000000000000000000000000008152600401610dc990612e5e565b60405180910390fd5b610dde8484848461178c565b50505050565b6060610def826117e8565b9050919050565b6000610e0283836110a1565b905092915050565b610e12611099565b73ffffffffffffffffffffffffffffffffffffffff16610e30610b46565b73ffffffffffffffffffffffffffffffffffffffff1614610e86576040517f08c379a0000000000000000000000000000000000000000000000000000000008152600401610e7d90612dde565b60405180910390fd5b600073ffffffffffffffffffffffffffffffffffffffff168173ffffffffffffffffffffffffffffffffffffffff161415610ef6576040517f08c379a0000000000000000000000000000000000000000000000000000000008152600401610eed90612c5e565b60405180910390fd5b8073ffffffffffffffffffffffffffffffffffffffff1660008054906101000a900473ffffffffffffffffffffffffffffffffffffffff1673ffffffffffffffffffffffffffffffffffffffff167f8be0079c531659141344cd1fd0a4f28419497f9722a3daafe3b4186f6b6457e060405160405180910390a3806000806101000a81548173ffffffffffffffffffffffffffffffffffffffff021916908373ffffffffffffffffffffffffffffffffffffffff16021790555050565b60007f780e9d63000000000000000000000000000000000000000000000000000000007bffffffffffffffffffffffffffffffffffffffffffffffffffffffff1916827bffffffffffffffffffffffffffffffffffffffffffffffffffffffff1916148061102657506110258261193a565b5b9050919050565b60008073ffffffffffffffffffffffffffffffffffffffff166003600084815260200190815260200160002060009054906101000a900473ffffffffffffffffffffffffffffffffffffffff1673ffffffffffffffffffffffffffffffffffffffff1614159050919050565b600033905090565b6000600660008473ffffffffffffffffffffffffffffffffffffffff1673ffffffffffffffffffffffffffffffffffffffff16815260200190815260200160002060008373ffffffffffffffffffffffffffffffffffffffff1673ffffffffffffffffffffffffffffffffffffffff16815260200190815260200160002060009054906101000a900460ff16905092915050565b816005600083815260200190815260200160002060006101000a81548173ffffffffffffffffffffffffffffffffffffffff021916908373ffffffffffffffffffffffffffffffffffffffff160217905550808273ffffffffffffffffffffffffffffffffffffffff166111a883610801565b73ffffffffffffffffffffffffffffffffffffffff167f8c5be1e5ebec7d5bd14f71427d1e84f3dd0314c0f7b2291e5b200ac8c7c3b92560405160405180910390a45050565b60006111f98261102d565b611238576040517f08c379a000000000000000000000000000000000000000000000000000000000815260040161122f90612cde565b60405180910390fd5b600061124383610801565b90508073ffffffffffffffffffffffffffffffffffffffff168473ffffffffffffffffffffffffffffffffffffffff1614806112b257508373ffffffffffffffffffffffffffffffffffffffff1661129a8461049b565b73ffffffffffffffffffffffffffffffffffffffff16145b806112c357506112c281856110a1565b5b91505092915050565b8273ffffffffffffffffffffffffffffffffffffffff166112ec82610801565b73ffffffffffffffffffffffffffffffffffffffff1614611342576040517f08c379a000000000000000000000000000000000000000000000000000000000815260040161133990612dfe565b60405180910390fd5b600073ffffffffffffffffffffffffffffffffffffffff168273ffffffffffffffffffffffffffffffffffffffff1614156113b2576040517f08c379a00000000000000000000000000000000000000000000000000000000081526004016113a990612c9e565b60405180910390fd5b6113bd838383611a1c565b6113c8600082611135565b6001600460008573ffffffffffffffffffffffffffffffffffffffff1673ffffffffffffffffffffffffffffffffffffffff1681526020019081526020016000206000828254611418919061300a565b925050819055506001600460008473ffffffffffffffffffffffffffffffffffffffff1673ffffffffffffffffffffffffffffffffffffffff168152602001908152602001600020600082825461146f9190612f83565b92505081905550816003600083815260200190815260200160002060006101000a81548173ffffffffffffffffffffffffffffffffffffffff021916908373ffffffffffffffffffffffffffffffffffffffff160217905550808273ffffffffffffffffffffffffffffffffffffffff168473ffffffffffffffffffffffffffffffffffffffff167fddf252ad1be2c89b69c2b068fc378daa952ba7f163c4a11628f55a4df523b3ef60405160405180910390a4505050565b60006115456001611537610638565b611a2c90919063ffffffff16565b905090565b600073ffffffffffffffffffffffffffffffffffffffff168273ffffffffffffffffffffffffffffffffffffffff1614156115ba576040517f08c379a00000000000000000000000000000000000000000000000000000000081526004016115b190612d7e565b60405180910390fd5b6115c38161102d565b15611603576040517f08c379a00000000000000000000000000000000000000000000000000000000081526004016115fa90612c7e565b60405180910390fd5b61160f60008383611a1c565b6001600460008473ffffffffffffffffffffffffffffffffffffffff1673ffffffffffffffffffffffffffffffffffffffff168152602001908152602001600020600082825461165f9190612f83565b92505081905550816003600083815260200190815260200160002060006101000a81548173ffffffffffffffffffffffffffffffffffffffff021916908373ffffffffffffffffffffffffffffffffffffffff160217905550808273ffffffffffffffffffffffffffffffffffffffff16600073ffffffffffffffffffffffffffffffffffffffff167fddf252ad1be2c89b69c2b068fc378daa952ba7f163c4a11628f55a4df523b3ef60405160405180910390a45050565b6117218261102d565b611760576040517f08c379a000000000000000000000000000000000000000000000000000000000815260040161175790612d5e565b60405180910390fd5b80600760008481526020019081526020016000209080519060200190611787929190612378565b505050565b6117978484846112cc565b6117a384848484611a42565b6117e2576040517f08c379a00000000000000000000000000000000000000000000000000000000081526004016117d990612c3e565b60405180910390fd5b50505050565b60606117f38261102d565b611832576040517f08c379a000000000000000000000000000000000000000000000000000000000815260040161182990612d9e565b60405180910390fd5b6000600760008481526020019081526020016000208054611852906130f4565b80601f016020809104026020016040519081016040528092919081815260200182805461187e906130f4565b80156118cb5780601f106118a0576101008083540402835291602001916118cb565b820191906000526020600020905b8154815290600101906020018083116118ae57829003601f168201915b5050505050905060006118dc611bd9565b90506000815114156118f2578192505050611935565b60008251111561192757808260405160200161190f929190612b56565b60405160208183030381529060405292505050611935565b61193084611c16565b925050505b919050565b60007f80ac58cd000000000000000000000000000000000000000000000000000000007bffffffffffffffffffffffffffffffffffffffffffffffffffffffff1916827bffffffffffffffffffffffffffffffffffffffffffffffffffffffff19161480611a0557507f5b5e139f000000000000000000000000000000000000000000000000000000007bffffffffffffffffffffffffffffffffffffffffffffffffffffffff1916827bffffffffffffffffffffffffffffffffffffffffffffffffffffffff1916145b80611a155750611a1482611cbd565b5b9050919050565b611a27838383611d27565b505050565b60008183611a3a9190612f83565b905092915050565b6000611a638473ffffffffffffffffffffffffffffffffffffffff16611e3b565b15611bcc578373ffffffffffffffffffffffffffffffffffffffff1663150b7a02611a8c611099565b8786866040518563ffffffff1660e01b8152600401611aae9493929190612b95565b602060405180830381600087803b158015611ac857600080fd5b505af1925050508015611af957506040513d601f19601f82011682018060405250810190611af69190612778565b60015b611b7c573d8060008114611b29576040519150601f19603f3d011682016040523d82523d6000602084013e611b2e565b606091505b50600081511415611b74576040517f08c379a0000000000000000000000000000000000000000000000000000000008152600401611b6b90612c3e565b60405180910390fd5b805181602001fd5b63150b7a0260e01b7bffffffffffffffffffffffffffffffffffffffffffffffffffffffff1916817bffffffffffffffffffffffffffffffffffffffffffffffffffffffff191614915050611bd1565b600190505b949350505050565b60606040518060400160405280601a81526020017f687474703a2f2f6170692e6f7269756d2e696f2f61737365742f000000000000815250905090565b6060611c218261102d565b611c60576040517f08c379a0000000000000000000000000000000000000000000000000000000008152600401611c5790612e1e565b60405180910390fd5b6000611c6a611bd9565b90506000815111611c8a5760405180602001604052806000815250611cb5565b80611c9484611e4e565b604051602001611ca5929190612b56565b6040516020818303038152906040525b915050919050565b60007f01ffc9a7000000000000000000000000000000000000000000000000000000007bffffffffffffffffffffffffffffffffffffffffffffffffffffffff1916827bffffffffffffffffffffffffffffffffffffffffffffffffffffffff1916149050919050565b611d32838383611ffb565b600073ffffffffffffffffffffffffffffffffffffffff168373ffffffffffffffffffffffffffffffffffffffff161415611d7557611d7081612000565b611db4565b8173ffffffffffffffffffffffffffffffffffffffff168373ffffffffffffffffffffffffffffffffffffffff1614611db357611db28382612049565b5b5b600073ffffffffffffffffffffffffffffffffffffffff168273ffffffffffffffffffffffffffffffffffffffff161415611df757611df2816121b6565b611e36565b8273ffffffffffffffffffffffffffffffffffffffff168273ffffffffffffffffffffffffffffffffffffffff1614611e3557611e3482826122f9565b5b5b505050565b600080823b905060008111915050919050565b60606000821415611e96576040518060400160405280600181526020017f30000000000000000000000000000000000000000000000000000000000000008152509050611ff6565b600082905060005b60008214611ec8578080611eb190613157565b915050600a82611ec19190612fd9565b9150611e9e565b60008167ffffffffffffffff811115611f0a577f4e487b7100000000000000000000000000000000000000000000000000000000600052604160045260246000fd5b6040519080825280601f01601f191660200182016040528015611f3c5781602001600182028036833780820191505090505b5090505b60008514611fef57600182611f55919061300a565b9150600a85611f6491906131a0565b6030611f709190612f83565b60f81b818381518110611fac577f4e487b7100000000000000000000000000000000000000000000000000000000600052603260045260246000fd5b60200101907effffffffffffffffffffffffffffffffffffffffffffffffffffffffffffff1916908160001a905350600a85611fe89190612fd9565b9450611f40565b8093505050505b919050565b505050565b600a80549050600b600083815260200190815260200160002081905550600a81908060018154018082558091505060019003906000526020600020016000909190919091505550565b60006001612056846108b3565b612060919061300a565b9050600060096000848152602001908152602001600020549050818114612145576000600860008673ffffffffffffffffffffffffffffffffffffffff1673ffffffffffffffffffffffffffffffffffffffff168152602001908152602001600020600084815260200190815260200160002054905080600860008773ffffffffffffffffffffffffffffffffffffffff1673ffffffffffffffffffffffffffffffffffffffff168152602001908152602001600020600084815260200190815260200160002081905550816009600083815260200190815260200160002081905550505b6009600084815260200190815260200160002060009055600860008573ffffffffffffffffffffffffffffffffffffffff1673ffffffffffffffffffffffffffffffffffffffff16815260200190815260200160002060008381526020019081526020016000206000905550505050565b60006001600a805490506121ca919061300a565b90506000600b60008481526020019081526020016000205490506000600a8381548110612220577f4e487b7100000000000000000000000000000000000000000000000000000000600052603260045260246000fd5b9060005260206000200154905080600a8381548110612268577f4e487b7100000000000000000000000000000000000000000000000000000000600052603260045260246000fd5b906000526020600020018190555081600b600083815260200190815260200160002081905550600b600085815260200190815260200160002060009055600a8054806122dd577f4e487b7100000000000000000000000000000000000000000000000000000000600052603160045260246000fd5b6001900381819060005260206000200160009055905550505050565b6000612304836108b3565b905081600860008573ffffffffffffffffffffffffffffffffffffffff1673ffffffffffffffffffffffffffffffffffffffff168152602001908152602001600020600083815260200190815260200160002081905550806009600084815260200190815260200160002081905550505050565b828054612384906130f4565b90600052602060002090601f0160209004810192826123a657600085556123ed565b82601f106123bf57805160ff19168380011785556123ed565b828001600101855582156123ed579182015b828111156123ec5782518255916020019190600101906123d1565b5b5090506123fa91906123fe565b5090565b5b808211156124175760008160009055506001016123ff565b5090565b600061242e61242984612ede565b612eb9565b90508281526020810184848401111561244657600080fd5b6124518482856130b2565b509392505050565b600061246c61246784612f0f565b612eb9565b90508281526020810184848401111561248457600080fd5b61248f8482856130b2565b509392505050565b6000813590506124a681613832565b92915050565b6000813590506124bb81613849565b92915050565b6000813590506124d081613860565b92915050565b6000815190506124e581613860565b92915050565b600082601f8301126124fc57600080fd5b813561250c84826020860161241b565b91505092915050565b600082601f83011261252657600080fd5b8135612536848260208601612459565b91505092915050565b60008135905061254e81613877565b92915050565b60006020828403121561256657600080fd5b600061257484828501612497565b91505092915050565b6000806040838503121561259057600080fd5b600061259e85828601612497565b92505060206125af85828601612497565b9150509250929050565b6000806000606084860312156125ce57600080fd5b60006125dc86828701612497565b93505060206125ed86828701612497565b92505060406125fe8682870161253f565b9150509250925092565b6000806000806080858703121561261e57600080fd5b600061262c87828801612497565b945050602061263d87828801612497565b935050604061264e8782880161253f565b925050606085013567ffffffffffffffff81111561266b57600080fd5b612677878288016124eb565b91505092959194509250565b6000806040838503121561269657600080fd5b60006126a485828601612497565b92505060206126b5858286016124ac565b9150509250929050565b600080604083850312156126d257600080fd5b60006126e085828601612497565b925050602083013567ffffffffffffffff8111156126fd57600080fd5b61270985828601612515565b9150509250929050565b6000806040838503121561272657600080fd5b600061273485828601612497565b92505060206127458582860161253f565b9150509250929050565b60006020828403121561276157600080fd5b600061276f848285016124c1565b91505092915050565b60006020828403121561278a57600080fd5b6000612798848285016124d6565b91505092915050565b6000602082840312156127b357600080fd5b60006127c18482850161253f565b91505092915050565b6127d38161303e565b82525050565b6127e281613050565b82525050565b60006127f382612f40565b6127fd8185612f56565b935061280d8185602086016130c1565b6128168161328d565b840191505092915050565b600061282c82612f4b565b6128368185612f67565b93506128468185602086016130c1565b61284f8161328d565b840191505092915050565b600061286582612f4b565b61286f8185612f78565b935061287f8185602086016130c1565b80840191505092915050565b6000612898602b83612f67565b91506128a38261329e565b604082019050919050565b60006128bb603283612f67565b91506128c6826132ed565b604082019050919050565b60006128de602683612f67565b91506128e98261333c565b604082019050919050565b6000612901601c83612f67565b915061290c8261338b565b602082019050919050565b6000612924602483612f67565b915061292f826133b4565b604082019050919050565b6000612947601983612f67565b915061295282613403565b602082019050919050565b600061296a602c83612f67565b91506129758261342c565b604082019050919050565b600061298d603883612f67565b91506129988261347b565b604082019050919050565b60006129b0602a83612f67565b91506129bb826134ca565b604082019050919050565b60006129d3602983612f67565b91506129de82613519565b604082019050919050565b60006129f6602e83612f67565b9150612a0182613568565b604082019050919050565b6000612a19602083612f67565b9150612a24826135b7565b602082019050919050565b6000612a3c603183612f67565b9150612a47826135e0565b604082019050919050565b6000612a5f602c83612f67565b9150612a6a8261362f565b604082019050919050565b6000612a82602083612f67565b9150612a8d8261367e565b602082019050919050565b6000612aa5602983612f67565b9150612ab0826136a7565b604082019050919050565b6000612ac8602f83612f67565b9150612ad3826136f6565b604082019050919050565b6000612aeb602183612f67565b9150612af682613745565b604082019050919050565b6000612b0e603183612f67565b9150612b1982613794565b604082019050919050565b6000612b31602c83612f67565b9150612b3c826137e3565b604082019050919050565b612b50816130a8565b82525050565b6000612b62828561285a565b9150612b6e828461285a565b91508190509392505050565b6000602082019050612b8f60008301846127ca565b92915050565b6000608082019050612baa60008301876127ca565b612bb760208301866127ca565b612bc46040830185612b47565b8181036060830152612bd681846127e8565b905095945050505050565b6000602082019050612bf660008301846127d9565b92915050565b60006020820190508181036000830152612c168184612821565b905092915050565b60006020820190508181036000830152612c378161288b565b9050919050565b60006020820190508181036000830152612c57816128ae565b9050919050565b60006020820190508181036000830152612c77816128d1565b9050919050565b60006020820190508181036000830152612c97816128f4565b9050919050565b60006020820190508181036000830152612cb781612917565b9050919050565b60006020820190508181036000830152612cd78161293a565b9050919050565b60006020820190508181036000830152612cf78161295d565b9050919050565b60006020820190508181036000830152612d1781612980565b9050919050565b60006020820190508181036000830152612d37816129a3565b9050919050565b60006020820190508181036000830152612d57816129c6565b9050919050565b60006020820190508181036000830152612d77816129e9565b9050919050565b60006020820190508181036000830152612d9781612a0c565b9050919050565b60006020820190508181036000830152612db781612a2f565b9050919050565b60006020820190508181036000830152612dd781612a52565b9050919050565b60006020820190508181036000830152612df781612a75565b9050919050565b60006020820190508181036000830152612e1781612a98565b9050919050565b60006020820190508181036000830152612e3781612abb565b9050919050565b60006020820190508181036000830152612e5781612ade565b9050919050565b60006020820190508181036000830152612e7781612b01565b9050919050565b60006020820190508181036000830152612e9781612b24565b9050919050565b6000602082019050612eb36000830184612b47565b92915050565b6000612ec3612ed4565b9050612ecf8282613126565b919050565b6000604051905090565b600067ffffffffffffffff821115612ef957612ef861325e565b5b612f028261328d565b9050602081019050919050565b600067ffffffffffffffff821115612f2a57612f2961325e565b5b612f338261328d565b9050602081019050919050565b600081519050919050565b600081519050919050565b600082825260208201905092915050565b600082825260208201905092915050565b600081905092915050565b6000612f8e826130a8565b9150612f99836130a8565b9250827fffffffffffffffffffffffffffffffffffffffffffffffffffffffffffffffff03821115612fce57612fcd6131d1565b5b828201905092915050565b6000612fe4826130a8565b9150612fef836130a8565b925082612fff57612ffe613200565b5b828204905092915050565b6000613015826130a8565b9150613020836130a8565b925082821015613033576130326131d1565b5b828203905092915050565b600061304982613088565b9050919050565b60008115159050919050565b60007fffffffff0000000000000000000000000000000000000000000000000000000082169050919050565b600073ffffffffffffffffffffffffffffffffffffffff82169050919050565b6000819050919050565b82818337600083830152505050565b60005b838110156130df5780820151818401526020810190506130c4565b838111156130ee576000848401525b50505050565b6000600282049050600182168061310c57607f821691505b602082108114156131205761311f61322f565b5b50919050565b61312f8261328d565b810181811067ffffffffffffffff8211171561314e5761314d61325e565b5b80604052505050565b6000613162826130a8565b91507fffffffffffffffffffffffffffffffffffffffffffffffffffffffffffffffff821415613195576131946131d1565b5b600182019050919050565b60006131ab826130a8565b91506131b6836130a8565b9250826131c6576131c5613200565b5b828206905092915050565b7f4e487b7100000000000000000000000000000000000000000000000000000000600052601160045260246000fd5b7f4e487b7100000000000000000000000000000000000000000000000000000000600052601260045260246000fd5b7f4e487b7100000000000000000000000000000000000000000000000000000000600052602260045260246000fd5b7f4e487b7100000000000000000000000000000000000000000000000000000000600052604160045260246000fd5b6000601f19601f8301169050919050565b7f455243373231456e756d657261626c653a206f776e657220696e646578206f7560008201527f74206f6620626f756e6473000000000000000000000000000000000000000000602082015250565b7f4552433732313a207472616e7366657220746f206e6f6e20455243373231526560008201527f63656976657220696d706c656d656e7465720000000000000000000000000000602082015250565b7f4f776e61626c653a206e6577206f776e657220697320746865207a65726f206160008201527f6464726573730000000000000000000000000000000000000000000000000000602082015250565b7f4552433732313a20746f6b656e20616c7265616479206d696e74656400000000600082015250565b7f4552433732313a207472616e7366657220746f20746865207a65726f2061646460008201527f7265737300000000000000000000000000000000000000000000000000000000602082015250565b7f4552433732313a20617070726f766520746f2063616c6c657200000000000000600082015250565b7f4552433732313a206f70657261746f7220717565727920666f72206e6f6e657860008201527f697374656e7420746f6b656e0000000000000000000000000000000000000000602082015250565b7f4552433732313a20617070726f76652063616c6c6572206973206e6f74206f7760008201527f6e6572206e6f7220617070726f76656420666f7220616c6c0000000000000000602082015250565b7f4552433732313a2062616c616e636520717565727920666f7220746865207a6560008201527f726f206164647265737300000000000000000000000000000000000000000000602082015250565b7f4552433732313a206f776e657220717565727920666f72206e6f6e657869737460008201527f656e7420746f6b656e0000000000000000000000000000000000000000000000602082015250565b7f45524337323155524953746f726167653a2055524920736574206f66206e6f6e60008201527f6578697374656e7420746f6b656e000000000000000000000000000000000000602082015250565b7f4552433732313a206d696e7420746f20746865207a65726f2061646472657373600082015250565b7f45524337323155524953746f726167653a2055524920717565727920666f722060008201527f6e6f6e6578697374656e7420746f6b656e000000000000000000000000000000602082015250565b7f4552433732313a20617070726f76656420717565727920666f72206e6f6e657860008201527f697374656e7420746f6b656e0000000000000000000000000000000000000000602082015250565b7f4f776e61626c653a2063616c6c6572206973206e6f7420746865206f776e6572600082015250565b7f4552433732313a207472616e73666572206f6620746f6b656e2074686174206960008201527f73206e6f74206f776e0000000000000000000000000000000000000000000000602082015250565b7f4552433732314d657461646174613a2055524920717565727920666f72206e6f60008201527f6e6578697374656e7420746f6b656e0000000000000000000000000000000000602082015250565b7f4552433732313a20617070726f76616c20746f2063757272656e74206f776e6560008201527f7200000000000000000000000000000000000000000000000000000000000000602082015250565b7f4552433732313a207472616e736665722063616c6c6572206973206e6f74206f60008201527f776e6572206e6f7220617070726f766564000000000000000000000000000000602082015250565b7f455243373231456e756d657261626c653a20676c6f62616c20696e646578206f60008201527f7574206f6620626f756e64730000000000000000000000000000000000000000602082015250565b61383b8161303e565b811461384657600080fd5b50565b61385281613050565b811461385d57600080fd5b50565b6138698161305c565b811461387457600080fd5b50565b613880816130a8565b811461388b57600080fd5b5056fea2646970667358221220898f84eb012ae35ccbe90d2725ed3c3b7c4489cc38241d447f9d94088ebd1ac964736f6c63430008040033",
  "immutableReferences": {},
  "source": "// SPDX-License-Identifier: MIT\npragma solidity ^0.8.0;\n\nimport \"./ERC721Tradable.sol\";\nimport \"@openzeppelin/contracts/utils/math/SafeMath.sol\";\n\ncontract MyNFT is ERC721Tradable {\n    using SafeMath for uint256;\n\n    constructor() ERC721Tradable(\"MyNFT\", \"MNT\") {\n    }\n\n    function _baseURI() internal pure override returns (string memory) {\n        return \"http://api.orium.io/asset/\";\n    }\n\n    /**\n     * @dev Mints a token to an address with a tokenURI.\n     * @param _to address of the future owner of the token\n     */\n    function createAsset(address _to, string memory _uri) public onlyOwner {\n        uint256 newTokenId = _getNextTokenId();\n        _mint(_to, newTokenId);\n        _setTokenURI(newTokenId, _uri);\n    }\n\n    function _getNextTokenId() private view returns (uint256) {\n        return totalSupply().add(1);\n    }\n\n}",
  "sourcePath": "/Users/chang-younglee/block8/nft-backend/smartcontract/v1.0/contracts/MyNFT.sol",
  "compiler": {
    "name": "solc",
    "version": "0.8.4+commit.c7e474f2.Emscripten.clang"
  },
  "schemaVersion": "3.4.0",
  "updatedAt": "2021-05-11T07:59:10.638Z",
  "devdoc": {
    "kind": "dev",
    "methods": {
      "approve(address,uint256)": {
        "details": "See {IERC721-approve}."
      },
      "balanceOf(address)": {
        "details": "See {IERC721-balanceOf}."
      },
      "createAsset(address,string)": {
        "details": "Mints a token to an address with a tokenURI.",
        "params": {
          "_to": "address of the future owner of the token"
        }
      },
      "getApproved(uint256)": {
        "details": "See {IERC721-getApproved}."
      },
      "name()": {
        "details": "See {IERC721Metadata-name}."
      },
      "owner()": {
        "details": "Returns the address of the current owner."
      },
      "ownerOf(uint256)": {
        "details": "See {IERC721-ownerOf}."
      },
      "renounceOwnership()": {
        "details": "Leaves the contract without owner. It will not be possible to call `onlyOwner` functions anymore. Can only be called by the current owner. NOTE: Renouncing ownership will leave the contract without an owner, thereby removing any functionality that is only available to the owner."
      },
      "safeTransferFrom(address,address,uint256)": {
        "details": "See {IERC721-safeTransferFrom}."
      },
      "safeTransferFrom(address,address,uint256,bytes)": {
        "details": "See {IERC721-safeTransferFrom}."
      },
      "setApprovalForAll(address,bool)": {
        "details": "See {IERC721-setApprovalForAll}."
      },
      "supportsInterface(bytes4)": {
        "details": "`IERC165.supportsInterface` .   O(1),  30000    ."
      },
      "symbol()": {
        "details": "See {IERC721Metadata-symbol}."
      },
      "tokenByIndex(uint256)": {
        "details": "See {IERC721Enumerable-tokenByIndex}."
      },
      "tokenOfOwnerByIndex(address,uint256)": {
        "details": "See {IERC721Enumerable-tokenOfOwnerByIndex}."
      },
      "totalSupply()": {
        "details": "See {IERC721Enumerable-totalSupply}."
      },
      "transferFrom(address,address,uint256)": {
        "details": "See {IERC721-transferFrom}."
      },
      "transferOwnership(address)": {
        "details": "Transfers ownership of the contract to a new account (`newOwner`). Can only be called by the current owner."
      }
    },
    "version": 1
  },
  "userdoc": {
    "kind": "user",
    "methods": {
      "isApprovedForAll(address,address)": {
        "notice": "Override isApprovedForAll to whitelist user's OpenSea proxy accounts to enable gas-less listings."
      }
    },
    "version": 1
  }
}