{
  "contractName": "MyNFT",
  "abi": [
    {
      "anonymous": false,
      "inputs": [
        {
          "indexed": true,
          "internalType": "address",
          "name": "owner",
          "type": "address"
        },
        {
          "indexed": true,
          "internalType": "address",
          "name": "approved",
          "type": "address"
        },
        {
          "indexed": true,
          "internalType": "uint256",
          "name": "tokenId",
          "type": "uint256"
        }
      ],
      "name": "Approval",
      "type": "event"
    },
    {
      "anonymous": false,
      "inputs": [
        {
          "indexed": true,
          "internalType": "address",
          "name": "owner",
          "type": "address"
        },
        {
          "indexed": true,
          "internalType": "address",
          "name": "operator",
          "type": "address"
        },
        {
          "indexed": false,
          "internalType": "bool",
          "name": "approved",
          "type": "bool"
        }
      ],
      "name": "ApprovalForAll",
      "type": "event"
    },
    {
      "anonymous": false,
      "inputs": [
        {
          "indexed": false,
          "internalType": "address",
          "name": "account",
          "type": "address"
        }
      ],
      "name": "Paused",
      "type": "event"
    },
    {
      "anonymous": false,
      "inputs": [
        {
          "indexed": true,
          "internalType": "bytes32",
          "name": "role",
          "type": "bytes32"
        },
        {
          "indexed": true,
          "internalType": "bytes32",
          "name": "previousAdminRole",
          "type": "bytes32"
        },
        {
          "indexed": true,
          "internalType": "bytes32",
          "name": "newAdminRole",
          "type": "bytes32"
        }
      ],
      "name": "RoleAdminChanged",
      "type": "event"
    },
    {
      "anonymous": false,
      "inputs": [
        {
          "indexed": true,
          "internalType": "bytes32",
          "name": "role",
          "type": "bytes32"
        },
        {
          "indexed": true,
          "internalType": "address",
          "name": "account",
          "type": "address"
        },
        {
          "indexed": true,
          "internalType": "address",
          "name": "sender",
          "type": "address"
        }
      ],
      "name": "RoleGranted",
      "type": "event"
    },
    {
      "anonymous": false,
      "inputs": [
        {
          "indexed": true,
          "internalType": "bytes32",
          "name": "role",
          "type": "bytes32"
        },
        {
          "indexed": true,
          "internalType": "address",
          "name": "account",
          "type": "address"
        },
        {
          "indexed": true,
          "internalType": "address",
          "name": "sender",
          "type": "address"
        }
      ],
      "name": "RoleRevoked",
      "type": "event"
    },
    {
      "anonymous": false,
      "inputs": [
        {
          "indexed": true,
          "internalType": "address",
          "name": "from",
          "type": "address"
        },
        {
          "indexed": true,
          "internalType": "address",
          "name": "to",
          "type": "address"
        },
        {
          "indexed": true,
          "internalType": "uint256",
          "name": "tokenId",
          "type": "uint256"
        }
      ],
      "name": "Transfer",
      "type": "event"
    },
    {
      "anonymous": false,
      "inputs": [
        {
          "indexed": false,
          "internalType": "address",
          "name": "account",
          "type": "address"
        }
      ],
      "name": "Unpaused",
      "type": "event"
    },
    {
      "inputs": [],
      "name": "BURNER_ROLE",
      "outputs": [
        {
          "internalType": "bytes32",
          "name": "",
          "type": "bytes32"
        }
      ],
      "stateMutability": "view",
      "type": "function",
      "constant": true
    },
    {
      "inputs": [],
      "name": "DEFAULT_ADMIN_ROLE",
      "outputs": [
        {
          "internalType": "bytes32",
          "name": "",
          "type": "bytes32"
        }
      ],
      "stateMutability": "view",
      "type": "function",
      "constant": true
    },
    {
      "inputs": [
        {
          "internalType": "address",
          "name": "to",
          "type": "address"
        },
        {
          "internalType": "uint256",
          "name": "tokenId",
          "type": "uint256"
        }
      ],
      "name": "approve",
      "outputs": [],
      "stateMutability": "nonpayable",
      "type": "function"
    },
    {
      "inputs": [
        {
          "internalType": "address",
          "name": "owner",
          "type": "address"
        }
      ],
      "name": "balanceOf",
      "outputs": [
        {
          "internalType": "uint256",
          "name": "",
          "type": "uint256"
        }
      ],
      "stateMutability": "view",
      "type": "function",
      "constant": true
    },
    {
      "inputs": [
        {
          "internalType": "uint256",
          "name": "tokenId",
          "type": "uint256"
        }
      ],
      "name": "getApproved",
      "outputs": [
        {
          "internalType": "address",
          "name": "",
          "type": "address"
        }
      ],
      "stateMutability": "view",
      "type": "function",
      "constant": true
    },
    {
      "inputs": [
        {
          "internalType": "bytes32",
          "name": "role",
          "type": "bytes32"
        }
      ],
      "name": "getRoleAdmin",
      "outputs": [
        {
          "internalType": "bytes32",
          "name": "",
          "type": "bytes32"
        }
      ],
      "stateMutability": "view",
      "type": "function",
      "constant": true
    },
    {
      "inputs": [
        {
          "internalType": "bytes32",
          "name": "role",
          "type": "bytes32"
        },
        {
          "internalType": "address",
          "name": "account",
          "type": "address"
        }
      ],
      "name": "grantRole",
      "outputs": [],
      "stateMutability": "nonpayable",
      "type": "function"
    },
    {
      "inputs": [
        {
          "internalType": "bytes32",
          "name": "role",
          "type": "bytes32"
        },
        {
          "internalType": "address",
          "name": "account",
          "type": "address"
        }
      ],
      "name": "hasRole",
      "outputs": [
        {
          "internalType": "bool",
          "name": "",
          "type": "bool"
        }
      ],
      "stateMutability": "view",
      "type": "function",
      "constant": true
    },
    {
      "inputs": [
        {
          "internalType": "address",
          "name": "owner",
          "type": "address"
        },
        {
          "internalType": "address",
          "name": "operator",
          "type": "address"
        }
      ],
      "name": "isApprovedForAll",
      "outputs": [
        {
          "internalType": "bool",
          "name": "",
          "type": "bool"
        }
      ],
      "stateMutability": "view",
      "type": "function",
      "constant": true
    },
    {
      "inputs": [],
      "name": "name",
      "outputs": [
        {
          "internalType": "string",
          "name": "",
          "type": "string"
        }
      ],
      "stateMutability": "view",
      "type": "function",
      "constant": true
    },
    {
      "inputs": [
        {
          "internalType": "uint256",
          "name": "tokenId",
          "type": "uint256"
        }
      ],
      "name": "ownerOf",
      "outputs": [
        {
          "internalType": "address",
          "name": "",
          "type": "address"
        }
      ],
      "stateMutability": "view",
      "type": "function",
      "constant": true
    },
    {
      "inputs": [],
      "name": "paused",
      "outputs": [
        {
          "internalType": "bool",
          "name": "",
          "type": "bool"
        }
      ],
      "stateMutability": "view",
      "type": "function",
      "constant": true
    },
    {
      "inputs": [
        {
          "internalType": "bytes32",
          "name": "role",
          "type": "bytes32"
        },
        {
          "internalType": "address",
          "name": "account",
          "type": "address"
        }
      ],
      "name": "renounceRole",
      "outputs": [],
      "stateMutability": "nonpayable",
      "type": "function"
    },
    {
      "inputs": [
        {
          "internalType": "bytes32",
          "name": "role",
          "type": "bytes32"
        },
        {
          "internalType": "address",
          "name": "account",
          "type": "address"
        }
      ],
      "name": "revokeRole",
      "outputs": [],
      "stateMutability": "nonpayable",
      "type": "function"
    },
    {
      "inputs": [
        {
          "internalType": "address",
          "name": "from",
          "type": "address"
        },
        {
          "internalType": "address",
          "name": "to",
          "type": "address"
        },
        {
          "internalType": "uint256",
          "name": "tokenId",
          "type": "uint256"
        }
      ],
      "name": "safeTransferFrom",
      "outputs": [],
      "stateMutability": "nonpayable",
      "type": "function"
    },
    {
      "inputs": [
        {
          "internalType": "address",
          "name": "from",
          "type": "address"
        },
        {
          "internalType": "address",
          "name": "to",
          "type": "address"
        },
        {
          "internalType": "uint256",
          "name": "tokenId",
          "type": "uint256"
        },
        {
          "internalType": "bytes",
          "name": "_data",
          "type": "bytes"
        }
      ],
      "name": "safeTransferFrom",
      "outputs": [],
      "stateMutability": "nonpayable",
      "type": "function"
    },
    {
      "inputs": [
        {
          "internalType": "address",
          "name": "operator",
          "type": "address"
        },
        {
          "internalType": "bool",
          "name": "approved",
          "type": "bool"
        }
      ],
      "name": "setApprovalForAll",
      "outputs": [],
      "stateMutability": "nonpayable",
      "type": "function"
    },
    {
      "inputs": [],
      "name": "symbol",
      "outputs": [
        {
          "internalType": "string",
          "name": "",
          "type": "string"
        }
      ],
      "stateMutability": "view",
      "type": "function",
      "constant": true
    },
    {
      "inputs": [
        {
          "internalType": "uint256",
          "name": "index",
          "type": "uint256"
        }
      ],
      "name": "tokenByIndex",
      "outputs": [
        {
          "internalType": "uint256",
          "name": "",
          "type": "uint256"
        }
      ],
      "stateMutability": "view",
      "type": "function",
      "constant": true
    },
    {
      "inputs": [
        {
          "internalType": "address",
          "name": "owner",
          "type": "address"
        },
        {
          "internalType": "uint256",
          "name": "index",
          "type": "uint256"
        }
      ],
      "name": "tokenOfOwnerByIndex",
      "outputs": [
        {
          "internalType": "uint256",
          "name": "",
          "type": "uint256"
        }
      ],
      "stateMutability": "view",
      "type": "function",
      "constant": true
    },
    {
      "inputs": [],
      "name": "totalSupply",
      "outputs": [
        {
          "internalType": "uint256",
          "name": "",
          "type": "uint256"
        }
      ],
      "stateMutability": "view",
      "type": "function",
      "constant": true
    },
    {
      "inputs": [
        {
          "internalType": "address",
          "name": "from",
          "type": "address"
        },
        {
          "internalType": "address",
          "name": "to",
          "type": "address"
        },
        {
          "internalType": "uint256",
          "name": "tokenId",
          "type": "uint256"
        }
      ],
      "name": "transferFrom",
      "outputs": [],
      "stateMutability": "nonpayable",
      "type": "function"
    },
    {
      "inputs": [
        {
          "internalType": "string",
          "name": "_name",
          "type": "string"
        },
        {
          "internalType": "string",
          "name": "_symbol",
          "type": "string"
        }
      ],
      "name": "initialize",
      "outputs": [],
      "stateMutability": "nonpayable",
      "type": "function"
    },
    {
      "inputs": [
        {
          "internalType": "address",
          "name": "_to",
          "type": "address"
        },
        {
          "internalType": "string",
          "name": "_uri",
          "type": "string"
        }
      ],
      "name": "createAsset",
      "outputs": [],
      "stateMutability": "nonpayable",
      "type": "function"
    },
    {
      "inputs": [
        {
          "internalType": "uint256",
          "name": "tokenId",
          "type": "uint256"
        }
      ],
      "name": "tokenURI",
      "outputs": [
        {
          "internalType": "string",
          "name": "",
          "type": "string"
        }
      ],
      "stateMutability": "view",
      "type": "function",
      "constant": true
    },
    {
      "inputs": [
        {
          "internalType": "bytes4",
          "name": "interfaceId",
          "type": "bytes4"
        }
      ],
      "name": "supportsInterface",
      "outputs": [
        {
          "internalType": "bool",
          "name": "",
          "type": "bool"
        }
      ],
      "stateMutability": "view",
      "type": "function",
      "constant": true
    }
  ],
  "bytecode": "0x608060405234801561001057600080fd5b50614423806100206000396000f3fe608060405234801561001057600080fd5b506004361061018e5760003560e01c80634f6ccce7116100de57806395d89b4111610097578063b88d4fde11610071578063b88d4fde146104a7578063c87b56dd146104c3578063d547741f146104f3578063e985e9c51461050f5761018e565b806395d89b411461044f578063a217fddf1461046d578063a22cb4651461048b5761018e565b80634f6ccce7146103555780635c975abb146103855780636352211e146103a357806370a08231146103d3578063791c07411461040357806391d148541461041f5761018e565b8063248a9ca31161014b5780632f745c59116101255780632f745c59146102d157806336568abe1461030157806342842e0e1461031d5780634cd88b76146103395761018e565b8063248a9ca314610267578063282c51f3146102975780632f2ff15d146102b55761018e565b806301ffc9a71461019357806306fdde03146101c3578063081812fc146101e1578063095ea7b31461021157806318160ddd1461022d57806323b872dd1461024b575b600080fd5b6101ad60048036038101906101a891906130c7565b61053f565b6040516101ba9190613bd8565b60405180910390f35b6101cb610551565b6040516101d89190613c0e565b60405180910390f35b6101fb60048036038101906101f69190613185565b6105e3565b6040516102089190613b71565b60405180910390f35b61022b60048036038101906102269190613026565b610668565b005b610235610780565b6040516102429190613ef0565b60405180910390f35b61026560048036038101906102609190612ecc565b61078d565b005b610281600480360381019061027c9190613062565b6107ed565b60405161028e9190613bf3565b60405180910390f35b61029f61080d565b6040516102ac9190613bf3565b60405180910390f35b6102cf60048036038101906102ca919061308b565b610831565b005b6102eb60048036038101906102e69190613026565b61085a565b6040516102f89190613ef0565b60405180910390f35b61031b6004803603810190610316919061308b565b6108ff565b005b61033760048036038101906103329190612ecc565b610982565b005b610353600480360381019061034e9190613119565b6109a2565b005b61036f600480360381019061036a9190613185565b610a97565b60405161037c9190613ef0565b60405180910390f35b61038d610b2e565b60405161039a9190613bd8565b60405180910390f35b6103bd60048036038101906103b89190613185565b610b46565b6040516103ca9190613b71565b60405180910390f35b6103ed60048036038101906103e89190612e67565b610bf8565b6040516103fa9190613ef0565b60405180910390f35b61041d60048036038101906104189190612fd2565b610cb0565b005b6104396004803603810190610434919061308b565b610cd5565b6040516104469190613bd8565b60405180910390f35b610457610d40565b6040516104649190613c0e565b60405180910390f35b610475610dd2565b6040516104829190613bf3565b60405180910390f35b6104a560048036038101906104a09190612f96565b610dd9565b005b6104c160048036038101906104bc9190612f1b565b610f5a565b005b6104dd60048036038101906104d89190613185565b610fbc565b6040516104ea9190613c0e565b60405180910390f35b61050d6004803603810190610508919061308b565b610fce565b005b61052960048036038101906105249190612e90565b610ff7565b6040516105369190613bd8565b60405180910390f35b600061054a8261108b565b9050919050565b606060658054610560906141de565b80601f016020809104026020016040519081016040528092919081815260200182805461058c906141de565b80156105d95780601f106105ae576101008083540402835291602001916105d9565b820191906000526020600020905b8154815290600101906020018083116105bc57829003601f168201915b5050505050905090565b60006105ee82611105565b61062d576040517f08c379a000000000000000000000000000000000000000000000000000000000815260040161062490613e10565b60405180910390fd5b6069600083815260200190815260200160002060009054906101000a900473ffffffffffffffffffffffffffffffffffffffff169050919050565b600061067382610b46565b90508073ffffffffffffffffffffffffffffffffffffffff168373ffffffffffffffffffffffffffffffffffffffff1614156106e4576040517f08c379a00000000000000000000000000000000000000000000000000000000081526004016106db90613e70565b60405180910390fd5b8073ffffffffffffffffffffffffffffffffffffffff16610703611171565b73ffffffffffffffffffffffffffffffffffffffff16148061073257506107318161072c611171565b610ff7565b5b610771576040517f08c379a000000000000000000000000000000000000000000000000000000000815260040161076890613d30565b60405180910390fd5b61077b8383611179565b505050565b600060cb80549050905090565b61079e610798611171565b82611232565b6107dd576040517f08c379a00000000000000000000000000000000000000000000000000000000081526004016107d490613e90565b60405180910390fd5b6107e8838383611310565b505050565b600060fb6000838152602001908152602001600020600101549050919050565b7f3c11d16cbaffd01df69ce1c404f6340ee057498f5f00246190ea54220576a84881565b61083a826107ed565b61084b81610846611171565b61156c565b6108558383611609565b505050565b600061086583610bf8565b82106108a6576040517f08c379a000000000000000000000000000000000000000000000000000000000815260040161089d90613c50565b60405180910390fd5b60c960008473ffffffffffffffffffffffffffffffffffffffff1673ffffffffffffffffffffffffffffffffffffffff168152602001908152602001600020600083815260200190815260200160002054905092915050565b610907611171565b73ffffffffffffffffffffffffffffffffffffffff168173ffffffffffffffffffffffffffffffffffffffff1614610974576040517f08c379a000000000000000000000000000000000000000000000000000000000815260040161096b90613ed0565b60405180910390fd5b61097e82826116ea565b5050565b61099d83838360405180602001604052806000815250610f5a565b505050565b600060019054906101000a900460ff16806109c8575060008054906101000a900460ff16155b610a07576040517f08c379a00000000000000000000000000000000000000000000000000000000081526004016109fe90613db0565b60405180910390fd5b60008060019054906101000a900460ff161590508015610a57576001600060016101000a81548160ff02191690831515021790555060016000806101000a81548160ff0219169083151502179055505b610a5f6117cc565b610a676118a5565b610a71838361197e565b8015610a925760008060016101000a81548160ff0219169083151502179055505b505050565b6000610aa1610780565b8210610ae2576040517f08c379a0000000000000000000000000000000000000000000000000000000008152600401610ad990613eb0565b60405180910390fd5b60cb8281548110610b1c577f4e487b7100000000000000000000000000000000000000000000000000000000600052603260045260246000fd5b90600052602060002001549050919050565b600061012d60009054906101000a900460ff16905090565b6000806067600084815260200190815260200160002060009054906101000a900473ffffffffffffffffffffffffffffffffffffffff169050600073ffffffffffffffffffffffffffffffffffffffff168173ffffffffffffffffffffffffffffffffffffffff161415610bef576040517f08c379a0000000000000000000000000000000000000000000000000000000008152600401610be690613d70565b60405180910390fd5b80915050919050565b60008073ffffffffffffffffffffffffffffffffffffffff168273ffffffffffffffffffffffffffffffffffffffff161415610c69576040517f08c379a0000000000000000000000000000000000000000000000000000000008152600401610c6090613d50565b60405180910390fd5b606860008373ffffffffffffffffffffffffffffffffffffffff1673ffffffffffffffffffffffffffffffffffffffff168152602001908152602001600020549050919050565b6000610cba611a87565b9050610cc68382611aa9565b610cd08183611c77565b505050565b600060fb600084815260200190815260200160002060000160008373ffffffffffffffffffffffffffffffffffffffff1673ffffffffffffffffffffffffffffffffffffffff16815260200190815260200160002060009054906101000a900460ff16905092915050565b606060668054610d4f906141de565b80601f0160208091040260200160405190810160405280929190818152602001828054610d7b906141de565b8015610dc85780601f10610d9d57610100808354040283529160200191610dc8565b820191906000526020600020905b815481529060010190602001808311610dab57829003601f168201915b5050505050905090565b6000801b81565b610de1611171565b73ffffffffffffffffffffffffffffffffffffffff168273ffffffffffffffffffffffffffffffffffffffff161415610e4f576040517f08c379a0000000000000000000000000000000000000000000000000000000008152600401610e4690613cd0565b60405180910390fd5b80606a6000610e5c611171565b73ffffffffffffffffffffffffffffffffffffffff1673ffffffffffffffffffffffffffffffffffffffff16815260200190815260200160002060008473ffffffffffffffffffffffffffffffffffffffff1673ffffffffffffffffffffffffffffffffffffffff16815260200190815260200160002060006101000a81548160ff0219169083151502179055508173ffffffffffffffffffffffffffffffffffffffff16610f09611171565b73ffffffffffffffffffffffffffffffffffffffff167f17307eab39ab6107e8899845ad3d59bd9653f200f220920489ca2b5937696c3183604051610f4e9190613bd8565b60405180910390a35050565b610f6b610f65611171565b83611232565b610faa576040517f08c379a0000000000000000000000000000000000000000000000000000000008152600401610fa190613e90565b60405180910390fd5b610fb684848484611ceb565b50505050565b6060610fc782611d47565b9050919050565b610fd7826107ed565b610fe881610fe3611171565b61156c565b610ff283836116ea565b505050565b6000606a60008473ffffffffffffffffffffffffffffffffffffffff1673ffffffffffffffffffffffffffffffffffffffff16815260200190815260200160002060008373ffffffffffffffffffffffffffffffffffffffff1673ffffffffffffffffffffffffffffffffffffffff16815260200190815260200160002060009054906101000a900460ff16905092915050565b60007f7965db0b000000000000000000000000000000000000000000000000000000007bffffffffffffffffffffffffffffffffffffffffffffffffffffffff1916827bffffffffffffffffffffffffffffffffffffffffffffffffffffffff191614806110fe57506110fd82611e99565b5b9050919050565b60008073ffffffffffffffffffffffffffffffffffffffff166067600084815260200190815260200160002060009054906101000a900473ffffffffffffffffffffffffffffffffffffffff1673ffffffffffffffffffffffffffffffffffffffff1614159050919050565b600033905090565b816069600083815260200190815260200160002060006101000a81548173ffffffffffffffffffffffffffffffffffffffff021916908373ffffffffffffffffffffffffffffffffffffffff160217905550808273ffffffffffffffffffffffffffffffffffffffff166111ec83610b46565b73ffffffffffffffffffffffffffffffffffffffff167f8c5be1e5ebec7d5bd14f71427d1e84f3dd0314c0f7b2291e5b200ac8c7c3b92560405160405180910390a45050565b600061123d82611105565b61127c576040517f08c379a000000000000000000000000000000000000000000000000000000000815260040161127390613cf0565b60405180910390fd5b600061128783610b46565b90508073ffffffffffffffffffffffffffffffffffffffff168473ffffffffffffffffffffffffffffffffffffffff1614806112f657508373ffffffffffffffffffffffffffffffffffffffff166112de846105e3565b73ffffffffffffffffffffffffffffffffffffffff16145b8061130757506113068185610ff7565b5b91505092915050565b8273ffffffffffffffffffffffffffffffffffffffff1661133082610b46565b73ffffffffffffffffffffffffffffffffffffffff1614611386576040517f08c379a000000000000000000000000000000000000000000000000000000000815260040161137d90613e30565b60405180910390fd5b600073ffffffffffffffffffffffffffffffffffffffff168273ffffffffffffffffffffffffffffffffffffffff1614156113f6576040517f08c379a00000000000000000000000000000000000000000000000000000000081526004016113ed90613cb0565b60405180910390fd5b611401838383611f13565b61140c600082611179565b6001606860008573ffffffffffffffffffffffffffffffffffffffff1673ffffffffffffffffffffffffffffffffffffffff168152602001908152602001600020600082825461145c91906140c0565b925050819055506001606860008473ffffffffffffffffffffffffffffffffffffffff1673ffffffffffffffffffffffffffffffffffffffff16815260200190815260200160002060008282546114b39190613fdf565b92505081905550816067600083815260200190815260200160002060006101000a81548173ffffffffffffffffffffffffffffffffffffffff021916908373ffffffffffffffffffffffffffffffffffffffff160217905550808273ffffffffffffffffffffffffffffffffffffffff168473ffffffffffffffffffffffffffffffffffffffff167fddf252ad1be2c89b69c2b068fc378daa952ba7f163c4a11628f55a4df523b3ef60405160405180910390a4505050565b6115768282610cd5565b6116055761159b8173ffffffffffffffffffffffffffffffffffffffff166014611f6b565b6115a98360001c6020611f6b565b6040516020016115ba929190613b37565b6040516020818303038152906040526040517f08c379a00000000000000000000000000000000000000000000000000000000081526004016115fc9190613c0e565b60405180910390fd5b5050565b6116138282610cd5565b6116e657600160fb600084815260200190815260200160002060000160008373ffffffffffffffffffffffffffffffffffffffff1673ffffffffffffffffffffffffffffffffffffffff16815260200190815260200160002060006101000a81548160ff02191690831515021790555061168b611171565b73ffffffffffffffffffffffffffffffffffffffff168173ffffffffffffffffffffffffffffffffffffffff16837f2f8788117e7eff1d82e926ec794901d17c78024a50270940304540a733656f0d60405160405180910390a45b5050565b6116f48282610cd5565b156117c857600060fb600084815260200190815260200160002060000160008373ffffffffffffffffffffffffffffffffffffffff1673ffffffffffffffffffffffffffffffffffffffff16815260200190815260200160002060006101000a81548160ff02191690831515021790555061176d611171565b73ffffffffffffffffffffffffffffffffffffffff168173ffffffffffffffffffffffffffffffffffffffff16837ff6391f5c32d9c69d2a47ea670b442974b53935d1edc7fd64eb21e047a839171b60405160405180910390a45b5050565b600060019054906101000a900460ff16806117f2575060008054906101000a900460ff16155b611831576040517f08c379a000000000000000000000000000000000000000000000000000000000815260040161182890613db0565b60405180910390fd5b60008060019054906101000a900460ff161590508015611881576001600060016101000a81548160ff02191690831515021790555060016000806101000a81548160ff0219169083151502179055505b80156118a25760008060016101000a81548160ff0219169083151502179055505b50565b600060019054906101000a900460ff16806118cb575060008054906101000a900460ff16155b61190a576040517f08c379a000000000000000000000000000000000000000000000000000000000815260040161190190613db0565b60405180910390fd5b60008060019054906101000a900460ff16159050801561195a576001600060016101000a81548160ff02191690831515021790555060016000806101000a81548160ff0219169083151502179055505b801561197b5760008060016101000a81548160ff0219169083151502179055505b50565b600060019054906101000a900460ff16806119a4575060008054906101000a900460ff16155b6119e3576040517f08c379a00000000000000000000000000000000000000000000000000000000081526004016119da90613db0565b60405180910390fd5b60008060019054906101000a900460ff161590508015611a33576001600060016101000a81548160ff02191690831515021790555060016000806101000a81548160ff0219169083151502179055505b8260659080519060200190611a49929190612c76565b508160669080519060200190611a60929190612c76565b508015611a825760008060016101000a81548160ff0219169083151502179055505b505050565b6000611aa46001611a96610780565b61226590919063ffffffff16565b905090565b600073ffffffffffffffffffffffffffffffffffffffff168273ffffffffffffffffffffffffffffffffffffffff161415611b19576040517f08c379a0000000000000000000000000000000000000000000000000000000008152600401611b1090613dd0565b60405180910390fd5b611b2281611105565b15611b62576040517f08c379a0000000000000000000000000000000000000000000000000000000008152600401611b5990613c90565b60405180910390fd5b611b6e60008383611f13565b6001606860008473ffffffffffffffffffffffffffffffffffffffff1673ffffffffffffffffffffffffffffffffffffffff1681526020019081526020016000206000828254611bbe9190613fdf565b92505081905550816067600083815260200190815260200160002060006101000a81548173ffffffffffffffffffffffffffffffffffffffff021916908373ffffffffffffffffffffffffffffffffffffffff160217905550808273ffffffffffffffffffffffffffffffffffffffff16600073ffffffffffffffffffffffffffffffffffffffff167fddf252ad1be2c89b69c2b068fc378daa952ba7f163c4a11628f55a4df523b3ef60405160405180910390a45050565b611c8082611105565b611cbf576040517f08c379a0000000000000000000000000000000000000000000000000000000008152600401611cb690613d90565b60405180910390fd5b80609760008481526020019081526020016000209080519060200190611ce6929190612c76565b505050565b611cf6848484611310565b611d028484848461227b565b611d41576040517f08c379a0000000000000000000000000000000000000000000000000000000008152600401611d3890613c70565b60405180910390fd5b50505050565b6060611d5282611105565b611d91576040517f08c379a0000000000000000000000000000000000000000000000000000000008152600401611d8890613df0565b60405180910390fd5b6000609760008481526020019081526020016000208054611db1906141de565b80601f0160208091040260200160405190810160405280929190818152602001828054611ddd906141de565b8015611e2a5780601f10611dff57610100808354040283529160200191611e2a565b820191906000526020600020905b815481529060010190602001808311611e0d57829003601f168201915b505050505090506000611e3b612412565b9050600081511415611e51578192505050611e94565b600082511115611e86578082604051602001611e6e929190613b13565b60405160208183030381529060405292505050611e94565b611e8f84612432565b925050505b919050565b60007f780e9d63000000000000000000000000000000000000000000000000000000007bffffffffffffffffffffffffffffffffffffffffffffffffffffffff1916827bffffffffffffffffffffffffffffffffffffffffffffffffffffffff19161480611f0c5750611f0b826124d9565b5b9050919050565b611f1b610b2e565b15611f5b576040517f08c379a0000000000000000000000000000000000000000000000000000000008152600401611f5290613d10565b60405180910390fd5b611f668383836125bb565b505050565b606060006002836002611f7e9190614066565b611f889190613fdf565b67ffffffffffffffff811115611fc7577f4e487b7100000000000000000000000000000000000000000000000000000000600052604160045260246000fd5b6040519080825280601f01601f191660200182016040528015611ff95781602001600182028036833780820191505090505b5090507f300000000000000000000000000000000000000000000000000000000000000081600081518110612057577f4e487b7100000000000000000000000000000000000000000000000000000000600052603260045260246000fd5b60200101907effffffffffffffffffffffffffffffffffffffffffffffffffffffffffffff1916908160001a9053507f7800000000000000000000000000000000000000000000000000000000000000816001815181106120e1577f4e487b7100000000000000000000000000000000000000000000000000000000600052603260045260246000fd5b60200101907effffffffffffffffffffffffffffffffffffffffffffffffffffffffffffff1916908160001a905350600060018460026121219190614066565b61212b9190613fdf565b90505b6001811115612217577f3031323334353637383961626364656600000000000000000000000000000000600f861660108110612193577f4e487b7100000000000000000000000000000000000000000000000000000000600052603260045260246000fd5b1a60f81b8282815181106121d0577f4e487b7100000000000000000000000000000000000000000000000000000000600052603260045260246000fd5b60200101907effffffffffffffffffffffffffffffffffffffffffffffffffffffffffffff1916908160001a905350600485901c945080612210906141b4565b905061212e565b506000841461225b576040517f08c379a000000000000000000000000000000000000000000000000000000000815260040161225290613c30565b60405180910390fd5b8091505092915050565b600081836122739190613fdf565b905092915050565b600061229c8473ffffffffffffffffffffffffffffffffffffffff166126cf565b15612405578373ffffffffffffffffffffffffffffffffffffffff1663150b7a026122c5611171565b8786866040518563ffffffff1660e01b81526004016122e79493929190613b8c565b602060405180830381600087803b15801561230157600080fd5b505af192505050801561233257506040513d601f19601f8201168201806040525081019061232f91906130f0565b60015b6123b5573d8060008114612362576040519150601f19603f3d011682016040523d82523d6000602084013e612367565b606091505b506000815114156123ad576040517f08c379a00000000000000000000000000000000000000000000000000000000081526004016123a490613c70565b60405180910390fd5b805181602001fd5b63150b7a0260e01b7bffffffffffffffffffffffffffffffffffffffffffffffffffffffff1916817bffffffffffffffffffffffffffffffffffffffffffffffffffffffff19161491505061240a565b600190505b949350505050565b60606040518060600160405280602381526020016143cb60239139905090565b606061243d82611105565b61247c576040517f08c379a000000000000000000000000000000000000000000000000000000000815260040161247390613e50565b60405180910390fd5b6000612486612412565b905060008151116124a657604051806020016040528060008152506124d1565b806124b0846126e2565b6040516020016124c1929190613b13565b6040516020818303038152906040525b915050919050565b60007f80ac58cd000000000000000000000000000000000000000000000000000000007bffffffffffffffffffffffffffffffffffffffffffffffffffffffff1916827bffffffffffffffffffffffffffffffffffffffffffffffffffffffff191614806125a457507f5b5e139f000000000000000000000000000000000000000000000000000000007bffffffffffffffffffffffffffffffffffffffffffffffffffffffff1916827bffffffffffffffffffffffffffffffffffffffffffffffffffffffff1916145b806125b457506125b38261288f565b5b9050919050565b6125c68383836128f9565b600073ffffffffffffffffffffffffffffffffffffffff168373ffffffffffffffffffffffffffffffffffffffff16141561260957612604816128fe565b612648565b8173ffffffffffffffffffffffffffffffffffffffff168373ffffffffffffffffffffffffffffffffffffffff1614612647576126468382612947565b5b5b600073ffffffffffffffffffffffffffffffffffffffff168273ffffffffffffffffffffffffffffffffffffffff16141561268b5761268681612ab4565b6126ca565b8273ffffffffffffffffffffffffffffffffffffffff168273ffffffffffffffffffffffffffffffffffffffff16146126c9576126c88282612bf7565b5b5b505050565b600080823b905060008111915050919050565b6060600082141561272a576040518060400160405280600181526020017f3000000000000000000000000000000000000000000000000000000000000000815250905061288a565b600082905060005b6000821461275c57808061274590614210565b915050600a826127559190614035565b9150612732565b60008167ffffffffffffffff81111561279e577f4e487b7100000000000000000000000000000000000000000000000000000000600052604160045260246000fd5b6040519080825280601f01601f1916602001820160405280156127d05781602001600182028036833780820191505090505b5090505b60008514612883576001826127e991906140c0565b9150600a856127f89190614259565b60306128049190613fdf565b60f81b818381518110612840577f4e487b7100000000000000000000000000000000000000000000000000000000600052603260045260246000fd5b60200101907effffffffffffffffffffffffffffffffffffffffffffffffffffffffffffff1916908160001a905350600a8561287c9190614035565b94506127d4565b8093505050505b919050565b60007f01ffc9a7000000000000000000000000000000000000000000000000000000007bffffffffffffffffffffffffffffffffffffffffffffffffffffffff1916827bffffffffffffffffffffffffffffffffffffffffffffffffffffffff1916149050919050565b505050565b60cb8054905060cc60008381526020019081526020016000208190555060cb81908060018154018082558091505060019003906000526020600020016000909190919091505550565b6000600161295484610bf8565b61295e91906140c0565b9050600060ca6000848152602001908152602001600020549050818114612a4357600060c960008673ffffffffffffffffffffffffffffffffffffffff1673ffffffffffffffffffffffffffffffffffffffff16815260200190815260200160002060008481526020019081526020016000205490508060c960008773ffffffffffffffffffffffffffffffffffffffff1673ffffffffffffffffffffffffffffffffffffffff1681526020019081526020016000206000848152602001908152602001600020819055508160ca600083815260200190815260200160002081905550505b60ca60008481526020019081526020016000206000905560c960008573ffffffffffffffffffffffffffffffffffffffff1673ffffffffffffffffffffffffffffffffffffffff16815260200190815260200160002060008381526020019081526020016000206000905550505050565b6000600160cb80549050612ac891906140c0565b9050600060cc6000848152602001908152602001600020549050600060cb8381548110612b1e577f4e487b7100000000000000000000000000000000000000000000000000000000600052603260045260246000fd5b906000526020600020015490508060cb8381548110612b66577f4e487b7100000000000000000000000000000000000000000000000000000000600052603260045260246000fd5b90600052602060002001819055508160cc60008381526020019081526020016000208190555060cc60008581526020019081526020016000206000905560cb805480612bdb577f4e487b7100000000000000000000000000000000000000000000000000000000600052603160045260246000fd5b6001900381819060005260206000200160009055905550505050565b6000612c0283610bf8565b90508160c960008573ffffffffffffffffffffffffffffffffffffffff1673ffffffffffffffffffffffffffffffffffffffff1681526020019081526020016000206000838152602001908152602001600020819055508060ca600084815260200190815260200160002081905550505050565b828054612c82906141de565b90600052602060002090601f016020900481019282612ca45760008555612ceb565b82601f10612cbd57805160ff1916838001178555612ceb565b82800160010185558215612ceb579182015b82811115612cea578251825591602001919060010190612ccf565b5b509050612cf89190612cfc565b5090565b5b80821115612d15576000816000905550600101612cfd565b5090565b6000612d2c612d2784613f3c565b613f0b565b905082815260208101848484011115612d4457600080fd5b612d4f848285614172565b509392505050565b6000612d6a612d6584613f6c565b613f0b565b905082815260208101848484011115612d8257600080fd5b612d8d848285614172565b509392505050565b600081359050612da481614357565b92915050565b600081359050612db98161436e565b92915050565b600081359050612dce81614385565b92915050565b600081359050612de38161439c565b92915050565b600081519050612df88161439c565b92915050565b600082601f830112612e0f57600080fd5b8135612e1f848260208601612d19565b91505092915050565b600082601f830112612e3957600080fd5b8135612e49848260208601612d57565b91505092915050565b600081359050612e61816143b3565b92915050565b600060208284031215612e7957600080fd5b6000612e8784828501612d95565b91505092915050565b60008060408385031215612ea357600080fd5b6000612eb185828601612d95565b9250506020612ec285828601612d95565b9150509250929050565b600080600060608486031215612ee157600080fd5b6000612eef86828701612d95565b9350506020612f0086828701612d95565b9250506040612f1186828701612e52565b9150509250925092565b60008060008060808587031215612f3157600080fd5b6000612f3f87828801612d95565b9450506020612f5087828801612d95565b9350506040612f6187828801612e52565b925050606085013567ffffffffffffffff811115612f7e57600080fd5b612f8a87828801612dfe565b91505092959194509250565b60008060408385031215612fa957600080fd5b6000612fb785828601612d95565b9250506020612fc885828601612daa565b9150509250929050565b60008060408385031215612fe557600080fd5b6000612ff385828601612d95565b925050602083013567ffffffffffffffff81111561301057600080fd5b61301c85828601612e28565b9150509250929050565b6000806040838503121561303957600080fd5b600061304785828601612d95565b925050602061305885828601612e52565b9150509250929050565b60006020828403121561307457600080fd5b600061308284828501612dbf565b91505092915050565b6000806040838503121561309e57600080fd5b60006130ac85828601612dbf565b92505060206130bd85828601612d95565b9150509250929050565b6000602082840312156130d957600080fd5b60006130e784828501612dd4565b91505092915050565b60006020828403121561310257600080fd5b600061311084828501612de9565b91505092915050565b6000806040838503121561312c57600080fd5b600083013567ffffffffffffffff81111561314657600080fd5b61315285828601612e28565b925050602083013567ffffffffffffffff81111561316f57600080fd5b61317b85828601612e28565b9150509250929050565b60006020828403121561319757600080fd5b60006131a584828501612e52565b91505092915050565b6131b7816140f4565b82525050565b6131c681614106565b82525050565b6131d581614112565b82525050565b60006131e682613f9c565b6131f08185613fb2565b9350613200818560208601614181565b61320981614346565b840191505092915050565b600061321f82613fa7565b6132298185613fc3565b9350613239818560208601614181565b61324281614346565b840191505092915050565b600061325882613fa7565b6132628185613fd4565b9350613272818560208601614181565b80840191505092915050565b600061328b602083613fc3565b91507f537472696e67733a20686578206c656e67746820696e73756666696369656e746000830152602082019050919050565b60006132cb602b83613fc3565b91507f455243373231456e756d657261626c653a206f776e657220696e646578206f7560008301527f74206f6620626f756e64730000000000000000000000000000000000000000006020830152604082019050919050565b6000613331603283613fc3565b91507f4552433732313a207472616e7366657220746f206e6f6e20455243373231526560008301527f63656976657220696d706c656d656e74657200000000000000000000000000006020830152604082019050919050565b6000613397601c83613fc3565b91507f4552433732313a20746f6b656e20616c7265616479206d696e746564000000006000830152602082019050919050565b60006133d7602483613fc3565b91507f4552433732313a207472616e7366657220746f20746865207a65726f2061646460008301527f72657373000000000000000000000000000000000000000000000000000000006020830152604082019050919050565b600061343d601983613fc3565b91507f4552433732313a20617070726f766520746f2063616c6c6572000000000000006000830152602082019050919050565b600061347d602c83613fc3565b91507f4552433732313a206f70657261746f7220717565727920666f72206e6f6e657860008301527f697374656e7420746f6b656e00000000000000000000000000000000000000006020830152604082019050919050565b60006134e3601083613fc3565b91507f5061757361626c653a20706175736564000000000000000000000000000000006000830152602082019050919050565b6000613523603883613fc3565b91507f4552433732313a20617070726f76652063616c6c6572206973206e6f74206f7760008301527f6e6572206e6f7220617070726f76656420666f7220616c6c00000000000000006020830152604082019050919050565b6000613589602a83613fc3565b91507f4552433732313a2062616c616e636520717565727920666f7220746865207a6560008301527f726f2061646472657373000000000000000000000000000000000000000000006020830152604082019050919050565b60006135ef602983613fc3565b91507f4552433732313a206f776e657220717565727920666f72206e6f6e657869737460008301527f656e7420746f6b656e00000000000000000000000000000000000000000000006020830152604082019050919050565b6000613655602e83613fc3565b91507f45524337323155524953746f726167653a2055524920736574206f66206e6f6e60008301527f6578697374656e7420746f6b656e0000000000000000000000000000000000006020830152604082019050919050565b60006136bb602e83613fc3565b91507f496e697469616c697a61626c653a20636f6e747261637420697320616c72656160008301527f647920696e697469616c697a65640000000000000000000000000000000000006020830152604082019050919050565b6000613721602083613fc3565b91507f4552433732313a206d696e7420746f20746865207a65726f20616464726573736000830152602082019050919050565b6000613761603183613fc3565b91507f45524337323155524953746f726167653a2055524920717565727920666f722060008301527f6e6f6e6578697374656e7420746f6b656e0000000000000000000000000000006020830152604082019050919050565b60006137c7602c83613fc3565b91507f4552433732313a20617070726f76656420717565727920666f72206e6f6e657860008301527f697374656e7420746f6b656e00000000000000000000000000000000000000006020830152604082019050919050565b600061382d602983613fc3565b91507f4552433732313a207472616e73666572206f6620746f6b656e2074686174206960008301527f73206e6f74206f776e00000000000000000000000000000000000000000000006020830152604082019050919050565b6000613893602f83613fc3565b91507f4552433732314d657461646174613a2055524920717565727920666f72206e6f60008301527f6e6578697374656e7420746f6b656e00000000000000000000000000000000006020830152604082019050919050565b60006138f9602183613fc3565b91507f4552433732313a20617070726f76616c20746f2063757272656e74206f776e6560008301527f72000000000000000000000000000000000000000000000000000000000000006020830152604082019050919050565b600061395f603183613fc3565b91507f4552433732313a207472616e736665722063616c6c6572206973206e6f74206f60008301527f776e6572206e6f7220617070726f7665640000000000000000000000000000006020830152604082019050919050565b60006139c5602c83613fc3565b91507f455243373231456e756d657261626c653a20676c6f62616c20696e646578206f60008301527f7574206f6620626f756e647300000000000000000000000000000000000000006020830152604082019050919050565b6000613a2b601783613fd4565b91507f416363657373436f6e74726f6c3a206163636f756e74200000000000000000006000830152601782019050919050565b6000613a6b601183613fd4565b91507f206973206d697373696e6720726f6c65200000000000000000000000000000006000830152601182019050919050565b6000613aab602f83613fc3565b91507f416363657373436f6e74726f6c3a2063616e206f6e6c792072656e6f756e636560008301527f20726f6c657320666f722073656c6600000000000000000000000000000000006020830152604082019050919050565b613b0d81614168565b82525050565b6000613b1f828561324d565b9150613b2b828461324d565b91508190509392505050565b6000613b4282613a1e565b9150613b4e828561324d565b9150613b5982613a5e565b9150613b65828461324d565b91508190509392505050565b6000602082019050613b8660008301846131ae565b92915050565b6000608082019050613ba160008301876131ae565b613bae60208301866131ae565b613bbb6040830185613b04565b8181036060830152613bcd81846131db565b905095945050505050565b6000602082019050613bed60008301846131bd565b92915050565b6000602082019050613c0860008301846131cc565b92915050565b60006020820190508181036000830152613c288184613214565b905092915050565b60006020820190508181036000830152613c498161327e565b9050919050565b60006020820190508181036000830152613c69816132be565b9050919050565b60006020820190508181036000830152613c8981613324565b9050919050565b60006020820190508181036000830152613ca98161338a565b9050919050565b60006020820190508181036000830152613cc9816133ca565b9050919050565b60006020820190508181036000830152613ce981613430565b9050919050565b60006020820190508181036000830152613d0981613470565b9050919050565b60006020820190508181036000830152613d29816134d6565b9050919050565b60006020820190508181036000830152613d4981613516565b9050919050565b60006020820190508181036000830152613d698161357c565b9050919050565b60006020820190508181036000830152613d89816135e2565b9050919050565b60006020820190508181036000830152613da981613648565b9050919050565b60006020820190508181036000830152613dc9816136ae565b9050919050565b60006020820190508181036000830152613de981613714565b9050919050565b60006020820190508181036000830152613e0981613754565b9050919050565b60006020820190508181036000830152613e29816137ba565b9050919050565b60006020820190508181036000830152613e4981613820565b9050919050565b60006020820190508181036000830152613e6981613886565b9050919050565b60006020820190508181036000830152613e89816138ec565b9050919050565b60006020820190508181036000830152613ea981613952565b9050919050565b60006020820190508181036000830152613ec9816139b8565b9050919050565b60006020820190508181036000830152613ee981613a9e565b9050919050565b6000602082019050613f056000830184613b04565b92915050565b6000604051905081810181811067ffffffffffffffff82111715613f3257613f31614317565b5b8060405250919050565b600067ffffffffffffffff821115613f5757613f56614317565b5b601f19601f8301169050602081019050919050565b600067ffffffffffffffff821115613f8757613f86614317565b5b601f19601f8301169050602081019050919050565b600081519050919050565b600081519050919050565b600082825260208201905092915050565b600082825260208201905092915050565b600081905092915050565b6000613fea82614168565b9150613ff583614168565b9250827fffffffffffffffffffffffffffffffffffffffffffffffffffffffffffffffff0382111561402a5761402961428a565b5b828201905092915050565b600061404082614168565b915061404b83614168565b92508261405b5761405a6142b9565b5b828204905092915050565b600061407182614168565b915061407c83614168565b9250817fffffffffffffffffffffffffffffffffffffffffffffffffffffffffffffffff04831182151516156140b5576140b461428a565b5b828202905092915050565b60006140cb82614168565b91506140d683614168565b9250828210156140e9576140e861428a565b5b828203905092915050565b60006140ff82614148565b9050919050565b60008115159050919050565b6000819050919050565b60007fffffffff0000000000000000000000000000000000000000000000000000000082169050919050565b600073ffffffffffffffffffffffffffffffffffffffff82169050919050565b6000819050919050565b82818337600083830152505050565b60005b8381101561419f578082015181840152602081019050614184565b838111156141ae576000848401525b50505050565b60006141bf82614168565b915060008214156141d3576141d261428a565b5b600182039050919050565b600060028204905060018216806141f657607f821691505b6020821081141561420a576142096142e8565b5b50919050565b600061421b82614168565b91507fffffffffffffffffffffffffffffffffffffffffffffffffffffffffffffffff82141561424e5761424d61428a565b5b600182019050919050565b600061426482614168565b915061426f83614168565b92508261427f5761427e6142b9565b5b828206905092915050565b7f4e487b7100000000000000000000000000000000000000000000000000000000600052601160045260246000fd5b7f4e487b7100000000000000000000000000000000000000000000000000000000600052601260045260246000fd5b7f4e487b7100000000000000000000000000000000000000000000000000000000600052602260045260246000fd5b7f4e487b7100000000000000000000000000000000000000000000000000000000600052604160045260246000fd5b6000601f19601f8301169050919050565b614360816140f4565b811461436b57600080fd5b50565b61437781614106565b811461438257600080fd5b50565b61438e81614112565b811461439957600080fd5b50565b6143a58161411c565b81146143b057600080fd5b50565b6143bc81614168565b81146143c757600080fd5b5056fe687474703a2f2f6170692e746573746e65742e706172756c612e696f2f61737365742fa2646970667358221220cb3e6b3450b1a561721f663e789f24032e522d6ebbf46ce09e125edc5eaf518464736f6c63430008000033",
  "immutableReferences": {},
  "source": "// SPDX-License-Identifier: MIT\n// https://docs.openzeppelin.com/contracts/4.x/wizard\npragma solidity ^0.8.0;\n\nimport \"./ERC721Tradable.sol\";\nimport \"@openzeppelin/contracts/utils/math/SafeMath.sol\";\nimport \"@openzeppelin/contracts-upgradeable/token/ERC721/ERC721Upgradeable.sol\";\n\nimport \"@openzeppelin/contracts-upgradeable/security/PausableUpgradeable.sol\";\nimport \"@openzeppelin/contracts-upgradeable/access/AccessControlUpgradeable.sol\";\n\nimport \"@openzeppelin/contracts-upgradeable/token/ERC721/extensions/ERC721URIStorageUpgradeable.sol\";\nimport \"@openzeppelin/contracts-upgradeable/token/ERC721/extensions/ERC721EnumerableUpgradeable.sol\";\n\n\ncontract MyNFT is ERC721Upgradeable, ERC721URIStorageUpgradeable, ERC721EnumerableUpgradeable, AccessControlUpgradeable, PausableUpgradeable {\n    using SafeMath for uint256;\n    mapping (address => bool) agent;\n\n    bytes32 public constant BURNER_ROLE = keccak256(\"BURNER_ROLE\");\n\n\n    function initialize(string memory _name, string memory _symbol) external initializer {\n        __ERC721Enumerable_init_unchained();\n        __ERC721URIStorage_init_unchained();\n        __ERC721_init_unchained(_name, _symbol);\n    }\n\n    function _baseURI() internal pure override returns (string memory) {\n        return \"http://api.testnet.parula.io/asset/\";\n    }\n    \n    /**\n     * @dev Mints a token to an address with a tokenURI.\n     * @param _to address of the future owner of the token\n     */\n    function createAsset(address _to, string memory _uri) public {// onlyAgent { //  onlyOwner \n        uint256 newTokenId = _getNextTokenId();\n        _mint(_to, newTokenId);\n        _setTokenURI(newTokenId, _uri);\n\n        // approval\n    }\n\n    function _getNextTokenId() private view returns (uint256) {\n        return totalSupply().add(1);\n    }\n    \n    function _beforeTokenTransfer(address from, address to, uint256 tokenId) internal whenNotPaused override(ERC721EnumerableUpgradeable, ERC721Upgradeable){\n        super._beforeTokenTransfer(from, to, tokenId);\n    }\n\n    function _burn(uint256 tokenId) internal override(ERC721Upgradeable, ERC721URIStorageUpgradeable) {\n        require(hasRole(BURNER_ROLE, _msgSender()));\n        super._burn(tokenId);\n    }\n\n    function tokenURI(uint256 tokenId) public view override(ERC721Upgradeable, ERC721URIStorageUpgradeable) returns (string memory){\n        return super.tokenURI(tokenId);\n    }\n\n    function supportsInterface(bytes4 interfaceId) public view override(ERC721Upgradeable, AccessControlUpgradeable, ERC721EnumerableUpgradeable)\n        returns (bool){\n        return super.supportsInterface(interfaceId);\n    }\n}",
  "sourcePath": "/Users/chang-younglee/harbor/parula-backend/smartcontract/v1.0/contracts/MyNFT.sol",
  "compiler": {
    "name": "solc",
    "version": "0.8.0+commit.c7dfd78e.Emscripten.clang"
  },
  "schemaVersion": "3.4.0",
  "updatedAt": "2021-06-30T02:21:11.943Z",
  "networkType": "ethereum",
  "devdoc": {
    "kind": "dev",
    "methods": {
      "approve(address,uint256)": {
        "details": "See {IERC721-approve}."
      },
      "balanceOf(address)": {
        "details": "See {IERC721-balanceOf}."
      },
      "createAsset(address,string)": {
        "details": "Mints a token to an address with a tokenURI.",
        "params": {
          "_to": "address of the future owner of the token"
        }
      },
      "getApproved(uint256)": {
        "details": "See {IERC721-getApproved}."
      },
      "getRoleAdmin(bytes32)": {
        "details": "Returns the admin role that controls `role`. See {grantRole} and {revokeRole}. To change a role's admin, use {_setRoleAdmin}."
      },
      "grantRole(bytes32,address)": {
        "details": "Grants `role` to `account`. If `account` had not been already granted `role`, emits a {RoleGranted} event. Requirements: - the caller must have ``role``'s admin role."
      },
      "hasRole(bytes32,address)": {
        "details": "Returns `true` if `account` has been granted `role`."
      },
      "isApprovedForAll(address,address)": {
        "details": "See {IERC721-isApprovedForAll}."
      },
      "name()": {
        "details": "See {IERC721Metadata-name}."
      },
      "ownerOf(uint256)": {
        "details": "See {IERC721-ownerOf}."
      },
      "paused()": {
        "details": "Returns true if the contract is paused, and false otherwise."
      },
      "renounceRole(bytes32,address)": {
        "details": "Revokes `role` from the calling account. Roles are often managed via {grantRole} and {revokeRole}: this function's purpose is to provide a mechanism for accounts to lose their privileges if they are compromised (such as when a trusted device is misplaced). If the calling account had been granted `role`, emits a {RoleRevoked} event. Requirements: - the caller must be `account`."
      },
      "revokeRole(bytes32,address)": {
        "details": "Revokes `role` from `account`. If `account` had been granted `role`, emits a {RoleRevoked} event. Requirements: - the caller must have ``role``'s admin role."
      },
      "safeTransferFrom(address,address,uint256)": {
        "details": "See {IERC721-safeTransferFrom}."
      },
      "safeTransferFrom(address,address,uint256,bytes)": {
        "details": "See {IERC721-safeTransferFrom}."
      },
      "setApprovalForAll(address,bool)": {
        "details": "See {IERC721-setApprovalForAll}."
      },
      "symbol()": {
        "details": "See {IERC721Metadata-symbol}."
      },
      "tokenByIndex(uint256)": {
        "details": "See {IERC721Enumerable-tokenByIndex}."
      },
      "tokenOfOwnerByIndex(address,uint256)": {
        "details": "See {IERC721Enumerable-tokenOfOwnerByIndex}."
      },
      "totalSupply()": {
        "details": "See {IERC721Enumerable-totalSupply}."
      },
      "transferFrom(address,address,uint256)": {
        "details": "See {IERC721-transferFrom}."
      }
    },
    "version": 1
  },
  "userdoc": {
    "kind": "user",
    "methods": {},
    "version": 1
  }
}