{
  "contractName": "Paru1155V2",
  "abi": [
    {
      "anonymous": false,
      "inputs": [
        {
          "indexed": true,
          "internalType": "address",
          "name": "account",
          "type": "address"
        },
        {
          "indexed": true,
          "internalType": "address",
          "name": "operator",
          "type": "address"
        },
        {
          "indexed": false,
          "internalType": "bool",
          "name": "approved",
          "type": "bool"
        }
      ],
      "name": "ApprovalForAll",
      "type": "event"
    },
    {
      "anonymous": false,
      "inputs": [
        {
          "indexed": true,
          "internalType": "address",
          "name": "previousOwner",
          "type": "address"
        },
        {
          "indexed": true,
          "internalType": "address",
          "name": "newOwner",
          "type": "address"
        }
      ],
      "name": "OwnershipTransferred",
      "type": "event"
    },
    {
      "anonymous": false,
      "inputs": [
        {
          "indexed": false,
          "internalType": "address",
          "name": "account",
          "type": "address"
        }
      ],
      "name": "Paused",
      "type": "event"
    },
    {
      "anonymous": false,
      "inputs": [
        {
          "indexed": false,
          "internalType": "uint256",
          "name": "tokenId",
          "type": "uint256"
        },
        {
          "indexed": false,
          "internalType": "address",
          "name": "owner",
          "type": "address"
        }
      ],
      "name": "RoyaltyOwnerSet",
      "type": "event"
    },
    {
      "anonymous": false,
      "inputs": [
        {
          "indexed": false,
          "internalType": "uint256",
          "name": "tokenId",
          "type": "uint256"
        },
        {
          "components": [
            {
              "internalType": "address payable",
              "name": "account",
              "type": "address"
            },
            {
              "internalType": "uint96",
              "name": "value",
              "type": "uint96"
            }
          ],
          "indexed": false,
          "internalType": "struct LibPart.Part[]",
          "name": "royalty",
          "type": "tuple[]"
        }
      ],
      "name": "RoyaltySet",
      "type": "event"
    },
    {
      "anonymous": false,
      "inputs": [
        {
          "indexed": true,
          "internalType": "address",
          "name": "operator",
          "type": "address"
        },
        {
          "indexed": true,
          "internalType": "address",
          "name": "from",
          "type": "address"
        },
        {
          "indexed": true,
          "internalType": "address",
          "name": "to",
          "type": "address"
        },
        {
          "indexed": false,
          "internalType": "uint256[]",
          "name": "ids",
          "type": "uint256[]"
        },
        {
          "indexed": false,
          "internalType": "uint256[]",
          "name": "values",
          "type": "uint256[]"
        }
      ],
      "name": "TransferBatch",
      "type": "event"
    },
    {
      "anonymous": false,
      "inputs": [
        {
          "indexed": true,
          "internalType": "address",
          "name": "operator",
          "type": "address"
        },
        {
          "indexed": true,
          "internalType": "address",
          "name": "from",
          "type": "address"
        },
        {
          "indexed": true,
          "internalType": "address",
          "name": "to",
          "type": "address"
        },
        {
          "indexed": false,
          "internalType": "uint256",
          "name": "id",
          "type": "uint256"
        },
        {
          "indexed": false,
          "internalType": "uint256",
          "name": "value",
          "type": "uint256"
        }
      ],
      "name": "TransferSingle",
      "type": "event"
    },
    {
      "anonymous": false,
      "inputs": [
        {
          "indexed": false,
          "internalType": "string",
          "name": "value",
          "type": "string"
        },
        {
          "indexed": true,
          "internalType": "uint256",
          "name": "id",
          "type": "uint256"
        }
      ],
      "name": "URI",
      "type": "event"
    },
    {
      "anonymous": false,
      "inputs": [
        {
          "indexed": false,
          "internalType": "address",
          "name": "account",
          "type": "address"
        }
      ],
      "name": "Unpaused",
      "type": "event"
    },
    {
      "inputs": [
        {
          "internalType": "address",
          "name": "account",
          "type": "address"
        },
        {
          "internalType": "uint256",
          "name": "id",
          "type": "uint256"
        }
      ],
      "name": "balanceOf",
      "outputs": [
        {
          "internalType": "uint256",
          "name": "",
          "type": "uint256"
        }
      ],
      "stateMutability": "view",
      "type": "function"
    },
    {
      "inputs": [
        {
          "internalType": "address[]",
          "name": "accounts",
          "type": "address[]"
        },
        {
          "internalType": "uint256[]",
          "name": "ids",
          "type": "uint256[]"
        }
      ],
      "name": "balanceOfBatch",
      "outputs": [
        {
          "internalType": "uint256[]",
          "name": "",
          "type": "uint256[]"
        }
      ],
      "stateMutability": "view",
      "type": "function"
    },
    {
      "inputs": [],
      "name": "baseURI",
      "outputs": [
        {
          "internalType": "string",
          "name": "",
          "type": "string"
        }
      ],
      "stateMutability": "view",
      "type": "function"
    },
    {
      "inputs": [
        {
          "internalType": "address",
          "name": "account",
          "type": "address"
        },
        {
          "internalType": "uint256",
          "name": "id",
          "type": "uint256"
        },
        {
          "internalType": "uint256",
          "name": "value",
          "type": "uint256"
        }
      ],
      "name": "burn",
      "outputs": [],
      "stateMutability": "nonpayable",
      "type": "function"
    },
    {
      "inputs": [
        {
          "internalType": "address",
          "name": "account",
          "type": "address"
        },
        {
          "internalType": "uint256[]",
          "name": "ids",
          "type": "uint256[]"
        },
        {
          "internalType": "uint256[]",
          "name": "values",
          "type": "uint256[]"
        }
      ],
      "name": "burnBatch",
      "outputs": [],
      "stateMutability": "nonpayable",
      "type": "function"
    },
    {
      "inputs": [
        {
          "internalType": "address",
          "name": "account",
          "type": "address"
        },
        {
          "internalType": "address",
          "name": "operator",
          "type": "address"
        }
      ],
      "name": "isApprovedForAll",
      "outputs": [
        {
          "internalType": "bool",
          "name": "",
          "type": "bool"
        }
      ],
      "stateMutability": "view",
      "type": "function"
    },
    {
      "inputs": [],
      "name": "name",
      "outputs": [
        {
          "internalType": "string",
          "name": "",
          "type": "string"
        }
      ],
      "stateMutability": "view",
      "type": "function"
    },
    {
      "inputs": [],
      "name": "owner",
      "outputs": [
        {
          "internalType": "address",
          "name": "",
          "type": "address"
        }
      ],
      "stateMutability": "view",
      "type": "function"
    },
    {
      "inputs": [],
      "name": "paused",
      "outputs": [
        {
          "internalType": "bool",
          "name": "",
          "type": "bool"
        }
      ],
      "stateMutability": "view",
      "type": "function"
    },
    {
      "inputs": [],
      "name": "renounceOwnership",
      "outputs": [],
      "stateMutability": "nonpayable",
      "type": "function"
    },
    {
      "inputs": [
        {
          "internalType": "address",
          "name": "from",
          "type": "address"
        },
        {
          "internalType": "address",
          "name": "to",
          "type": "address"
        },
        {
          "internalType": "uint256[]",
          "name": "ids",
          "type": "uint256[]"
        },
        {
          "internalType": "uint256[]",
          "name": "amounts",
          "type": "uint256[]"
        },
        {
          "internalType": "bytes",
          "name": "data",
          "type": "bytes"
        }
      ],
      "name": "safeBatchTransferFrom",
      "outputs": [],
      "stateMutability": "nonpayable",
      "type": "function"
    },
    {
      "inputs": [
        {
          "internalType": "address",
          "name": "from",
          "type": "address"
        },
        {
          "internalType": "address",
          "name": "to",
          "type": "address"
        },
        {
          "internalType": "uint256",
          "name": "id",
          "type": "uint256"
        },
        {
          "internalType": "uint256",
          "name": "amount",
          "type": "uint256"
        },
        {
          "internalType": "bytes",
          "name": "data",
          "type": "bytes"
        }
      ],
      "name": "safeTransferFrom",
      "outputs": [],
      "stateMutability": "nonpayable",
      "type": "function"
    },
    {
      "inputs": [
        {
          "internalType": "address",
          "name": "operator",
          "type": "address"
        },
        {
          "internalType": "bool",
          "name": "approved",
          "type": "bool"
        }
      ],
      "name": "setApprovalForAll",
      "outputs": [],
      "stateMutability": "nonpayable",
      "type": "function"
    },
    {
      "inputs": [],
      "name": "symbol",
      "outputs": [
        {
          "internalType": "string",
          "name": "",
          "type": "string"
        }
      ],
      "stateMutability": "view",
      "type": "function"
    },
    {
      "inputs": [
        {
          "internalType": "address",
          "name": "newOwner",
          "type": "address"
        }
      ],
      "name": "transferOwnership",
      "outputs": [],
      "stateMutability": "nonpayable",
      "type": "function"
    },
    {
      "inputs": [
        {
          "internalType": "string",
          "name": "_name",
          "type": "string"
        },
        {
          "internalType": "string",
          "name": "_symbol",
          "type": "string"
        },
        {
          "internalType": "string",
          "name": "baseURI",
          "type": "string"
        }
      ],
      "name": "initialize",
      "outputs": [],
      "stateMutability": "nonpayable",
      "type": "function"
    },
    {
      "inputs": [
        {
          "internalType": "address",
          "name": "account",
          "type": "address"
        },
        {
          "internalType": "uint256",
          "name": "id",
          "type": "uint256"
        },
        {
          "internalType": "uint256",
          "name": "amount",
          "type": "uint256"
        },
        {
          "internalType": "bytes",
          "name": "data",
          "type": "bytes"
        }
      ],
      "name": "mintItem",
      "outputs": [],
      "stateMutability": "nonpayable",
      "type": "function"
    },
    {
      "inputs": [
        {
          "internalType": "address",
          "name": "account",
          "type": "address"
        },
        {
          "internalType": "uint256",
          "name": "id",
          "type": "uint256"
        },
        {
          "internalType": "uint256",
          "name": "amount",
          "type": "uint256"
        },
        {
          "internalType": "bytes",
          "name": "data",
          "type": "bytes"
        },
        {
          "internalType": "address",
          "name": "royaltyOwner",
          "type": "address"
        },
        {
          "components": [
            {
              "internalType": "address payable",
              "name": "account",
              "type": "address"
            },
            {
              "internalType": "uint96",
              "name": "value",
              "type": "uint96"
            }
          ],
          "internalType": "struct LibPart.Part[]",
          "name": "royalties",
          "type": "tuple[]"
        }
      ],
      "name": "mintItemWithRoyalty",
      "outputs": [],
      "stateMutability": "nonpayable",
      "type": "function"
    },
    {
      "inputs": [
        {
          "internalType": "uint256",
          "name": "id",
          "type": "uint256"
        }
      ],
      "name": "ownerOf",
      "outputs": [
        {
          "internalType": "address",
          "name": "",
          "type": "address"
        }
      ],
      "stateMutability": "view",
      "type": "function"
    },
    {
      "inputs": [
        {
          "internalType": "uint256",
          "name": "id",
          "type": "uint256"
        }
      ],
      "name": "uri",
      "outputs": [
        {
          "internalType": "string",
          "name": "",
          "type": "string"
        }
      ],
      "stateMutability": "view",
      "type": "function"
    },
    {
      "inputs": [],
      "name": "pause",
      "outputs": [],
      "stateMutability": "nonpayable",
      "type": "function"
    },
    {
      "inputs": [],
      "name": "unpause",
      "outputs": [],
      "stateMutability": "nonpayable",
      "type": "function"
    },
    {
      "inputs": [
        {
          "internalType": "uint256",
          "name": "id",
          "type": "uint256"
        }
      ],
      "name": "totalSupply",
      "outputs": [
        {
          "internalType": "uint256",
          "name": "",
          "type": "uint256"
        }
      ],
      "stateMutability": "view",
      "type": "function"
    },
    {
      "inputs": [
        {
          "internalType": "uint256",
          "name": "id",
          "type": "uint256"
        }
      ],
      "name": "exists",
      "outputs": [
        {
          "internalType": "bool",
          "name": "",
          "type": "bool"
        }
      ],
      "stateMutability": "view",
      "type": "function"
    },
    {
      "inputs": [
        {
          "internalType": "uint256",
          "name": "tokenId",
          "type": "uint256"
        }
      ],
      "name": "getRoyalties",
      "outputs": [
        {
          "components": [
            {
              "internalType": "address payable",
              "name": "account",
              "type": "address"
            },
            {
              "internalType": "uint96",
              "name": "value",
              "type": "uint96"
            }
          ],
          "internalType": "struct LibPart.Part[]",
          "name": "",
          "type": "tuple[]"
        }
      ],
      "stateMutability": "view",
      "type": "function"
    },
    {
      "inputs": [
        {
          "internalType": "uint256",
          "name": "tokenId",
          "type": "uint256"
        }
      ],
      "name": "getRoyaltyOwner",
      "outputs": [
        {
          "internalType": "address",
          "name": "",
          "type": "address"
        }
      ],
      "stateMutability": "view",
      "type": "function"
    },
    {
      "inputs": [
        {
          "internalType": "uint256",
          "name": "tokenId",
          "type": "uint256"
        },
        {
          "components": [
            {
              "internalType": "address payable",
              "name": "account",
              "type": "address"
            },
            {
              "internalType": "uint96",
              "name": "value",
              "type": "uint96"
            }
          ],
          "internalType": "struct LibPart.Part[]",
          "name": "royalties",
          "type": "tuple[]"
        }
      ],
      "name": "updateRoyalty",
      "outputs": [],
      "stateMutability": "nonpayable",
      "type": "function"
    },
    {
      "inputs": [
        {
          "internalType": "uint256",
          "name": "tokenId",
          "type": "uint256"
        },
        {
          "internalType": "address",
          "name": "to",
          "type": "address"
        }
      ],
      "name": "transferRoyaltyOwnership",
      "outputs": [],
      "stateMutability": "nonpayable",
      "type": "function"
    },
    {
      "inputs": [
        {
          "internalType": "bytes4",
          "name": "interfaceId",
          "type": "bytes4"
        }
      ],
      "name": "supportsInterface",
      "outputs": [
        {
          "internalType": "bool",
          "name": "",
          "type": "bool"
        }
      ],
      "stateMutability": "view",
      "type": "function"
    }
  ],
  "bytecode": "0x608060405234801561001057600080fd5b50615e5980620000216000396000f3fe608060405234801561001057600080fd5b50600436106101ce5760003560e01c8063761d9e0011610104578063bd85b039116100a2578063f242432a11610071578063f242432a1461052b578063f2fde38b14610547578063f3e0f4b714610563578063f5298aca1461057f576101ce565b8063bd85b0391461047f578063e88700f0146104af578063e9013612146104cb578063e985e9c5146104fb576101ce565b806395d89b41116100de57806395d89b41146103f9578063a22cb46514610417578063a6487c5314610433578063bb3bafd61461044f576101ce565b8063761d9e00146103b55780638456cb59146103d15780638da5cb5b146103db576101ce565b80634e1273f4116101715780636352211e1161014b5780636352211e146103415780636b20c454146103715780636c0360eb1461038d578063715018a6146103ab576101ce565b80634e1273f4146102c35780634f558e79146102f35780635c975abb14610323576101ce565b80630e89341c116101ad5780630e89341c146102515780632eb2c2d614610281578063394d3f381461029d5780633f4ba83a146102b9576101ce565b8062fdd58e146101d357806301ffc9a71461020357806306fdde0314610233575b600080fd5b6101ed60048036038101906101e89190614161565b61059b565b6040516101fa919061575b565b60405180910390f35b61021d6004803603810190610218919061438c565b610665565b60405161022a919061539e565b60405180910390f35b61023b6106c6565b60405161024891906153b9565b60405180910390f35b61026b60048036038101906102669190614475565b610755565b60405161027891906153b9565b60405180910390f35b61029b60048036038101906102969190613f58565b610767565b005b6102b760048036038101906102b291906144da565b610808565b005b6102c16108d4565b005b6102dd60048036038101906102d89190614320565b61095a565b6040516102ea9190615345565b60405180910390f35b61030d60048036038101906103089190614475565b610b0b565b60405161031a919061539e565b60405180910390f35b61032b610b1f565b604051610338919061539e565b60405180910390f35b61035b60048036038101906103569190614475565b610b37565b6040516103689190615246565b60405180910390f35b61038b600480360381019061038691906140a6565b610bea565b005b610395610c87565b6040516103a291906153b9565b60405180910390f35b6103b3610d19565b005b6103cf60048036038101906103ca919061449e565b610da1565b005b6103d9610e6d565b005b6103e3610ef3565b6040516103f09190615246565b60405180910390f35b610401610f1d565b60405161040e91906153b9565b60405180910390f35b610431600480360381019061042c9190614125565b610fac565b005b61044d600480360381019061044891906143de565b61112d565b005b61046960048036038101906104649190614475565b611262565b6040516104769190615323565b60405180910390f35b61049960048036038101906104949190614475565b611365565b6040516104a6919061575b565b60405180910390f35b6104c960048036038101906104c491906141ec565b611383565b005b6104e560048036038101906104e09190614475565b611491565b6040516104f29190615246565b60405180910390f35b61051560048036038101906105109190613f1c565b6114cf565b604051610522919061539e565b60405180910390f35b61054560048036038101906105409190614017565b611563565b005b610561600480360381019061055c9190613ef3565b611604565b005b61057d60048036038101906105789190614267565b6116fc565b005b6105996004803603810190610594919061419d565b611777565b005b60008073ffffffffffffffffffffffffffffffffffffffff168373ffffffffffffffffffffffffffffffffffffffff16141561060c576040517f08c379a00000000000000000000000000000000000000000000000000000000081526004016106039061543b565b60405180910390fd5b6097600083815260200190815260200160002060008473ffffffffffffffffffffffffffffffffffffffff1673ffffffffffffffffffffffffffffffffffffffff16815260200190815260200160002054905092915050565b60006344c74bcc60e01b7bffffffffffffffffffffffffffffffffffffffffffffffffffffffff1916827bffffffffffffffffffffffffffffffffffffffffffffffffffffffff191614806106bf57506106be82611814565b5b9050919050565b61019380546106d490615b5d565b80601f016020809104026020016040519081016040528092919081815260200182805461070090615b5d565b801561074d5780601f106107225761010080835404028352916020019161074d565b820191906000526020600020905b81548152906001019060200180831161073057829003601f168201915b505050505081565b6060610760826118f6565b9050919050565b61076f611a21565b73ffffffffffffffffffffffffffffffffffffffff168573ffffffffffffffffffffffffffffffffffffffff1614806107b557506107b4856107af611a21565b6114cf565b5b6107f4576040517f08c379a00000000000000000000000000000000000000000000000000000000081526004016107eb9061555b565b60405180910390fd5b6108018585858585611a29565b5050505050565b61081182611491565b73ffffffffffffffffffffffffffffffffffffffff163373ffffffffffffffffffffffffffffffffffffffff161461087e576040517f08c379a0000000000000000000000000000000000000000000000000000000008152600401610875906155fb565b60405180910390fd5b61088782611d8c565b6108c6576040517f08c379a00000000000000000000000000000000000000000000000000000000081526004016108bd9061573b565b60405180910390fd5b6108d08282611df9565b5050565b6108dc611a21565b73ffffffffffffffffffffffffffffffffffffffff166108fa610ef3565b73ffffffffffffffffffffffffffffffffffffffff1614610950576040517f08c379a00000000000000000000000000000000000000000000000000000000081526004016109479061561b565b60405180910390fd5b610958612118565b565b606081518351146109a0576040517f08c379a00000000000000000000000000000000000000000000000000000000081526004016109979061567b565b60405180910390fd5b6000835167ffffffffffffffff8111156109e3577f4e487b7100000000000000000000000000000000000000000000000000000000600052604160045260246000fd5b604051908082528060200260200182016040528015610a115781602001602082028036833780820191505090505b50905060005b8451811015610b0057610aaa858281518110610a5c577f4e487b7100000000000000000000000000000000000000000000000000000000600052603260045260246000fd5b6020026020010151858381518110610a9d577f4e487b7100000000000000000000000000000000000000000000000000000000600052603260045260246000fd5b602002602001015161059b565b828281518110610ae3577f4e487b7100000000000000000000000000000000000000000000000000000000600052603260045260246000fd5b60200260200101818152505080610af990615b8f565b9050610a17565b508091505092915050565b600080610b1783611365565b119050919050565b600061012f60009054906101000a900460ff16905090565b600080610196600084815260200190815260200160002060009054906101000a900473ffffffffffffffffffffffffffffffffffffffff169050600073ffffffffffffffffffffffffffffffffffffffff168173ffffffffffffffffffffffffffffffffffffffff161415610be1576040517f08c379a0000000000000000000000000000000000000000000000000000000008152600401610bd8906154fb565b60405180910390fd5b80915050919050565b610bf2611a21565b73ffffffffffffffffffffffffffffffffffffffff168373ffffffffffffffffffffffffffffffffffffffff161480610c385750610c3783610c32611a21565b6114cf565b5b610c77576040517f08c379a0000000000000000000000000000000000000000000000000000000008152600401610c6e906154db565b60405180910390fd5b610c828383836121bb565b505050565b606060ca8054610c9690615b5d565b80601f0160208091040260200160405190810160405280929190818152602001828054610cc290615b5d565b8015610d0f5780601f10610ce457610100808354040283529160200191610d0f565b820191906000526020600020905b815481529060010190602001808311610cf257829003601f168201915b5050505050905090565b610d21611a21565b73ffffffffffffffffffffffffffffffffffffffff16610d3f610ef3565b73ffffffffffffffffffffffffffffffffffffffff1614610d95576040517f08c379a0000000000000000000000000000000000000000000000000000000008152600401610d8c9061561b565b60405180910390fd5b610d9f6000612294565b565b610daa82611491565b73ffffffffffffffffffffffffffffffffffffffff163373ffffffffffffffffffffffffffffffffffffffff1614610e17576040517f08c379a0000000000000000000000000000000000000000000000000000000008152600401610e0e9061545b565b60405180910390fd5b610e2082610b0b565b610e5f576040517f08c379a0000000000000000000000000000000000000000000000000000000008152600401610e56906155db565b60405180910390fd5b610e69828261235a565b5050565b610e75611a21565b73ffffffffffffffffffffffffffffffffffffffff16610e93610ef3565b73ffffffffffffffffffffffffffffffffffffffff1614610ee9576040517f08c379a0000000000000000000000000000000000000000000000000000000008152600401610ee09061561b565b60405180910390fd5b610ef161245a565b565b6000603360009054906101000a900473ffffffffffffffffffffffffffffffffffffffff16905090565b6101948054610f2b90615b5d565b80601f0160208091040260200160405190810160405280929190818152602001828054610f5790615b5d565b8015610fa45780601f10610f7957610100808354040283529160200191610fa4565b820191906000526020600020905b815481529060010190602001808311610f8757829003601f168201915b505050505081565b8173ffffffffffffffffffffffffffffffffffffffff16610fcb611a21565b73ffffffffffffffffffffffffffffffffffffffff161415611022576040517f08c379a00000000000000000000000000000000000000000000000000000000081526004016110199061565b565b60405180910390fd5b806098600061102f611a21565b73ffffffffffffffffffffffffffffffffffffffff1673ffffffffffffffffffffffffffffffffffffffff16815260200190815260200160002060008473ffffffffffffffffffffffffffffffffffffffff1673ffffffffffffffffffffffffffffffffffffffff16815260200190815260200160002060006101000a81548160ff0219169083151502179055508173ffffffffffffffffffffffffffffffffffffffff166110dc611a21565b73ffffffffffffffffffffffffffffffffffffffff167f17307eab39ab6107e8899845ad3d59bd9653f200f220920489ca2b5937696c3183604051611121919061539e565b60405180910390a35050565b600060019054906101000a900460ff1680611153575060008054906101000a900460ff16155b611192576040517f08c379a00000000000000000000000000000000000000000000000000000000081526004016111899061557b565b60405180910390fd5b60008060019054906101000a900460ff1615905080156111e2576001600060016101000a81548160ff02191690831515021790555060016000806101000a81548160ff0219169083151502179055505b6111ea6124fe565b611202604051806020016040528060008152506125e7565b61120b826126da565b836101939080519060200190611222929190613a61565b5082610194908051906020019061123a929190613a61565b50801561125c5760008060016101000a81548160ff0219169083151502179055505b50505050565b60606101976000838152602001908152602001600020805480602002602001604051908101604052809291908181526020016000905b8282101561135a578382906000526020600020016040518060400160405290816000820160009054906101000a900473ffffffffffffffffffffffffffffffffffffffff1673ffffffffffffffffffffffffffffffffffffffff1673ffffffffffffffffffffffffffffffffffffffff1681526020016000820160149054906101000a90046bffffffffffffffffffffffff166bffffffffffffffffffffffff166bffffffffffffffffffffffff168152505081526020019060010190611298565b505050509050919050565b60006101956000838152602001908152602001600020549050919050565b6000610196600085815260200190815260200160002060009054906101000a900473ffffffffffffffffffffffffffffffffffffffff169050600073ffffffffffffffffffffffffffffffffffffffff168173ffffffffffffffffffffffffffffffffffffffff161461142b576040517f08c379a00000000000000000000000000000000000000000000000000000000081526004016114229061569b565b60405180910390fd5b611437858585856126f4565b84610196600086815260200190815260200160002060006101000a81548173ffffffffffffffffffffffffffffffffffffffff021916908373ffffffffffffffffffffffffffffffffffffffff1602179055505050505050565b6000610198600083815260200190815260200160002060009054906101000a900473ffffffffffffffffffffffffffffffffffffffff169050919050565b6000609860008473ffffffffffffffffffffffffffffffffffffffff1673ffffffffffffffffffffffffffffffffffffffff16815260200190815260200160002060008373ffffffffffffffffffffffffffffffffffffffff1673ffffffffffffffffffffffffffffffffffffffff16815260200190815260200160002060009054906101000a900460ff16905092915050565b61156b611a21565b73ffffffffffffffffffffffffffffffffffffffff168573ffffffffffffffffffffffffffffffffffffffff1614806115b157506115b0856115ab611a21565b6114cf565b5b6115f0576040517f08c379a00000000000000000000000000000000000000000000000000000000081526004016115e7906154db565b60405180910390fd5b6115fd8585858585612731565b5050505050565b61160c611a21565b73ffffffffffffffffffffffffffffffffffffffff1661162a610ef3565b73ffffffffffffffffffffffffffffffffffffffff1614611680576040517f08c379a00000000000000000000000000000000000000000000000000000000081526004016116779061561b565b60405180910390fd5b600073ffffffffffffffffffffffffffffffffffffffff168173ffffffffffffffffffffffffffffffffffffffff1614156116f0576040517f08c379a00000000000000000000000000000000000000000000000000000000081526004016116e79061547b565b60405180910390fd5b6116f981612294565b50565b611708868686866126f4565b85610196600087815260200190815260200160002060006101000a81548173ffffffffffffffffffffffffffffffffffffffff021916908373ffffffffffffffffffffffffffffffffffffffff160217905550611765858361235a565b61176f8582611df9565b505050505050565b61177f611a21565b73ffffffffffffffffffffffffffffffffffffffff168373ffffffffffffffffffffffffffffffffffffffff1614806117c557506117c4836117bf611a21565b6114cf565b5b611804576040517f08c379a00000000000000000000000000000000000000000000000000000000081526004016117fb906154db565b60405180910390fd5b61180f8383836129b6565b505050565b60007fd9b67a26000000000000000000000000000000000000000000000000000000007bffffffffffffffffffffffffffffffffffffffffffffffffffffffff1916827bffffffffffffffffffffffffffffffffffffffffffffffffffffffff191614806118df57507f0e89341c000000000000000000000000000000000000000000000000000000007bffffffffffffffffffffffffffffffffffffffffffffffffffffffff1916827bffffffffffffffffffffffffffffffffffffffffffffffffffffffff1916145b806118ef57506118ee826129f1565b5b9050919050565b6060600060c96000848152602001908152602001600020805461191890615b5d565b80601f016020809104026020016040519081016040528092919081815260200182805461194490615b5d565b80156119915780601f1061196657610100808354040283529160200191611991565b820191906000526020600020905b81548152906001019060200180831161197457829003601f168201915b5050505050905060006119a2610c87565b90506000815114156119b8578192505050611a1c565b6000825111156119ed5780826040516020016119d5929190615222565b60405160208183030381529060405292505050611a1c565b806119f785612a5b565b604051602001611a08929190615222565b604051602081830303815290604052925050505b919050565b600033905090565b8151835114611a6d576040517f08c379a0000000000000000000000000000000000000000000000000000000008152600401611a64906156bb565b60405180910390fd5b600073ffffffffffffffffffffffffffffffffffffffff168473ffffffffffffffffffffffffffffffffffffffff161415611add576040517f08c379a0000000000000000000000000000000000000000000000000000000008152600401611ad49061553b565b60405180910390fd5b6000611ae7611a21565b9050611af7818787878787612c08565b60005b8451811015611cf7576000858281518110611b3e577f4e487b7100000000000000000000000000000000000000000000000000000000600052603260045260246000fd5b602002602001015190506000858381518110611b83577f4e487b7100000000000000000000000000000000000000000000000000000000600052603260045260246000fd5b6020026020010151905060006097600084815260200190815260200160002060008b73ffffffffffffffffffffffffffffffffffffffff1673ffffffffffffffffffffffffffffffffffffffff16815260200190815260200160002054905081811015611c25576040517f08c379a0000000000000000000000000000000000000000000000000000000008152600401611c1c906155bb565b60405180910390fd5b8181036097600085815260200190815260200160002060008c73ffffffffffffffffffffffffffffffffffffffff1673ffffffffffffffffffffffffffffffffffffffff16815260200190815260200160002081905550816097600085815260200190815260200160002060008b73ffffffffffffffffffffffffffffffffffffffff1673ffffffffffffffffffffffffffffffffffffffff1681526020019081526020016000206000828254611cdc91906159c2565b9250508190555050505080611cf090615b8f565b9050611afa565b508473ffffffffffffffffffffffffffffffffffffffff168673ffffffffffffffffffffffffffffffffffffffff168273ffffffffffffffffffffffffffffffffffffffff167f4a39dc06d4c0dbc64b70af90fd698a233a518aa5d07e595d983b8c0526c8f7fb8787604051611d6e929190615367565b60405180910390a4611d84818787878787612c1e565b505050505050565b60008073ffffffffffffffffffffffffffffffffffffffff16610196600084815260200190815260200160002060009054906101000a900473ffffffffffffffffffffffffffffffffffffffff1673ffffffffffffffffffffffffffffffffffffffff1614159050919050565b61019760008381526020019081526020016000206000611e199190613ae7565b60005b81518110156120da57600073ffffffffffffffffffffffffffffffffffffffff16828281518110611e76577f4e487b7100000000000000000000000000000000000000000000000000000000600052603260045260246000fd5b60200260200101516000015173ffffffffffffffffffffffffffffffffffffffff161415611ed9576040517f08c379a0000000000000000000000000000000000000000000000000000000008152600401611ed09061571b565b60405180910390fd5b6000828281518110611f14577f4e487b7100000000000000000000000000000000000000000000000000000000600052603260045260246000fd5b6020026020010151602001516bffffffffffffffffffffffff16118015611f8e57506101f5828281518110611f72577f4e487b7100000000000000000000000000000000000000000000000000000000600052603260045260246000fd5b6020026020010151602001516bffffffffffffffffffffffff16105b611fcd576040517f08c379a0000000000000000000000000000000000000000000000000000000008152600401611fc49061563b565b60405180910390fd5b610197600084815260200190815260200160002082828151811061201a577f4e487b7100000000000000000000000000000000000000000000000000000000600052603260045260246000fd5b60200260200101519080600181540180825580915050600190039060005260206000200160009091909190915060008201518160000160006101000a81548173ffffffffffffffffffffffffffffffffffffffff021916908373ffffffffffffffffffffffffffffffffffffffff16021790555060208201518160000160146101000a8154816bffffffffffffffffffffffff02191690836bffffffffffffffffffffffff160217905550505080806120d290615b8f565b915050611e1c565b507f2f9e6d5068e3658670ba42ef7783dbe0783b56a3ef5c5492ba3f005ed2b876d8828260405161210c92919061579f565b60405180910390a15050565b612120610b1f565b61215f576040517f08c379a00000000000000000000000000000000000000000000000000000000081526004016121569061541b565b60405180910390fd5b600061012f60006101000a81548160ff0219169083151502179055507f5db9ee0a495bf2e6ff9c91a7834c1ba4fdd244a5e8aa4e537bd38aeae4b073aa6121a4611a21565b6040516121b19190615246565b60405180910390a1565b6121c6838383612dee565b60005b825181101561228e5781818151811061220b577f4e487b7100000000000000000000000000000000000000000000000000000000600052603260045260246000fd5b60200260200101516101956000858481518110612251577f4e487b7100000000000000000000000000000000000000000000000000000000600052603260045260246000fd5b6020026020010151815260200190815260200160002060008282546122769190615a49565b925050819055508061228790615b8f565b90506121c9565b50505050565b6000603360009054906101000a900473ffffffffffffffffffffffffffffffffffffffff16905081603360006101000a81548173ffffffffffffffffffffffffffffffffffffffff021916908373ffffffffffffffffffffffffffffffffffffffff1602179055508173ffffffffffffffffffffffffffffffffffffffff168173ffffffffffffffffffffffffffffffffffffffff167f8be0079c531659141344cd1fd0a4f28419497f9722a3daafe3b4186f6b6457e060405160405180910390a35050565b600073ffffffffffffffffffffffffffffffffffffffff168173ffffffffffffffffffffffffffffffffffffffff1614156123ca576040517f08c379a00000000000000000000000000000000000000000000000000000000081526004016123c1906156db565b60405180910390fd5b80610198600084815260200190815260200160002060006101000a81548173ffffffffffffffffffffffffffffffffffffffff021916908373ffffffffffffffffffffffffffffffffffffffff1602179055507ff1d6a825520beb1d7157ebd9563c24c6ed3813e9ddda7bb9678070c5195e43dc828260405161244e929190615776565b60405180910390a15050565b612462610b1f565b156124a2576040517f08c379a00000000000000000000000000000000000000000000000000000000081526004016124999061551b565b60405180910390fd5b600161012f60006101000a81548160ff0219169083151502179055507f62e78cea01bee320cd4e420270b5ea74000d11b0c9f74754ebdbfc544b05a2586124e7611a21565b6040516124f49190615246565b60405180910390a1565b600060019054906101000a900460ff1680612524575060008054906101000a900460ff16155b612563576040517f08c379a000000000000000000000000000000000000000000000000000000000815260040161255a9061557b565b60405180910390fd5b60008060019054906101000a900460ff1615905080156125b3576001600060016101000a81548160ff02191690831515021790555060016000806101000a81548160ff0219169083151502179055505b6125c36125be611a21565b612294565b80156125e45760008060016101000a81548160ff0219169083151502179055505b50565b600060019054906101000a900460ff168061260d575060008054906101000a900460ff16155b61264c576040517f08c379a00000000000000000000000000000000000000000000000000000000081526004016126439061557b565b60405180910390fd5b60008060019054906101000a900460ff16159050801561269c576001600060016101000a81548160ff02191690831515021790555060016000806101000a81548160ff0219169083151502179055505b6126a46130ed565b6126ac6131c6565b6126b58261329f565b80156126d65760008060016101000a81548160ff0219169083151502179055505b5050565b8060ca90805190602001906126f0929190613a61565b5050565b61270084848484613382565b816101956000858152602001908152602001600020600082825461272491906159c2565b9250508190555050505050565b600073ffffffffffffffffffffffffffffffffffffffff168473ffffffffffffffffffffffffffffffffffffffff1614156127a1576040517f08c379a00000000000000000000000000000000000000000000000000000000081526004016127989061553b565b60405180910390fd5b60006127ab611a21565b90506127cb8187876127bc88613519565b6127c588613519565b87612c08565b60006097600086815260200190815260200160002060008873ffffffffffffffffffffffffffffffffffffffff1673ffffffffffffffffffffffffffffffffffffffff16815260200190815260200160002054905083811015612863576040517f08c379a000000000000000000000000000000000000000000000000000000000815260040161285a906155bb565b60405180910390fd5b8381036097600087815260200190815260200160002060008973ffffffffffffffffffffffffffffffffffffffff1673ffffffffffffffffffffffffffffffffffffffff16815260200190815260200160002081905550836097600087815260200190815260200160002060008873ffffffffffffffffffffffffffffffffffffffff1673ffffffffffffffffffffffffffffffffffffffff168152602001908152602001600020600082825461291a91906159c2565b925050819055508573ffffffffffffffffffffffffffffffffffffffff168773ffffffffffffffffffffffffffffffffffffffff168373ffffffffffffffffffffffffffffffffffffffff167fc3d58168c5ae7397731d063d5bbf3d657854427343f4c083240f7aacaa2d0f6288886040516129979291906157cf565b60405180910390a46129ad8288888888886135df565b50505050505050565b6129c18383836137af565b80610195600084815260200190815260200160002060008282546129e59190615a49565b92505081905550505050565b60007f01ffc9a7000000000000000000000000000000000000000000000000000000007bffffffffffffffffffffffffffffffffffffffffffffffffffffffff1916827bffffffffffffffffffffffffffffffffffffffffffffffffffffffff1916149050919050565b60606000821415612aa3576040518060400160405280600181526020017f30000000000000000000000000000000000000000000000000000000000000008152509050612c03565b600082905060005b60008214612ad5578080612abe90615b8f565b915050600a82612ace9190615a18565b9150612aab565b60008167ffffffffffffffff811115612b17577f4e487b7100000000000000000000000000000000000000000000000000000000600052604160045260246000fd5b6040519080825280601f01601f191660200182016040528015612b495781602001600182028036833780820191505090505b5090505b60008514612bfc57600182612b629190615a49565b9150600a85612b719190615bd8565b6030612b7d91906159c2565b60f81b818381518110612bb9577f4e487b7100000000000000000000000000000000000000000000000000000000600052603260045260246000fd5b60200101907effffffffffffffffffffffffffffffffffffffffffffffffffffffffffffff1916908160001a905350600a85612bf59190615a18565b9450612b4d565b8093505050505b919050565b612c168686868686866139ce565b505050505050565b612c3d8473ffffffffffffffffffffffffffffffffffffffff16613a2c565b15612de6578373ffffffffffffffffffffffffffffffffffffffff1663bc197c8187878686866040518663ffffffff1660e01b8152600401612c83959493929190615261565b602060405180830381600087803b158015612c9d57600080fd5b505af1925050508015612cce57506040513d601f19601f82011682018060405250810190612ccb91906143b5565b60015b612d5d57612cda615ce3565b80612ce55750612d22565b806040517f08c379a0000000000000000000000000000000000000000000000000000000008152600401612d1991906153b9565b60405180910390fd5b6040517f08c379a0000000000000000000000000000000000000000000000000000000008152600401612d54906153db565b60405180910390fd5b63bc197c8160e01b7bffffffffffffffffffffffffffffffffffffffffffffffffffffffff1916817bffffffffffffffffffffffffffffffffffffffffffffffffffffffff191614612de4576040517f08c379a0000000000000000000000000000000000000000000000000000000008152600401612ddb906153fb565b60405180910390fd5b505b505050505050565b600073ffffffffffffffffffffffffffffffffffffffff168373ffffffffffffffffffffffffffffffffffffffff161415612e5e576040517f08c379a0000000000000000000000000000000000000000000000000000000008152600401612e559061559b565b60405180910390fd5b8051825114612ea2576040517f08c379a0000000000000000000000000000000000000000000000000000000008152600401612e99906156bb565b60405180910390fd5b6000612eac611a21565b9050612ecc81856000868660405180602001604052806000815250612c08565b60005b8351811015613067576000848281518110612f13577f4e487b7100000000000000000000000000000000000000000000000000000000600052603260045260246000fd5b602002602001015190506000848381518110612f58577f4e487b7100000000000000000000000000000000000000000000000000000000600052603260045260246000fd5b6020026020010151905060006097600084815260200190815260200160002060008973ffffffffffffffffffffffffffffffffffffffff1673ffffffffffffffffffffffffffffffffffffffff16815260200190815260200160002054905081811015612ffa576040517f08c379a0000000000000000000000000000000000000000000000000000000008152600401612ff19061549b565b60405180910390fd5b8181036097600085815260200190815260200160002060008a73ffffffffffffffffffffffffffffffffffffffff1673ffffffffffffffffffffffffffffffffffffffff16815260200190815260200160002081905550505050808061305f90615b8f565b915050612ecf565b50600073ffffffffffffffffffffffffffffffffffffffff168473ffffffffffffffffffffffffffffffffffffffff168273ffffffffffffffffffffffffffffffffffffffff167f4a39dc06d4c0dbc64b70af90fd698a233a518aa5d07e595d983b8c0526c8f7fb86866040516130df929190615367565b60405180910390a450505050565b600060019054906101000a900460ff1680613113575060008054906101000a900460ff16155b613152576040517f08c379a00000000000000000000000000000000000000000000000000000000081526004016131499061557b565b60405180910390fd5b60008060019054906101000a900460ff1615905080156131a2576001600060016101000a81548160ff02191690831515021790555060016000806101000a81548160ff0219169083151502179055505b80156131c35760008060016101000a81548160ff0219169083151502179055505b50565b600060019054906101000a900460ff16806131ec575060008054906101000a900460ff16155b61322b576040517f08c379a00000000000000000000000000000000000000000000000000000000081526004016132229061557b565b60405180910390fd5b60008060019054906101000a900460ff16159050801561327b576001600060016101000a81548160ff02191690831515021790555060016000806101000a81548160ff0219169083151502179055505b801561329c5760008060016101000a81548160ff0219169083151502179055505b50565b600060019054906101000a900460ff16806132c5575060008054906101000a900460ff16155b613304576040517f08c379a00000000000000000000000000000000000000000000000000000000081526004016132fb9061557b565b60405180910390fd5b60008060019054906101000a900460ff161590508015613354576001600060016101000a81548160ff02191690831515021790555060016000806101000a81548160ff0219169083151502179055505b61335d82613a3f565b801561337e5760008060016101000a81548160ff0219169083151502179055505b5050565b600073ffffffffffffffffffffffffffffffffffffffff168473ffffffffffffffffffffffffffffffffffffffff1614156133f2576040517f08c379a00000000000000000000000000000000000000000000000000000000081526004016133e9906156fb565b60405180910390fd5b60006133fc611a21565b905061341d8160008761340e88613519565b61341788613519565b87612c08565b826097600086815260200190815260200160002060008773ffffffffffffffffffffffffffffffffffffffff1673ffffffffffffffffffffffffffffffffffffffff168152602001908152602001600020600082825461347d91906159c2565b925050819055508473ffffffffffffffffffffffffffffffffffffffff16600073ffffffffffffffffffffffffffffffffffffffff168273ffffffffffffffffffffffffffffffffffffffff167fc3d58168c5ae7397731d063d5bbf3d657854427343f4c083240f7aacaa2d0f6287876040516134fb9291906157cf565b60405180910390a4613512816000878787876135df565b5050505050565b60606000600167ffffffffffffffff81111561355e577f4e487b7100000000000000000000000000000000000000000000000000000000600052604160045260246000fd5b60405190808252806020026020018201604052801561358c5781602001602082028036833780820191505090505b50905082816000815181106135ca577f4e487b7100000000000000000000000000000000000000000000000000000000600052603260045260246000fd5b60200260200101818152505080915050919050565b6135fe8473ffffffffffffffffffffffffffffffffffffffff16613a2c565b156137a7578373ffffffffffffffffffffffffffffffffffffffff1663f23a6e6187878686866040518663ffffffff1660e01b81526004016136449594939291906152c9565b602060405180830381600087803b15801561365e57600080fd5b505af192505050801561368f57506040513d601f19601f8201168201806040525081019061368c91906143b5565b60015b61371e5761369b615ce3565b806136a657506136e3565b806040517f08c379a00000000000000000000000000000000000000000000000000000000081526004016136da91906153b9565b60405180910390fd5b6040517f08c379a0000000000000000000000000000000000000000000000000000000008152600401613715906153db565b60405180910390fd5b63f23a6e6160e01b7bffffffffffffffffffffffffffffffffffffffffffffffffffffffff1916817bffffffffffffffffffffffffffffffffffffffffffffffffffffffff1916146137a5576040517f08c379a000000000000000000000000000000000000000000000000000000000815260040161379c906153fb565b60405180910390fd5b505b505050505050565b600073ffffffffffffffffffffffffffffffffffffffff168373ffffffffffffffffffffffffffffffffffffffff16141561381f576040517f08c379a00000000000000000000000000000000000000000000000000000000081526004016138169061559b565b60405180910390fd5b6000613829611a21565b90506138598185600061383b87613519565b61384487613519565b60405180602001604052806000815250612c08565b60006097600085815260200190815260200160002060008673ffffffffffffffffffffffffffffffffffffffff1673ffffffffffffffffffffffffffffffffffffffff168152602001908152602001600020549050828110156138f1576040517f08c379a00000000000000000000000000000000000000000000000000000000081526004016138e89061549b565b60405180910390fd5b8281036097600086815260200190815260200160002060008773ffffffffffffffffffffffffffffffffffffffff1673ffffffffffffffffffffffffffffffffffffffff16815260200190815260200160002081905550600073ffffffffffffffffffffffffffffffffffffffff168573ffffffffffffffffffffffffffffffffffffffff168373ffffffffffffffffffffffffffffffffffffffff167fc3d58168c5ae7397731d063d5bbf3d657854427343f4c083240f7aacaa2d0f6287876040516139bf9291906157cf565b60405180910390a45050505050565b6139dc868686868686613a59565b6139e4610b1f565b15613a24576040517f08c379a0000000000000000000000000000000000000000000000000000000008152600401613a1b906154bb565b60405180910390fd5b505050505050565b600080823b905060008111915050919050565b8060999080519060200190613a55929190613a61565b5050565b505050505050565b828054613a6d90615b5d565b90600052602060002090601f016020900481019282613a8f5760008555613ad6565b82601f10613aa857805160ff1916838001178555613ad6565b82800160010185558215613ad6579182015b82811115613ad5578251825591602001919060010190613aba565b5b509050613ae39190613b08565b5090565b5080546000825590600052602060002090810190613b059190613b25565b50565b5b80821115613b21576000816000905550600101613b09565b5090565b5b80821115613b7e57600080820160006101000a81549073ffffffffffffffffffffffffffffffffffffffff02191690556000820160146101000a8154906bffffffffffffffffffffffff021916905550600101613b26565b5090565b6000613b95613b9084615829565b6157f8565b90508083825260208201905082856020860282011115613bb457600080fd5b60005b85811015613be45781613bca8882613d42565b845260208401935060208301925050600181019050613bb7565b5050509392505050565b6000613c01613bfc84615855565b6157f8565b90508083825260208201905082856040860282011115613c2057600080fd5b60005b85811015613c505781613c368882613e7d565b845260208401935060408301925050600181019050613c23565b5050509392505050565b6000613c6d613c6884615881565b6157f8565b90508083825260208201905082856020860282011115613c8c57600080fd5b60005b85811015613cbc5781613ca28882613ec9565b845260208401935060208301925050600181019050613c8f565b5050509392505050565b6000613cd9613cd4846158ad565b6157f8565b905082815260208101848484011115613cf157600080fd5b613cfc848285615b1b565b509392505050565b6000613d17613d12846158dd565b6157f8565b905082815260208101848484011115613d2f57600080fd5b613d3a848285615b1b565b509392505050565b600081359050613d5181615d99565b92915050565b600081359050613d6681615db0565b92915050565b600082601f830112613d7d57600080fd5b8135613d8d848260208601613b82565b91505092915050565b600082601f830112613da757600080fd5b8135613db7848260208601613bee565b91505092915050565b600082601f830112613dd157600080fd5b8135613de1848260208601613c5a565b91505092915050565b600081359050613df981615dc7565b92915050565b600081359050613e0e81615dde565b92915050565b600081519050613e2381615dde565b92915050565b600082601f830112613e3a57600080fd5b8135613e4a848260208601613cc6565b91505092915050565b600082601f830112613e6457600080fd5b8135613e74848260208601613d04565b91505092915050565b600060408284031215613e8f57600080fd5b613e9960406157f8565b90506000613ea984828501613d57565b6000830152506020613ebd84828501613ede565b60208301525092915050565b600081359050613ed881615df5565b92915050565b600081359050613eed81615e0c565b92915050565b600060208284031215613f0557600080fd5b6000613f1384828501613d42565b91505092915050565b60008060408385031215613f2f57600080fd5b6000613f3d85828601613d42565b9250506020613f4e85828601613d42565b9150509250929050565b600080600080600060a08688031215613f7057600080fd5b6000613f7e88828901613d42565b9550506020613f8f88828901613d42565b945050604086013567ffffffffffffffff811115613fac57600080fd5b613fb888828901613dc0565b935050606086013567ffffffffffffffff811115613fd557600080fd5b613fe188828901613dc0565b925050608086013567ffffffffffffffff811115613ffe57600080fd5b61400a88828901613e29565b9150509295509295909350565b600080600080600060a0868803121561402f57600080fd5b600061403d88828901613d42565b955050602061404e88828901613d42565b945050604061405f88828901613ec9565b935050606061407088828901613ec9565b925050608086013567ffffffffffffffff81111561408d57600080fd5b61409988828901613e29565b9150509295509295909350565b6000806000606084860312156140bb57600080fd5b60006140c986828701613d42565b935050602084013567ffffffffffffffff8111156140e657600080fd5b6140f286828701613dc0565b925050604084013567ffffffffffffffff81111561410f57600080fd5b61411b86828701613dc0565b9150509250925092565b6000806040838503121561413857600080fd5b600061414685828601613d42565b925050602061415785828601613dea565b9150509250929050565b6000806040838503121561417457600080fd5b600061418285828601613d42565b925050602061419385828601613ec9565b9150509250929050565b6000806000606084860312156141b257600080fd5b60006141c086828701613d42565b93505060206141d186828701613ec9565b92505060406141e286828701613ec9565b9150509250925092565b6000806000806080858703121561420257600080fd5b600061421087828801613d42565b945050602061422187828801613ec9565b935050604061423287828801613ec9565b925050606085013567ffffffffffffffff81111561424f57600080fd5b61425b87828801613e29565b91505092959194509250565b60008060008060008060c0878903121561428057600080fd5b600061428e89828a01613d42565b965050602061429f89828a01613ec9565b95505060406142b089828a01613ec9565b945050606087013567ffffffffffffffff8111156142cd57600080fd5b6142d989828a01613e29565b93505060806142ea89828a01613d42565b92505060a087013567ffffffffffffffff81111561430757600080fd5b61431389828a01613d96565b9150509295509295509295565b6000806040838503121561433357600080fd5b600083013567ffffffffffffffff81111561434d57600080fd5b61435985828601613d6c565b925050602083013567ffffffffffffffff81111561437657600080fd5b61438285828601613dc0565b9150509250929050565b60006020828403121561439e57600080fd5b60006143ac84828501613dff565b91505092915050565b6000602082840312156143c757600080fd5b60006143d584828501613e14565b91505092915050565b6000806000606084860312156143f357600080fd5b600084013567ffffffffffffffff81111561440d57600080fd5b61441986828701613e53565b935050602084013567ffffffffffffffff81111561443657600080fd5b61444286828701613e53565b925050604084013567ffffffffffffffff81111561445f57600080fd5b61446b86828701613e53565b9150509250925092565b60006020828403121561448757600080fd5b600061449584828501613ec9565b91505092915050565b600080604083850312156144b157600080fd5b60006144bf85828601613ec9565b92505060206144d085828601613d42565b9150509250929050565b600080604083850312156144ed57600080fd5b60006144fb85828601613ec9565b925050602083013567ffffffffffffffff81111561451857600080fd5b61452485828601613d96565b9150509250929050565b600061453a83836151c6565b60408301905092915050565b600061455283836151f5565b60208301905092915050565b61456781615a8f565b82525050565b61457681615a7d565b82525050565b60006145878261592d565b6145918185615973565b935061459c8361590d565b8060005b838110156145cd5781516145b4888261452e565b97506145bf83615959565b9250506001810190506145a0565b5085935050505092915050565b60006145e582615938565b6145ef8185615984565b93506145fa8361591d565b8060005b8381101561462b5781516146128882614546565b975061461d83615966565b9250506001810190506145fe565b5085935050505092915050565b61464181615aa1565b82525050565b600061465282615943565b61465c8185615995565b935061466c818560208601615b2a565b61467581615cc5565b840191505092915050565b600061468b8261594e565b61469581856159a6565b93506146a5818560208601615b2a565b6146ae81615cc5565b840191505092915050565b60006146c48261594e565b6146ce81856159b7565b93506146de818560208601615b2a565b80840191505092915050565b60006146f76034836159a6565b91507f455243313135353a207472616e7366657220746f206e6f6e204552433131353560008301527f526563656976657220696d706c656d656e7465720000000000000000000000006020830152604082019050919050565b600061475d6028836159a6565b91507f455243313135353a204552433131353552656365697665722072656a6563746560008301527f6420746f6b656e730000000000000000000000000000000000000000000000006020830152604082019050919050565b60006147c36014836159a6565b91507f5061757361626c653a206e6f74207061757365640000000000000000000000006000830152602082019050919050565b6000614803602b836159a6565b91507f455243313135353a2062616c616e636520717565727920666f7220746865207a60008301527f65726f20616464726573730000000000000000000000000000000000000000006020830152604082019050919050565b60006148696045836159a6565b91507f50415255313135353a207472616e73666572526f79616c74794f776e6572736860008301527f6970206d6573736167652073656e646572206973206e6f7420726f79616c747960208301527f4f776e65720000000000000000000000000000000000000000000000000000006040830152606082019050919050565b60006148f56026836159a6565b91507f4f776e61626c653a206e6577206f776e657220697320746865207a65726f206160008301527f64647265737300000000000000000000000000000000000000000000000000006020830152604082019050919050565b600061495b6024836159a6565b91507f455243313135353a206275726e20616d6f756e7420657863656564732062616c60008301527f616e6365000000000000000000000000000000000000000000000000000000006020830152604082019050919050565b60006149c1602c836159a6565b91507f455243313135355061757361626c653a20746f6b656e207472616e736665722060008301527f7768696c652070617573656400000000000000000000000000000000000000006020830152604082019050919050565b6000614a276029836159a6565b91507f455243313135353a2063616c6c6572206973206e6f74206f776e6572206e6f7260008301527f20617070726f76656400000000000000000000000000000000000000000000006020830152604082019050919050565b6000614a8d602a836159a6565b91507f455243313135353a206f776e657220717565727920666f72206e6f6e6578697360008301527f74656e7420746f6b656e000000000000000000000000000000000000000000006020830152604082019050919050565b6000614af36010836159a6565b91507f5061757361626c653a20706175736564000000000000000000000000000000006000830152602082019050919050565b6000614b336025836159a6565b91507f455243313135353a207472616e7366657220746f20746865207a65726f20616460008301527f64726573730000000000000000000000000000000000000000000000000000006020830152604082019050919050565b6000614b996032836159a6565b91507f455243313135353a207472616e736665722063616c6c6572206973206e6f742060008301527f6f776e6572206e6f7220617070726f76656400000000000000000000000000006020830152604082019050919050565b6000614bff602e836159a6565b91507f496e697469616c697a61626c653a20636f6e747261637420697320616c72656160008301527f647920696e697469616c697a65640000000000000000000000000000000000006020830152604082019050919050565b6000614c656023836159a6565b91507f455243313135353a206275726e2066726f6d20746865207a65726f206164647260008301527f65737300000000000000000000000000000000000000000000000000000000006020830152604082019050919050565b6000614ccb602a836159a6565b91507f455243313135353a20696e73756666696369656e742062616c616e636520666f60008301527f72207472616e73666572000000000000000000000000000000000000000000006020830152604082019050919050565b6000614d31603e836159a6565b91507f50415255313135353a207472616e73666572526f79616c74794f776e6572736860008301527f697020717565727920666f72206e6f6e6578697374656e7420746f6b656e00006020830152604082019050919050565b6000614d97603a836159a6565b91507f50415255313135353a20757064617465526f79616c7479206d6573736167652060008301527f73656e646572206973206e6f7420726f79616c74794f776e65720000000000006020830152604082019050919050565b6000614dfd6020836159a6565b91507f4f776e61626c653a2063616c6c6572206973206e6f7420746865206f776e65726000830152602082019050919050565b6000614e3d603f836159a6565b91507f50415255313135353a205f736574526f79616c746965732c20526f79616c747960008301527f2076616c75652073686f756c642062652072616e676520696e20317e353030006020830152604082019050919050565b6000614ea36029836159a6565b91507f455243313135353a2073657474696e6720617070726f76616c2073746174757360008301527f20666f722073656c6600000000000000000000000000000000000000000000006020830152604082019050919050565b6000614f096029836159a6565b91507f455243313135353a206163636f756e747320616e6420696473206c656e67746860008301527f206d69736d6174636800000000000000000000000000000000000000000000006020830152604082019050919050565b6000614f6f6035836159a6565b91507f50415255313135353a204974206973206e6f7420706f737369626c6520746f2060008301527f6973737565206164646974696f6e616c204e46547300000000000000000000006020830152604082019050919050565b6000614fd56028836159a6565b91507f455243313135353a2069647320616e6420616d6f756e7473206c656e6774682060008301527f6d69736d617463680000000000000000000000000000000000000000000000006020830152604082019050919050565b600061503b6037836159a6565b91507f50415255313135353a205f736574526f79616c74794f776e65722c205265636960008301527f7069656e742073686f756c642062652070726573656e740000000000000000006020830152604082019050919050565b60006150a16021836159a6565b91507f455243313135353a206d696e7420746f20746865207a65726f2061646472657360008301527f73000000000000000000000000000000000000000000000000000000000000006020830152604082019050919050565b60006151076034836159a6565b91507f50415255313135353a205f736574526f79616c746965732c205265636970696560008301527f6e742073686f756c642062652070726573656e740000000000000000000000006020830152604082019050919050565b600061516d6033836159a6565b91507f50415255313135353a20757064617465526f79616c747920717565727920666f60008301527f72206e6f6e6578697374656e7420746f6b656e000000000000000000000000006020830152604082019050919050565b6040820160008201516151dc600085018261455e565b5060208201516151ef6020850182615213565b50505050565b6151fe81615af9565b82525050565b61520d81615af9565b82525050565b61521c81615b03565b82525050565b600061522e82856146b9565b915061523a82846146b9565b91508190509392505050565b600060208201905061525b600083018461456d565b92915050565b600060a082019050615276600083018861456d565b615283602083018761456d565b818103604083015261529581866145da565b905081810360608301526152a981856145da565b905081810360808301526152bd8184614647565b90509695505050505050565b600060a0820190506152de600083018861456d565b6152eb602083018761456d565b6152f86040830186615204565b6153056060830185615204565b81810360808301526153178184614647565b90509695505050505050565b6000602082019050818103600083015261533d818461457c565b905092915050565b6000602082019050818103600083015261535f81846145da565b905092915050565b6000604082019050818103600083015261538181856145da565b9050818103602083015261539581846145da565b90509392505050565b60006020820190506153b36000830184614638565b92915050565b600060208201905081810360008301526153d38184614680565b905092915050565b600060208201905081810360008301526153f4816146ea565b9050919050565b6000602082019050818103600083015261541481614750565b9050919050565b60006020820190508181036000830152615434816147b6565b9050919050565b60006020820190508181036000830152615454816147f6565b9050919050565b600060208201905081810360008301526154748161485c565b9050919050565b60006020820190508181036000830152615494816148e8565b9050919050565b600060208201905081810360008301526154b48161494e565b9050919050565b600060208201905081810360008301526154d4816149b4565b9050919050565b600060208201905081810360008301526154f481614a1a565b9050919050565b6000602082019050818103600083015261551481614a80565b9050919050565b6000602082019050818103600083015261553481614ae6565b9050919050565b6000602082019050818103600083015261555481614b26565b9050919050565b6000602082019050818103600083015261557481614b8c565b9050919050565b6000602082019050818103600083015261559481614bf2565b9050919050565b600060208201905081810360008301526155b481614c58565b9050919050565b600060208201905081810360008301526155d481614cbe565b9050919050565b600060208201905081810360008301526155f481614d24565b9050919050565b6000602082019050818103600083015261561481614d8a565b9050919050565b6000602082019050818103600083015261563481614df0565b9050919050565b6000602082019050818103600083015261565481614e30565b9050919050565b6000602082019050818103600083015261567481614e96565b9050919050565b6000602082019050818103600083015261569481614efc565b9050919050565b600060208201905081810360008301526156b481614f62565b9050919050565b600060208201905081810360008301526156d481614fc8565b9050919050565b600060208201905081810360008301526156f48161502e565b9050919050565b6000602082019050818103600083015261571481615094565b9050919050565b60006020820190508181036000830152615734816150fa565b9050919050565b6000602082019050818103600083015261575481615160565b9050919050565b60006020820190506157706000830184615204565b92915050565b600060408201905061578b6000830185615204565b615798602083018461456d565b9392505050565b60006040820190506157b46000830185615204565b81810360208301526157c6818461457c565b90509392505050565b60006040820190506157e46000830185615204565b6157f16020830184615204565b9392505050565b6000604051905081810181811067ffffffffffffffff8211171561581f5761581e615c96565b5b8060405250919050565b600067ffffffffffffffff82111561584457615843615c96565b5b602082029050602081019050919050565b600067ffffffffffffffff8211156158705761586f615c96565b5b602082029050602081019050919050565b600067ffffffffffffffff82111561589c5761589b615c96565b5b602082029050602081019050919050565b600067ffffffffffffffff8211156158c8576158c7615c96565b5b601f19601f8301169050602081019050919050565b600067ffffffffffffffff8211156158f8576158f7615c96565b5b601f19601f8301169050602081019050919050565b6000819050602082019050919050565b6000819050602082019050919050565b600081519050919050565b600081519050919050565b600081519050919050565b600081519050919050565b6000602082019050919050565b6000602082019050919050565b600082825260208201905092915050565b600082825260208201905092915050565b600082825260208201905092915050565b600082825260208201905092915050565b600081905092915050565b60006159cd82615af9565b91506159d883615af9565b9250827fffffffffffffffffffffffffffffffffffffffffffffffffffffffffffffffff03821115615a0d57615a0c615c09565b5b828201905092915050565b6000615a2382615af9565b9150615a2e83615af9565b925082615a3e57615a3d615c38565b5b828204905092915050565b6000615a5482615af9565b9150615a5f83615af9565b925082821015615a7257615a71615c09565b5b828203905092915050565b6000615a8882615ad9565b9050919050565b6000615a9a82615ad9565b9050919050565b60008115159050919050565b60007fffffffff0000000000000000000000000000000000000000000000000000000082169050919050565b600073ffffffffffffffffffffffffffffffffffffffff82169050919050565b6000819050919050565b60006bffffffffffffffffffffffff82169050919050565b82818337600083830152505050565b60005b83811015615b48578082015181840152602081019050615b2d565b83811115615b57576000848401525b50505050565b60006002820490506001821680615b7557607f821691505b60208210811415615b8957615b88615c67565b5b50919050565b6000615b9a82615af9565b91507fffffffffffffffffffffffffffffffffffffffffffffffffffffffffffffffff821415615bcd57615bcc615c09565b5b600182019050919050565b6000615be382615af9565b9150615bee83615af9565b925082615bfe57615bfd615c38565b5b828206905092915050565b7f4e487b7100000000000000000000000000000000000000000000000000000000600052601160045260246000fd5b7f4e487b7100000000000000000000000000000000000000000000000000000000600052601260045260246000fd5b7f4e487b7100000000000000000000000000000000000000000000000000000000600052602260045260246000fd5b7f4e487b7100000000000000000000000000000000000000000000000000000000600052604160045260246000fd5b6000601f19601f8301169050919050565b60008160e01c9050919050565b600060443d1015615cf357615d96565b60046000803e615d04600051615cd6565b6308c379a08114615d155750615d96565b60405160043d036004823e80513d602482011167ffffffffffffffff82111715615d4157505050615d96565b808201805167ffffffffffffffff811115615d60575050505050615d96565b8060208301013d8501811115615d7b57505050505050615d96565b615d8482615cc5565b60208401016040528296505050505050505b90565b615da281615a7d565b8114615dad57600080fd5b50565b615db981615a8f565b8114615dc457600080fd5b50565b615dd081615aa1565b8114615ddb57600080fd5b50565b615de781615aad565b8114615df257600080fd5b50565b615dfe81615af9565b8114615e0957600080fd5b50565b615e1581615b03565b8114615e2057600080fd5b5056fea264697066735822122016a524d171fae903996c1501f7ef359706d5e8e3a951f3c6774a07ca71f7524f64736f6c63430008000033",
  "immutableReferences": {},
  "source": "pragma solidity ^0.8.0;\r\n\r\nimport \"@openzeppelin/contracts-upgradeable/access/OwnableUpgradeable.sol\";\r\nimport \"@openzeppelin/contracts-upgradeable/token/ERC1155/ERC1155Upgradeable.sol\";\r\nimport \"@openzeppelin/contracts-upgradeable/token/ERC1155/extensions/ERC1155BurnableUpgradeable.sol\";\r\nimport \"@openzeppelin/contracts-upgradeable/token/ERC1155/extensions/ERC1155PausableUpgradeable.sol\";\r\n\r\nimport \"./lib/ERC1155BaseURI.sol\";\r\nimport \"./lib/LibPart.sol\";\r\n\r\n\r\ncontract Paru1155V2 is\r\n    OwnableUpgradeable,\r\n    ERC1155Upgradeable,\r\n    ERC1155BaseURI,\r\n    ERC1155BurnableUpgradeable,\r\n    ERC1155PausableUpgradeable\r\n{\r\n    string public name;\r\n    string public symbol;\r\n    mapping(uint256 => uint256) private _totalSupply;\r\n    mapping(uint256 => address) private _tokenOwners;\r\n\r\n    event RoyaltySet(uint256 tokenId, LibPart.Part[] royalty);\r\n    event RoyaltyOwnerSet(uint256 tokenId, address owner);\r\n\r\n    // ownerble upgradeable\r\n    mapping(uint256 => LibPart.Part[]) _royalties;\r\n    mapping(uint256 => address) _royaltyOwners;\r\n\r\n    /*\r\n     * bytes4(keccak256('getRoyalties(LibAsset.AssetType)')) == 0x44c74bcc\r\n     */\r\n    bytes4 constant _INTERFACE_ID_ROYALTIES = 0x44c74bcc;\r\n\r\n    // initialize\r\n    function initialize(\r\n        string memory _name,\r\n        string memory _symbol,\r\n        string memory baseURI\r\n    ) external initializer {\r\n        __Ownable_init_unchained();\r\n        __ERC1155_init(\"\");\r\n        _setBaseURI(baseURI);\r\n\r\n        name = _name;\r\n        symbol = _symbol;\r\n    }\r\n\r\n    // mint\r\n    // _setTokenURI(uint256 tokenId, string memory _uri) // mint   ? ?\r\n    // gas , baseURI   tokenId   ?\r\n    function mintItem(\r\n        address account,\r\n        uint256 id,\r\n        uint256 amount,\r\n        bytes memory data\r\n    ) public {\r\n        address owner = _tokenOwners[id];\r\n        require(\r\n            owner == address(0),\r\n            \"PARU1155: It is not possible to issue additional NFTs\"\r\n        );\r\n\r\n        _mint(account, id, amount, data); // account, id, amount, data\r\n        _tokenOwners[id] = account;\r\n    }\r\n\r\n    function mintItemWithRoyalty( // AndApprove?\r\n        address account,\r\n        uint256 id,\r\n        uint256 amount,\r\n        bytes memory data,\r\n        address royaltyOwner,\r\n        LibPart.Part[] memory royalties\r\n    ) public {\r\n        _mint(account, id, amount, data);\r\n        _tokenOwners[id] = account;\r\n\r\n        _setRoyaltyOwner(id, royaltyOwner);\r\n        _setRoyalties(id, royalties);\r\n    }\r\n\r\n    function ownerOf(uint256 id) public view returns (address) {\r\n        address owner = _tokenOwners[id];\r\n        require(\r\n            owner != address(0),\r\n            \"ERC1155: owner query for nonexistent token\"\r\n        );\r\n        return owner;\r\n    }\r\n\r\n    // mintBatch\r\n    // function mintItems(\r\n    //     address account, uint256[] memory ids, uint256[] memory amounts, bytes memory data\r\n    // ) public {\r\n    //     _mintBatch(account, ids, amounts, data); // account, id, amount, data\r\n    // }\r\n\r\n    // balanceOf, balanceOfBatch\r\n\r\n    // transfer, transferBatch\r\n\r\n    // burn, burnBatch\r\n    // function burn( address account, uint256 id, uint256 amount\r\n    // ) public override {\r\n    //     _burn(account, id, amount);\r\n    // } // ERC1155BurnableUpgradeable msgSender in [owner, operator]   \r\n\r\n    // _setTokenUri, uri -> ERC1155BaseURI\r\n    function uri(uint256 id)\r\n        public\r\n        view\r\n        virtual\r\n        override(ERC1155BaseURI, ERC1155Upgradeable)\r\n        returns (string memory)\r\n    {\r\n        return _tokenURI(id);\r\n    }\r\n\r\n    function pause() public onlyOwner {\r\n        _pause();\r\n    }\r\n\r\n    function unpause() public onlyOwner {\r\n        _unpause();\r\n    }\r\n\r\n    /**\r\n     * @dev Total amount of tokens in with a given id.\r\n     */\r\n    function totalSupply(uint256 id) public view virtual returns (uint256) {\r\n        return _totalSupply[id];\r\n    }\r\n\r\n    /**\r\n     * @dev Indicates weither any token exist with a given id, or not.\r\n     */\r\n    function exists(uint256 id) public view virtual returns (bool) {\r\n        return Paru1155V2.totalSupply(id) > 0;\r\n    }\r\n\r\n    /**\r\n     * @dev See {ERC1155-_mint}.\r\n     */\r\n    function _mint(\r\n        address account,\r\n        uint256 id,\r\n        uint256 amount,\r\n        bytes memory data\r\n    ) internal virtual override {\r\n        super._mint(account, id, amount, data);\r\n        _totalSupply[id] += amount;\r\n    }\r\n\r\n    /**\r\n     * @dev See {ERC1155-_mintBatch}.\r\n     */\r\n    function _mintBatch(\r\n        address to,\r\n        uint256[] memory ids,\r\n        uint256[] memory amounts,\r\n        bytes memory data\r\n    ) internal virtual override {\r\n        super._mintBatch(to, ids, amounts, data);\r\n        for (uint256 i = 0; i < ids.length; ++i) {\r\n            _totalSupply[ids[i]] += amounts[i];\r\n        }\r\n    }\r\n\r\n    /**\r\n     * @dev See {ERC1155-_burn}.\r\n     */\r\n    function _burn(\r\n        address account,\r\n        uint256 id,\r\n        uint256 amount\r\n    ) internal virtual override {\r\n        super._burn(account, id, amount);\r\n        _totalSupply[id] -= amount;\r\n    }\r\n\r\n    /**\r\n     * @dev See {ERC1155-_burnBatch}.\r\n     */\r\n    function _burnBatch(\r\n        address account,\r\n        uint256[] memory ids,\r\n        uint256[] memory amounts\r\n    ) internal virtual override {\r\n        super._burnBatch(account, ids, amounts);\r\n        for (uint256 i = 0; i < ids.length; ++i) {\r\n            _totalSupply[ids[i]] -= amounts[i];\r\n        }\r\n    }\r\n\r\n    function getRoyalties(uint256 tokenId)\r\n        public\r\n        view\r\n        returns (LibPart.Part[] memory)\r\n    {\r\n        return _royalties[tokenId];\r\n    }\r\n\r\n    function _setRoyalties(uint256 tokenId, LibPart.Part[] memory royalties)\r\n        internal\r\n    {\r\n        // clear existence\r\n        delete _royalties[tokenId];\r\n        // validate and save\r\n        for (uint256 i = 0; i < royalties.length; i++) {\r\n            require(\r\n                royalties[i].account != address(0x0),\r\n                \"PARU1155: _setRoyalties, Recipient should be present\"\r\n            );\r\n            require(\r\n                royalties[i].value > 0 && royalties[i].value < 501,\r\n                \"PARU1155: _setRoyalties, Royalty value should be range in 1~500\"\r\n            );\r\n            _royalties[tokenId].push(royalties[i]);\r\n        }\r\n\r\n        emit RoyaltySet(tokenId, royalties);\r\n    }\r\n\r\n    function getRoyaltyOwner(uint256 tokenId) public view returns (address) {\r\n        return _royaltyOwners[tokenId];\r\n    }\r\n\r\n    function _setRoyaltyOwner(uint256 tokenId, address owner) internal {\r\n        require(owner != address(0x0), \"PARU1155: _setRoyaltyOwner, Recipient should be present\");\r\n        _royaltyOwners[tokenId] = owner;\r\n\r\n        emit RoyaltyOwnerSet(tokenId, owner);\r\n    }\r\n\r\n    // update - setRoyalty\r\n    function updateRoyalty(uint256 tokenId, LibPart.Part[] memory royalties)\r\n        external\r\n    {\r\n        require(\r\n            msg.sender == getRoyaltyOwner(tokenId),\r\n            \"PARU1155: updateRoyalty message sender is not royaltyOwner\"\r\n        );\r\n        require(\r\n            _exists(tokenId),\r\n            \"PARU1155: updateRoyalty query for nonexistent token\"\r\n        );\r\n        _setRoyalties(tokenId, royalties);\r\n    }\r\n\r\n    // transfer - setRoyaltyOwner\r\n    function transferRoyaltyOwnership(uint256 tokenId, address to) external {\r\n        require(\r\n            msg.sender == getRoyaltyOwner(tokenId),\r\n            \"PARU1155: transferRoyaltyOwnership message sender is not royaltyOwner\"\r\n        );\r\n        require(\r\n            exists(tokenId),\r\n            \"PARU1155: transferRoyaltyOwnership query for nonexistent token\"\r\n        );\r\n        _setRoyaltyOwner(tokenId, to);\r\n    }\r\n\r\n    function _beforeTokenTransfer(\r\n        address operator,\r\n        address from,\r\n        address to,\r\n        uint256[] memory ids,\r\n        uint256[] memory amounts,\r\n        bytes memory data\r\n    )\r\n        internal\r\n        virtual\r\n        override(ERC1155Upgradeable, ERC1155PausableUpgradeable)\r\n    {\r\n        super._beforeTokenTransfer(operator, from, to, ids, amounts, data);\r\n    }\r\n\r\n    function _exists(uint256 tokenId) internal view virtual returns (bool) {\r\n        return _tokenOwners[tokenId] != address(0);\r\n    }\r\n\r\n    function supportsInterface(bytes4 interfaceId)\r\n        public\r\n        view\r\n        override\r\n        returns (bool)\r\n    {\r\n        return\r\n            interfaceId == _INTERFACE_ID_ROYALTIES ||\r\n            super.supportsInterface(interfaceId);\r\n    }\r\n}\r\n",
  "sourcePath": "/Users/hyunjongkim/Documents/GitHub/palura-backend/smartcontract/v1.0/contracts/out/Paru1155V2.sol",
  "compiler": {
    "name": "solc",
    "version": "0.8.0+commit.c7dfd78e.Emscripten.clang"
  },
  "schemaVersion": "3.4.3",
  "updatedAt": "2021-11-17T08:07:54.127Z",
  "devdoc": {
    "kind": "dev",
    "methods": {
      "balanceOf(address,uint256)": {
        "details": "See {IERC1155-balanceOf}. Requirements: - `account` cannot be the zero address."
      },
      "balanceOfBatch(address[],uint256[])": {
        "details": "See {IERC1155-balanceOfBatch}. Requirements: - `accounts` and `ids` must have the same length."
      },
      "baseURI()": {
        "details": "Returns the base URI set via {_setBaseURI}. This will be automatically added as a prefix in {tokenURI} to each token's URI, or to the token ID if no specific URI is set for that token ID."
      },
      "exists(uint256)": {
        "details": "Indicates weither any token exist with a given id, or not."
      },
      "isApprovedForAll(address,address)": {
        "details": "See {IERC1155-isApprovedForAll}."
      },
      "owner()": {
        "details": "Returns the address of the current owner."
      },
      "paused()": {
        "details": "Returns true if the contract is paused, and false otherwise."
      },
      "renounceOwnership()": {
        "details": "Leaves the contract without owner. It will not be possible to call `onlyOwner` functions anymore. Can only be called by the current owner. NOTE: Renouncing ownership will leave the contract without an owner, thereby removing any functionality that is only available to the owner."
      },
      "safeBatchTransferFrom(address,address,uint256[],uint256[],bytes)": {
        "details": "See {IERC1155-safeBatchTransferFrom}."
      },
      "safeTransferFrom(address,address,uint256,uint256,bytes)": {
        "details": "See {IERC1155-safeTransferFrom}."
      },
      "setApprovalForAll(address,bool)": {
        "details": "See {IERC1155-setApprovalForAll}."
      },
      "supportsInterface(bytes4)": {
        "details": "See {IERC165-supportsInterface}."
      },
      "totalSupply(uint256)": {
        "details": "Total amount of tokens in with a given id."
      },
      "transferOwnership(address)": {
        "details": "Transfers ownership of the contract to a new account (`newOwner`). Can only be called by the current owner."
      }
    },
    "version": 1
  },
  "userdoc": {
    "kind": "user",
    "methods": {},
    "version": 1
  }
}