{
  "contractName": "Paru721V2",
  "abi": [
    {
      "anonymous": false,
      "inputs": [
        {
          "indexed": true,
          "internalType": "address",
          "name": "owner",
          "type": "address"
        },
        {
          "indexed": true,
          "internalType": "address",
          "name": "approved",
          "type": "address"
        },
        {
          "indexed": true,
          "internalType": "uint256",
          "name": "tokenId",
          "type": "uint256"
        }
      ],
      "name": "Approval",
      "type": "event"
    },
    {
      "anonymous": false,
      "inputs": [
        {
          "indexed": true,
          "internalType": "address",
          "name": "owner",
          "type": "address"
        },
        {
          "indexed": true,
          "internalType": "address",
          "name": "operator",
          "type": "address"
        },
        {
          "indexed": false,
          "internalType": "bool",
          "name": "approved",
          "type": "bool"
        }
      ],
      "name": "ApprovalForAll",
      "type": "event"
    },
    {
      "anonymous": false,
      "inputs": [
        {
          "indexed": false,
          "internalType": "address",
          "name": "account",
          "type": "address"
        }
      ],
      "name": "Paused",
      "type": "event"
    },
    {
      "anonymous": false,
      "inputs": [
        {
          "indexed": true,
          "internalType": "bytes32",
          "name": "role",
          "type": "bytes32"
        },
        {
          "indexed": true,
          "internalType": "bytes32",
          "name": "previousAdminRole",
          "type": "bytes32"
        },
        {
          "indexed": true,
          "internalType": "bytes32",
          "name": "newAdminRole",
          "type": "bytes32"
        }
      ],
      "name": "RoleAdminChanged",
      "type": "event"
    },
    {
      "anonymous": false,
      "inputs": [
        {
          "indexed": true,
          "internalType": "bytes32",
          "name": "role",
          "type": "bytes32"
        },
        {
          "indexed": true,
          "internalType": "address",
          "name": "account",
          "type": "address"
        },
        {
          "indexed": true,
          "internalType": "address",
          "name": "sender",
          "type": "address"
        }
      ],
      "name": "RoleGranted",
      "type": "event"
    },
    {
      "anonymous": false,
      "inputs": [
        {
          "indexed": true,
          "internalType": "bytes32",
          "name": "role",
          "type": "bytes32"
        },
        {
          "indexed": true,
          "internalType": "address",
          "name": "account",
          "type": "address"
        },
        {
          "indexed": true,
          "internalType": "address",
          "name": "sender",
          "type": "address"
        }
      ],
      "name": "RoleRevoked",
      "type": "event"
    },
    {
      "anonymous": false,
      "inputs": [
        {
          "indexed": false,
          "internalType": "uint256",
          "name": "tokenId",
          "type": "uint256"
        },
        {
          "indexed": false,
          "internalType": "address",
          "name": "owner",
          "type": "address"
        }
      ],
      "name": "RoyaltyOwnerSet",
      "type": "event"
    },
    {
      "anonymous": false,
      "inputs": [
        {
          "indexed": false,
          "internalType": "uint256",
          "name": "tokenId",
          "type": "uint256"
        },
        {
          "components": [
            {
              "internalType": "address payable",
              "name": "account",
              "type": "address"
            },
            {
              "internalType": "uint96",
              "name": "value",
              "type": "uint96"
            }
          ],
          "indexed": false,
          "internalType": "struct LibPart.Part[]",
          "name": "royalty",
          "type": "tuple[]"
        }
      ],
      "name": "RoyaltySet",
      "type": "event"
    },
    {
      "anonymous": false,
      "inputs": [
        {
          "indexed": true,
          "internalType": "address",
          "name": "from",
          "type": "address"
        },
        {
          "indexed": true,
          "internalType": "address",
          "name": "to",
          "type": "address"
        },
        {
          "indexed": true,
          "internalType": "uint256",
          "name": "tokenId",
          "type": "uint256"
        }
      ],
      "name": "Transfer",
      "type": "event"
    },
    {
      "anonymous": false,
      "inputs": [
        {
          "indexed": false,
          "internalType": "address",
          "name": "account",
          "type": "address"
        }
      ],
      "name": "Unpaused",
      "type": "event"
    },
    {
      "inputs": [],
      "name": "BURNER_ROLE",
      "outputs": [
        {
          "internalType": "bytes32",
          "name": "",
          "type": "bytes32"
        }
      ],
      "stateMutability": "view",
      "type": "function"
    },
    {
      "inputs": [],
      "name": "DEFAULT_ADMIN_ROLE",
      "outputs": [
        {
          "internalType": "bytes32",
          "name": "",
          "type": "bytes32"
        }
      ],
      "stateMutability": "view",
      "type": "function"
    },
    {
      "inputs": [
        {
          "internalType": "address",
          "name": "to",
          "type": "address"
        },
        {
          "internalType": "uint256",
          "name": "tokenId",
          "type": "uint256"
        }
      ],
      "name": "approve",
      "outputs": [],
      "stateMutability": "nonpayable",
      "type": "function"
    },
    {
      "inputs": [
        {
          "internalType": "address",
          "name": "owner",
          "type": "address"
        }
      ],
      "name": "balanceOf",
      "outputs": [
        {
          "internalType": "uint256",
          "name": "",
          "type": "uint256"
        }
      ],
      "stateMutability": "view",
      "type": "function"
    },
    {
      "inputs": [
        {
          "internalType": "uint256",
          "name": "tokenId",
          "type": "uint256"
        }
      ],
      "name": "getApproved",
      "outputs": [
        {
          "internalType": "address",
          "name": "",
          "type": "address"
        }
      ],
      "stateMutability": "view",
      "type": "function"
    },
    {
      "inputs": [
        {
          "internalType": "bytes32",
          "name": "role",
          "type": "bytes32"
        }
      ],
      "name": "getRoleAdmin",
      "outputs": [
        {
          "internalType": "bytes32",
          "name": "",
          "type": "bytes32"
        }
      ],
      "stateMutability": "view",
      "type": "function"
    },
    {
      "inputs": [
        {
          "internalType": "bytes32",
          "name": "role",
          "type": "bytes32"
        },
        {
          "internalType": "address",
          "name": "account",
          "type": "address"
        }
      ],
      "name": "grantRole",
      "outputs": [],
      "stateMutability": "nonpayable",
      "type": "function"
    },
    {
      "inputs": [
        {
          "internalType": "bytes32",
          "name": "role",
          "type": "bytes32"
        },
        {
          "internalType": "address",
          "name": "account",
          "type": "address"
        }
      ],
      "name": "hasRole",
      "outputs": [
        {
          "internalType": "bool",
          "name": "",
          "type": "bool"
        }
      ],
      "stateMutability": "view",
      "type": "function"
    },
    {
      "inputs": [
        {
          "internalType": "address",
          "name": "owner",
          "type": "address"
        },
        {
          "internalType": "address",
          "name": "operator",
          "type": "address"
        }
      ],
      "name": "isApprovedForAll",
      "outputs": [
        {
          "internalType": "bool",
          "name": "",
          "type": "bool"
        }
      ],
      "stateMutability": "view",
      "type": "function"
    },
    {
      "inputs": [],
      "name": "name",
      "outputs": [
        {
          "internalType": "string",
          "name": "",
          "type": "string"
        }
      ],
      "stateMutability": "view",
      "type": "function"
    },
    {
      "inputs": [
        {
          "internalType": "uint256",
          "name": "tokenId",
          "type": "uint256"
        }
      ],
      "name": "ownerOf",
      "outputs": [
        {
          "internalType": "address",
          "name": "",
          "type": "address"
        }
      ],
      "stateMutability": "view",
      "type": "function"
    },
    {
      "inputs": [],
      "name": "paused",
      "outputs": [
        {
          "internalType": "bool",
          "name": "",
          "type": "bool"
        }
      ],
      "stateMutability": "view",
      "type": "function"
    },
    {
      "inputs": [
        {
          "internalType": "bytes32",
          "name": "role",
          "type": "bytes32"
        },
        {
          "internalType": "address",
          "name": "account",
          "type": "address"
        }
      ],
      "name": "renounceRole",
      "outputs": [],
      "stateMutability": "nonpayable",
      "type": "function"
    },
    {
      "inputs": [
        {
          "internalType": "bytes32",
          "name": "role",
          "type": "bytes32"
        },
        {
          "internalType": "address",
          "name": "account",
          "type": "address"
        }
      ],
      "name": "revokeRole",
      "outputs": [],
      "stateMutability": "nonpayable",
      "type": "function"
    },
    {
      "inputs": [
        {
          "internalType": "address",
          "name": "from",
          "type": "address"
        },
        {
          "internalType": "address",
          "name": "to",
          "type": "address"
        },
        {
          "internalType": "uint256",
          "name": "tokenId",
          "type": "uint256"
        }
      ],
      "name": "safeTransferFrom",
      "outputs": [],
      "stateMutability": "nonpayable",
      "type": "function"
    },
    {
      "inputs": [
        {
          "internalType": "address",
          "name": "from",
          "type": "address"
        },
        {
          "internalType": "address",
          "name": "to",
          "type": "address"
        },
        {
          "internalType": "uint256",
          "name": "tokenId",
          "type": "uint256"
        },
        {
          "internalType": "bytes",
          "name": "_data",
          "type": "bytes"
        }
      ],
      "name": "safeTransferFrom",
      "outputs": [],
      "stateMutability": "nonpayable",
      "type": "function"
    },
    {
      "inputs": [
        {
          "internalType": "address",
          "name": "operator",
          "type": "address"
        },
        {
          "internalType": "bool",
          "name": "approved",
          "type": "bool"
        }
      ],
      "name": "setApprovalForAll",
      "outputs": [],
      "stateMutability": "nonpayable",
      "type": "function"
    },
    {
      "inputs": [],
      "name": "symbol",
      "outputs": [
        {
          "internalType": "string",
          "name": "",
          "type": "string"
        }
      ],
      "stateMutability": "view",
      "type": "function"
    },
    {
      "inputs": [
        {
          "internalType": "uint256",
          "name": "index",
          "type": "uint256"
        }
      ],
      "name": "tokenByIndex",
      "outputs": [
        {
          "internalType": "uint256",
          "name": "",
          "type": "uint256"
        }
      ],
      "stateMutability": "view",
      "type": "function"
    },
    {
      "inputs": [
        {
          "internalType": "address",
          "name": "owner",
          "type": "address"
        },
        {
          "internalType": "uint256",
          "name": "index",
          "type": "uint256"
        }
      ],
      "name": "tokenOfOwnerByIndex",
      "outputs": [
        {
          "internalType": "uint256",
          "name": "",
          "type": "uint256"
        }
      ],
      "stateMutability": "view",
      "type": "function"
    },
    {
      "inputs": [],
      "name": "totalSupply",
      "outputs": [
        {
          "internalType": "uint256",
          "name": "",
          "type": "uint256"
        }
      ],
      "stateMutability": "view",
      "type": "function"
    },
    {
      "inputs": [
        {
          "internalType": "address",
          "name": "from",
          "type": "address"
        },
        {
          "internalType": "address",
          "name": "to",
          "type": "address"
        },
        {
          "internalType": "uint256",
          "name": "tokenId",
          "type": "uint256"
        }
      ],
      "name": "transferFrom",
      "outputs": [],
      "stateMutability": "nonpayable",
      "type": "function"
    },
    {
      "inputs": [
        {
          "internalType": "string",
          "name": "_name",
          "type": "string"
        },
        {
          "internalType": "string",
          "name": "_symbol",
          "type": "string"
        },
        {
          "internalType": "string",
          "name": "_baseuri",
          "type": "string"
        }
      ],
      "name": "initialize",
      "outputs": [],
      "stateMutability": "nonpayable",
      "type": "function"
    },
    {
      "inputs": [
        {
          "internalType": "address",
          "name": "_to",
          "type": "address"
        },
        {
          "internalType": "string",
          "name": "_uri",
          "type": "string"
        }
      ],
      "name": "mintItem",
      "outputs": [],
      "stateMutability": "nonpayable",
      "type": "function"
    },
    {
      "inputs": [
        {
          "internalType": "address",
          "name": "_to",
          "type": "address"
        },
        {
          "internalType": "string",
          "name": "_uri",
          "type": "string"
        },
        {
          "internalType": "address",
          "name": "royaltyOwner",
          "type": "address"
        },
        {
          "components": [
            {
              "internalType": "address payable",
              "name": "account",
              "type": "address"
            },
            {
              "internalType": "uint96",
              "name": "value",
              "type": "uint96"
            }
          ],
          "internalType": "struct LibPart.Part[]",
          "name": "royalties",
          "type": "tuple[]"
        }
      ],
      "name": "mintItemWithRoyalty",
      "outputs": [],
      "stateMutability": "nonpayable",
      "type": "function"
    },
    {
      "inputs": [
        {
          "internalType": "uint256",
          "name": "tokenId",
          "type": "uint256"
        },
        {
          "components": [
            {
              "internalType": "address payable",
              "name": "account",
              "type": "address"
            },
            {
              "internalType": "uint96",
              "name": "value",
              "type": "uint96"
            }
          ],
          "internalType": "struct LibPart.Part[]",
          "name": "royalties",
          "type": "tuple[]"
        }
      ],
      "name": "updateRoyalty",
      "outputs": [],
      "stateMutability": "nonpayable",
      "type": "function"
    },
    {
      "inputs": [
        {
          "internalType": "uint256",
          "name": "tokenId",
          "type": "uint256"
        },
        {
          "internalType": "address",
          "name": "to",
          "type": "address"
        }
      ],
      "name": "transferRoyaltyOwnership",
      "outputs": [],
      "stateMutability": "nonpayable",
      "type": "function"
    },
    {
      "inputs": [
        {
          "internalType": "uint256",
          "name": "tokenId",
          "type": "uint256"
        }
      ],
      "name": "getRoyalties",
      "outputs": [
        {
          "components": [
            {
              "internalType": "address payable",
              "name": "account",
              "type": "address"
            },
            {
              "internalType": "uint96",
              "name": "value",
              "type": "uint96"
            }
          ],
          "internalType": "struct LibPart.Part[]",
          "name": "",
          "type": "tuple[]"
        }
      ],
      "stateMutability": "view",
      "type": "function"
    },
    {
      "inputs": [
        {
          "internalType": "uint256",
          "name": "tokenId",
          "type": "uint256"
        }
      ],
      "name": "getRoyaltyOwner",
      "outputs": [
        {
          "internalType": "address",
          "name": "",
          "type": "address"
        }
      ],
      "stateMutability": "view",
      "type": "function"
    },
    {
      "inputs": [
        {
          "internalType": "uint256",
          "name": "tokenId",
          "type": "uint256"
        }
      ],
      "name": "tokenURI",
      "outputs": [
        {
          "internalType": "string",
          "name": "",
          "type": "string"
        }
      ],
      "stateMutability": "view",
      "type": "function"
    },
    {
      "inputs": [
        {
          "internalType": "bytes4",
          "name": "interfaceId",
          "type": "bytes4"
        }
      ],
      "name": "supportsInterface",
      "outputs": [
        {
          "internalType": "bool",
          "name": "",
          "type": "bool"
        }
      ],
      "stateMutability": "view",
      "type": "function"
    }
  ],
  "bytecode": "0x608060405234801561001057600080fd5b506152e0806100206000396000f3fe608060405234801561001057600080fd5b50600436106101e55760003560e01c80635c975abb1161010f578063a22cb465116100a2578063c87b56dd11610071578063c87b56dd1461059e578063d547741f146105ce578063e9013612146105ea578063e985e9c51461061a576101e5565b8063a22cb4651461051a578063a6487c5314610536578063b88d4fde14610552578063bb3bafd61461056e576101e5565b806391d14854116100de57806391d148541461049257806395d89b41146104c25780639cdeff7e146104e0578063a217fddf146104fc576101e5565b80635c975abb146103f85780636352211e1461041657806370a0823114610446578063761d9e0014610476576101e5565b8063248a9ca31161018757806336568abe1161015657806336568abe14610374578063394d3f381461039057806342842e0e146103ac5780634f6ccce7146103c8576101e5565b8063248a9ca3146102da578063282c51f31461030a5780632f2ff15d146103285780632f745c5914610344576101e5565b8063095ea7b3116101c3578063095ea7b314610268578063110bcd451461028457806318160ddd146102a057806323b872dd146102be576101e5565b806301ffc9a7146101ea57806306fdde031461021a578063081812fc14610238575b600080fd5b61020460048036038101906101ff9190613bab565b61064a565b6040516102119190614942565b60405180910390f35b6102226106ab565b60405161022f9190614978565b60405180910390f35b610252600480360381019061024d9190613c94565b61073d565b60405161025f91906148b9565b60405180910390f35b610282600480360381019061027d9190613b0a565b6107c2565b005b61029e60048036038101906102999190613a23565b6108da565b005b6102a86108ff565b6040516102b59190614cba565b60405180910390f35b6102d860048036038101906102d3919061391d565b61090c565b005b6102f460048036038101906102ef9190613b46565b61096c565b604051610301919061495d565b60405180910390f35b61031261098c565b60405161031f919061495d565b60405180910390f35b610342600480360381019061033d9190613b6f565b6109b0565b005b61035e60048036038101906103599190613b0a565b6109d9565b60405161036b9190614cba565b60405180910390f35b61038e60048036038101906103899190613b6f565b610a7e565b005b6103aa60048036038101906103a59190613cf9565b610b01565b005b6103c660048036038101906103c1919061391d565b610bcd565b005b6103e260048036038101906103dd9190613c94565b610bed565b6040516103ef9190614cba565b60405180910390f35b610400610c84565b60405161040d9190614942565b60405180910390f35b610430600480360381019061042b9190613c94565b610c9c565b60405161043d91906148b9565b60405180910390f35b610460600480360381019061045b91906138b8565b610d4e565b60405161046d9190614cba565b60405180910390f35b610490600480360381019061048b9190613cbd565b610e06565b005b6104ac60048036038101906104a79190613b6f565b610ed2565b6040516104b99190614942565b60405180910390f35b6104ca610f3d565b6040516104d79190614978565b60405180910390f35b6104fa60048036038101906104f59190613a77565b610fcf565b005b61050461100a565b604051610511919061495d565b60405180910390f35b610534600480360381019061052f91906139e7565b611011565b005b610550600480360381019061054b9190613bfd565b611192565b005b61056c6004803603810190610567919061396c565b611291565b005b61058860048036038101906105839190613c94565b6112f3565b6040516105959190614920565b60405180910390f35b6105b860048036038101906105b39190613c94565b6113f6565b6040516105c59190614978565b60405180910390f35b6105e860048036038101906105e39190613b6f565b611408565b005b61060460048036038101906105ff9190613c94565b611431565b60405161061191906148b9565b60405180910390f35b610634600480360381019061062f91906138e1565b61146f565b6040516106419190614942565b60405180910390f35b60006344c74bcc60e01b7bffffffffffffffffffffffffffffffffffffffffffffffffffffffff1916827bffffffffffffffffffffffffffffffffffffffffffffffffffffffff191614806106a457506106a382611503565b5b9050919050565b6060606580546106ba90615090565b80601f01602080910402602001604051908101604052809291908181526020018280546106e690615090565b80156107335780601f1061070857610100808354040283529160200191610733565b820191906000526020600020905b81548152906001019060200180831161071657829003601f168201915b5050505050905090565b60006107488261157d565b610787576040517f08c379a000000000000000000000000000000000000000000000000000000000815260040161077e90614b9a565b60405180910390fd5b6069600083815260200190815260200160002060009054906101000a900473ffffffffffffffffffffffffffffffffffffffff169050919050565b60006107cd82610c9c565b90508073ffffffffffffffffffffffffffffffffffffffff168373ffffffffffffffffffffffffffffffffffffffff16141561083e576040517f08c379a000000000000000000000000000000000000000000000000000000000815260040161083590614bfa565b60405180910390fd5b8073ffffffffffffffffffffffffffffffffffffffff1661085d6115e9565b73ffffffffffffffffffffffffffffffffffffffff16148061088c575061088b816108866115e9565b61146f565b5b6108cb576040517f08c379a00000000000000000000000000000000000000000000000000000000081526004016108c290614aba565b60405180910390fd5b6108d583836115f1565b505050565b60006108e46116aa565b90506108f083826116cc565b6108fa818361189a565b505050565b600060cb80549050905090565b61091d6109176115e9565b8261190e565b61095c576040517f08c379a000000000000000000000000000000000000000000000000000000000815260040161095390614c1a565b60405180910390fd5b6109678383836119ec565b505050565b600060fb6000838152602001908152602001600020600101549050919050565b7f3c11d16cbaffd01df69ce1c404f6340ee057498f5f00246190ea54220576a84881565b6109b98261096c565b6109ca816109c56115e9565b611c48565b6109d48383611ce5565b505050565b60006109e483610d4e565b8210610a25576040517f08c379a0000000000000000000000000000000000000000000000000000000008152600401610a1c906149ba565b60405180910390fd5b60c960008473ffffffffffffffffffffffffffffffffffffffff1673ffffffffffffffffffffffffffffffffffffffff168152602001908152602001600020600083815260200190815260200160002054905092915050565b610a866115e9565b73ffffffffffffffffffffffffffffffffffffffff168173ffffffffffffffffffffffffffffffffffffffff1614610af3576040517f08c379a0000000000000000000000000000000000000000000000000000000008152600401610aea90614c9a565b60405180910390fd5b610afd8282611dc6565b5050565b610b0a82611431565b73ffffffffffffffffffffffffffffffffffffffff163373ffffffffffffffffffffffffffffffffffffffff1614610b77576040517f08c379a0000000000000000000000000000000000000000000000000000000008152600401610b6e90614c5a565b60405180910390fd5b610b808261157d565b610bbf576040517f08c379a0000000000000000000000000000000000000000000000000000000008152600401610bb690614b9a565b60405180910390fd5b610bc98282611ea8565b5050565b610be883838360405180602001604052806000815250611291565b505050565b6000610bf76108ff565b8210610c38576040517f08c379a0000000000000000000000000000000000000000000000000000000008152600401610c2f90614c3a565b60405180910390fd5b60cb8281548110610c72577f4e487b7100000000000000000000000000000000000000000000000000000000600052603260045260246000fd5b90600052602060002001549050919050565b600061012d60009054906101000a900460ff16905090565b6000806067600084815260200190815260200160002060009054906101000a900473ffffffffffffffffffffffffffffffffffffffff169050600073ffffffffffffffffffffffffffffffffffffffff168173ffffffffffffffffffffffffffffffffffffffff161415610d45576040517f08c379a0000000000000000000000000000000000000000000000000000000008152600401610d3c90614afa565b60405180910390fd5b80915050919050565b60008073ffffffffffffffffffffffffffffffffffffffff168273ffffffffffffffffffffffffffffffffffffffff161415610dbf576040517f08c379a0000000000000000000000000000000000000000000000000000000008152600401610db690614ada565b60405180910390fd5b606860008373ffffffffffffffffffffffffffffffffffffffff1673ffffffffffffffffffffffffffffffffffffffff168152602001908152602001600020549050919050565b610e0f82611431565b73ffffffffffffffffffffffffffffffffffffffff163373ffffffffffffffffffffffffffffffffffffffff1614610e7c576040517f08c379a0000000000000000000000000000000000000000000000000000000008152600401610e7390614c5a565b60405180910390fd5b610e858261157d565b610ec4576040517f08c379a0000000000000000000000000000000000000000000000000000000008152600401610ebb90614b9a565b60405180910390fd5b610ece8282612169565b5050565b600060fb600084815260200190815260200160002060000160008373ffffffffffffffffffffffffffffffffffffffff1673ffffffffffffffffffffffffffffffffffffffff16815260200190815260200160002060009054906101000a900460ff16905092915050565b606060668054610f4c90615090565b80601f0160208091040260200160405190810160405280929190818152602001828054610f7890615090565b8015610fc55780601f10610f9a57610100808354040283529160200191610fc5565b820191906000526020600020905b815481529060010190602001808311610fa857829003601f168201915b5050505050905090565b6000610fd96116aa565b9050610fe585826116cc565b610fef818561189a565b610ff98184612169565b6110038183611ea8565b5050505050565b6000801b81565b6110196115e9565b73ffffffffffffffffffffffffffffffffffffffff168273ffffffffffffffffffffffffffffffffffffffff161415611087576040517f08c379a000000000000000000000000000000000000000000000000000000000815260040161107e90614a3a565b60405180910390fd5b80606a60006110946115e9565b73ffffffffffffffffffffffffffffffffffffffff1673ffffffffffffffffffffffffffffffffffffffff16815260200190815260200160002060008473ffffffffffffffffffffffffffffffffffffffff1673ffffffffffffffffffffffffffffffffffffffff16815260200190815260200160002060006101000a81548160ff0219169083151502179055508173ffffffffffffffffffffffffffffffffffffffff166111416115e9565b73ffffffffffffffffffffffffffffffffffffffff167f17307eab39ab6107e8899845ad3d59bd9653f200f220920489ca2b5937696c31836040516111869190614942565b60405180910390a35050565b600060019054906101000a900460ff16806111b8575060008054906101000a900460ff16155b6111f7576040517f08c379a00000000000000000000000000000000000000000000000000000000081526004016111ee90614b3a565b60405180910390fd5b60008060019054906101000a900460ff161590508015611247576001600060016101000a81548160ff02191690831515021790555060016000806101000a81548160ff0219169083151502179055505b61124f612269565b611257612342565b611261848461241b565b61126a82612524565b801561128b5760008060016101000a81548160ff0219169083151502179055505b50505050565b6112a261129c6115e9565b8361190e565b6112e1576040517f08c379a00000000000000000000000000000000000000000000000000000000081526004016112d890614c1a565b60405180910390fd5b6112ed8484848461253f565b50505050565b60606101606000838152602001908152602001600020805480602002602001604051908101604052809291908181526020016000905b828210156113eb578382906000526020600020016040518060400160405290816000820160009054906101000a900473ffffffffffffffffffffffffffffffffffffffff1673ffffffffffffffffffffffffffffffffffffffff1673ffffffffffffffffffffffffffffffffffffffff1681526020016000820160149054906101000a90046bffffffffffffffffffffffff166bffffffffffffffffffffffff166bffffffffffffffffffffffff168152505081526020019060010190611329565b505050509050919050565b60606114018261259b565b9050919050565b6114118261096c565b6114228161141d6115e9565b611c48565b61142c8383611dc6565b505050565b6000610161600083815260200190815260200160002060009054906101000a900473ffffffffffffffffffffffffffffffffffffffff169050919050565b6000606a60008473ffffffffffffffffffffffffffffffffffffffff1673ffffffffffffffffffffffffffffffffffffffff16815260200190815260200160002060008373ffffffffffffffffffffffffffffffffffffffff1673ffffffffffffffffffffffffffffffffffffffff16815260200190815260200160002060009054906101000a900460ff16905092915050565b60007f7965db0b000000000000000000000000000000000000000000000000000000007bffffffffffffffffffffffffffffffffffffffffffffffffffffffff1916827bffffffffffffffffffffffffffffffffffffffffffffffffffffffff191614806115765750611575826126ed565b5b9050919050565b60008073ffffffffffffffffffffffffffffffffffffffff166067600084815260200190815260200160002060009054906101000a900473ffffffffffffffffffffffffffffffffffffffff1673ffffffffffffffffffffffffffffffffffffffff1614159050919050565b600033905090565b816069600083815260200190815260200160002060006101000a81548173ffffffffffffffffffffffffffffffffffffffff021916908373ffffffffffffffffffffffffffffffffffffffff160217905550808273ffffffffffffffffffffffffffffffffffffffff1661166483610c9c565b73ffffffffffffffffffffffffffffffffffffffff167f8c5be1e5ebec7d5bd14f71427d1e84f3dd0314c0f7b2291e5b200ac8c7c3b92560405160405180910390a45050565b60006116c760016116b96108ff565b61276790919063ffffffff16565b905090565b600073ffffffffffffffffffffffffffffffffffffffff168273ffffffffffffffffffffffffffffffffffffffff16141561173c576040517f08c379a000000000000000000000000000000000000000000000000000000000815260040161173390614b5a565b60405180910390fd5b6117458161157d565b15611785576040517f08c379a000000000000000000000000000000000000000000000000000000000815260040161177c906149fa565b60405180910390fd5b6117916000838361277d565b6001606860008473ffffffffffffffffffffffffffffffffffffffff1673ffffffffffffffffffffffffffffffffffffffff16815260200190815260200160002060008282546117e19190614e67565b92505081905550816067600083815260200190815260200160002060006101000a81548173ffffffffffffffffffffffffffffffffffffffff021916908373ffffffffffffffffffffffffffffffffffffffff160217905550808273ffffffffffffffffffffffffffffffffffffffff16600073ffffffffffffffffffffffffffffffffffffffff167fddf252ad1be2c89b69c2b068fc378daa952ba7f163c4a11628f55a4df523b3ef60405160405180910390a45050565b6118a38261157d565b6118e2576040517f08c379a00000000000000000000000000000000000000000000000000000000081526004016118d990614b1a565b60405180910390fd5b8060976000848152602001908152602001600020908051906020019061190992919061353d565b505050565b60006119198261157d565b611958576040517f08c379a000000000000000000000000000000000000000000000000000000000815260040161194f90614a5a565b60405180910390fd5b600061196383610c9c565b90508073ffffffffffffffffffffffffffffffffffffffff168473ffffffffffffffffffffffffffffffffffffffff1614806119d257508373ffffffffffffffffffffffffffffffffffffffff166119ba8461073d565b73ffffffffffffffffffffffffffffffffffffffff16145b806119e357506119e2818561146f565b5b91505092915050565b8273ffffffffffffffffffffffffffffffffffffffff16611a0c82610c9c565b73ffffffffffffffffffffffffffffffffffffffff1614611a62576040517f08c379a0000000000000000000000000000000000000000000000000000000008152600401611a5990614bba565b60405180910390fd5b600073ffffffffffffffffffffffffffffffffffffffff168273ffffffffffffffffffffffffffffffffffffffff161415611ad2576040517f08c379a0000000000000000000000000000000000000000000000000000000008152600401611ac990614a1a565b60405180910390fd5b611add83838361277d565b611ae86000826115f1565b6001606860008573ffffffffffffffffffffffffffffffffffffffff1673ffffffffffffffffffffffffffffffffffffffff1681526020019081526020016000206000828254611b389190614f48565b925050819055506001606860008473ffffffffffffffffffffffffffffffffffffffff1673ffffffffffffffffffffffffffffffffffffffff1681526020019081526020016000206000828254611b8f9190614e67565b92505081905550816067600083815260200190815260200160002060006101000a81548173ffffffffffffffffffffffffffffffffffffffff021916908373ffffffffffffffffffffffffffffffffffffffff160217905550808273ffffffffffffffffffffffffffffffffffffffff168473ffffffffffffffffffffffffffffffffffffffff167fddf252ad1be2c89b69c2b068fc378daa952ba7f163c4a11628f55a4df523b3ef60405160405180910390a4505050565b611c528282610ed2565b611ce157611c778173ffffffffffffffffffffffffffffffffffffffff1660146127d5565b611c858360001c60206127d5565b604051602001611c9692919061487f565b6040516020818303038152906040526040517f08c379a0000000000000000000000000000000000000000000000000000000008152600401611cd89190614978565b60405180910390fd5b5050565b611cef8282610ed2565b611dc257600160fb600084815260200190815260200160002060000160008373ffffffffffffffffffffffffffffffffffffffff1673ffffffffffffffffffffffffffffffffffffffff16815260200190815260200160002060006101000a81548160ff021916908315150217905550611d676115e9565b73ffffffffffffffffffffffffffffffffffffffff168173ffffffffffffffffffffffffffffffffffffffff16837f2f8788117e7eff1d82e926ec794901d17c78024a50270940304540a733656f0d60405160405180910390a45b5050565b611dd08282610ed2565b15611ea457600060fb600084815260200190815260200160002060000160008373ffffffffffffffffffffffffffffffffffffffff1673ffffffffffffffffffffffffffffffffffffffff16815260200190815260200160002060006101000a81548160ff021916908315150217905550611e496115e9565b73ffffffffffffffffffffffffffffffffffffffff168173ffffffffffffffffffffffffffffffffffffffff16837ff6391f5c32d9c69d2a47ea670b442974b53935d1edc7fd64eb21e047a839171b60405160405180910390a45b5050565b61016060008381526020019081526020016000206000611ec891906135c3565b60005b815181101561212b57600073ffffffffffffffffffffffffffffffffffffffff16828281518110611f25577f4e487b7100000000000000000000000000000000000000000000000000000000600052603260045260246000fd5b60200260200101516000015173ffffffffffffffffffffffffffffffffffffffff161415611f88576040517f08c379a0000000000000000000000000000000000000000000000000000000008152600401611f7f90614c7a565b60405180910390fd5b6000828281518110611fc3577f4e487b7100000000000000000000000000000000000000000000000000000000600052603260045260246000fd5b6020026020010151602001516bffffffffffffffffffffffff16141561201e576040517f08c379a000000000000000000000000000000000000000000000000000000000815260040161201590614a7a565b60405180910390fd5b610160600084815260200190815260200160002082828151811061206b577f4e487b7100000000000000000000000000000000000000000000000000000000600052603260045260246000fd5b60200260200101519080600181540180825580915050600190039060005260206000200160009091909190915060008201518160000160006101000a81548173ffffffffffffffffffffffffffffffffffffffff021916908373ffffffffffffffffffffffffffffffffffffffff16021790555060208201518160000160146101000a8154816bffffffffffffffffffffffff02191690836bffffffffffffffffffffffff16021790555050508080612123906150c2565b915050611ecb565b507f2f9e6d5068e3658670ba42ef7783dbe0783b56a3ef5c5492ba3f005ed2b876d8828260405161215d929190614cfe565b60405180910390a15050565b600073ffffffffffffffffffffffffffffffffffffffff168173ffffffffffffffffffffffffffffffffffffffff1614156121d9576040517f08c379a00000000000000000000000000000000000000000000000000000000081526004016121d090614c7a565b60405180910390fd5b80610161600084815260200190815260200160002060006101000a81548173ffffffffffffffffffffffffffffffffffffffff021916908373ffffffffffffffffffffffffffffffffffffffff1602179055507ff1d6a825520beb1d7157ebd9563c24c6ed3813e9ddda7bb9678070c5195e43dc828260405161225d929190614cd5565b60405180910390a15050565b600060019054906101000a900460ff168061228f575060008054906101000a900460ff16155b6122ce576040517f08c379a00000000000000000000000000000000000000000000000000000000081526004016122c590614b3a565b60405180910390fd5b60008060019054906101000a900460ff16159050801561231e576001600060016101000a81548160ff02191690831515021790555060016000806101000a81548160ff0219169083151502179055505b801561233f5760008060016101000a81548160ff0219169083151502179055505b50565b600060019054906101000a900460ff1680612368575060008054906101000a900460ff16155b6123a7576040517f08c379a000000000000000000000000000000000000000000000000000000000815260040161239e90614b3a565b60405180910390fd5b60008060019054906101000a900460ff1615905080156123f7576001600060016101000a81548160ff02191690831515021790555060016000806101000a81548160ff0219169083151502179055505b80156124185760008060016101000a81548160ff0219169083151502179055505b50565b600060019054906101000a900460ff1680612441575060008054906101000a900460ff16155b612480576040517f08c379a000000000000000000000000000000000000000000000000000000000815260040161247790614b3a565b60405180910390fd5b60008060019054906101000a900460ff1615905080156124d0576001600060016101000a81548160ff02191690831515021790555060016000806101000a81548160ff0219169083151502179055505b82606590805190602001906124e692919061353d565b5081606690805190602001906124fd92919061353d565b50801561251f5760008060016101000a81548160ff0219169083151502179055505b505050565b8061015f908051906020019061253b92919061353d565b5050565b61254a8484846119ec565b61255684848484612acf565b612595576040517f08c379a000000000000000000000000000000000000000000000000000000000815260040161258c906149da565b60405180910390fd5b50505050565b60606125a68261157d565b6125e5576040517f08c379a00000000000000000000000000000000000000000000000000000000081526004016125dc90614b7a565b60405180910390fd5b600060976000848152602001908152602001600020805461260590615090565b80601f016020809104026020016040519081016040528092919081815260200182805461263190615090565b801561267e5780601f106126535761010080835404028352916020019161267e565b820191906000526020600020905b81548152906001019060200180831161266157829003601f168201915b50505050509050600061268f612c66565b90506000815114156126a55781925050506126e8565b6000825111156126da5780826040516020016126c292919061485b565b604051602081830303815290604052925050506126e8565b6126e384612cf9565b925050505b919050565b60007f780e9d63000000000000000000000000000000000000000000000000000000007bffffffffffffffffffffffffffffffffffffffffffffffffffffffff1916827bffffffffffffffffffffffffffffffffffffffffffffffffffffffff19161480612760575061275f82612da0565b5b9050919050565b600081836127759190614e67565b905092915050565b612785610c84565b156127c5576040517f08c379a00000000000000000000000000000000000000000000000000000000081526004016127bc90614a9a565b60405180910390fd5b6127d0838383612e82565b505050565b6060600060028360026127e89190614eee565b6127f29190614e67565b67ffffffffffffffff811115612831577f4e487b7100000000000000000000000000000000000000000000000000000000600052604160045260246000fd5b6040519080825280601f01601f1916602001820160405280156128635781602001600182028036833780820191505090505b5090507f3000000000000000000000000000000000000000000000000000000000000000816000815181106128c1577f4e487b7100000000000000000000000000000000000000000000000000000000600052603260045260246000fd5b60200101907effffffffffffffffffffffffffffffffffffffffffffffffffffffffffffff1916908160001a9053507f78000000000000000000000000000000000000000000000000000000000000008160018151811061294b577f4e487b7100000000000000000000000000000000000000000000000000000000600052603260045260246000fd5b60200101907effffffffffffffffffffffffffffffffffffffffffffffffffffffffffffff1916908160001a9053506000600184600261298b9190614eee565b6129959190614e67565b90505b6001811115612a81577f3031323334353637383961626364656600000000000000000000000000000000600f8616601081106129fd577f4e487b7100000000000000000000000000000000000000000000000000000000600052603260045260246000fd5b1a60f81b828281518110612a3a577f4e487b7100000000000000000000000000000000000000000000000000000000600052603260045260246000fd5b60200101907effffffffffffffffffffffffffffffffffffffffffffffffffffffffffffff1916908160001a905350600485901c945080612a7a90615066565b9050612998565b5060008414612ac5576040517f08c379a0000000000000000000000000000000000000000000000000000000008152600401612abc9061499a565b60405180910390fd5b8091505092915050565b6000612af08473ffffffffffffffffffffffffffffffffffffffff16612f96565b15612c59578373ffffffffffffffffffffffffffffffffffffffff1663150b7a02612b196115e9565b8786866040518563ffffffff1660e01b8152600401612b3b94939291906148d4565b602060405180830381600087803b158015612b5557600080fd5b505af1925050508015612b8657506040513d601f19601f82011682018060405250810190612b839190613bd4565b60015b612c09573d8060008114612bb6576040519150601f19603f3d011682016040523d82523d6000602084013e612bbb565b606091505b50600081511415612c01576040517f08c379a0000000000000000000000000000000000000000000000000000000008152600401612bf8906149da565b60405180910390fd5b805181602001fd5b63150b7a0260e01b7bffffffffffffffffffffffffffffffffffffffffffffffffffffffff1916817bffffffffffffffffffffffffffffffffffffffffffffffffffffffff191614915050612c5e565b600190505b949350505050565b606061015f8054612c7690615090565b80601f0160208091040260200160405190810160405280929190818152602001828054612ca290615090565b8015612cef5780601f10612cc457610100808354040283529160200191612cef565b820191906000526020600020905b815481529060010190602001808311612cd257829003601f168201915b5050505050905090565b6060612d048261157d565b612d43576040517f08c379a0000000000000000000000000000000000000000000000000000000008152600401612d3a90614bda565b60405180910390fd5b6000612d4d612c66565b90506000815111612d6d5760405180602001604052806000815250612d98565b80612d7784612fa9565b604051602001612d8892919061485b565b6040516020818303038152906040525b915050919050565b60007f80ac58cd000000000000000000000000000000000000000000000000000000007bffffffffffffffffffffffffffffffffffffffffffffffffffffffff1916827bffffffffffffffffffffffffffffffffffffffffffffffffffffffff19161480612e6b57507f5b5e139f000000000000000000000000000000000000000000000000000000007bffffffffffffffffffffffffffffffffffffffffffffffffffffffff1916827bffffffffffffffffffffffffffffffffffffffffffffffffffffffff1916145b80612e7b5750612e7a82613156565b5b9050919050565b612e8d8383836131c0565b600073ffffffffffffffffffffffffffffffffffffffff168373ffffffffffffffffffffffffffffffffffffffff161415612ed057612ecb816131c5565b612f0f565b8173ffffffffffffffffffffffffffffffffffffffff168373ffffffffffffffffffffffffffffffffffffffff1614612f0e57612f0d838261320e565b5b5b600073ffffffffffffffffffffffffffffffffffffffff168273ffffffffffffffffffffffffffffffffffffffff161415612f5257612f4d8161337b565b612f91565b8273ffffffffffffffffffffffffffffffffffffffff168273ffffffffffffffffffffffffffffffffffffffff1614612f9057612f8f82826134be565b5b5b505050565b600080823b905060008111915050919050565b60606000821415612ff1576040518060400160405280600181526020017f30000000000000000000000000000000000000000000000000000000000000008152509050613151565b600082905060005b6000821461302357808061300c906150c2565b915050600a8261301c9190614ebd565b9150612ff9565b60008167ffffffffffffffff811115613065577f4e487b7100000000000000000000000000000000000000000000000000000000600052604160045260246000fd5b6040519080825280601f01601f1916602001820160405280156130975781602001600182028036833780820191505090505b5090505b6000851461314a576001826130b09190614f48565b9150600a856130bf919061510b565b60306130cb9190614e67565b60f81b818381518110613107577f4e487b7100000000000000000000000000000000000000000000000000000000600052603260045260246000fd5b60200101907effffffffffffffffffffffffffffffffffffffffffffffffffffffffffffff1916908160001a905350600a856131439190614ebd565b945061309b565b8093505050505b919050565b60007f01ffc9a7000000000000000000000000000000000000000000000000000000007bffffffffffffffffffffffffffffffffffffffffffffffffffffffff1916827bffffffffffffffffffffffffffffffffffffffffffffffffffffffff1916149050919050565b505050565b60cb8054905060cc60008381526020019081526020016000208190555060cb81908060018154018082558091505060019003906000526020600020016000909190919091505550565b6000600161321b84610d4e565b6132259190614f48565b9050600060ca600084815260200190815260200160002054905081811461330a57600060c960008673ffffffffffffffffffffffffffffffffffffffff1673ffffffffffffffffffffffffffffffffffffffff16815260200190815260200160002060008481526020019081526020016000205490508060c960008773ffffffffffffffffffffffffffffffffffffffff1673ffffffffffffffffffffffffffffffffffffffff1681526020019081526020016000206000848152602001908152602001600020819055508160ca600083815260200190815260200160002081905550505b60ca60008481526020019081526020016000206000905560c960008573ffffffffffffffffffffffffffffffffffffffff1673ffffffffffffffffffffffffffffffffffffffff16815260200190815260200160002060008381526020019081526020016000206000905550505050565b6000600160cb8054905061338f9190614f48565b9050600060cc6000848152602001908152602001600020549050600060cb83815481106133e5577f4e487b7100000000000000000000000000000000000000000000000000000000600052603260045260246000fd5b906000526020600020015490508060cb838154811061342d577f4e487b7100000000000000000000000000000000000000000000000000000000600052603260045260246000fd5b90600052602060002001819055508160cc60008381526020019081526020016000208190555060cc60008581526020019081526020016000206000905560cb8054806134a2577f4e487b7100000000000000000000000000000000000000000000000000000000600052603160045260246000fd5b6001900381819060005260206000200160009055905550505050565b60006134c983610d4e565b90508160c960008573ffffffffffffffffffffffffffffffffffffffff1673ffffffffffffffffffffffffffffffffffffffff1681526020019081526020016000206000838152602001908152602001600020819055508060ca600084815260200190815260200160002081905550505050565b82805461354990615090565b90600052602060002090601f01602090048101928261356b57600085556135b2565b82601f1061358457805160ff19168380011785556135b2565b828001600101855582156135b2579182015b828111156135b1578251825591602001919060010190613596565b5b5090506135bf91906135e4565b5090565b50805460008255906000526020600020908101906135e19190613601565b50565b5b808211156135fd5760008160009055506001016135e5565b5090565b5b8082111561365a57600080820160006101000a81549073ffffffffffffffffffffffffffffffffffffffff02191690556000820160146101000a8154906bffffffffffffffffffffffff021916905550600101613602565b5090565b600061367161366c84614d5f565b614d2e565b9050808382526020820190508285604086028201111561369057600080fd5b60005b858110156136c057816136a68882613842565b845260208401935060408301925050600181019050613693565b5050509392505050565b60006136dd6136d884614d8b565b614d2e565b9050828152602081018484840111156136f557600080fd5b613700848285615024565b509392505050565b600061371b61371684614dbb565b614d2e565b90508281526020810184848401111561373357600080fd5b61373e848285615024565b509392505050565b60008135905061375581615209565b92915050565b60008135905061376a81615220565b92915050565b600082601f83011261378157600080fd5b813561379184826020860161365e565b91505092915050565b6000813590506137a981615237565b92915050565b6000813590506137be8161524e565b92915050565b6000813590506137d381615265565b92915050565b6000815190506137e881615265565b92915050565b600082601f8301126137ff57600080fd5b813561380f8482602086016136ca565b91505092915050565b600082601f83011261382957600080fd5b8135613839848260208601613708565b91505092915050565b60006040828403121561385457600080fd5b61385e6040614d2e565b9050600061386e8482850161375b565b6000830152506020613882848285016138a3565b60208301525092915050565b60008135905061389d8161527c565b92915050565b6000813590506138b281615293565b92915050565b6000602082840312156138ca57600080fd5b60006138d884828501613746565b91505092915050565b600080604083850312156138f457600080fd5b600061390285828601613746565b925050602061391385828601613746565b9150509250929050565b60008060006060848603121561393257600080fd5b600061394086828701613746565b935050602061395186828701613746565b92505060406139628682870161388e565b9150509250925092565b6000806000806080858703121561398257600080fd5b600061399087828801613746565b94505060206139a187828801613746565b93505060406139b28782880161388e565b925050606085013567ffffffffffffffff8111156139cf57600080fd5b6139db878288016137ee565b91505092959194509250565b600080604083850312156139fa57600080fd5b6000613a0885828601613746565b9250506020613a198582860161379a565b9150509250929050565b60008060408385031215613a3657600080fd5b6000613a4485828601613746565b925050602083013567ffffffffffffffff811115613a6157600080fd5b613a6d85828601613818565b9150509250929050565b60008060008060808587031215613a8d57600080fd5b6000613a9b87828801613746565b945050602085013567ffffffffffffffff811115613ab857600080fd5b613ac487828801613818565b9350506040613ad587828801613746565b925050606085013567ffffffffffffffff811115613af257600080fd5b613afe87828801613770565b91505092959194509250565b60008060408385031215613b1d57600080fd5b6000613b2b85828601613746565b9250506020613b3c8582860161388e565b9150509250929050565b600060208284031215613b5857600080fd5b6000613b66848285016137af565b91505092915050565b60008060408385031215613b8257600080fd5b6000613b90858286016137af565b9250506020613ba185828601613746565b9150509250929050565b600060208284031215613bbd57600080fd5b6000613bcb848285016137c4565b91505092915050565b600060208284031215613be657600080fd5b6000613bf4848285016137d9565b91505092915050565b600080600060608486031215613c1257600080fd5b600084013567ffffffffffffffff811115613c2c57600080fd5b613c3886828701613818565b935050602084013567ffffffffffffffff811115613c5557600080fd5b613c6186828701613818565b925050604084013567ffffffffffffffff811115613c7e57600080fd5b613c8a86828701613818565b9150509250925092565b600060208284031215613ca657600080fd5b6000613cb48482850161388e565b91505092915050565b60008060408385031215613cd057600080fd5b6000613cde8582860161388e565b9250506020613cef85828601613746565b9150509250929050565b60008060408385031215613d0c57600080fd5b6000613d1a8582860161388e565b925050602083013567ffffffffffffffff811115613d3757600080fd5b613d4385828601613770565b9150509250929050565b6000613d59838361480e565b60408301905092915050565b613d6e81614f8e565b82525050565b613d7d81614f7c565b82525050565b6000613d8e82614dfb565b613d988185614e29565b9350613da383614deb565b8060005b83811015613dd4578151613dbb8882613d4d565b9750613dc683614e1c565b925050600181019050613da7565b5085935050505092915050565b613dea81614fa0565b82525050565b613df981614fac565b82525050565b6000613e0a82614e06565b613e148185614e3a565b9350613e24818560208601615033565b613e2d816151f8565b840191505092915050565b6000613e4382614e11565b613e4d8185614e4b565b9350613e5d818560208601615033565b613e66816151f8565b840191505092915050565b6000613e7c82614e11565b613e868185614e5c565b9350613e96818560208601615033565b80840191505092915050565b6000613eaf602083614e4b565b91507f537472696e67733a20686578206c656e67746820696e73756666696369656e746000830152602082019050919050565b6000613eef602b83614e4b565b91507f455243373231456e756d657261626c653a206f776e657220696e646578206f7560008301527f74206f6620626f756e64730000000000000000000000000000000000000000006020830152604082019050919050565b6000613f55603283614e4b565b91507f4552433732313a207472616e7366657220746f206e6f6e20455243373231526560008301527f63656976657220696d706c656d656e74657200000000000000000000000000006020830152604082019050919050565b6000613fbb601c83614e4b565b91507f4552433732313a20746f6b656e20616c7265616479206d696e746564000000006000830152602082019050919050565b6000613ffb602483614e4b565b91507f4552433732313a207472616e7366657220746f20746865207a65726f2061646460008301527f72657373000000000000000000000000000000000000000000000000000000006020830152604082019050919050565b6000614061601983614e4b565b91507f4552433732313a20617070726f766520746f2063616c6c6572000000000000006000830152602082019050919050565b60006140a1602c83614e4b565b91507f4552433732313a206f70657261746f7220717565727920666f72206e6f6e657860008301527f697374656e7420746f6b656e00000000000000000000000000000000000000006020830152604082019050919050565b6000614107602083614e4b565b91507f526f79616c74792076616c75652073686f756c6420626520706f7369746976656000830152602082019050919050565b6000614147601083614e4b565b91507f5061757361626c653a20706175736564000000000000000000000000000000006000830152602082019050919050565b6000614187603883614e4b565b91507f4552433732313a20617070726f76652063616c6c6572206973206e6f74206f7760008301527f6e6572206e6f7220617070726f76656420666f7220616c6c00000000000000006020830152604082019050919050565b60006141ed602a83614e4b565b91507f4552433732313a2062616c616e636520717565727920666f7220746865207a6560008301527f726f2061646472657373000000000000000000000000000000000000000000006020830152604082019050919050565b6000614253602983614e4b565b91507f4552433732313a206f776e657220717565727920666f72206e6f6e657869737460008301527f656e7420746f6b656e00000000000000000000000000000000000000000000006020830152604082019050919050565b60006142b9602e83614e4b565b91507f45524337323155524953746f726167653a2055524920736574206f66206e6f6e60008301527f6578697374656e7420746f6b656e0000000000000000000000000000000000006020830152604082019050919050565b600061431f602e83614e4b565b91507f496e697469616c697a61626c653a20636f6e747261637420697320616c72656160008301527f647920696e697469616c697a65640000000000000000000000000000000000006020830152604082019050919050565b6000614385602083614e4b565b91507f4552433732313a206d696e7420746f20746865207a65726f20616464726573736000830152602082019050919050565b60006143c5603183614e4b565b91507f45524337323155524953746f726167653a2055524920717565727920666f722060008301527f6e6f6e6578697374656e7420746f6b656e0000000000000000000000000000006020830152604082019050919050565b600061442b602c83614e4b565b91507f4552433732313a20617070726f76656420717565727920666f72206e6f6e657860008301527f697374656e7420746f6b656e00000000000000000000000000000000000000006020830152604082019050919050565b6000614491602983614e4b565b91507f4552433732313a207472616e73666572206f6620746f6b656e2074686174206960008301527f73206e6f74206f776e00000000000000000000000000000000000000000000006020830152604082019050919050565b60006144f7602f83614e4b565b91507f4552433732314d657461646174613a2055524920717565727920666f72206e6f60008301527f6e6578697374656e7420746f6b656e00000000000000000000000000000000006020830152604082019050919050565b600061455d602183614e4b565b91507f4552433732313a20617070726f76616c20746f2063757272656e74206f776e6560008301527f72000000000000000000000000000000000000000000000000000000000000006020830152604082019050919050565b60006145c3603183614e4b565b91507f4552433732313a207472616e736665722063616c6c6572206973206e6f74206f60008301527f776e6572206e6f7220617070726f7665640000000000000000000000000000006020830152604082019050919050565b6000614629602c83614e4b565b91507f455243373231456e756d657261626c653a20676c6f62616c20696e646578206f60008301527f7574206f6620626f756e647300000000000000000000000000000000000000006020830152604082019050919050565b600061468f601783614e5c565b91507f416363657373436f6e74726f6c3a206163636f756e74200000000000000000006000830152601782019050919050565b60006146cf602283614e4b565b91507f6d6573736167652073656e646572206973206e6f7420726f79616c74794f776e60008301527f65720000000000000000000000000000000000000000000000000000000000006020830152604082019050919050565b6000614735601b83614e4b565b91507f526563697069656e742073686f756c642062652070726573656e7400000000006000830152602082019050919050565b6000614775601183614e5c565b91507f206973206d697373696e6720726f6c65200000000000000000000000000000006000830152601182019050919050565b60006147b5602f83614e4b565b91507f416363657373436f6e74726f6c3a2063616e206f6e6c792072656e6f756e636560008301527f20726f6c657320666f722073656c6600000000000000000000000000000000006020830152604082019050919050565b6040820160008201516148246000850182613d65565b506020820151614837602085018261484c565b50505050565b61484681615002565b82525050565b6148558161500c565b82525050565b60006148678285613e71565b91506148738284613e71565b91508190509392505050565b600061488a82614682565b91506148968285613e71565b91506148a182614768565b91506148ad8284613e71565b91508190509392505050565b60006020820190506148ce6000830184613d74565b92915050565b60006080820190506148e96000830187613d74565b6148f66020830186613d74565b614903604083018561483d565b81810360608301526149158184613dff565b905095945050505050565b6000602082019050818103600083015261493a8184613d83565b905092915050565b60006020820190506149576000830184613de1565b92915050565b60006020820190506149726000830184613df0565b92915050565b600060208201905081810360008301526149928184613e38565b905092915050565b600060208201905081810360008301526149b381613ea2565b9050919050565b600060208201905081810360008301526149d381613ee2565b9050919050565b600060208201905081810360008301526149f381613f48565b9050919050565b60006020820190508181036000830152614a1381613fae565b9050919050565b60006020820190508181036000830152614a3381613fee565b9050919050565b60006020820190508181036000830152614a5381614054565b9050919050565b60006020820190508181036000830152614a7381614094565b9050919050565b60006020820190508181036000830152614a93816140fa565b9050919050565b60006020820190508181036000830152614ab38161413a565b9050919050565b60006020820190508181036000830152614ad38161417a565b9050919050565b60006020820190508181036000830152614af3816141e0565b9050919050565b60006020820190508181036000830152614b1381614246565b9050919050565b60006020820190508181036000830152614b33816142ac565b9050919050565b60006020820190508181036000830152614b5381614312565b9050919050565b60006020820190508181036000830152614b7381614378565b9050919050565b60006020820190508181036000830152614b93816143b8565b9050919050565b60006020820190508181036000830152614bb38161441e565b9050919050565b60006020820190508181036000830152614bd381614484565b9050919050565b60006020820190508181036000830152614bf3816144ea565b9050919050565b60006020820190508181036000830152614c1381614550565b9050919050565b60006020820190508181036000830152614c33816145b6565b9050919050565b60006020820190508181036000830152614c538161461c565b9050919050565b60006020820190508181036000830152614c73816146c2565b9050919050565b60006020820190508181036000830152614c9381614728565b9050919050565b60006020820190508181036000830152614cb3816147a8565b9050919050565b6000602082019050614ccf600083018461483d565b92915050565b6000604082019050614cea600083018561483d565b614cf76020830184613d74565b9392505050565b6000604082019050614d13600083018561483d565b8181036020830152614d258184613d83565b90509392505050565b6000604051905081810181811067ffffffffffffffff82111715614d5557614d546151c9565b5b8060405250919050565b600067ffffffffffffffff821115614d7a57614d796151c9565b5b602082029050602081019050919050565b600067ffffffffffffffff821115614da657614da56151c9565b5b601f19601f8301169050602081019050919050565b600067ffffffffffffffff821115614dd657614dd56151c9565b5b601f19601f8301169050602081019050919050565b6000819050602082019050919050565b600081519050919050565b600081519050919050565b600081519050919050565b6000602082019050919050565b600082825260208201905092915050565b600082825260208201905092915050565b600082825260208201905092915050565b600081905092915050565b6000614e7282615002565b9150614e7d83615002565b9250827fffffffffffffffffffffffffffffffffffffffffffffffffffffffffffffffff03821115614eb257614eb161513c565b5b828201905092915050565b6000614ec882615002565b9150614ed383615002565b925082614ee357614ee261516b565b5b828204905092915050565b6000614ef982615002565b9150614f0483615002565b9250817fffffffffffffffffffffffffffffffffffffffffffffffffffffffffffffffff0483118215151615614f3d57614f3c61513c565b5b828202905092915050565b6000614f5382615002565b9150614f5e83615002565b925082821015614f7157614f7061513c565b5b828203905092915050565b6000614f8782614fe2565b9050919050565b6000614f9982614fe2565b9050919050565b60008115159050919050565b6000819050919050565b60007fffffffff0000000000000000000000000000000000000000000000000000000082169050919050565b600073ffffffffffffffffffffffffffffffffffffffff82169050919050565b6000819050919050565b60006bffffffffffffffffffffffff82169050919050565b82818337600083830152505050565b60005b83811015615051578082015181840152602081019050615036565b83811115615060576000848401525b50505050565b600061507182615002565b915060008214156150855761508461513c565b5b600182039050919050565b600060028204905060018216806150a857607f821691505b602082108114156150bc576150bb61519a565b5b50919050565b60006150cd82615002565b91507fffffffffffffffffffffffffffffffffffffffffffffffffffffffffffffffff821415615100576150ff61513c565b5b600182019050919050565b600061511682615002565b915061512183615002565b9250826151315761513061516b565b5b828206905092915050565b7f4e487b7100000000000000000000000000000000000000000000000000000000600052601160045260246000fd5b7f4e487b7100000000000000000000000000000000000000000000000000000000600052601260045260246000fd5b7f4e487b7100000000000000000000000000000000000000000000000000000000600052602260045260246000fd5b7f4e487b7100000000000000000000000000000000000000000000000000000000600052604160045260246000fd5b6000601f19601f8301169050919050565b61521281614f7c565b811461521d57600080fd5b50565b61522981614f8e565b811461523457600080fd5b50565b61524081614fa0565b811461524b57600080fd5b50565b61525781614fac565b811461526257600080fd5b50565b61526e81614fb6565b811461527957600080fd5b50565b61528581615002565b811461529057600080fd5b50565b61529c8161500c565b81146152a757600080fd5b5056fea2646970667358221220ff5374625465c8181bdab3d42b1df5fd98211aeede3ea16a246e7cfa5330af4564736f6c63430008000033",
  "immutableReferences": {},
  "source": "// SPDX-License-Identifier: MIT\n// https://docs.openzeppelin.com/contracts/4.x/wizard\npragma solidity ^0.8.0;\n\nimport \"@openzeppelin/contracts/utils/math/SafeMath.sol\";\nimport \"@openzeppelin/contracts-upgradeable/token/ERC721/ERC721Upgradeable.sol\";\n\nimport \"@openzeppelin/contracts-upgradeable/security/PausableUpgradeable.sol\";\nimport \"@openzeppelin/contracts-upgradeable/access/AccessControlUpgradeable.sol\";\n\nimport \"@openzeppelin/contracts-upgradeable/token/ERC721/extensions/ERC721URIStorageUpgradeable.sol\";\nimport \"@openzeppelin/contracts-upgradeable/token/ERC721/extensions/ERC721EnumerableUpgradeable.sol\";\n\n\nimport \"./lib/LibPart.sol\";\n\n\ncontract Paru721V2 is\n    ERC721Upgradeable,\n    ERC721URIStorageUpgradeable,\n    ERC721EnumerableUpgradeable,\n    AccessControlUpgradeable,\n    PausableUpgradeable\n{\n    using SafeMath for uint256;\n    bytes32 public constant BURNER_ROLE = keccak256(\"BURNER_ROLE\");\n    string private _baseUri;\n\n    event RoyaltySet(uint256 tokenId, LibPart.Part[] royalty);\n    event RoyaltyOwnerSet(uint256 tokenId, address owner);\n\n    // ownerble upgradeable\n    mapping(uint256 => LibPart.Part[]) _royalties;\n    mapping(uint256 => address) _royaltyOwners;\n\n    function initialize(\n        string memory _name,\n        string memory _symbol,\n        string memory _baseuri\n    ) external initializer {\n        __ERC721Enumerable_init_unchained();\n        __ERC721URIStorage_init_unchained();\n        __ERC721_init_unchained(_name, _symbol);\n        _setBaseURI(_baseuri);\n    }\n\n    /*\n     * bytes4(keccak256('getRoyalties(LibAsset.AssetType)')) == 0x44c74bcc\n     */\n    bytes4 constant _INTERFACE_ID_ROYALTIES = 0x44c74bcc;\n\n    /**\n     * @dev Mints a token to an address with a tokenURI.\n     * @param _to address of the future owner of the token\n     */\n    function mintItem(address _to, string memory _uri) public {\n        uint256 newTokenId = _getNextTokenId();\n        _mint(_to, newTokenId);\n        _setTokenURI(newTokenId, _uri);\n        // approvalForAll for reduce user's gas??\n    }\n\n    function mintItemWithRoyalty( // AndApprove?\n        address _to,\n        string memory _uri,\n        address royaltyOwner,\n        LibPart.Part[] memory royalties\n    ) public {\n        uint256 newTokenId = _getNextTokenId();\n        _mint(_to, newTokenId);\n        _setTokenURI(newTokenId, _uri);\n        _setRoyaltyOwner(newTokenId, royaltyOwner);\n        _setRoyalties(newTokenId, royalties);\n    }\n\n    // update - setRoyalty\n    function updateRoyalty(uint256 tokenId, LibPart.Part[] memory royalties)\n        external\n    {\n        require(\n            msg.sender == getRoyaltyOwner(tokenId),\n            \"message sender is not royaltyOwner\"\n        );\n        require(\n            _exists(tokenId),\n            \"ERC721: approved query for nonexistent token\"\n        );\n        _setRoyalties(tokenId, royalties);\n    }\n\n    // transfer - setRoyaltyOwner\n    function transferRoyaltyOwnership(uint256 tokenId, address to) external {\n        require(\n            msg.sender == getRoyaltyOwner(tokenId),\n            \"message sender is not royaltyOwner\"\n        );\n        require(\n            _exists(tokenId),\n            \"ERC721: approved query for nonexistent token\"\n        );\n        _setRoyaltyOwner(tokenId, to);\n    }\n\n\n\n    function getRoyalties(uint256 tokenId)\n        public\n        view\n        returns (LibPart.Part[] memory)\n    {\n        return _royalties[tokenId];\n    }\n\n    function _setRoyalties(uint256 tokenId, LibPart.Part[] memory royalties)\n        internal\n    {\n        // clear existence\n        delete _royalties[tokenId];\n        // validate and save\n        for (uint256 i = 0; i < royalties.length; i++) {\n            require(\n                royalties[i].account != address(0x0),\n                \"Recipient should be present\"\n            );\n            require(\n                royalties[i].value != 0,\n                \"Royalty value should be positive\"\n            );\n            _royalties[tokenId].push(royalties[i]);\n        }\n\n        emit RoyaltySet(tokenId, royalties);\n    }\n\n    function getRoyaltyOwner(uint256 tokenId) public view returns (address) {\n        return _royaltyOwners[tokenId];\n    }\n\n    function _setRoyaltyOwner(uint256 tokenId, address owner) internal {\n        require(owner != address(0x0), \"Recipient should be present\");\n        _royaltyOwners[tokenId] = owner;\n\n        emit RoyaltyOwnerSet(tokenId, owner);\n    }\n\n    // balance transfer\n\n    function _getNextTokenId() private view returns (uint256) {\n        return totalSupply().add(1);\n    }\n\n    function _beforeTokenTransfer(\n        address from,\n        address to,\n        uint256 tokenId\n    )\n        internal\n        override(ERC721EnumerableUpgradeable, ERC721Upgradeable)\n        whenNotPaused\n    {\n        super._beforeTokenTransfer(from, to, tokenId);\n    }\n\n    function _burn(uint256 tokenId)\n        internal\n        override(ERC721Upgradeable, ERC721URIStorageUpgradeable)\n    {\n        require(hasRole(BURNER_ROLE, _msgSender()));\n        super._burn(tokenId);\n    }\n\n    function tokenURI(uint256 tokenId)\n        public\n        view\n        override(ERC721Upgradeable, ERC721URIStorageUpgradeable)\n        returns (string memory)\n    {\n        return super.tokenURI(tokenId);\n    }\n\n    function _setBaseURI(string memory _baseuri) internal virtual {\n        _baseUri = _baseuri;\n    }\n\n    function _baseURI() internal view virtual override returns (string memory) {\n        return _baseUri;\n    }\n\n    function supportsInterface(bytes4 interfaceId)\n        public\n        view\n        override(\n            ERC721Upgradeable,\n            AccessControlUpgradeable,\n            ERC721EnumerableUpgradeable\n        )\n        returns (bool)\n    {\n        return\n            interfaceId == _INTERFACE_ID_ROYALTIES ||\n            super.supportsInterface(interfaceId);\n    }\n}\n",
  "sourcePath": "/Users/chang-younglee/harbor/parula-backend/smartcontract/v1.0/contracts/Paru721V2.sol",
  "compiler": {
    "name": "solc",
    "version": "0.8.0+commit.c7dfd78e.Emscripten.clang"
  },
  "schemaVersion": "3.4.0",
  "updatedAt": "2021-08-09T07:09:19.733Z",
  "devdoc": {
    "kind": "dev",
    "methods": {
      "approve(address,uint256)": {
        "details": "See {IERC721-approve}."
      },
      "balanceOf(address)": {
        "details": "See {IERC721-balanceOf}."
      },
      "getApproved(uint256)": {
        "details": "See {IERC721-getApproved}."
      },
      "getRoleAdmin(bytes32)": {
        "details": "Returns the admin role that controls `role`. See {grantRole} and {revokeRole}. To change a role's admin, use {_setRoleAdmin}."
      },
      "grantRole(bytes32,address)": {
        "details": "Grants `role` to `account`. If `account` had not been already granted `role`, emits a {RoleGranted} event. Requirements: - the caller must have ``role``'s admin role."
      },
      "hasRole(bytes32,address)": {
        "details": "Returns `true` if `account` has been granted `role`."
      },
      "isApprovedForAll(address,address)": {
        "details": "See {IERC721-isApprovedForAll}."
      },
      "mintItem(address,string)": {
        "details": "Mints a token to an address with a tokenURI.",
        "params": {
          "_to": "address of the future owner of the token"
        }
      },
      "name()": {
        "details": "See {IERC721Metadata-name}."
      },
      "ownerOf(uint256)": {
        "details": "See {IERC721-ownerOf}."
      },
      "paused()": {
        "details": "Returns true if the contract is paused, and false otherwise."
      },
      "renounceRole(bytes32,address)": {
        "details": "Revokes `role` from the calling account. Roles are often managed via {grantRole} and {revokeRole}: this function's purpose is to provide a mechanism for accounts to lose their privileges if they are compromised (such as when a trusted device is misplaced). If the calling account had been granted `role`, emits a {RoleRevoked} event. Requirements: - the caller must be `account`."
      },
      "revokeRole(bytes32,address)": {
        "details": "Revokes `role` from `account`. If `account` had been granted `role`, emits a {RoleRevoked} event. Requirements: - the caller must have ``role``'s admin role."
      },
      "safeTransferFrom(address,address,uint256)": {
        "details": "See {IERC721-safeTransferFrom}."
      },
      "safeTransferFrom(address,address,uint256,bytes)": {
        "details": "See {IERC721-safeTransferFrom}."
      },
      "setApprovalForAll(address,bool)": {
        "details": "See {IERC721-setApprovalForAll}."
      },
      "symbol()": {
        "details": "See {IERC721Metadata-symbol}."
      },
      "tokenByIndex(uint256)": {
        "details": "See {IERC721Enumerable-tokenByIndex}."
      },
      "tokenOfOwnerByIndex(address,uint256)": {
        "details": "See {IERC721Enumerable-tokenOfOwnerByIndex}."
      },
      "totalSupply()": {
        "details": "See {IERC721Enumerable-totalSupply}."
      },
      "transferFrom(address,address,uint256)": {
        "details": "See {IERC721-transferFrom}."
      }
    },
    "version": 1
  },
  "userdoc": {
    "kind": "user",
    "methods": {},
    "version": 1
  }
}