{
  "contractName": "Paru721",
  "abi": [
    {
      "anonymous": false,
      "inputs": [
        {
          "indexed": true,
          "internalType": "address",
          "name": "owner",
          "type": "address"
        },
        {
          "indexed": true,
          "internalType": "address",
          "name": "approved",
          "type": "address"
        },
        {
          "indexed": true,
          "internalType": "uint256",
          "name": "tokenId",
          "type": "uint256"
        }
      ],
      "name": "Approval",
      "type": "event"
    },
    {
      "anonymous": false,
      "inputs": [
        {
          "indexed": true,
          "internalType": "address",
          "name": "owner",
          "type": "address"
        },
        {
          "indexed": true,
          "internalType": "address",
          "name": "operator",
          "type": "address"
        },
        {
          "indexed": false,
          "internalType": "bool",
          "name": "approved",
          "type": "bool"
        }
      ],
      "name": "ApprovalForAll",
      "type": "event"
    },
    {
      "anonymous": false,
      "inputs": [
        {
          "indexed": false,
          "internalType": "address",
          "name": "account",
          "type": "address"
        }
      ],
      "name": "Paused",
      "type": "event"
    },
    {
      "anonymous": false,
      "inputs": [
        {
          "indexed": true,
          "internalType": "bytes32",
          "name": "role",
          "type": "bytes32"
        },
        {
          "indexed": true,
          "internalType": "bytes32",
          "name": "previousAdminRole",
          "type": "bytes32"
        },
        {
          "indexed": true,
          "internalType": "bytes32",
          "name": "newAdminRole",
          "type": "bytes32"
        }
      ],
      "name": "RoleAdminChanged",
      "type": "event"
    },
    {
      "anonymous": false,
      "inputs": [
        {
          "indexed": true,
          "internalType": "bytes32",
          "name": "role",
          "type": "bytes32"
        },
        {
          "indexed": true,
          "internalType": "address",
          "name": "account",
          "type": "address"
        },
        {
          "indexed": true,
          "internalType": "address",
          "name": "sender",
          "type": "address"
        }
      ],
      "name": "RoleGranted",
      "type": "event"
    },
    {
      "anonymous": false,
      "inputs": [
        {
          "indexed": true,
          "internalType": "bytes32",
          "name": "role",
          "type": "bytes32"
        },
        {
          "indexed": true,
          "internalType": "address",
          "name": "account",
          "type": "address"
        },
        {
          "indexed": true,
          "internalType": "address",
          "name": "sender",
          "type": "address"
        }
      ],
      "name": "RoleRevoked",
      "type": "event"
    },
    {
      "anonymous": false,
      "inputs": [
        {
          "indexed": true,
          "internalType": "address",
          "name": "from",
          "type": "address"
        },
        {
          "indexed": true,
          "internalType": "address",
          "name": "to",
          "type": "address"
        },
        {
          "indexed": true,
          "internalType": "uint256",
          "name": "tokenId",
          "type": "uint256"
        }
      ],
      "name": "Transfer",
      "type": "event"
    },
    {
      "anonymous": false,
      "inputs": [
        {
          "indexed": false,
          "internalType": "address",
          "name": "account",
          "type": "address"
        }
      ],
      "name": "Unpaused",
      "type": "event"
    },
    {
      "inputs": [],
      "name": "BURNER_ROLE",
      "outputs": [
        {
          "internalType": "bytes32",
          "name": "",
          "type": "bytes32"
        }
      ],
      "stateMutability": "view",
      "type": "function",
      "constant": true
    },
    {
      "inputs": [],
      "name": "DEFAULT_ADMIN_ROLE",
      "outputs": [
        {
          "internalType": "bytes32",
          "name": "",
          "type": "bytes32"
        }
      ],
      "stateMutability": "view",
      "type": "function",
      "constant": true
    },
    {
      "inputs": [
        {
          "internalType": "address",
          "name": "to",
          "type": "address"
        },
        {
          "internalType": "uint256",
          "name": "tokenId",
          "type": "uint256"
        }
      ],
      "name": "approve",
      "outputs": [],
      "stateMutability": "nonpayable",
      "type": "function"
    },
    {
      "inputs": [
        {
          "internalType": "address",
          "name": "owner",
          "type": "address"
        }
      ],
      "name": "balanceOf",
      "outputs": [
        {
          "internalType": "uint256",
          "name": "",
          "type": "uint256"
        }
      ],
      "stateMutability": "view",
      "type": "function",
      "constant": true
    },
    {
      "inputs": [
        {
          "internalType": "uint256",
          "name": "tokenId",
          "type": "uint256"
        }
      ],
      "name": "getApproved",
      "outputs": [
        {
          "internalType": "address",
          "name": "",
          "type": "address"
        }
      ],
      "stateMutability": "view",
      "type": "function",
      "constant": true
    },
    {
      "inputs": [
        {
          "internalType": "bytes32",
          "name": "role",
          "type": "bytes32"
        }
      ],
      "name": "getRoleAdmin",
      "outputs": [
        {
          "internalType": "bytes32",
          "name": "",
          "type": "bytes32"
        }
      ],
      "stateMutability": "view",
      "type": "function",
      "constant": true
    },
    {
      "inputs": [
        {
          "internalType": "bytes32",
          "name": "role",
          "type": "bytes32"
        },
        {
          "internalType": "address",
          "name": "account",
          "type": "address"
        }
      ],
      "name": "grantRole",
      "outputs": [],
      "stateMutability": "nonpayable",
      "type": "function"
    },
    {
      "inputs": [
        {
          "internalType": "bytes32",
          "name": "role",
          "type": "bytes32"
        },
        {
          "internalType": "address",
          "name": "account",
          "type": "address"
        }
      ],
      "name": "hasRole",
      "outputs": [
        {
          "internalType": "bool",
          "name": "",
          "type": "bool"
        }
      ],
      "stateMutability": "view",
      "type": "function",
      "constant": true
    },
    {
      "inputs": [
        {
          "internalType": "address",
          "name": "owner",
          "type": "address"
        },
        {
          "internalType": "address",
          "name": "operator",
          "type": "address"
        }
      ],
      "name": "isApprovedForAll",
      "outputs": [
        {
          "internalType": "bool",
          "name": "",
          "type": "bool"
        }
      ],
      "stateMutability": "view",
      "type": "function",
      "constant": true
    },
    {
      "inputs": [],
      "name": "name",
      "outputs": [
        {
          "internalType": "string",
          "name": "",
          "type": "string"
        }
      ],
      "stateMutability": "view",
      "type": "function",
      "constant": true
    },
    {
      "inputs": [
        {
          "internalType": "uint256",
          "name": "tokenId",
          "type": "uint256"
        }
      ],
      "name": "ownerOf",
      "outputs": [
        {
          "internalType": "address",
          "name": "",
          "type": "address"
        }
      ],
      "stateMutability": "view",
      "type": "function",
      "constant": true
    },
    {
      "inputs": [],
      "name": "paused",
      "outputs": [
        {
          "internalType": "bool",
          "name": "",
          "type": "bool"
        }
      ],
      "stateMutability": "view",
      "type": "function",
      "constant": true
    },
    {
      "inputs": [
        {
          "internalType": "bytes32",
          "name": "role",
          "type": "bytes32"
        },
        {
          "internalType": "address",
          "name": "account",
          "type": "address"
        }
      ],
      "name": "renounceRole",
      "outputs": [],
      "stateMutability": "nonpayable",
      "type": "function"
    },
    {
      "inputs": [
        {
          "internalType": "bytes32",
          "name": "role",
          "type": "bytes32"
        },
        {
          "internalType": "address",
          "name": "account",
          "type": "address"
        }
      ],
      "name": "revokeRole",
      "outputs": [],
      "stateMutability": "nonpayable",
      "type": "function"
    },
    {
      "inputs": [
        {
          "internalType": "address",
          "name": "from",
          "type": "address"
        },
        {
          "internalType": "address",
          "name": "to",
          "type": "address"
        },
        {
          "internalType": "uint256",
          "name": "tokenId",
          "type": "uint256"
        }
      ],
      "name": "safeTransferFrom",
      "outputs": [],
      "stateMutability": "nonpayable",
      "type": "function"
    },
    {
      "inputs": [
        {
          "internalType": "address",
          "name": "from",
          "type": "address"
        },
        {
          "internalType": "address",
          "name": "to",
          "type": "address"
        },
        {
          "internalType": "uint256",
          "name": "tokenId",
          "type": "uint256"
        },
        {
          "internalType": "bytes",
          "name": "_data",
          "type": "bytes"
        }
      ],
      "name": "safeTransferFrom",
      "outputs": [],
      "stateMutability": "nonpayable",
      "type": "function"
    },
    {
      "inputs": [
        {
          "internalType": "address",
          "name": "operator",
          "type": "address"
        },
        {
          "internalType": "bool",
          "name": "approved",
          "type": "bool"
        }
      ],
      "name": "setApprovalForAll",
      "outputs": [],
      "stateMutability": "nonpayable",
      "type": "function"
    },
    {
      "inputs": [],
      "name": "symbol",
      "outputs": [
        {
          "internalType": "string",
          "name": "",
          "type": "string"
        }
      ],
      "stateMutability": "view",
      "type": "function",
      "constant": true
    },
    {
      "inputs": [
        {
          "internalType": "uint256",
          "name": "index",
          "type": "uint256"
        }
      ],
      "name": "tokenByIndex",
      "outputs": [
        {
          "internalType": "uint256",
          "name": "",
          "type": "uint256"
        }
      ],
      "stateMutability": "view",
      "type": "function",
      "constant": true
    },
    {
      "inputs": [
        {
          "internalType": "address",
          "name": "owner",
          "type": "address"
        },
        {
          "internalType": "uint256",
          "name": "index",
          "type": "uint256"
        }
      ],
      "name": "tokenOfOwnerByIndex",
      "outputs": [
        {
          "internalType": "uint256",
          "name": "",
          "type": "uint256"
        }
      ],
      "stateMutability": "view",
      "type": "function",
      "constant": true
    },
    {
      "inputs": [],
      "name": "totalSupply",
      "outputs": [
        {
          "internalType": "uint256",
          "name": "",
          "type": "uint256"
        }
      ],
      "stateMutability": "view",
      "type": "function",
      "constant": true
    },
    {
      "inputs": [
        {
          "internalType": "address",
          "name": "from",
          "type": "address"
        },
        {
          "internalType": "address",
          "name": "to",
          "type": "address"
        },
        {
          "internalType": "uint256",
          "name": "tokenId",
          "type": "uint256"
        }
      ],
      "name": "transferFrom",
      "outputs": [],
      "stateMutability": "nonpayable",
      "type": "function"
    },
    {
      "inputs": [
        {
          "internalType": "string",
          "name": "_name",
          "type": "string"
        },
        {
          "internalType": "string",
          "name": "_symbol",
          "type": "string"
        },
        {
          "internalType": "string",
          "name": "_baseuri",
          "type": "string"
        }
      ],
      "name": "initialize",
      "outputs": [],
      "stateMutability": "nonpayable",
      "type": "function"
    },
    {
      "inputs": [
        {
          "internalType": "address",
          "name": "_to",
          "type": "address"
        },
        {
          "internalType": "string",
          "name": "_uri",
          "type": "string"
        }
      ],
      "name": "mintItem",
      "outputs": [],
      "stateMutability": "nonpayable",
      "type": "function"
    },
    {
      "inputs": [
        {
          "internalType": "uint256",
          "name": "tokenId",
          "type": "uint256"
        }
      ],
      "name": "tokenURI",
      "outputs": [
        {
          "internalType": "string",
          "name": "",
          "type": "string"
        }
      ],
      "stateMutability": "view",
      "type": "function",
      "constant": true
    },
    {
      "inputs": [
        {
          "internalType": "bytes4",
          "name": "interfaceId",
          "type": "bytes4"
        }
      ],
      "name": "supportsInterface",
      "outputs": [
        {
          "internalType": "bool",
          "name": "",
          "type": "bool"
        }
      ],
      "stateMutability": "view",
      "type": "function",
      "constant": true
    }
  ],
  "bytecode": "0x608060405234801561001057600080fd5b506144c3806100206000396000f3fe608060405234801561001057600080fd5b506004361061018e5760003560e01c80634f6ccce7116100de578063a217fddf11610097578063b88d4fde11610071578063b88d4fde146104a7578063c87b56dd146104c3578063d547741f146104f3578063e985e9c51461050f5761018e565b8063a217fddf14610451578063a22cb4651461046f578063a6487c531461048b5761018e565b80634f6ccce7146103555780635c975abb146103855780636352211e146103a357806370a08231146103d357806391d148541461040357806395d89b41146104335761018e565b806323b872dd1161014b5780632f2ff15d116101255780632f2ff15d146102d15780632f745c59146102ed57806336568abe1461031d57806342842e0e146103395761018e565b806323b872dd14610267578063248a9ca314610283578063282c51f3146102b35761018e565b806301ffc9a71461019357806306fdde03146101c3578063081812fc146101e1578063095ea7b314610211578063110bcd451461022d57806318160ddd14610249575b600080fd5b6101ad60048036038101906101a8919061315f565b61053f565b6040516101ba9190613c9b565b60405180910390f35b6101cb610551565b6040516101d89190613cd1565b60405180910390f35b6101fb60048036038101906101f69190613248565b6105e3565b6040516102089190613c34565b60405180910390f35b61022b600480360381019061022691906130be565b610668565b005b6102476004803603810190610242919061306a565b610780565b005b6102516107a5565b60405161025e9190613fb3565b60405180910390f35b610281600480360381019061027c9190612f64565b6107b2565b005b61029d600480360381019061029891906130fa565b610812565b6040516102aa9190613cb6565b60405180910390f35b6102bb610832565b6040516102c89190613cb6565b60405180910390f35b6102eb60048036038101906102e69190613123565b610856565b005b610307600480360381019061030291906130be565b61087f565b6040516103149190613fb3565b60405180910390f35b61033760048036038101906103329190613123565b610924565b005b610353600480360381019061034e9190612f64565b6109a7565b005b61036f600480360381019061036a9190613248565b6109c7565b60405161037c9190613fb3565b60405180910390f35b61038d610a5e565b60405161039a9190613c9b565b60405180910390f35b6103bd60048036038101906103b89190613248565b610a76565b6040516103ca9190613c34565b60405180910390f35b6103ed60048036038101906103e89190612eff565b610b28565b6040516103fa9190613fb3565b60405180910390f35b61041d60048036038101906104189190613123565b610be0565b60405161042a9190613c9b565b60405180910390f35b61043b610c4b565b6040516104489190613cd1565b60405180910390f35b610459610cdd565b6040516104669190613cb6565b60405180910390f35b6104896004803603810190610484919061302e565b610ce4565b005b6104a560048036038101906104a091906131b1565b610e65565b005b6104c160048036038101906104bc9190612fb3565b610f64565b005b6104dd60048036038101906104d89190613248565b610fc6565b6040516104ea9190613cd1565b60405180910390f35b61050d60048036038101906105089190613123565b610fd8565b005b61052960048036038101906105249190612f28565b611001565b6040516105369190613c9b565b60405180910390f35b600061054a82611095565b9050919050565b606060658054610560906142a1565b80601f016020809104026020016040519081016040528092919081815260200182805461058c906142a1565b80156105d95780601f106105ae576101008083540402835291602001916105d9565b820191906000526020600020905b8154815290600101906020018083116105bc57829003601f168201915b5050505050905090565b60006105ee8261110f565b61062d576040517f08c379a000000000000000000000000000000000000000000000000000000000815260040161062490613ed3565b60405180910390fd5b6069600083815260200190815260200160002060009054906101000a900473ffffffffffffffffffffffffffffffffffffffff169050919050565b600061067382610a76565b90508073ffffffffffffffffffffffffffffffffffffffff168373ffffffffffffffffffffffffffffffffffffffff1614156106e4576040517f08c379a00000000000000000000000000000000000000000000000000000000081526004016106db90613f33565b60405180910390fd5b8073ffffffffffffffffffffffffffffffffffffffff1661070361117b565b73ffffffffffffffffffffffffffffffffffffffff16148061073257506107318161072c61117b565b611001565b5b610771576040517f08c379a000000000000000000000000000000000000000000000000000000000815260040161076890613df3565b60405180910390fd5b61077b8383611183565b505050565b600061078a61123c565b9050610796838261125e565b6107a0818361142c565b505050565b600060cb80549050905090565b6107c36107bd61117b565b826114a0565b610802576040517f08c379a00000000000000000000000000000000000000000000000000000000081526004016107f990613f53565b60405180910390fd5b61080d83838361157e565b505050565b600060fb6000838152602001908152602001600020600101549050919050565b7f3c11d16cbaffd01df69ce1c404f6340ee057498f5f00246190ea54220576a84881565b61085f82610812565b6108708161086b61117b565b6117da565b61087a8383611877565b505050565b600061088a83610b28565b82106108cb576040517f08c379a00000000000000000000000000000000000000000000000000000000081526004016108c290613d13565b60405180910390fd5b60c960008473ffffffffffffffffffffffffffffffffffffffff1673ffffffffffffffffffffffffffffffffffffffff168152602001908152602001600020600083815260200190815260200160002054905092915050565b61092c61117b565b73ffffffffffffffffffffffffffffffffffffffff168173ffffffffffffffffffffffffffffffffffffffff1614610999576040517f08c379a000000000000000000000000000000000000000000000000000000000815260040161099090613f93565b60405180910390fd5b6109a38282611958565b5050565b6109c283838360405180602001604052806000815250610f64565b505050565b60006109d16107a5565b8210610a12576040517f08c379a0000000000000000000000000000000000000000000000000000000008152600401610a0990613f73565b60405180910390fd5b60cb8281548110610a4c577f4e487b7100000000000000000000000000000000000000000000000000000000600052603260045260246000fd5b90600052602060002001549050919050565b600061012d60009054906101000a900460ff16905090565b6000806067600084815260200190815260200160002060009054906101000a900473ffffffffffffffffffffffffffffffffffffffff169050600073ffffffffffffffffffffffffffffffffffffffff168173ffffffffffffffffffffffffffffffffffffffff161415610b1f576040517f08c379a0000000000000000000000000000000000000000000000000000000008152600401610b1690613e33565b60405180910390fd5b80915050919050565b60008073ffffffffffffffffffffffffffffffffffffffff168273ffffffffffffffffffffffffffffffffffffffff161415610b99576040517f08c379a0000000000000000000000000000000000000000000000000000000008152600401610b9090613e13565b60405180910390fd5b606860008373ffffffffffffffffffffffffffffffffffffffff1673ffffffffffffffffffffffffffffffffffffffff168152602001908152602001600020549050919050565b600060fb600084815260200190815260200160002060000160008373ffffffffffffffffffffffffffffffffffffffff1673ffffffffffffffffffffffffffffffffffffffff16815260200190815260200160002060009054906101000a900460ff16905092915050565b606060668054610c5a906142a1565b80601f0160208091040260200160405190810160405280929190818152602001828054610c86906142a1565b8015610cd35780601f10610ca857610100808354040283529160200191610cd3565b820191906000526020600020905b815481529060010190602001808311610cb657829003601f168201915b5050505050905090565b6000801b81565b610cec61117b565b73ffffffffffffffffffffffffffffffffffffffff168273ffffffffffffffffffffffffffffffffffffffff161415610d5a576040517f08c379a0000000000000000000000000000000000000000000000000000000008152600401610d5190613d93565b60405180910390fd5b80606a6000610d6761117b565b73ffffffffffffffffffffffffffffffffffffffff1673ffffffffffffffffffffffffffffffffffffffff16815260200190815260200160002060008473ffffffffffffffffffffffffffffffffffffffff1673ffffffffffffffffffffffffffffffffffffffff16815260200190815260200160002060006101000a81548160ff0219169083151502179055508173ffffffffffffffffffffffffffffffffffffffff16610e1461117b565b73ffffffffffffffffffffffffffffffffffffffff167f17307eab39ab6107e8899845ad3d59bd9653f200f220920489ca2b5937696c3183604051610e599190613c9b565b60405180910390a35050565b600060019054906101000a900460ff1680610e8b575060008054906101000a900460ff16155b610eca576040517f08c379a0000000000000000000000000000000000000000000000000000000008152600401610ec190613e73565b60405180910390fd5b60008060019054906101000a900460ff161590508015610f1a576001600060016101000a81548160ff02191690831515021790555060016000806101000a81548160ff0219169083151502179055505b610f22611a3a565b610f2a611b13565b610f348484611bec565b610f3d82611cf5565b8015610f5e5760008060016101000a81548160ff0219169083151502179055505b50505050565b610f75610f6f61117b565b836114a0565b610fb4576040517f08c379a0000000000000000000000000000000000000000000000000000000008152600401610fab90613f53565b60405180910390fd5b610fc084848484611d10565b50505050565b6060610fd182611d6c565b9050919050565b610fe182610812565b610ff281610fed61117b565b6117da565b610ffc8383611958565b505050565b6000606a60008473ffffffffffffffffffffffffffffffffffffffff1673ffffffffffffffffffffffffffffffffffffffff16815260200190815260200160002060008373ffffffffffffffffffffffffffffffffffffffff1673ffffffffffffffffffffffffffffffffffffffff16815260200190815260200160002060009054906101000a900460ff16905092915050565b60007f7965db0b000000000000000000000000000000000000000000000000000000007bffffffffffffffffffffffffffffffffffffffffffffffffffffffff1916827bffffffffffffffffffffffffffffffffffffffffffffffffffffffff19161480611108575061110782611ebe565b5b9050919050565b60008073ffffffffffffffffffffffffffffffffffffffff166067600084815260200190815260200160002060009054906101000a900473ffffffffffffffffffffffffffffffffffffffff1673ffffffffffffffffffffffffffffffffffffffff1614159050919050565b600033905090565b816069600083815260200190815260200160002060006101000a81548173ffffffffffffffffffffffffffffffffffffffff021916908373ffffffffffffffffffffffffffffffffffffffff160217905550808273ffffffffffffffffffffffffffffffffffffffff166111f683610a76565b73ffffffffffffffffffffffffffffffffffffffff167f8c5be1e5ebec7d5bd14f71427d1e84f3dd0314c0f7b2291e5b200ac8c7c3b92560405160405180910390a45050565b6000611259600161124b6107a5565b611f3890919063ffffffff16565b905090565b600073ffffffffffffffffffffffffffffffffffffffff168273ffffffffffffffffffffffffffffffffffffffff1614156112ce576040517f08c379a00000000000000000000000000000000000000000000000000000000081526004016112c590613e93565b60405180910390fd5b6112d78161110f565b15611317576040517f08c379a000000000000000000000000000000000000000000000000000000000815260040161130e90613d53565b60405180910390fd5b61132360008383611f4e565b6001606860008473ffffffffffffffffffffffffffffffffffffffff1673ffffffffffffffffffffffffffffffffffffffff168152602001908152602001600020600082825461137391906140a2565b92505081905550816067600083815260200190815260200160002060006101000a81548173ffffffffffffffffffffffffffffffffffffffff021916908373ffffffffffffffffffffffffffffffffffffffff160217905550808273ffffffffffffffffffffffffffffffffffffffff16600073ffffffffffffffffffffffffffffffffffffffff167fddf252ad1be2c89b69c2b068fc378daa952ba7f163c4a11628f55a4df523b3ef60405160405180910390a45050565b6114358261110f565b611474576040517f08c379a000000000000000000000000000000000000000000000000000000000815260040161146b90613e53565b60405180910390fd5b8060976000848152602001908152602001600020908051906020019061149b929190612d0e565b505050565b60006114ab8261110f565b6114ea576040517f08c379a00000000000000000000000000000000000000000000000000000000081526004016114e190613db3565b60405180910390fd5b60006114f583610a76565b90508073ffffffffffffffffffffffffffffffffffffffff168473ffffffffffffffffffffffffffffffffffffffff16148061156457508373ffffffffffffffffffffffffffffffffffffffff1661154c846105e3565b73ffffffffffffffffffffffffffffffffffffffff16145b8061157557506115748185611001565b5b91505092915050565b8273ffffffffffffffffffffffffffffffffffffffff1661159e82610a76565b73ffffffffffffffffffffffffffffffffffffffff16146115f4576040517f08c379a00000000000000000000000000000000000000000000000000000000081526004016115eb90613ef3565b60405180910390fd5b600073ffffffffffffffffffffffffffffffffffffffff168273ffffffffffffffffffffffffffffffffffffffff161415611664576040517f08c379a000000000000000000000000000000000000000000000000000000000815260040161165b90613d73565b60405180910390fd5b61166f838383611f4e565b61167a600082611183565b6001606860008573ffffffffffffffffffffffffffffffffffffffff1673ffffffffffffffffffffffffffffffffffffffff16815260200190815260200160002060008282546116ca9190614183565b925050819055506001606860008473ffffffffffffffffffffffffffffffffffffffff1673ffffffffffffffffffffffffffffffffffffffff168152602001908152602001600020600082825461172191906140a2565b92505081905550816067600083815260200190815260200160002060006101000a81548173ffffffffffffffffffffffffffffffffffffffff021916908373ffffffffffffffffffffffffffffffffffffffff160217905550808273ffffffffffffffffffffffffffffffffffffffff168473ffffffffffffffffffffffffffffffffffffffff167fddf252ad1be2c89b69c2b068fc378daa952ba7f163c4a11628f55a4df523b3ef60405160405180910390a4505050565b6117e48282610be0565b611873576118098173ffffffffffffffffffffffffffffffffffffffff166014611fa6565b6118178360001c6020611fa6565b604051602001611828929190613bfa565b6040516020818303038152906040526040517f08c379a000000000000000000000000000000000000000000000000000000000815260040161186a9190613cd1565b60405180910390fd5b5050565b6118818282610be0565b61195457600160fb600084815260200190815260200160002060000160008373ffffffffffffffffffffffffffffffffffffffff1673ffffffffffffffffffffffffffffffffffffffff16815260200190815260200160002060006101000a81548160ff0219169083151502179055506118f961117b565b73ffffffffffffffffffffffffffffffffffffffff168173ffffffffffffffffffffffffffffffffffffffff16837f2f8788117e7eff1d82e926ec794901d17c78024a50270940304540a733656f0d60405160405180910390a45b5050565b6119628282610be0565b15611a3657600060fb600084815260200190815260200160002060000160008373ffffffffffffffffffffffffffffffffffffffff1673ffffffffffffffffffffffffffffffffffffffff16815260200190815260200160002060006101000a81548160ff0219169083151502179055506119db61117b565b73ffffffffffffffffffffffffffffffffffffffff168173ffffffffffffffffffffffffffffffffffffffff16837ff6391f5c32d9c69d2a47ea670b442974b53935d1edc7fd64eb21e047a839171b60405160405180910390a45b5050565b600060019054906101000a900460ff1680611a60575060008054906101000a900460ff16155b611a9f576040517f08c379a0000000000000000000000000000000000000000000000000000000008152600401611a9690613e73565b60405180910390fd5b60008060019054906101000a900460ff161590508015611aef576001600060016101000a81548160ff02191690831515021790555060016000806101000a81548160ff0219169083151502179055505b8015611b105760008060016101000a81548160ff0219169083151502179055505b50565b600060019054906101000a900460ff1680611b39575060008054906101000a900460ff16155b611b78576040517f08c379a0000000000000000000000000000000000000000000000000000000008152600401611b6f90613e73565b60405180910390fd5b60008060019054906101000a900460ff161590508015611bc8576001600060016101000a81548160ff02191690831515021790555060016000806101000a81548160ff0219169083151502179055505b8015611be95760008060016101000a81548160ff0219169083151502179055505b50565b600060019054906101000a900460ff1680611c12575060008054906101000a900460ff16155b611c51576040517f08c379a0000000000000000000000000000000000000000000000000000000008152600401611c4890613e73565b60405180910390fd5b60008060019054906101000a900460ff161590508015611ca1576001600060016101000a81548160ff02191690831515021790555060016000806101000a81548160ff0219169083151502179055505b8260659080519060200190611cb7929190612d0e565b508160669080519060200190611cce929190612d0e565b508015611cf05760008060016101000a81548160ff0219169083151502179055505b505050565b8061015f9080519060200190611d0c929190612d0e565b5050565b611d1b84848461157e565b611d27848484846122a0565b611d66576040517f08c379a0000000000000000000000000000000000000000000000000000000008152600401611d5d90613d33565b60405180910390fd5b50505050565b6060611d778261110f565b611db6576040517f08c379a0000000000000000000000000000000000000000000000000000000008152600401611dad90613eb3565b60405180910390fd5b6000609760008481526020019081526020016000208054611dd6906142a1565b80601f0160208091040260200160405190810160405280929190818152602001828054611e02906142a1565b8015611e4f5780601f10611e2457610100808354040283529160200191611e4f565b820191906000526020600020905b815481529060010190602001808311611e3257829003601f168201915b505050505090506000611e60612437565b9050600081511415611e76578192505050611eb9565b600082511115611eab578082604051602001611e93929190613bd6565b60405160208183030381529060405292505050611eb9565b611eb4846124ca565b925050505b919050565b60007f780e9d63000000000000000000000000000000000000000000000000000000007bffffffffffffffffffffffffffffffffffffffffffffffffffffffff1916827bffffffffffffffffffffffffffffffffffffffffffffffffffffffff19161480611f315750611f3082612571565b5b9050919050565b60008183611f4691906140a2565b905092915050565b611f56610a5e565b15611f96576040517f08c379a0000000000000000000000000000000000000000000000000000000008152600401611f8d90613dd3565b60405180910390fd5b611fa1838383612653565b505050565b606060006002836002611fb99190614129565b611fc391906140a2565b67ffffffffffffffff811115612002577f4e487b7100000000000000000000000000000000000000000000000000000000600052604160045260246000fd5b6040519080825280601f01601f1916602001820160405280156120345781602001600182028036833780820191505090505b5090507f300000000000000000000000000000000000000000000000000000000000000081600081518110612092577f4e487b7100000000000000000000000000000000000000000000000000000000600052603260045260246000fd5b60200101907effffffffffffffffffffffffffffffffffffffffffffffffffffffffffffff1916908160001a9053507f78000000000000000000000000000000000000000000000000000000000000008160018151811061211c577f4e487b7100000000000000000000000000000000000000000000000000000000600052603260045260246000fd5b60200101907effffffffffffffffffffffffffffffffffffffffffffffffffffffffffffff1916908160001a9053506000600184600261215c9190614129565b61216691906140a2565b90505b6001811115612252577f3031323334353637383961626364656600000000000000000000000000000000600f8616601081106121ce577f4e487b7100000000000000000000000000000000000000000000000000000000600052603260045260246000fd5b1a60f81b82828151811061220b577f4e487b7100000000000000000000000000000000000000000000000000000000600052603260045260246000fd5b60200101907effffffffffffffffffffffffffffffffffffffffffffffffffffffffffffff1916908160001a905350600485901c94508061224b90614277565b9050612169565b5060008414612296576040517f08c379a000000000000000000000000000000000000000000000000000000000815260040161228d90613cf3565b60405180910390fd5b8091505092915050565b60006122c18473ffffffffffffffffffffffffffffffffffffffff16612767565b1561242a578373ffffffffffffffffffffffffffffffffffffffff1663150b7a026122ea61117b565b8786866040518563ffffffff1660e01b815260040161230c9493929190613c4f565b602060405180830381600087803b15801561232657600080fd5b505af192505050801561235757506040513d601f19601f820116820180604052508101906123549190613188565b60015b6123da573d8060008114612387576040519150601f19603f3d011682016040523d82523d6000602084013e61238c565b606091505b506000815114156123d2576040517f08c379a00000000000000000000000000000000000000000000000000000000081526004016123c990613d33565b60405180910390fd5b805181602001fd5b63150b7a0260e01b7bffffffffffffffffffffffffffffffffffffffffffffffffffffffff1916817bffffffffffffffffffffffffffffffffffffffffffffffffffffffff19161491505061242f565b600190505b949350505050565b606061015f8054612447906142a1565b80601f0160208091040260200160405190810160405280929190818152602001828054612473906142a1565b80156124c05780601f10612495576101008083540402835291602001916124c0565b820191906000526020600020905b8154815290600101906020018083116124a357829003601f168201915b5050505050905090565b60606124d58261110f565b612514576040517f08c379a000000000000000000000000000000000000000000000000000000000815260040161250b90613f13565b60405180910390fd5b600061251e612437565b9050600081511161253e5760405180602001604052806000815250612569565b806125488461277a565b604051602001612559929190613bd6565b6040516020818303038152906040525b915050919050565b60007f80ac58cd000000000000000000000000000000000000000000000000000000007bffffffffffffffffffffffffffffffffffffffffffffffffffffffff1916827bffffffffffffffffffffffffffffffffffffffffffffffffffffffff1916148061263c57507f5b5e139f000000000000000000000000000000000000000000000000000000007bffffffffffffffffffffffffffffffffffffffffffffffffffffffff1916827bffffffffffffffffffffffffffffffffffffffffffffffffffffffff1916145b8061264c575061264b82612927565b5b9050919050565b61265e838383612991565b600073ffffffffffffffffffffffffffffffffffffffff168373ffffffffffffffffffffffffffffffffffffffff1614156126a15761269c81612996565b6126e0565b8173ffffffffffffffffffffffffffffffffffffffff168373ffffffffffffffffffffffffffffffffffffffff16146126df576126de83826129df565b5b5b600073ffffffffffffffffffffffffffffffffffffffff168273ffffffffffffffffffffffffffffffffffffffff1614156127235761271e81612b4c565b612762565b8273ffffffffffffffffffffffffffffffffffffffff168273ffffffffffffffffffffffffffffffffffffffff1614612761576127608282612c8f565b5b5b505050565b600080823b905060008111915050919050565b606060008214156127c2576040518060400160405280600181526020017f30000000000000000000000000000000000000000000000000000000000000008152509050612922565b600082905060005b600082146127f45780806127dd906142d3565b915050600a826127ed91906140f8565b91506127ca565b60008167ffffffffffffffff811115612836577f4e487b7100000000000000000000000000000000000000000000000000000000600052604160045260246000fd5b6040519080825280601f01601f1916602001820160405280156128685781602001600182028036833780820191505090505b5090505b6000851461291b576001826128819190614183565b9150600a85612890919061431c565b603061289c91906140a2565b60f81b8183815181106128d8577f4e487b7100000000000000000000000000000000000000000000000000000000600052603260045260246000fd5b60200101907effffffffffffffffffffffffffffffffffffffffffffffffffffffffffffff1916908160001a905350600a8561291491906140f8565b945061286c565b8093505050505b919050565b60007f01ffc9a7000000000000000000000000000000000000000000000000000000007bffffffffffffffffffffffffffffffffffffffffffffffffffffffff1916827bffffffffffffffffffffffffffffffffffffffffffffffffffffffff1916149050919050565b505050565b60cb8054905060cc60008381526020019081526020016000208190555060cb81908060018154018082558091505060019003906000526020600020016000909190919091505550565b600060016129ec84610b28565b6129f69190614183565b9050600060ca6000848152602001908152602001600020549050818114612adb57600060c960008673ffffffffffffffffffffffffffffffffffffffff1673ffffffffffffffffffffffffffffffffffffffff16815260200190815260200160002060008481526020019081526020016000205490508060c960008773ffffffffffffffffffffffffffffffffffffffff1673ffffffffffffffffffffffffffffffffffffffff1681526020019081526020016000206000848152602001908152602001600020819055508160ca600083815260200190815260200160002081905550505b60ca60008481526020019081526020016000206000905560c960008573ffffffffffffffffffffffffffffffffffffffff1673ffffffffffffffffffffffffffffffffffffffff16815260200190815260200160002060008381526020019081526020016000206000905550505050565b6000600160cb80549050612b609190614183565b9050600060cc6000848152602001908152602001600020549050600060cb8381548110612bb6577f4e487b7100000000000000000000000000000000000000000000000000000000600052603260045260246000fd5b906000526020600020015490508060cb8381548110612bfe577f4e487b7100000000000000000000000000000000000000000000000000000000600052603260045260246000fd5b90600052602060002001819055508160cc60008381526020019081526020016000208190555060cc60008581526020019081526020016000206000905560cb805480612c73577f4e487b7100000000000000000000000000000000000000000000000000000000600052603160045260246000fd5b6001900381819060005260206000200160009055905550505050565b6000612c9a83610b28565b90508160c960008573ffffffffffffffffffffffffffffffffffffffff1673ffffffffffffffffffffffffffffffffffffffff1681526020019081526020016000206000838152602001908152602001600020819055508060ca600084815260200190815260200160002081905550505050565b828054612d1a906142a1565b90600052602060002090601f016020900481019282612d3c5760008555612d83565b82601f10612d5557805160ff1916838001178555612d83565b82800160010185558215612d83579182015b82811115612d82578251825591602001919060010190612d67565b5b509050612d909190612d94565b5090565b5b80821115612dad576000816000905550600101612d95565b5090565b6000612dc4612dbf84613fff565b613fce565b905082815260208101848484011115612ddc57600080fd5b612de7848285614235565b509392505050565b6000612e02612dfd8461402f565b613fce565b905082815260208101848484011115612e1a57600080fd5b612e25848285614235565b509392505050565b600081359050612e3c8161441a565b92915050565b600081359050612e5181614431565b92915050565b600081359050612e6681614448565b92915050565b600081359050612e7b8161445f565b92915050565b600081519050612e908161445f565b92915050565b600082601f830112612ea757600080fd5b8135612eb7848260208601612db1565b91505092915050565b600082601f830112612ed157600080fd5b8135612ee1848260208601612def565b91505092915050565b600081359050612ef981614476565b92915050565b600060208284031215612f1157600080fd5b6000612f1f84828501612e2d565b91505092915050565b60008060408385031215612f3b57600080fd5b6000612f4985828601612e2d565b9250506020612f5a85828601612e2d565b9150509250929050565b600080600060608486031215612f7957600080fd5b6000612f8786828701612e2d565b9350506020612f9886828701612e2d565b9250506040612fa986828701612eea565b9150509250925092565b60008060008060808587031215612fc957600080fd5b6000612fd787828801612e2d565b9450506020612fe887828801612e2d565b9350506040612ff987828801612eea565b925050606085013567ffffffffffffffff81111561301657600080fd5b61302287828801612e96565b91505092959194509250565b6000806040838503121561304157600080fd5b600061304f85828601612e2d565b925050602061306085828601612e42565b9150509250929050565b6000806040838503121561307d57600080fd5b600061308b85828601612e2d565b925050602083013567ffffffffffffffff8111156130a857600080fd5b6130b485828601612ec0565b9150509250929050565b600080604083850312156130d157600080fd5b60006130df85828601612e2d565b92505060206130f085828601612eea565b9150509250929050565b60006020828403121561310c57600080fd5b600061311a84828501612e57565b91505092915050565b6000806040838503121561313657600080fd5b600061314485828601612e57565b925050602061315585828601612e2d565b9150509250929050565b60006020828403121561317157600080fd5b600061317f84828501612e6c565b91505092915050565b60006020828403121561319a57600080fd5b60006131a884828501612e81565b91505092915050565b6000806000606084860312156131c657600080fd5b600084013567ffffffffffffffff8111156131e057600080fd5b6131ec86828701612ec0565b935050602084013567ffffffffffffffff81111561320957600080fd5b61321586828701612ec0565b925050604084013567ffffffffffffffff81111561323257600080fd5b61323e86828701612ec0565b9150509250925092565b60006020828403121561325a57600080fd5b600061326884828501612eea565b91505092915050565b61327a816141b7565b82525050565b613289816141c9565b82525050565b613298816141d5565b82525050565b60006132a98261405f565b6132b38185614075565b93506132c3818560208601614244565b6132cc81614409565b840191505092915050565b60006132e28261406a565b6132ec8185614086565b93506132fc818560208601614244565b61330581614409565b840191505092915050565b600061331b8261406a565b6133258185614097565b9350613335818560208601614244565b80840191505092915050565b600061334e602083614086565b91507f537472696e67733a20686578206c656e67746820696e73756666696369656e746000830152602082019050919050565b600061338e602b83614086565b91507f455243373231456e756d657261626c653a206f776e657220696e646578206f7560008301527f74206f6620626f756e64730000000000000000000000000000000000000000006020830152604082019050919050565b60006133f4603283614086565b91507f4552433732313a207472616e7366657220746f206e6f6e20455243373231526560008301527f63656976657220696d706c656d656e74657200000000000000000000000000006020830152604082019050919050565b600061345a601c83614086565b91507f4552433732313a20746f6b656e20616c7265616479206d696e746564000000006000830152602082019050919050565b600061349a602483614086565b91507f4552433732313a207472616e7366657220746f20746865207a65726f2061646460008301527f72657373000000000000000000000000000000000000000000000000000000006020830152604082019050919050565b6000613500601983614086565b91507f4552433732313a20617070726f766520746f2063616c6c6572000000000000006000830152602082019050919050565b6000613540602c83614086565b91507f4552433732313a206f70657261746f7220717565727920666f72206e6f6e657860008301527f697374656e7420746f6b656e00000000000000000000000000000000000000006020830152604082019050919050565b60006135a6601083614086565b91507f5061757361626c653a20706175736564000000000000000000000000000000006000830152602082019050919050565b60006135e6603883614086565b91507f4552433732313a20617070726f76652063616c6c6572206973206e6f74206f7760008301527f6e6572206e6f7220617070726f76656420666f7220616c6c00000000000000006020830152604082019050919050565b600061364c602a83614086565b91507f4552433732313a2062616c616e636520717565727920666f7220746865207a6560008301527f726f2061646472657373000000000000000000000000000000000000000000006020830152604082019050919050565b60006136b2602983614086565b91507f4552433732313a206f776e657220717565727920666f72206e6f6e657869737460008301527f656e7420746f6b656e00000000000000000000000000000000000000000000006020830152604082019050919050565b6000613718602e83614086565b91507f45524337323155524953746f726167653a2055524920736574206f66206e6f6e60008301527f6578697374656e7420746f6b656e0000000000000000000000000000000000006020830152604082019050919050565b600061377e602e83614086565b91507f496e697469616c697a61626c653a20636f6e747261637420697320616c72656160008301527f647920696e697469616c697a65640000000000000000000000000000000000006020830152604082019050919050565b60006137e4602083614086565b91507f4552433732313a206d696e7420746f20746865207a65726f20616464726573736000830152602082019050919050565b6000613824603183614086565b91507f45524337323155524953746f726167653a2055524920717565727920666f722060008301527f6e6f6e6578697374656e7420746f6b656e0000000000000000000000000000006020830152604082019050919050565b600061388a602c83614086565b91507f4552433732313a20617070726f76656420717565727920666f72206e6f6e657860008301527f697374656e7420746f6b656e00000000000000000000000000000000000000006020830152604082019050919050565b60006138f0602983614086565b91507f4552433732313a207472616e73666572206f6620746f6b656e2074686174206960008301527f73206e6f74206f776e00000000000000000000000000000000000000000000006020830152604082019050919050565b6000613956602f83614086565b91507f4552433732314d657461646174613a2055524920717565727920666f72206e6f60008301527f6e6578697374656e7420746f6b656e00000000000000000000000000000000006020830152604082019050919050565b60006139bc602183614086565b91507f4552433732313a20617070726f76616c20746f2063757272656e74206f776e6560008301527f72000000000000000000000000000000000000000000000000000000000000006020830152604082019050919050565b6000613a22603183614086565b91507f4552433732313a207472616e736665722063616c6c6572206973206e6f74206f60008301527f776e6572206e6f7220617070726f7665640000000000000000000000000000006020830152604082019050919050565b6000613a88602c83614086565b91507f455243373231456e756d657261626c653a20676c6f62616c20696e646578206f60008301527f7574206f6620626f756e647300000000000000000000000000000000000000006020830152604082019050919050565b6000613aee601783614097565b91507f416363657373436f6e74726f6c3a206163636f756e74200000000000000000006000830152601782019050919050565b6000613b2e601183614097565b91507f206973206d697373696e6720726f6c65200000000000000000000000000000006000830152601182019050919050565b6000613b6e602f83614086565b91507f416363657373436f6e74726f6c3a2063616e206f6e6c792072656e6f756e636560008301527f20726f6c657320666f722073656c6600000000000000000000000000000000006020830152604082019050919050565b613bd08161422b565b82525050565b6000613be28285613310565b9150613bee8284613310565b91508190509392505050565b6000613c0582613ae1565b9150613c118285613310565b9150613c1c82613b21565b9150613c288284613310565b91508190509392505050565b6000602082019050613c496000830184613271565b92915050565b6000608082019050613c646000830187613271565b613c716020830186613271565b613c7e6040830185613bc7565b8181036060830152613c90818461329e565b905095945050505050565b6000602082019050613cb06000830184613280565b92915050565b6000602082019050613ccb600083018461328f565b92915050565b60006020820190508181036000830152613ceb81846132d7565b905092915050565b60006020820190508181036000830152613d0c81613341565b9050919050565b60006020820190508181036000830152613d2c81613381565b9050919050565b60006020820190508181036000830152613d4c816133e7565b9050919050565b60006020820190508181036000830152613d6c8161344d565b9050919050565b60006020820190508181036000830152613d8c8161348d565b9050919050565b60006020820190508181036000830152613dac816134f3565b9050919050565b60006020820190508181036000830152613dcc81613533565b9050919050565b60006020820190508181036000830152613dec81613599565b9050919050565b60006020820190508181036000830152613e0c816135d9565b9050919050565b60006020820190508181036000830152613e2c8161363f565b9050919050565b60006020820190508181036000830152613e4c816136a5565b9050919050565b60006020820190508181036000830152613e6c8161370b565b9050919050565b60006020820190508181036000830152613e8c81613771565b9050919050565b60006020820190508181036000830152613eac816137d7565b9050919050565b60006020820190508181036000830152613ecc81613817565b9050919050565b60006020820190508181036000830152613eec8161387d565b9050919050565b60006020820190508181036000830152613f0c816138e3565b9050919050565b60006020820190508181036000830152613f2c81613949565b9050919050565b60006020820190508181036000830152613f4c816139af565b9050919050565b60006020820190508181036000830152613f6c81613a15565b9050919050565b60006020820190508181036000830152613f8c81613a7b565b9050919050565b60006020820190508181036000830152613fac81613b61565b9050919050565b6000602082019050613fc86000830184613bc7565b92915050565b6000604051905081810181811067ffffffffffffffff82111715613ff557613ff46143da565b5b8060405250919050565b600067ffffffffffffffff82111561401a576140196143da565b5b601f19601f8301169050602081019050919050565b600067ffffffffffffffff82111561404a576140496143da565b5b601f19601f8301169050602081019050919050565b600081519050919050565b600081519050919050565b600082825260208201905092915050565b600082825260208201905092915050565b600081905092915050565b60006140ad8261422b565b91506140b88361422b565b9250827fffffffffffffffffffffffffffffffffffffffffffffffffffffffffffffffff038211156140ed576140ec61434d565b5b828201905092915050565b60006141038261422b565b915061410e8361422b565b92508261411e5761411d61437c565b5b828204905092915050565b60006141348261422b565b915061413f8361422b565b9250817fffffffffffffffffffffffffffffffffffffffffffffffffffffffffffffffff04831182151516156141785761417761434d565b5b828202905092915050565b600061418e8261422b565b91506141998361422b565b9250828210156141ac576141ab61434d565b5b828203905092915050565b60006141c28261420b565b9050919050565b60008115159050919050565b6000819050919050565b60007fffffffff0000000000000000000000000000000000000000000000000000000082169050919050565b600073ffffffffffffffffffffffffffffffffffffffff82169050919050565b6000819050919050565b82818337600083830152505050565b60005b83811015614262578082015181840152602081019050614247565b83811115614271576000848401525b50505050565b60006142828261422b565b915060008214156142965761429561434d565b5b600182039050919050565b600060028204905060018216806142b957607f821691505b602082108114156142cd576142cc6143ab565b5b50919050565b60006142de8261422b565b91507fffffffffffffffffffffffffffffffffffffffffffffffffffffffffffffffff8214156143115761431061434d565b5b600182019050919050565b60006143278261422b565b91506143328361422b565b9250826143425761434161437c565b5b828206905092915050565b7f4e487b7100000000000000000000000000000000000000000000000000000000600052601160045260246000fd5b7f4e487b7100000000000000000000000000000000000000000000000000000000600052601260045260246000fd5b7f4e487b7100000000000000000000000000000000000000000000000000000000600052602260045260246000fd5b7f4e487b7100000000000000000000000000000000000000000000000000000000600052604160045260246000fd5b6000601f19601f8301169050919050565b614423816141b7565b811461442e57600080fd5b50565b61443a816141c9565b811461444557600080fd5b50565b614451816141d5565b811461445c57600080fd5b50565b614468816141df565b811461447357600080fd5b50565b61447f8161422b565b811461448a57600080fd5b5056fea26469706673582212204df4d854f271f874a7677026fcb7aeea145a6311797f5a3de52c44b374efc74f64736f6c63430008000033",
  "immutableReferences": {},
  "source": "// SPDX-License-Identifier: MIT\r\n// https://docs.openzeppelin.com/contracts/4.x/wizard\r\npragma solidity ^0.8.0;\r\n\r\nimport \"@openzeppelin/contracts/utils/math/SafeMath.sol\";\r\nimport \"@openzeppelin/contracts-upgradeable/token/ERC721/ERC721Upgradeable.sol\";\r\n\r\nimport \"@openzeppelin/contracts-upgradeable/security/PausableUpgradeable.sol\";\r\nimport \"@openzeppelin/contracts-upgradeable/access/AccessControlUpgradeable.sol\";\r\n\r\nimport \"@openzeppelin/contracts-upgradeable/token/ERC721/extensions/ERC721URIStorageUpgradeable.sol\";\r\nimport \"@openzeppelin/contracts-upgradeable/token/ERC721/extensions/ERC721EnumerableUpgradeable.sol\";\r\n\r\n\r\ncontract Paru721 is ERC721Upgradeable, ERC721URIStorageUpgradeable, ERC721EnumerableUpgradeable, AccessControlUpgradeable, PausableUpgradeable {\r\n    using SafeMath for uint256;\r\n    bytes32 public constant BURNER_ROLE = keccak256(\"BURNER_ROLE\");\r\n    string private _baseUri;\r\n\r\n\r\n    function initialize(string memory _name, string memory _symbol, string memory _baseuri) external initializer {\r\n        __ERC721Enumerable_init_unchained();\r\n        __ERC721URIStorage_init_unchained();\r\n        __ERC721_init_unchained(_name, _symbol);\r\n        _setBaseURI(_baseuri); \r\n    }\r\n    \r\n    /**\r\n     * @dev Mints a token to an address with a tokenURI.\r\n     * @param _to address of the future owner of the token\r\n     */\r\n    function mintItem(address _to, string memory _uri) public {\r\n        uint256 newTokenId = _getNextTokenId();\r\n        _mint(_to, newTokenId);\r\n        _setTokenURI(newTokenId, _uri);\r\n\r\n        // approval\r\n    }\r\n\r\n    function _getNextTokenId() private view returns (uint256) {\r\n        return totalSupply().add(1);\r\n    }\r\n    \r\n    function _beforeTokenTransfer(address from, address to, uint256 tokenId) internal whenNotPaused override(ERC721EnumerableUpgradeable, ERC721Upgradeable){\r\n        super._beforeTokenTransfer(from, to, tokenId);\r\n    }\r\n\r\n    function _burn(uint256 tokenId) internal override(ERC721Upgradeable, ERC721URIStorageUpgradeable) {\r\n        require(hasRole(BURNER_ROLE, _msgSender()));\r\n        super._burn(tokenId);\r\n    }\r\n\r\n    function tokenURI(uint256 tokenId) public view override(ERC721Upgradeable, ERC721URIStorageUpgradeable) returns (string memory){\r\n        return super.tokenURI(tokenId);\r\n    }\r\n\r\n    function _setBaseURI(string memory _baseuri) internal virtual {\r\n        _baseUri = _baseuri;\r\n    }\r\n\r\n    function _baseURI() internal view virtual override returns (string memory) {\r\n        return _baseUri;\r\n    }\r\n\r\n    function supportsInterface(bytes4 interfaceId) public view override(ERC721Upgradeable, AccessControlUpgradeable, ERC721EnumerableUpgradeable)\r\n        returns (bool){\r\n        return super.supportsInterface(interfaceId);\r\n    }\r\n}",
  "sourcePath": "/Users/gost/Downloads/parula-backend/smartcontract/v1.0/contracts/Paru721.sol",
  "compiler": {
    "name": "solc",
    "version": "0.8.0+commit.c7dfd78e.Emscripten.clang"
  },
  "schemaVersion": "3.4.3",
  "updatedAt": "2021-11-18T10:33:14.152Z",
  "networkType": "ethereum",
  "devdoc": {
    "kind": "dev",
    "methods": {
      "approve(address,uint256)": {
        "details": "See {IERC721-approve}."
      },
      "balanceOf(address)": {
        "details": "See {IERC721-balanceOf}."
      },
      "getApproved(uint256)": {
        "details": "See {IERC721-getApproved}."
      },
      "getRoleAdmin(bytes32)": {
        "details": "Returns the admin role that controls `role`. See {grantRole} and {revokeRole}. To change a role's admin, use {_setRoleAdmin}."
      },
      "grantRole(bytes32,address)": {
        "details": "Grants `role` to `account`. If `account` had not been already granted `role`, emits a {RoleGranted} event. Requirements: - the caller must have ``role``'s admin role."
      },
      "hasRole(bytes32,address)": {
        "details": "Returns `true` if `account` has been granted `role`."
      },
      "isApprovedForAll(address,address)": {
        "details": "See {IERC721-isApprovedForAll}."
      },
      "mintItem(address,string)": {
        "details": "Mints a token to an address with a tokenURI.",
        "params": {
          "_to": "address of the future owner of the token"
        }
      },
      "name()": {
        "details": "See {IERC721Metadata-name}."
      },
      "ownerOf(uint256)": {
        "details": "See {IERC721-ownerOf}."
      },
      "paused()": {
        "details": "Returns true if the contract is paused, and false otherwise."
      },
      "renounceRole(bytes32,address)": {
        "details": "Revokes `role` from the calling account. Roles are often managed via {grantRole} and {revokeRole}: this function's purpose is to provide a mechanism for accounts to lose their privileges if they are compromised (such as when a trusted device is misplaced). If the calling account had been granted `role`, emits a {RoleRevoked} event. Requirements: - the caller must be `account`."
      },
      "revokeRole(bytes32,address)": {
        "details": "Revokes `role` from `account`. If `account` had been granted `role`, emits a {RoleRevoked} event. Requirements: - the caller must have ``role``'s admin role."
      },
      "safeTransferFrom(address,address,uint256)": {
        "details": "See {IERC721-safeTransferFrom}."
      },
      "safeTransferFrom(address,address,uint256,bytes)": {
        "details": "See {IERC721-safeTransferFrom}."
      },
      "setApprovalForAll(address,bool)": {
        "details": "See {IERC721-setApprovalForAll}."
      },
      "symbol()": {
        "details": "See {IERC721Metadata-symbol}."
      },
      "tokenByIndex(uint256)": {
        "details": "See {IERC721Enumerable-tokenByIndex}."
      },
      "tokenOfOwnerByIndex(address,uint256)": {
        "details": "See {IERC721Enumerable-tokenOfOwnerByIndex}."
      },
      "totalSupply()": {
        "details": "See {IERC721Enumerable-totalSupply}."
      },
      "transferFrom(address,address,uint256)": {
        "details": "See {IERC721-transferFrom}."
      }
    },
    "version": 1
  },
  "userdoc": {
    "kind": "user",
    "methods": {},
    "version": 1
  }
}