{
  "contractName": "RoyaltiesRegistryV2",
  "abi": [
    {
      "anonymous": false,
      "inputs": [
        {
          "indexed": true,
          "internalType": "address",
          "name": "previousOwner",
          "type": "address"
        },
        {
          "indexed": true,
          "internalType": "address",
          "name": "newOwner",
          "type": "address"
        }
      ],
      "name": "OwnershipTransferred",
      "type": "event"
    },
    {
      "anonymous": false,
      "inputs": [
        {
          "components": [
            {
              "internalType": "address payable",
              "name": "account",
              "type": "address"
            },
            {
              "internalType": "uint96",
              "name": "value",
              "type": "uint96"
            }
          ],
          "indexed": false,
          "internalType": "struct LibPart.Part[]",
          "name": "royalties",
          "type": "tuple[]"
        }
      ],
      "name": "getRoyaltiesTest",
      "type": "event"
    },
    {
      "inputs": [],
      "name": "owner",
      "outputs": [
        {
          "internalType": "address",
          "name": "",
          "type": "address"
        }
      ],
      "stateMutability": "view",
      "type": "function",
      "constant": true
    },
    {
      "inputs": [],
      "name": "renounceOwnership",
      "outputs": [],
      "stateMutability": "nonpayable",
      "type": "function"
    },
    {
      "inputs": [
        {
          "internalType": "address",
          "name": "",
          "type": "address"
        }
      ],
      "name": "royaltiesByToken",
      "outputs": [
        {
          "internalType": "bool",
          "name": "initialized",
          "type": "bool"
        }
      ],
      "stateMutability": "view",
      "type": "function",
      "constant": true
    },
    {
      "inputs": [
        {
          "internalType": "bytes32",
          "name": "",
          "type": "bytes32"
        }
      ],
      "name": "royaltiesByTokenAndTokenId",
      "outputs": [
        {
          "internalType": "bool",
          "name": "initialized",
          "type": "bool"
        }
      ],
      "stateMutability": "view",
      "type": "function",
      "constant": true
    },
    {
      "inputs": [
        {
          "internalType": "bytes32",
          "name": "",
          "type": "bytes32"
        }
      ],
      "name": "royaltiesOwner",
      "outputs": [
        {
          "internalType": "address",
          "name": "",
          "type": "address"
        }
      ],
      "stateMutability": "view",
      "type": "function",
      "constant": true
    },
    {
      "inputs": [
        {
          "internalType": "address",
          "name": "",
          "type": "address"
        }
      ],
      "name": "royaltiesProviders",
      "outputs": [
        {
          "internalType": "address",
          "name": "",
          "type": "address"
        }
      ],
      "stateMutability": "view",
      "type": "function",
      "constant": true
    },
    {
      "inputs": [
        {
          "internalType": "address",
          "name": "newOwner",
          "type": "address"
        }
      ],
      "name": "transferOwnership",
      "outputs": [],
      "stateMutability": "nonpayable",
      "type": "function"
    },
    {
      "inputs": [],
      "name": "__RoyaltiesRegistry_init",
      "outputs": [],
      "stateMutability": "nonpayable",
      "type": "function"
    },
    {
      "inputs": [
        {
          "internalType": "address",
          "name": "token",
          "type": "address"
        },
        {
          "internalType": "address",
          "name": "provider",
          "type": "address"
        }
      ],
      "name": "setProviderByToken",
      "outputs": [],
      "stateMutability": "nonpayable",
      "type": "function"
    },
    {
      "inputs": [
        {
          "internalType": "address",
          "name": "token",
          "type": "address"
        },
        {
          "components": [
            {
              "internalType": "address payable",
              "name": "account",
              "type": "address"
            },
            {
              "internalType": "uint96",
              "name": "value",
              "type": "uint96"
            }
          ],
          "internalType": "struct LibPart.Part[]",
          "name": "royalties",
          "type": "tuple[]"
        }
      ],
      "name": "setRoyaltiesByToken",
      "outputs": [],
      "stateMutability": "nonpayable",
      "type": "function"
    },
    {
      "inputs": [
        {
          "internalType": "address",
          "name": "token",
          "type": "address"
        },
        {
          "internalType": "uint256",
          "name": "tokenId",
          "type": "uint256"
        },
        {
          "components": [
            {
              "internalType": "address payable",
              "name": "account",
              "type": "address"
            },
            {
              "internalType": "uint96",
              "name": "value",
              "type": "uint96"
            }
          ],
          "internalType": "struct LibPart.Part[]",
          "name": "royalties",
          "type": "tuple[]"
        }
      ],
      "name": "setRoyaltiesByTokenAndTokenId",
      "outputs": [],
      "stateMutability": "nonpayable",
      "type": "function"
    },
    {
      "inputs": [
        {
          "internalType": "address",
          "name": "token",
          "type": "address"
        },
        {
          "internalType": "uint256",
          "name": "tokenId",
          "type": "uint256"
        },
        {
          "internalType": "address",
          "name": "newOwner",
          "type": "address"
        }
      ],
      "name": "transferRoyaltiesOwnership",
      "outputs": [],
      "stateMutability": "nonpayable",
      "type": "function"
    },
    {
      "inputs": [
        {
          "internalType": "address",
          "name": "token",
          "type": "address"
        },
        {
          "internalType": "uint256",
          "name": "tokenId",
          "type": "uint256"
        }
      ],
      "name": "getRoyaltiesOwner",
      "outputs": [
        {
          "internalType": "address",
          "name": "",
          "type": "address"
        }
      ],
      "stateMutability": "view",
      "type": "function",
      "constant": true
    },
    {
      "inputs": [
        {
          "internalType": "address",
          "name": "token",
          "type": "address"
        },
        {
          "internalType": "uint256",
          "name": "tokenId",
          "type": "uint256"
        }
      ],
      "name": "getRoyalties",
      "outputs": [
        {
          "components": [
            {
              "internalType": "address payable",
              "name": "account",
              "type": "address"
            },
            {
              "internalType": "uint96",
              "name": "value",
              "type": "uint96"
            }
          ],
          "internalType": "struct LibPart.Part[]",
          "name": "",
          "type": "tuple[]"
        }
      ],
      "stateMutability": "nonpayable",
      "type": "function"
    }
  ],
  "bytecode": "0x608060405234801561001057600080fd5b50611cd4806100206000396000f3fe608060405234801561001057600080fd5b50600436106100ea5760003560e01c8063acf14efb1161008c578063d1da3cce11610066578063d1da3cce146101be578063d836f013146101d1578063f2fde38b146101e4578063f39cc706146101f7576100ea565b8063acf14efb14610185578063c652885f14610198578063cab8ffed146101ab576100ea565b80636dade632116100c85780636dade63214610142578063715018a6146101555780638da5cb5b1461015d5780639ca7dc7a14610165576100ea565b806305df952f146100ef57806327fff8ab1461011857806346da7fdf14610122575b600080fd5b6101026100fd3660046114dd565b61020a565b60405161010f9190611922565b60405180910390f35b61012061021f565b005b61013561013036600461187c565b6102c9565b60405161010f9190611894565b6101356101503660046115a2565b6102e4565b610120610332565b6101356103f0565b6101786101733660046115a2565b6103ff565b60405161010f91906118c1565b610120610193366004611554565b6105d4565b6101206101a636600461160e565b610789565b6101206101b93660046115cd565b6108c2565b6101026101cc36600461187c565b610928565b6101206101df36600461151c565b61093d565b6101206101f23660046114dd565b610974565b6101356102053660046114dd565b610a89565b60666020526000908152604090205460ff1681565b600054610100900460ff16806102385750610238610aa4565b80610246575060005460ff16155b6102815760405162461bcd60e51b815260040180806020018281038252602e815260200180611c71602e913960400191505060405180910390fd5b600054610100900460ff161580156102ac576000805460ff1961ff0019909116610100171660011790555b6102b4610ab5565b80156102c6576000805461ff00191690555b50565b6096602052600090815260409020546001600160a01b031681565b60008083836040516020016102fa9291906118a8565b60408051601f198184030181529181528151602092830120600090815260969092529020546001600160a01b03169150505b92915050565b61033a610bae565b6001600160a01b031661034b6103f0565b6001600160a01b0316146103a6576040805162461bcd60e51b815260206004820181905260248201527f4f776e61626c653a2063616c6c6572206973206e6f7420746865206f776e6572604482015290519081900360640190fd5b6033546040516000916001600160a01b0316907f8be0079c531659141344cd1fd0a4f28419497f9722a3daafe3b4186f6b6457e0908390a3603380546001600160a01b0319169055565b6033546001600160a01b031690565b6060600060656000858560405160200161041a9291906118a8565b60408051601f198184030181529181528151602092830120835282820193909352908201600090812083518085018552815460ff161515815260018201805486518187028101870190975280875291959294868101949192919084015b828210156104c657600084815260209081902060408051808201909152908401546001600160a01b0381168252600160a01b90046001600160601b031681830152825260019092019101610477565b505050915250508051909150156104e25760200151905061032c565b6001600160a01b038416600090815260666020908152604080832081518083018352815460ff16151581526001820180548451818702810187019095528085529195929486810194939192919084015b8282101561058157600084815260209081902060408051808201909152908401546001600160a01b0381168252600160a01b90046001600160601b031681830152825260019092019101610532565b5050509152505080519091501561059d5760200151905061032c565b6000806105a986610bb2565b9092509050816105c0576105bd8686610c70565b90505b6105cb86868361102b565b95945050505050565b6105dd8261120a565b6000805b82518110156107415760006001600160a01b031683828151811061060157fe5b6020026020010151600001516001600160a01b0316141561063d5760405162461bcd60e51b815260040161063490611942565b60405180910390fd5b82818151811061064957fe5b6020026020010151602001516001600160601b03166000141561067e5760405162461bcd60e51b81526004016106349061198e565b60666000856001600160a01b03166001600160a01b031681526020019081526020016000206001018382815181106106b257fe5b602090810291909101810151825460018101845560009384529282902081519301805491909201516001600160601b0316600160a01b026001600160a01b039384166001600160a01b031990921691909117909216919091179055825183908290811061071b57fe5b6020026020010151602001516001600160601b03168201915080806001019150506105e1565b5061271081106107635760405162461bcd60e51b8152600401610634906119da565b50506001600160a01b03166000908152606660205260409020805460ff19166001179055565b6000838360405160200161079e9291906118a8565b60408051601f1981840301815282825280516020918201206000818152606583528381208585018552805460ff161515865260018101805486518187028101870190975280875293975091959490938581019391929190879084015b8282101561084957600084815260209081902060408051808201909152908401546001600160a01b0381168252600160a01b90046001600160601b0316818301528252600190920191016107fa565b5050509152505080519091506108a75761086385856112e0565b61086e85858561102b565b610876610bae565b600083815260966020526040902080546001600160a01b0319166001600160a01b03929092169190911790556108bb565b6108b082611397565b6108bb85858561102b565b5050505050565b600083836040516020016108d79291906118a8565b6040516020818303038152906040528051906020012090506108f881611397565b600090815260966020526040902080546001600160a01b0319166001600160a01b03929092169190911790555050565b60656020526000908152604090205460ff1681565b6109468261120a565b6001600160a01b03918216600090815260676020526040902080546001600160a01b03191691909216179055565b61097c610bae565b6001600160a01b031661098d6103f0565b6001600160a01b0316146109e8576040805162461bcd60e51b815260206004820181905260248201527f4f776e61626c653a2063616c6c6572206973206e6f7420746865206f776e6572604482015290519081900360640190fd5b6001600160a01b038116610a2d5760405162461bcd60e51b8152600401808060200182810382526026815260200180611c4b6026913960400191505060405180910390fd5b6033546040516001600160a01b038084169216907f8be0079c531659141344cd1fd0a4f28419497f9722a3daafe3b4186f6b6457e090600090a3603380546001600160a01b0319166001600160a01b0392909216919091179055565b6067602052600090815260409020546001600160a01b031681565b6000610aaf306113d8565b15905090565b600054610100900460ff1680610ace5750610ace610aa4565b80610adc575060005460ff16155b610b175760405162461bcd60e51b815260040180806020018281038252602e815260200180611c71602e913960400191505060405180910390fd5b600054610100900460ff16158015610b42576000805460ff1961ff0019909116610100171660011790555b6000610b4c610bae565b603380546001600160a01b0319166001600160a01b038316908117909155604051919250906000907f8be0079c531659141344cd1fd0a4f28419497f9722a3daafe3b4186f6b6457e0908290a35080156102c6576000805461ff001916905550565b3390565b6001600160a01b038082166000908152606760205260408120549091606091168015610c6a57604051634e53ee3d60e11b815281906001600160a01b03821690639ca7dc7a90610c099088906000906004016118a8565b600060405180830381600087803b158015610c2357600080fd5b505af1925050508015610c5857506040513d6000823e601f3d908101601f19168201604052610c5591908101906116fe565b60015b610c6157610c68565b6001945092505b505b50915091565b6040516301ffc9a760e01b81526060906001600160a01b038416906301ffc9a790610ca690631131d2f360e21b9060040161192d565b60206040518083038186803b158015610cbe57600080fd5b505afa158015610cd2573d6000803e3d6000fd5b505050506040513d601f19601f82011682018060405250810190610cf6919061185c565b15610d8e57604051635d9dd7eb60e11b815283906001600160a01b0382169063bb3bafd690610d29908690600401611bd5565b60006040518083038186803b158015610d4157600080fd5b505afa925050508015610d7657506040513d6000823e601f3d908101601f19168201604052610d7391908101906116fe565b60015b610d7f57610d88565b915061032c9050565b5061032c565b6040516301ffc9a760e01b81526001600160a01b038416906301ffc9a790610dc190632dde656160e21b9060040161192d565b60206040518083038186803b158015610dd957600080fd5b505afa158015610ded573d6000803e3d6000fd5b505050506040513d601f19601f82011682018060405250810190610e11919061185c565b1561032c5760405163b9c4d9fb60e01b815283906060906001600160a01b0383169063b9c4d9fb90610e47908790600401611bd5565b60006040518083038186803b158015610e5f57600080fd5b505afa925050508015610e9457506040513d6000823e601f3d908101601f19168201604052610e919190810190611665565b60015b610e9f57505061032c565b9050604051630ebd4c7f60e01b81526060906001600160a01b03841690630ebd4c7f90610ed0908890600401611bd5565b60006040518083038186803b158015610ee857600080fd5b505afa925050508015610f1d57506040513d6000823e601f3d908101601f19168201604052610f1a91908101906117d8565b60015b610f295750505061032c565b90508151815114610f3c5750505061032c565b805167ffffffffffffffff81118015610f5457600080fd5b50604051908082528060200260200182016040528015610f8e57816020015b610f7b6113de565b815260200190600190039081610f735790505b50935060005b815181101561102157818181518110610fa957fe5b6020026020010151858281518110610fbd57fe5b6020026020010151602001906001600160601b031690816001600160601b031681525050828181518110610fed57fe5b602002602001015185828151811061100157fe5b60209081029190910101516001600160a01b039091169052600101610f94565b5050505092915050565b60008084846040516020016110419291906118a8565b60408051601f19818403018152918152815160209283012060008181526065909352908220805460ff191681559092509061107f60018301826113f5565b505060005b83518110156111c95760006001600160a01b03168482815181106110a457fe5b6020026020010151600001516001600160a01b031614156110d75760405162461bcd60e51b815260040161063490611b7f565b8381815181106110e357fe5b6020026020010151602001516001600160601b0316600014156111185760405162461bcd60e51b815260040161063490611ae8565b6065600083815260200190815260200160002060010184828151811061113a57fe5b602090810291909101810151825460018101845560009384529282902081519301805491909201516001600160601b0316600160a01b026001600160a01b039384166001600160a01b03199092169190911790921691909117905583518490829081106111a357fe5b6020026020010151602001516001600160601b0316830192508080600101915050611084565b5061271082106111eb5760405162461bcd60e51b815260040161063490611a24565b6000908152606560205260409020805460ff1916600117905550505050565b611212610bae565b6001600160a01b03166112236103f0565b6001600160a01b0316141580156112c3575061123d610bae565b6001600160a01b0316816001600160a01b0316638da5cb5b6040518163ffffffff1660e01b815260040160206040518083038186803b15801561127f57600080fd5b505afa158015611293573d6000803e3d6000fd5b505050506040513d601f19601f820116820180604052508101906112b79190611500565b6001600160a01b031614155b156102c65760405162461bcd60e51b815260040161063490611ab1565b6112e8610bae565b6001600160a01b0316826001600160a01b0316636352211e836040518263ffffffff1660e01b815260040161131d9190611bd5565b60206040518083038186803b15801561133557600080fd5b505afa158015611349573d6000803e3d6000fd5b505050506040513d601f19601f8201168201806040525081019061136d9190611500565b6001600160a01b0316146113935760405162461bcd60e51b815260040161063490611a7a565b5050565b61139f610bae565b6000828152609660205260409020546001600160a01b039081169116146102c65760405162461bcd60e51b815260040161063490611b3e565b3b151590565b604080518082019091526000808252602082015290565b50805460008255906000526020600020908101906102c691905b80821115611423576000815560010161140f565b5090565b600082601f830112611437578081fd5b8135602061144c61144783611c02565b611bde565b8281528181019085830160408086028801850189101561146a578687fd5b865b868110156114cf5781838b031215611482578788fd5b815182810181811067ffffffffffffffff8211171561149d57fe5b835283356114aa81611c20565b8152838701356114b981611c35565b818801528552938501939181019160010161146c565b509198975050505050505050565b6000602082840312156114ee578081fd5b81356114f981611c20565b9392505050565b600060208284031215611511578081fd5b81516114f981611c20565b6000806040838503121561152e578081fd5b823561153981611c20565b9150602083013561154981611c20565b809150509250929050565b60008060408385031215611566578182fd5b823561157181611c20565b9150602083013567ffffffffffffffff81111561158c578182fd5b61159885828601611427565b9150509250929050565b600080604083850312156115b4578182fd5b82356115bf81611c20565b946020939093013593505050565b6000806000606084860312156115e1578081fd5b83356115ec81611c20565b925060208401359150604084013561160381611c20565b809150509250925092565b600080600060608486031215611622578081fd5b833561162d81611c20565b925060208401359150604084013567ffffffffffffffff81111561164f578182fd5b61165b86828701611427565b9150509250925092565b60006020808385031215611677578182fd5b825167ffffffffffffffff81111561168d578283fd5b8301601f8101851361169d578283fd5b80516116ab61144782611c02565b81815283810190838501858402850186018910156116c7578687fd5b8694505b838510156116f25780516116de81611c20565b8352600194909401939185019185016116cb565b50979650505050505050565b60006020808385031215611710578182fd5b825167ffffffffffffffff80821115611727578384fd5b818501915085601f83011261173a578384fd5b815161174861144782611c02565b818152848101908486016040808502870188018b1015611766578889fd5b8896505b848710156117c95780828c031215611780578889fd5b8051818101818110888211171561179357fe5b825282516117a081611c20565b8152828901516117af81611c35565b818a0152845260019690960195928701929081019061176a565b50909998505050505050505050565b600060208083850312156117ea578182fd5b825167ffffffffffffffff811115611800578283fd5b8301601f81018513611810578283fd5b805161181e61144782611c02565b818152838101908385018584028501860189101561183a578687fd5b8694505b838510156116f257805183526001949094019391850191850161183e565b60006020828403121561186d578081fd5b815180151581146114f9578182fd5b60006020828403121561188d578081fd5b5035919050565b6001600160a01b0391909116815260200190565b6001600160a01b03929092168252602082015260400190565b602080825282518282018190526000919060409081850190868401855b8281101561191557815180516001600160a01b031685528601516001600160601b03168685015292840192908501906001016118de565b5091979650505050505050565b901515815260200190565b6001600160e01b031991909116815260200190565b6020808252602c908201527f526f79616c746965734279546f6b656e20726563697069656e742073686f756c60408201526b19081899481c1c995cd95b9d60a21b606082015260800190565b6020808252602c908201527f4665652076616c756520666f7220526f79616c746965734279546f6b656e207360408201526b0686f756c64206265203e20360a41b606082015260800190565b6020808252602a908201527f53657420627920746f6b656e20726f79616c746965732073756d206d6f72652c604082015269207468616e203130302560b01b606082015260800190565b60208082526036908201527f53657420627920746f6b656e20616e6420746f6b656e496420726f79616c746960408201527565732073756d206d6f72652c207468616e203130302560501b606082015260800190565b6020808252601d908201527f6d73672e73656e646572206973206e6f7420746f6b656e206f776e6572000000604082015260600190565b60208082526018908201527f546f6b656e206f776e6572206e6f742064657465637465640000000000000000604082015260600190565b60208082526036908201527f4665652076616c756520666f7220526f79616c746965734279546f6b656e416e604082015275064546f6b656e49642073686f756c64206265203e20360541b606082015260800190565b60208082526021908201527f6d73672e73656e646572206973206e6f7420726f79616c74696573206f776e656040820152603960f91b606082015260800190565b60208082526036908201527f526f79616c746965734279546f6b656e416e64546f6b656e49642072656369706040820152751a595b9d081cda1bdd5b19081899481c1c995cd95b9d60521b606082015260800190565b90815260200190565b60405181810167ffffffffffffffff81118282101715611bfa57fe5b604052919050565b600067ffffffffffffffff821115611c1657fe5b5060209081020190565b6001600160a01b03811681146102c657600080fd5b6001600160601b03811681146102c657600080fdfe4f776e61626c653a206e6577206f776e657220697320746865207a65726f2061646472657373496e697469616c697a61626c653a20636f6e747261637420697320616c726561647920696e697469616c697a6564a2646970667358221220260009ba9853b37f38de6855d689bb332f86a421b531ad6747cdfed50a14049564736f6c63430007060033",
  "immutableReferences": {},
  "source": "// SPDX-License-Identifier: MIT\n\npragma solidity >=0.6.2 <0.8.0;\npragma abicoder v2;\n\nimport \"@rarible/royalties/contracts/IRoyaltiesProvider.sol\";\nimport \"@rarible/royalties/contracts/LibRoyaltiesV2.sol\";\nimport \"@rarible/royalties/contracts/LibRoyaltiesV1.sol\";\nimport \"@rarible/royalties/contracts/impl/RoyaltiesV1Impl.sol\";\nimport \"@rarible/royalties/contracts/impl/RoyaltiesV2Impl.sol\";\nimport \"@openzeppelin/contracts-upgradeable/token/ERC721/IERC721Upgradeable.sol\";\nimport \"@openzeppelin/contracts-upgradeable/access/OwnableUpgradeable.sol\";\n\ncontract RoyaltiesRegistryV2 is IRoyaltiesProvider, OwnableUpgradeable {\n\n\tstruct RoyaltiesSet {\n\t\tbool initialized;\n\t\tLibPart.Part[] royalties;\n\t}\n\n\tmapping(bytes32 => RoyaltiesSet) public royaltiesByTokenAndTokenId;\n\tmapping(address => RoyaltiesSet) public royaltiesByToken;\n\tmapping(address => address) public royaltiesProviders;\n\n\n\tfunction __RoyaltiesRegistry_init() external initializer {\n\t\t__Ownable_init_unchained();\n\t}\n\n\tfunction setProviderByToken(address token, address provider) external {\n\t\tcheckOwner(token);\n\t\troyaltiesProviders[token] = provider;\n\t}\n\n\tfunction setRoyaltiesByToken(address token, LibPart.Part[] memory royalties) external {\n\t\tcheckOwner(token);\n\t\tuint sumRoyalties = 0;\n\t\tfor (uint i = 0; i < royalties.length; i++) {\n\t\t\trequire(royalties[i].account != address(0x0), \"RoyaltiesByToken recipient should be present\");\n\t\t\trequire(royalties[i].value != 0, \"Fee value for RoyaltiesByToken should be > 0\");\n\t\t\troyaltiesByToken[token].royalties.push(royalties[i]);\n\t\t\tsumRoyalties += royalties[i].value;\n\t\t}\n\t\trequire(sumRoyalties < 10000, \"Set by token royalties sum more, than 100%\");\n\t\troyaltiesByToken[token].initialized = true;\n\t}\n\n\tfunction setRoyaltiesByTokenAndTokenId(address token, uint tokenId, LibPart.Part[] memory royalties) external {\n\t\t// royalty initialized /    ( )\n\t\tbytes32 key = keccak256(abi.encode(token, tokenId));\n\t\tRoyaltiesSet memory royaltiesSet = royaltiesByTokenAndTokenId[key];\n\t\tif (!royaltiesSet.initialized) {\n\t\t\t// royalties   tokenOwner  , erc721.ownerOf .\n\t\t\tcheckTokenOwner(token, tokenId);\n\t\t\tsetRoyaltiesCacheByTokenAndTokenId(token, tokenId, royalties);\n\t\t\troyaltiesOwner[key] = _msgSender(); // royalties owner \n\t\t}else{\n\t\t\t// royalties   (   ) royaltiesOwner  .\n\t\t\tcheckRoyaltiesOwner(key);\n\t\t\tsetRoyaltiesCacheByTokenAndTokenId(token, tokenId, royalties);\n\t\t}\n\t}\n\n\tfunction checkOwner(address token) internal view { // owner tokenOwner  ???\n\t\tif ((owner() != _msgSender()) && (OwnableUpgradeable(token).owner() != _msgSender())){\n\t\t\trevert(\"Token owner not detected\");\n\t\t}\n\t}\n\n\tfunction checkTokenOwner(address token, uint tokenId) internal view { // tokenOwner, royaltyOwner\n\t\tif (IERC721Upgradeable(token).ownerOf(tokenId) != _msgSender()){\n\t\t\trevert(\"msg.sender is not token owner\");\n\t\t}\n\t}\n\n\tfunction checkRoyaltiesOwner(bytes32 key) internal view {\n\t\t// bytes32 key = keccak256(abi.encode(token, tokenId));\n\t\tif (royaltiesOwner[key] != _msgSender()){\n\t\t\trevert(\"msg.sender is not royalties owner\");\n\t\t}\n\t}\n\n\tfunction transferRoyaltiesOwnership(address token, uint tokenId, address newOwner) external {\n\t\tbytes32 key = keccak256(abi.encode(token, tokenId));\n\t\tcheckRoyaltiesOwner(key);\n\t\troyaltiesOwner[key] = newOwner; // TODO: test\n\t}\n\n\tfunction getRoyaltiesOwner(address token, uint tokenId) external view returns (address){\n\t\tbytes32 key = keccak256(abi.encode(token, tokenId));\n\t\treturn royaltiesOwner[key];\n\t}\n\n\tevent getRoyaltiesTest(LibPart.Part[] royalties);\n\n\tfunction getRoyalties(address token, uint tokenId) override external returns (LibPart.Part[] memory) {\n\t\tRoyaltiesSet memory royaltiesSet = royaltiesByTokenAndTokenId[keccak256(abi.encode(token, tokenId))];\n\t\tif (royaltiesSet.initialized) {\n\t\t\treturn royaltiesSet.royalties;\n\t\t}\n\t\troyaltiesSet = royaltiesByToken[token];\n\t\tif (royaltiesSet.initialized) {\n\t\t\treturn royaltiesSet.royalties;\n\t\t}\n\n\t\t(bool result, LibPart.Part[] memory resultRoyalties) = providerExtractor(token);\n\t\tif (result == false) {\n\t\t\tresultRoyalties = royaltiesFromContract(token, tokenId);\n\t\t}\n\n\t\tsetRoyaltiesCacheByTokenAndTokenId(token, tokenId, resultRoyalties);\n\t\treturn resultRoyalties;\n\t}\n\n\tfunction setRoyaltiesCacheByTokenAndTokenId(address token, uint tokenId, LibPart.Part[] memory royalties) internal {\n\t\tuint sumRoyalties = 0;\n\t\tbytes32 key = keccak256(abi.encode(token, tokenId));\n\t\tdelete royaltiesByTokenAndTokenId[key];\n\t\tfor (uint i = 0; i < royalties.length; i++) {\n\t\t\trequire(royalties[i].account != address(0x0), \"RoyaltiesByTokenAndTokenId recipient should be present\");\n\t\t\trequire(royalties[i].value != 0, \"Fee value for RoyaltiesByTokenAndTokenId should be > 0\");\n\t\t\troyaltiesByTokenAndTokenId[key].royalties.push(royalties[i]);\n\t\t\tsumRoyalties += royalties[i].value;\n\t\t}\n\t\trequire(sumRoyalties < 10000, \"Set by token and tokenId royalties sum more, than 100%\");\n\t\troyaltiesByTokenAndTokenId[key].initialized = true;\n\t}\n\n\tfunction royaltiesFromContract(address token, uint tokenId) internal view returns (LibPart.Part[] memory feesRecipients) {\n\t\tif (IERC165Upgradeable(token).supportsInterface(LibRoyaltiesV2._INTERFACE_ID_ROYALTIES)) {\n\t\t\tRoyaltiesV2Impl withFees = RoyaltiesV2Impl(token);\n\t\t\ttry withFees.getRoyalties(tokenId) returns (LibPart.Part[] memory feesRecipientsResult) {\n\t\t\t\treturn feesRecipientsResult;\n\t\t\t} catch {}\n\t\t} else if (IERC165Upgradeable(token).supportsInterface(LibRoyaltiesV1._INTERFACE_ID_FEES)) {\n\t\t\tRoyaltiesV1Impl withFees = RoyaltiesV1Impl(token);\n\t\t\taddress payable[] memory recipients;\n\t\t\ttry withFees.getFeeRecipients(tokenId) returns (address payable[] memory recipientsResult) {\n\t\t\t\trecipients = recipientsResult;\n\t\t\t} catch {\n\t\t\t\treturn feesRecipients;\n\t\t\t}\n\t\t\tuint[] memory fees;\n\t\t\ttry withFees.getFeeBps(tokenId) returns (uint[] memory feesResult) {\n\t\t\t\tfees = feesResult;\n\t\t\t} catch {\n\t\t\t\treturn feesRecipients;\n\t\t\t}\n\t\t\tif (fees.length != recipients.length) {\n\t\t\t\treturn feesRecipients;\n\t\t\t}\n\t\t\tfeesRecipients = new LibPart.Part[](fees.length);\n\t\t\tfor (uint256 i = 0; i < fees.length; i++) {\n\t\t\t\tfeesRecipients[i].value = uint96(fees[i]);\n\t\t\t\tfeesRecipients[i].account = recipients[i];\n\t\t\t}\n\t\t}\n\t\treturn feesRecipients;\n\t}\n\n\tfunction providerExtractor(address token) internal returns (bool result, LibPart.Part[] memory royalties) {\n\t\taddress provider = royaltiesProviders[token];\n\t\tif (provider != address(0x0)) {\n\t\t\tIRoyaltiesProvider withRoyalties = IRoyaltiesProvider(provider);\n\t\t\ttry withRoyalties.getRoyalties(token, 0x0) returns (LibPart.Part[] memory royaltiesByProvider) {\n\t\t\t\troyalties = royaltiesByProvider;\n\t\t\t\tresult = true;\n\t\t\t} catch { }\n\t\t}\n\t}\n\n\tuint256[46] private __gap;\n\t// New variables should be placed after all existing inherited variables\n\tmapping(bytes32 => address) public royaltiesOwner; // operator\n}\n",
  "sourcePath": "/Users/chang-younglee/harbor/parula-backend/smartcontract/v1.0/protocol-contracts/royalties-registry/contracts/RoyaltiesRegistryV2.sol",
  "compiler": {
    "name": "solc",
    "version": "0.7.6+commit.7338295f.Emscripten.clang"
  },
  "schemaVersion": "3.4.0",
  "updatedAt": "2021-07-05T02:54:55.565Z",
  "networkType": "ethereum",
  "devdoc": {
    "kind": "dev",
    "methods": {
      "owner()": {
        "details": "Returns the address of the current owner."
      },
      "renounceOwnership()": {
        "details": "Leaves the contract without owner. It will not be possible to call `onlyOwner` functions anymore. Can only be called by the current owner. NOTE: Renouncing ownership will leave the contract without an owner, thereby removing any functionality that is only available to the owner."
      },
      "transferOwnership(address)": {
        "details": "Transfers ownership of the contract to a new account (`newOwner`). Can only be called by the current owner."
      }
    },
    "version": 1
  },
  "userdoc": {
    "kind": "user",
    "methods": {},
    "version": 1
  }
}